:01040000FFFC
:0300000002D3E246
:06D3E20075812002D42336
:10C175000075CEA575CF5A0075CEA575CF5A00C2EC
:10C18500AF12ED34D2AF0075CEA575CF5A0075CE7E
:10C19500A575CF5A0012F283EF6401707C75CEA5A8
:10C1A50075CF5A0075CEA575CF5A00900719E0FFD7
:10C1B50030E00654FEF012EFE5128A20900719E0F0
:10C1C500FF30E10654FDF012928C90063FE06401C9
:10C1D5006007900640E0B4010312B6BD900633E057
:10C1E50064017024F012B5E675CEA575CF5A0075B9
:10C1F500CEA575CF5A007D017F0112BC5C7FFF1271
:10C20500EF709006417403F0128A2075CEA575CFA4
:0FC215005A0075CEA575CF5A00128A2002C18C2F
:10E0650000100044443031412D5633302E30391ED6
:10E075001E26002000111111111111FFFFFFFFFFD6
:10E08500FFFFFFFFFF11111111111100000000002A
:10E0950000000000000000000000005A0000000021
:10E0A5001C0000000000000000000F0101FFFFFF41
:10E0B500FFFFFFFFFF001234560000006534120019
:01E0C500005A
:10DA8300E4900719F0A3F090071D7403F0E49007E6
:10DA930030F07B017A0779229001D6F0A304F0A33A
:10DAA30004F07D997C0012CF7A7B017A0779239069
:10DAB30001D6E4F0A37402F0A3F07D9F7C0012CFA3
:10DAC3007A7B017A0779259001D6E4F0A37402F0FA
:10DAD300A3F07DA17C0012CF7A7B017A07792C9089
:10DAE30001D6E4F0A37404F0A37402F07DC17C00BA
:03DAF30002CF7AE5
:10DCB30000020000003E0102003E002F1402006D2E
:10DCC3000052150200BF00101B02011B001A1902AB
:10DCD30000CF0009460200D8003A150200BF001029
:10DCE30052020135001A5302014F001E5402016D06
:10DCF30000621A020112000965020800007166023F
:10DD030008710071670208E200716802095300712B
:0CDD1300690209C400716A020A3500713F
:10BB9500900012E0FEA3E0FF900016E0FCA3E0FD9C
:02BBA5007B0221
:10BBA700900189EEF0A3EFF0A3ECF0A3EDF0A3EB87
:01BBB700F09D
:10BBB8009001CF74A5F0A3745AF090018BE0FEA316
:10BBC800E0FFD39400EE9400500302BC53EF94407E
:10BBD800EE940090018E40057440F08002EFF07BF7
:10BBE800017A01798F900189E0FCA3E0FD90018E34
:10BBF800E0FF9001D6E4F0A3EFF090018DE0900112
:10BC0800D8F012CF7A7B017A01798F90018EE0FD0E
:10BC18007C00E49001D6F0A3F012ED969001D0E0FC
:10BC28002FF09001CFE03EF090018EE0FF7E009073
:10BC3800018AE02FF0900189E03EF0C390018CE08A
:10BC48009FF090018BE09EF002BBC29001CFE0FE16
:03BC5800A3E0FF67
:01BC5B0022C6
:08D09700900189EEF0A3EFF017
:10D09F00E4FFEF75F006A424B4F582E434DCF583E5
:10D0AF00E4936D7068ED640260037FFF22EF75F00B
:10D0BF0006A424B5F582E434DCF583E493FB740114
:10D0CF009390018BCBF0A3EBF0EF75F006A424B790
:10D0DF00F582E434DCF583740193F990018BE0FA67
:10D0EF00A3E0FBC390018AE09B900189E09A401D69
:10D0FF00E9FB90018CE02BFB90018BE03400FAC32D
:10D10F0090018AE09B900189E09A5001220FEF6411
:08D11F0012600302D0A17FFFA2
:01D1270022E5
:10AEDA00900012E0FCA3E0FD2400FFEC3404FE9095
:10AEEA000017E02402FB900016E03400FA900020DC
:03AEFA007422F0CF
:10AEFD0090001AEEF0A3EFF0A3ECF0A3EDF0A3EAAF
:04AF0D00F0A3EBF0D2
:10AF110090001EE0FEA3E0FFD39400EE94005003E6
:10AF210002AFC8D3EF9440EE9400900061400574E5
:10AF310040F08002EFF07B017A00792190001CE063
:10AF4100FCA3E0FD900061E0FF9001D6E4F0A3EFE7
:10AF5100F0900020E0FFC4540F9001D8F012CF7A96
:10AF610075CEA575CF5A0075CEA575CF5A007B0158
:10AF71007A007921900061E0FD90018EE4F0A3ED6B
:10AF8100F0900020E0540F900190F090001AE0FE44
:10AF9100A3E0FF12CBFD900061E0FFFD7C0090007B
:10AFA1001BE02DF090001AE03CF090001DE02DF028
:10AFB10090001CE03CF0C390001FE09FF090001E49
:07AFC100E09400F002AF1163
:01AFC8002266
:10C8C80090007AEEF0A3EFF0A3ECF0A3EDF0AF0345
:10C8D8007B017A007980AD0790017BE4F0A3744076
:10C8E800F012EEA590007CE0FEA3E0FFD39400EEEA
:10C8F80094004069D3EF9440EE94009000C0400546
:10C908007440F08002EFF090007AE0FEA3E0FF7B35
:10C91800017A0079809000C0E0FD90018EE4F0A3D8
:10C92800EDF090007FE0900190F012CBFD75CEA560
:10C9380075CF5A0075CEA575CF5A009000C0E0FF9C
:10C948007E0090007BE02FF090007AE03EF0C390EC
:0DC95800007DE09FF090007CE09EF0808765
:01C9650022AF
:0BCF6F009001D6E4F0A37402F0A3F0E0
:10CF7A009001D1EBF0A3EAF0A3E9F0A3ECF0A3ED62
:01CF8A00F0B6
:10CF8B009001D8E024FE604B0470699001D4E0FE60
:10CF9B00A3E0AA06F99001D97401F0A3EAF0A3E982
:10CFAB00F09001D9E0F9A3E0FAA3E09001DFC9F01A
:10CFBB00A3EAF0A3E9F09001D6E0FFA3E09001E231
:10CFCB00CFF0A3EFF09001D1E0FBA3E0FAA3E0F9DF
:10CFDB0002E1259001D1E0FBA3E0FAA3E0F9A3E085
:10CFEB00FCA3E0FDA3E0FFA3E09001E1CFF0A3EFF2
:07CFFB00F002C78812F36089
:01D00200220B
:10CBDC0090000EEEF0A3EFF09000147A00790EE0C6
:10CBEC00FEA3E0FF7B0190018EE4F0A37402F0A39E
:01CBFC00F048
:10CBFD00900189EEF0A3EFF0A3EBF0A3EAF0A3E927
:01CC0D00F036
:10CC0E00900190E024FE603C04705A900189E0FE91
:10CC1E00A3E0AA06F97B01C002C001A3E0F9A3E0DC
:10CC2E00FAA3E09001DFC9F0A3EAF0A3E9F09001C6
:10CC3E008EE0FFA3E09001E2CFF0A3EFF0D001D0A1
:10CC4E000202E125900189E0FEA3E0FFA3E0FBA331
:10CC5E00E0FAA3E0F9A3E0FDA3E0900196CDF0A3E6
:08CC6E00EDF002CAA212F3600E
:01CC7600229B
:10967600900179EBF0A3EAF0A3E9F0900177EEF020
:03968600A3EFF05F
:1096890090017EE0FD12D09790017FEFF0C3941214
:10969900400312F36090017FE0FF75F006A424B542
:1096A900F582E434DCF583E493FD7401939001823F
:1096B900CDF0A3EDF0EF75F006A424B7F582E434FC
:1096C900DCF58374019324FEFFE49334FFFE9001DB
:1096D90086F0A3EFF0900183E02FFF900182E03E36
:1096E900900184F0A3EFF090017FE075F006A424C7
:1096F900B3F582E434DCF583E493900188F09001BA
:1097090077E0FEA3E0FFA3E0FBA3E0FAA3E0F9A35F
:10971900E0FDA3E090018ECDF0A3EDF090017EE095
:10972900900190F012CBFD75CEA575CF5A0075CE7C
:10973900A575CF5A00900182E0FEA3E0FF90018653
:1097490012BBA0900180EEF0A3EFF09001847A01A2
:10975900798012CBEB900188E0C394645048900162
:1097690078E02400FF900177E03404FE900179E06D
:10977900FBA3E0FAA3E0F9A3E0FDA3E090018ECDFD
:10978900F0A3EDF090017EE0900190F012CBFD90F6
:109799000185E02400FF900184E03404FE7B017A16
:0697A90001798012CBF2F1
:0197AF002297
:10A53E00E4FEEE75F006A424B3F582E434DCF58374
:10A54E00E4936F60050EEEB412E8EEC3941240036E
:10A55E0002A63EEE75F006A424B5F582E434DCF5D1
:10A56E0083E493FD74019390001ACDF0A3EDF0EE09
:10A57E0075F006A424B7F582E434DCF583740193F8
:10A58E0024FEFCE49334FF90001CF0A3CCF0EF24E7
:10A59E00EB602224CF602E24F4603A1460471460DE
:10A5AE00542440707290001AE0FEA3E0FF7BFF7A05
:10A5BE00E07974804E90001AE0FEA3E0FF7BFF7AF4
:10A5CE00DF799B803E90001AE0FEA3E0FF7BFF7ACE
:10A5DE00BE79A1802E90001AE0FEA3E0FF7BFF7AE9
:10A5EE00CD7911801E90001AE0FEA3E0FF7BFF7A6A
:10A5FE00CD792B800E90001AE0FEA3E0FF7BFF7A50
:10A60E00CD7949A3E0FDA3E090018ECDF0A3EDF04E
:10A61E00A37402F002CBFD90001AE0FEA3E0FFA3AC
:10A62E00E0FCA3E0FD90007F7402F0E4FB12C8C8CA
:01A63E0022F9
:1070FD00E490000DF090000DE0F9C39412400302EE
:10710D0072D4E4900018F090000DE0FF75F006A425
:10711D0024B5F582E434DCF583E493FD740193909A
:10712D000012CDF0A3EDF0EF75F006A424B7F582B3
:10713D00E434DCF58374019324FEFEE49334FF9074
:10714D000016F0A3CEF0900016E0FAA3E0FB90003D
:10715D0012E0FCA3E0FD2BFEEC3AA3F0A3CEF0E988
:10716D0075F006A424B3F582E434DCF583E4939042
:10717D000019F075CEA575CF5A0075CEA575CF5AED
:10718D0000AF05AE04AD03AC027B0212BBA79000AD
:10719D000EEEF0A3EFF07B017A007910900014E071
:1071AD00FCA3E0FD12CF6F900010E0FEA3E0FF9076
:1071BD00000EE06E7003A3E06F6007900018E044CE
:1071CD0001F0900019E0C39464504B900013E0243B
:1071DD0000FF900012E03404FE12BB9D90000EEEF5
:1071ED00F0A3EFF07B017A007910900015E02400F8
:1071FD00FD900014E03404FC12CF6F900010E0FEFF
:10720D00A3E0FF90000EE06E7003A3E06F600790A7
:10721D000018E04402F075CEA575CF5A0075CEA5C5
:10722D0075CF5A00900018E070030272BD24FE6005
:10723D003614604124027075900019E0C3946450B7
:10724D0015900012E0FEA3E0FF2400FDEE3404FCD7
:10725D0012AEE90272AA900019E0FF12A53E12BB10
:10726D009512CBDC0272AA900019E0C394645040D1
:10727D0012AEDA8028900019E0FF12A53E12BB95E0
:10728D0012CBDC75CEA575CF5A0075CEA575CF5A2C
:10729D0000900019E0C39464501612AEDA75CEA5B5
:1072AD0075CF5A0075CEA575CF5A00800312F360C5
:1072BD0075CEA575CF5A0075CEA575CF5A00900025
:0772CD000DE004F002710264
:0172D4002297
:05BDE100900093EFF05B
:10BDE600E4A3F0900094E0F9C39412400302BEA0CD
:10BDF600E0FE75F006A424B5F582E434DCF583E4B0
:10BE060093FC740193FDEE75F006A424B7F582E465
:10BE160034DCF58374019324FE2DFEE43C900097F8
:10BE2600F0A3CEF0E975F006A424B3F582E434DC81
:10BE3600F583E493FF900099F0BF4608900093E0E5
:10BE460064A5704D75CEA575CF5A0075CEA575CF74
:10BE56005A00E4900095F0A3F0900097E0FEA3E06E
:10BE6600FF7B017A00799512CBF2900099E0C3949A
:10BE760064501EE4900095F0A3F0900098E0240032
:10BE8600FF900097E03404FE7B017A00799512CB8F
:0ABE9600F2900094E004F002BDE910
:01BEA000227F
:10C2240012F202EF6401600302C2BE900810E0C380
:10C234009403400302C2D2E004F0E0C39403500329
:10C2440002C2D2900722E0645A600302C2D290086C
:10C2540011E06401607812DDF775CEA575CF5A0040
:10C2640075CEA575CF5A0012B5E675CEA575CF5A11
:10C274000075CEA575CF5A0012DA0F75CEA575CF0D
:10C284005A0075CEA575CF5A0012A32B12E8357546
:10C29400CEA575CF5A0075CEA575CF5A00129D96BE
:10C2A40075CEA575CF5A0075CEA575CF5A007FA857
:10C2B4001203AE9008117401F022900810E0D39498
:0FC2C400004003E014F0900810E07002A3F02295
:10E2EC0012F2B3EF6401702690080EE0C394035051
:10E2FC0043E004F0E0C39403403AA3E064016034CB
:10E30C007D017F0912BC5C90080F7401F02290080B
:10E31C000EE0D394004006900810E014F090080E24
:10E32C00E07011A3E0B4010C7DFF7F0912BC5CE42A
:05E33C0090080FF02223
:10F324007B017A08790D90017BE4F0A37405F0E485
:04F33400FD02EEA543
:01004A002293
:10F28300E4FFE5A120E0050FEFB41EF6EFC39419E8
:07F2930050037F01227F0000
:01F29A002251
:10E3EB0090071BE5A1F0E59560047F0180027F009B
:10E3FB00E59460047E0180027E00EE4F6011759003
:10E40B0096759757E4F594F5957590967597560014
:10E41B00758F019004027486F0E4F58F75A001FFEF
:10E42B00FE7D32FC12B0AF12E29512F13D02EA28EA
:107848007B017A00790A9001D6E4F0A37403F0A3CF
:1078580014F07DBA7C0012CF7A90000AE0B4650B70
:10786800A3E0B43406A3E06412602D9004B0740160
:10787800F012D46890007F7402F0E4FBFD7C10FFE6
:107888007E0812C8C87FA512BDE175CEA575CF5A6E
:107898000075CEA575CF5A0090071CE070111270C4
:1078A800FD75CEA575CF5A0075CEA575CF5A0012B5
:1078B800DA8312F32475CEA575CF5A0075CEA57557
:1078C800CF5A007B017A0579B49001D6E4F0A3740D
:1078D8003AF0A37402F07DD87C0012CF7A12F40833
:1078E80012F40512DD1F75CEA575CF5A0075CEA509
:1078F80075CF5A0012E69512693312EEF912EC664A
:1079080012F25075CEA575CF5A0075CEA575CF5A0F
:107918000012E1DF75CEA575CF5A0075CEA575CFDB
:107928005A00900652E064306003027A0775CEA5CB
:1079380075CF5A0075CEA575CF5A00900000F07B20
:10794800017A0079029001D6F0A37405F0A37402BD
:10795800F07D6C7C0C12CF7A7B017A00790890015B
:10796800D6E4F0A37402F0A3F07D6F7C0012CF7A06
:10797800900008E0FB900004E0C39B5008900000D2
:107988007401F08005E4900000F0900660E0FE903D
:107998000000E02EFD900003E0FCC3ED9C90000089
:1079A800F0EEC39B5005E014F08005900000E0F075
:1079B800900000E0D3940640037406F0900000E0C5
:1079C800D39400403AE4A3F0900000E0FFA3E0C3A2
:1079D8009F501BE4FF12840775CEA575CF5A00751A
:1079E800CEA575CF5A00900001E004F080DA75CE7C
:1079F800A575CF5A0075CEA575CF5A0012B5E60207
:027A0800EC9CF4
:10A93100E4900000F0A3F075CEA575CF5A0075CE56
:10A94100A575CF5A0075CEA575CF5A0075CEA575E0
:10A95100CF5A0012EEF912693312DC4612EF2112BE
:10A96100E2959028C8E4F09028ADE04410F07D0213
:10A971007F0112EA6343C90112E39675CEA575CF33
:10A981005A0075CEA575CF5A007F007E007D327CBE
:10A991000012B0AF7B017A00790212E0C69001DFAC
:10A9A1007401F0A37400F0A37402F0A3E4F0A374A3
:10A9B10007F07B017A06795E12E125E5A130E05CC2
:10A9C10012D24312F13D12EC2F7B017A047964908B
:10A9D100018EE4F0A3741EF0A37402F07FCF7E0118
:10A9E10012CBFD7B017A04798390018EE4F0A3748C
:10A9F1002DF0A37402F07FED7E0112CBFD7B017A75
:10AA01000479B290018EE4F0A37432F0A37402F0E1
:10AA11007F1AFE12CBFD12D46812F360126F1C1262
:05AA2100E34102A96FF2
:10D568007F007E007D327C0012B0AF12D24312DC05
:10D57800467FFF12EF7075CEA575CF5A0075CEA500
:10D5880075CF5A0012784812F0B9E4FF12DD8B12F9
:10D59800F3AEE4FF125D6D1266FC7B017A07790435
:10D5A80090017BE4F0A37405F0E4FD12EEA590076A
:10D5B800AD7404F09007A9F07DFF7F0712BC5C7B77
:10D5C800017A0779A990017BE4F0A3740CF0E4FDDB
:0AD5D80012EEA543A50143A40122B1
:10ED340012E3EB12F283EF70077F2C7E0112F26A6A
:10ED440012F283EF700890071C7403F08005E490BE
:10ED5400071CF090071CE0B4030302A93112D56824
:01ED6400228C
:10E3410012F21CEF64014E700590063F04F0900636
:10E351003FE0B4011EE4F0900624E0B40504E4F0CB
:10E361008006900624E004F0129FE390060E7406E6
:10E37100F0800C90060EE0D394004003E014F0907E
:10E38100060EE0700F900624F0900642F090065CB5
:05E39100F0129FE322E1
:108A200012F283EF6003028B8BD284C2AF125FD944
:108A30007B017A05792290017CE4F0A3743CF0A3D9
:108A40007402F0E4FFFE12967690071C7403F07B2C
:108A5000017A06795E90017CE4F0A37407F0A374B8
:108A600002F07FCF7E001296769007AD7404F07D01
:108A7000017F0712BC5C9007B07404F09007ACF063
:108A80007DFF7F0A12BC5C7B017A0779B39001D627
:108A9000E4F0A304F0A304F07D217C0112CF7A124C
:108AA000C38212EF2112E2959028C8E4F09028AD1D
:108AB000E04410F012F13D12EA2812EEF9E49006BB
:108AC0000EF09004B0F075CEA575CF5A0075CEA506
:108AD00075CF5A00E4FD7F0112EA6343C90112F326
:108AE000AE12E39675CEA575CF5A0075CEA575CF9B
:108AF0005A007F007E007D327C0012B0AF7B017A8D
:108B000000790012E0C69001DF7401F0A37400F058
:108B1000A37400F0A3E4F0A37407F07B017A067954
:108B20005E12E125E5A130E05912D24312F13D1267
:108B3000EC2F7B017A04796490018EE4F0A3741E1B
:108B4000F0A37402F07FCF7E0112CBFD7B017A048B
:108B5000798390018EE4F0A3742DF0A37402F07F6A
:108B6000ED7E0112CBFD7B017A0479B290018EE497
:108B7000F0A37432F0A37402F07F1AFE12CBFD1240
:0B8B8000F360126F1C12E341028AC672
:018B8B0022C7
:10F3600075CEA575CF5A0075CEA575CF5A00000091
:03F370000080FB1F
:03000300020046B2
:040046005388FD32AC
:03000B0002E23BD3
:10E23B00C0E0C083C082C0D0758A65758C669007BC
:10E24B0019E04401F09005A8E0600E9005AAE004E7
:10E25B00F070069005A9E004F09005ADE0B4011B49
:10E26B00D39005ACE094009005ABE09400400CA378
:10E27B00E024FFF09005ABE034FFF0900730E004B2
:0AE28B00F0D0D0D082D083D0E03272
:0300130002004E9A
:04004E005388F732AA
:03001B0002F09858
:10F09800C0E0C083C08253887F758B53758D9A906A
:10F0A80028B2E04402F0C28EC2ABD082D083D0E056
:01F0B8003225
:03002B0002ECD014
:10ECD000C0E0C0F0C083C082C0D075D01053C87FE0
:10ECE00075CCCD75CDCC75CEA575CF5A0075CEA59A
:10ECF00075CF5A0012B274D0D0D082D083D0F0D069
:02ED0000E032FF
:03003B0002F2CB03
:10F2CB00C0E0E5C030E00553C0FE8008E5C030E18A
:07F2DB000353C0FDD0E03237
:03004300029534EF
:0D953400C0E0C0F0C083C082C0D075D01070
:10954100902840E0FF902843E05F900235F0E02052
:10955100E2030295D7902840E054FBF0902836E0D2
:1095610054FDF0900236E0D394004057A3E0FC2470
:109571003AF582E43402F583E0900234F090033747
:10958100E0B40716900234E0FE547FFD30D006EEC1
:109591004480F08005900234EDF0900234E0902890
:1095A10037F09005A9E4F0A3F0743A2CF582E43485
:1095B10002F583E4F0900237E004F0900236E01403
:1095C100F08013900237E4F09003347404F012E752
:1095D100AFE4FF12C6E0900235E0FF30E35090287F
:1095E10040E054F7F0902836E054FEF0A3E09002FA
:1095F10034F0E0547FFE900237E0243AF582E434FF
:1096010002F583EEF09005A9E4F0A3F0900237E0B3
:1096110004F0E0FED3940440020000EE75F0FA84F9
:10962100AEF0900237EEF0D3941540020000EF3017
:10963100E407902840E054EFF0900235E030E50770
:10964100902840E054DFF0900235E0FF30E60790CB
:109651002840E054BFF0EF30E70D902840E0547F00
:0A966100F0900561E004F05391EF72
:0B966B00D0D0D082D083D0F0D0E0320D
:03004B0002B86791
:0DB86700C0E0C0F0C083C082C0D075D0101A
:10B87400902848E0FF90284BE05FFD30E4079028D3
:10B8840048E054EFF0AF15ED30E507902848E05458
:10B89400DFF0AF15ED30E614902848E054BFF09087
:10B8A4000719E04402F09005EE7401F0AF15ED3095
:10B8B400E771902848E0547FF0900560E004F09030
:10B8C400065CE06401702C9028B0E04402F0A3E030
:10B8D40054FEF09028C9E4F0A3F09028B2E054FD9F
:10B8E400F09028B0E054FDF0758B53758D9A1200DA
:10B8F400068004C28EC2AB9005FAE0541FF0900695
:10B9040041E0700B7B017A0579F012B19480057FD8
:10B91400FF12EF70900642E4F075CCCD75CDCCD219
:06B92400CAD2AD5391DF11
:0BB92A00D0D0D082D083D0F0D0E0322B
:0300530002EE2298
:0BEE2200C0E0C083C082C0D075D010DB
:10EE2D00902850E0FF902853E05FFF30E3079028D3
:08EE3D0050E054F7F05391BFBF
:09EE4500D0D0D082D083D0E0329D
:10912D0041063F004106340041063300410632013D
:10913D004106400041063A004106410041065700F4
:10914D004106430041065C004106390041065D00C1
:10915D004106420044064E0000000044062E000069
:02916D00000000
:10CDAB007B017A00790D12E0C67B017A00790D12B6
:10CDBB00AC0AEF70647B017A00790D9001D6F0A379
:10CDCB007407F0A37402F07DCF7C0012CF7A7B0145
:10CDDB007A00790D12AC0AEF703690000D7403F0E7
:10CDEB00A37416F0A37404F0A37420F0A37412F0D0
:10CDFB00A37430F0A3F07B017A00790D90017CE4F1
:10CE0B00F0A37407F0A37402F07FCF7E0012967626
:10CE1B007B017A00790D12DE619001DF7401F0A3C2
:10CE2B007400F0A3740DF0A3E4F0A37407F07B017E
:07CE3B007A06795E02E12591
:03F4050002CDAB8A
:10D2CF0012F2B3EF700E900657E0700804F090065C
:10D2DF00437403F012F2B3BF0109E4900657F090C4
:10D2EF000643F012F21CEF64014E700F900634E00B
:10D2FF00700990063F04F0900634F012F21CEF4EC6
:10D30F007004900634F012F29BEF64014E700D9092
:10D31F000632E07007A304F0900632F012F29BEF92
:10D32F004E7004900632F012F236EF64014E700F19
:10D33F0090063AE0700990064004F090063AF01219
:0BD34F00F236EF4E700490063AF02218
:10B27400E4FFFEFDFC900635E0F8A3E0F9A3E0FA54
:10B28400A3E0FB1215AF6002500302B35290062EE6
:10B29400E0FCA3E0FDA3E0FEA3E0FF900653121B35
:10B2A400A7E4FFFE7D287C4290063BE0F8A3E0F98A
:10B2B400A3E0FAA3E0FB121409900658121BA7900E
:10B2C4000658E0FCA3E0FDA3E0FEA3E0FF900653D4
:10B2D400E0F8A3E0F9A3E0FAA3E0FB1215AF4050B5
:10B2E400900642E004F090062E121BB3000000000A
:10B2F400900642E024FE60101460162402701D9033
:10B3040005FAE04480F080149005FAE044C0F0802F
:10B314000B9005FAE044E0F0C2CAC2AD900641E0E9
:10B3240070097B017A0579F002B1947FFF02EF7016
:10B3340090062EE0FCA3E0FDA3E0FEA3E0FFE4FB07
:0FB34400FA7980783F12131890062E121BA72259
:10EFE500E4900000F0900000E0FFC394015013127C
:10EFF500B353900000E0FF12A107900000E004F079
:05F0050080E302D2CF00
:10928C0012CDAB75CEA575CF5A0075CEA575CF5A3C
:10929C0000900821E0D394004006E014F012EEF99F
:1092AC00900821E0703F128E5E75CEA575CF5A00E6
:1092BC0075CEA575CF5A00125FD975CEA575CF5A4C
:1092CC000075CEA575CF5A0012EDC712D99B75CE7D
:1092DC00A575CF5A0075CEA575CF5A0012C22412AF
:1092EC00F41912EC66900641E0700812B6BD129F9C
:1092FC00E38006900641E014F0900664E070621280
:10930C0066FC75CEA575CF5A0075CEA575CF5A00E3
:10931C001264A075CEA575CF5A0075CEA575CF5A1F
:10932C0000126F1C12D468900652E0B4301175CE46
:10933C00A575CF5A0075CEA575CF5A0012CC77758E
:10934C00CEA575CF5A0075CEA575CF5A0012D00395
:10935C0075CEA575CF5A0075CEA575CF5A0012E102
:10936C00DF12F2B3EF7023900643E0D39400400277
:10937C00803090065CE0702F04F0900639740AF08F
:10938C00900664E090065DF08022900639E0D3945C
:10939C0000401490065DE0FF900664E0B5070D9068
:1093AC000639E014F08005E490065CF0900664E069
:1093BC00B4251112F41775CEA575CF5A0075CEA52C
:1093CC0075CF5A00900664E0B4311112F25075CE8C
:0D93DC00A575CF5A0075CEA575CF5A002299
:01005200228B
:0AF3C400E490064DF090064CF02294
:0BC01100E0FCA3E0A3FDE0900230F093
:10C01C0090022BEBF0A3EAF0A3E9F0A3ECF0A3ED74
:01C02C00F023
:10C02D00E4900233F090023174A0F0A304F012EA10
:10C03D0028900233E004F0E0D3940A40037F0022FD
:10C04D0012EC2F900231E0FF12CB3FBF01E09002C6
:10C05D002EE0FF12CB3FEF640160037F00229002C0
:10C06D002EA3E0FF12CB3FEF640160037F0022128D
:10C07D00EC2F900232E0FF12CB3FEF640160037FA3
:10C08D000022900230E0FF14F0EF6026E07003FF15
:10C09D0080027F0112D12890022BE0FBA3E0FAA3CE
:10C0AD00E0F9EF1218BA90022CE475F00112198B19
:07C0BD0080D012EA287F0188
:01C0C4002259
:10C58A009001E0EEF0A3EFF0A3EBF0A3EAF0A3E949
:01C59A00F0B0
:10C59B00E49001E8F09001E674A0F0A304F000121F
:10C5AB00EA289001E8E004F0E0D3940A40037F000E
:10C5BB002212EC2F9001E6E0FF12CB3FBF01E0907F
:10C5CB0001E0E0FF12CB3FEF640160037F0022909C
:10C5DB0001E0A3E0FF12CB3FEF640160037F002279
:10C5EB009001E2E0FBA3E0FAA3E0F9121852FF126C
:10C5FB00CB3FEF64016004007F00229001E3E47500
:10C60B00F00112198B9001E1E004F070069001E04B
:10C61B00E004F09001E5E014F0E070C412EA287F2A
:09C62B00057E0012F26A007F0195
:01C6340022E3
:10D4ED009001E4EBF0A3EAF0A3E9F0A3ECF0A3EDD7
:01D4FD00F03E
:10D4FE00A3E0FFD394004006EFD3944040037F0097
:10D50E0022E490022AF07B017A0179EA9001E71277
:10D51E00C0119001E4E0FBA3E0FAA3E0F9A312C06E
:10D52E001190022E7401F0A37401F0A374EAF0902E
:10D53E0001E9E0900231F09001E4E0FBA3E0FAA3F0
:10D54E00E0F912D5E2EF70037F012290022AE00487
:09D55E00F0E0C3940340AF7F002C
:01D5670022A1
:10D1B600900199EEF0A3EFF0A3EBF0A3EAF0A3E958
:01D1C600F078
:10D1C700A3E0FFD394004006EFD39440400312F34B
:10D1D70060E49001DFF0900199E0FEA3E0FFA3E097
:10D1E700FBA3E0FAA3E0F9A3E09001E5F012C58AFA
:10D1F7007B017A01799F900199E0FCA3E090019E61
:10D2070012C01690022E7401F0A37401F0A3749F4C
:10D21700F090019EE0900231F090019BE0FBA3E0CB
:10D22700FAA3E0F912D5E2EF70037F01229001DF44
:0BD23700E004F0E0C39403409D7F0082
:01D2420022C9
:10C788009001DCEBF0A3EAF0A3E9F0A3ECF0A3ED51
:01C79800F0B0
:10C799009001E1E0FEA3E0FFD39400EE9400407C19
:10C7A9009001DFA3E0543FFD600974409D9001E3CF
:10C7B900F080069001E37440F09001E3E0FDC3EFDF
:10C7C9009DEE940050079001E1A3E0A3F09001DCF5
:10C7D900E0FBA3E0FAA3E0F9A3E0FCA3E0FD9001EC
:10C7E900E3E09001E9F012D4EDEF7002FF2290012D
:10C7F900E3E0FFFD7C009001DDEC8DF012198B90D8
:10C8090001E0E02DF09001DFE03CF0C39001E2E0AF
:0EC819009FF09001E1E09400F002C7997F01CA
:01C8270022EE
:10CAA200900191EEF0A3EFF0A3EBF0A3EAF0A3E97B
:01CAB200F093
:10CAB300900196E0FCA3E0FDD39400EC9400407950
:10CAC300900191E0FEA3E0FF543FFB600974409B9B
:10CAD300900198F080069001987440F0900198E0DE
:10CAE300FBC3ED9BEC94005007900196A3E0A3F0E9
:10CAF300900193E0FBA3E0FAA3E0F9900198E090A2
:10CB0300019EF012D1B6EF7002FF22900198E0FF70
:10CB1300FD7C00900192E02DF0900191E03CF090BB
:10CB23000194EC8DF012198BC3900197E09FF09064
:0BCB33000196E09400F002CAB37F01FD
:01CB3E0022D4
:10F13D009028ACE04402F0A3E04402F0A3E04404C4
:0EF14D00F09028ACE054FBF0A3E054FBF0225D
:10EC2F009028ACE04402F0A3E04402F0A3E04404D7
:10EC3F00F0000000000000E054FDF09028ADE0541B
:10EC4F00FDF09028ACE054FDF000000000000090B3
:07EC5F0028AEE054FBF02297
:10EA28009028AEE054FDF09028ADE054FDF0902819
:10EA3800ACE054FDF00000000000009028AEE04477
:10EA480004F00000000000009028ACE04402F0A3AD
:0BEA5800E04402F0000000000000227B
:10CB3F00E4F508F5089028AEE054FBF0EF30E70E6F
:10CB4F009028ACE04402F0A3E04402F08015902856
:10CB5F00AEE054FDF09028ADE054FDF09028ACE02D
:10CB6F0054FDF0EF25E0FF9028AEE04404F0000004
:10CB7F00000000000508E508B408BA9028AEE0549C
:10CB8F00FBF09028ACE04402F0A3E04402F07508FB
:10CB9F0020E4F5089028AFE020E1149028AEE0449F
:10CBAF0004F0000000000000E054FBF07F012205BC
:10CBBF0008E508B420DE9028AEE04404F000000041
:0CCBCF00000000E054FBF012EA287F0098
:01CBDB002237
:10D12800E4F508F5099028ACE04402F0A3E04402D5
:10D13800F0A3E054FBF0E4F508E50925E0F50990D3
:10D1480028AEE04404F0000000000000A3E030E155
:10D15800034309019028AEE054FBF00000000000F2
:10D16800000508E508B408D1EF60179028AEE05430
:10D17800FDF09028ADE054FDF09028ACE054FDF0AF
:10D18800800C9028ACE04402F0A3E04402F0902820
:10D19800AEE04404F0000000000000E054FBF09012
:0DD1A80028ACE04402F0A3E04402F0AF091F
:01D1B5002257
:01F4160022D3
:10F33800E5E820E10343E80290284BE020E704E0F9
:04F348004480F022EB
:10EF49007F7D7E281293E9EF54C7FF9000CA742889
:10EF5900F0A3747DF012CA04902843E0547FF09026
:06EF690028AEE04408F0B0
:01EF6F00227F
:06C96600900807121BA758
:10C96C00E4FF90288474CCF0E4F0902885E0600A11
:10C97C000FEFD3940840F37F0022900807A3A3A3E2
:10C98C00E0FF902880EFF0900807E0FCA3E0FDA307
:10C99C00E0FEA3E0FF7808121B35902881EFF090A1
:10C9AC000807E0FCA3E0FDA3E0FEA3E0FF78101273
:10C9BC001B35902882EFF0900807E0FCA3E0FDA364
:10C9CC00E0FEA3E0FF7818121B35902883EFF0905F
:10C9DC00080BE0FEA3E0F5828E83E4F0FF000FEF7E
:10C9EC00B408FAE4FF902885E0600A0FEFD39408AE
:07C9FC0040F37F00227F01E0
:01CA03002210
:06C2D3009007F9121BA701
:10C2D900E4FB90288474CCF0E4F0902885E0600AAF
:10C2E9000BEBD3940840F37F00229007F9A3A3A393
:10C2F900E0FF902880EFF09007F9E0FCA3E0FDA3B0
:10C30900E0FEA3E0FF7808121B35902881EFF0903A
:10C3190007F9E0FCA3E0FDA3E0FEA3E0FF7810121B
:10C329001B35902882EFF09007F9E0FCA3E0FDA30C
:10C33900E0FEA3E0FF7818121B35902883EFF0D2B6
:10C349008720870C9007FFE004F0E0D3941E40F1AA
:10C359009007FDE0FEA3E0F5828E83E4F0FB000B7D
:10C36900EBB408FAE4FB902885E0600A0BEBD39460
:08C379000840F37F00227F0160
:01C381002299
:06CA04009000C6121BA702
:10CA0A00E4FF90288474CCF0E4F0902885E0600A72
:10CA1A000FEFD3940840F37F00229000C6A3A3A38C
:10CA2A00E0FF902880EFF09000C6E0FCA3E0FDA3B1
:10CA3A00E0FEA3E0FF7808121B35902881EFF09002
:10CA4A0000C6E0FCA3E0FDA3E0FEA3E0FF7810121D
:10CA5A001B35902882EFF09000C6E0FCA3E0FDA30E
:10CA6A00E0FEA3E0FF7818121B35902883EFF090C0
:10CA7A0000CAE0FEA3E0F5828E83E4F0FF000FEF28
:10CA8A00B408FAE4FF902885E0600A0FEFD394080F
:07CA9A0040F37F00227F0141
:01CAA1002272
:1093E90090288474CCF0E4F0F508902885E0600BAF
:1093F9000508E508D3940840F180248F828E83E024
:10940900F508E4F508000508E508B408F8E4F508E6
:10941900902885E0600F0508E508D3940840F1E439
:10942900FFFEFDFC22902880E0FFE4FCFDFE900099
:10943900C6121BA7902881E0FFE4FCFDFE78081204
:109449001B489000CA121BA79000C6E0FCA3E0FDD0
:10945900A3E0FEA3E0FFA3E0F8A3E0F9A3E0FAA3E9
:10946900E0FBEF2BFFEE3AFEED39FDEC38FC900006
:10947900C6121BA7902882E0FFE4FCFDFE9000CAFB
:10948900121BA79000CAE0FCA3E0FDA3E0FEA3E045
:10949900FF7810121B489000CA121BA79000C6E063
:1094A900FCA3E0FDA3E0FEA3E0FFA3E0F8A3E0F93D
:1094B900A3E0FAA3E0FBEF2BFFEE3AFEED39FDEC5A
:1094C90038FC9000C6121BA7902883E0FFE4FCFD3E
:1094D900FE9000CA121BA79000CAE0FCA3E0FDA3FE
:1094E900E0FEA3E0FF7818121B489000CA121BA7E0
:1094F9009000C6E0FCA3E0FDA3E0FEA3E0FFA3E02B
:10950900F8A3E0F9A3E0FAA3E0FBEF2BFFEE3AFEA4
:10951900ED39FDEC38FC9000C6121BA79000C6E09F
:0A952900FCA3E0FDA3E0FEA3E0FFB9
:019533002215
:10BEA1000000000000000000000000000000000091
:10BEB1000000000000000000000000000000000081
:10BEC100000000003D99E1FB3DE6D2F937341C9FAB
:10BED100392B0436392B04360000000009600000BC
:10BEE10027100461A83000927C000063B3ED3B7021
:10BEF100B76B3B70B76B0105B410E80105C410E9DD
:10BF01000105B8287B0105C8287C0105BC10ED019D
:10BF110005CC10EE0105C010EB0105D010EC0105B8
:10BF2100D410EA00927C0010F500927C0010FB1DF9
:10BF31000004C301853000000001860000000001FB
:10BF410087811D2BA701250000000001830000004F
:09BF510000013200000000012C87
:07916F004405B00000000000
:10EB4E007B017A0579B49001D674A5F0A3745AF0BE
:10EB5E007D387C0012ED969005ECEEF0A3EFF07B85
:10EB6E00017A0579B490017CE4F0A37438F0A374B3
:09EB7E0002F07FD87E00029676B9
:10E8F7007B017A0579B49001D674A5F0A3745AF018
:10E907007D387C0012ED969005ECE06E7003A3E075
:10E917006F601A7B017A0579B49001D6E4F0A3748D
:0DE927003AF0A37402F07DD87C0012CF7A84
:01E9340022C0
:1066FC009000C1121BB30000000012E8F77B017A76
:10670C000079C59001D6E4F0A304F0A304F07DB9A0
:10671C007C0012CF7A9000C5E09000CAB43C26747D
:10672C0010F0A374F4F07F6B7E2A7D707C0012CA8B
:10673C00049000CA7410F0A374FAF07F6B7E2A7D6B
:10674C00707C0080247410F0A374F4F07F307EA869
:10675C007D617C0412CA049000CA7410F0A374FA10
:10676C00F07F307EA87D617C0412CA04E49000B5F1
:10677C00F09000B5E0FF75F006A42428F582E4340F
:10678C00BFF583E493FD7401939000BFCDF0A3EDAE
:10679C00F0EF75F006A42424F582E434BFF58312DF
:1067AC001B879000BB121BA79000B1121BB30000FB
:1067BC0000009000BFE0FEA3E0FF1293E99000B14F
:1067CC00121BA79000BBE0FCA3E0FDA3E0FEA3E03E
:1067DC00FF9000B1E0F8A3E0F9A3E0FAA3E0FBC35B
:1067EC00121B2460349000BBE0FCA3E0FDA3E0FE90
:1067FC00A3E0FF9000B1121BA79000B1E0FCA3E056
:10680C00FDA3E0FEA3E0FF9000BFE0FBA3E090003F
:10681C00CACBF0A3EBF012CA049000B5E004F0E090
:10682C00C39402500302677DE49000B5F09000B56C
:10683C00E0FF75F005A424FAF582E434BEF583E498
:10684C0093FD7401939000B9CDF0A3EDF0EF75F0CA
:10685C0005A424F7F582E434BEF583E493F97401BE
:10686C0093FA7402939000B6C9F0A3EAF0A3E9F08E
:10687C009000B1121BB3000000009000B9E0FEA321
:10688C00E0FF1293E99000B1121BA79000B9E0FE53
:10689C00A3E0FF647B7003EE6428600AEF647C70F5
:1068AC0003EE6428701B9000B6E0FBA3E0FAA3E0B3
:1068BC00F9121B5B9000B4E06F605CE4FCFDFE80A1
:1068CC00309000B6E0FBA3E0FAA3E0F9121B5B905A
:1068DC0000B1E0F8A3E0F9A3E0FAA3E0FBC3121BBC
:1068EC002460349000B6E0FBA3E0FAA3E0F9121B9D
:1068FC005B9000B1121BA79000B1E0FCA3E0FDA3DC
:10690C00E0FEA3E0FF9000B9E0FBA3E09000CACB4F
:10691C00F0A3EBF012CA049000B5E004F0E0C394CD
:06692C0009500302683966
:016932002242
:088B8C00900772EFF0A3EDF079
:108B940075CEA575CF5A0075CEA575CF5A0090072E
:108BA4007D121BB300000000E49005EEF0900778FE
:108BB400F0900772E0FF900778E0C39F4003028CB7
:108BC400CB75CEA575CF5A0075CEA575CF5A00903A
:108BD40005EEE060FAE49005EEF075CEA575CF5A87
:108BE4000075CEA575CF5A00900773E070097FD247
:108BF4007E101293E9803AE4FB7D017F0B7E011223
:108C04000000BF013478817C077D017B017A007903
:108C1400007E007F0412182C7B017A0779817D0481
:108C240012C431900781E0FCA3E0FDA3E0FEA3E0C1
:108C3400FF900774121BA7800790071AE04410F0F6
:108C4400E4FFFEFD7C80900774E0F8A3E0F9A3E064
:108C5400FAA3E0FBC3121B244024900774E0FCA396
:108C6400E0FDA3E0FEA3E0FF121AF3EF2401FFE40A
:108C74003EFEE43DFDE43CFC900774121BA7900704
:108C840074E0FCA3E0FDA3E0FEA3E0FF90077912EB
:108C94001BA790077DE0FCA3E0FDA3E0FEA3E0FF9B
:108CA400900779E0F8A3E0F9A3E0FAA3E0FBEF2B47
:108CB400FFEE3AFEED39FDEC38FCA3121BA790073A
:108CC40078E004F0028BB5900772E0FBE4FAF9F85F
:108CD40090077DE0FCA3E0FDA3E0FEA3E0FF121AF1
:108CE4006175CEA575CF5A0075CEA575CF5A000013
:018CF400225D
:088CF500900785EFF0A3EDF0FC
:108CFD0075CEA575CF5A0075CEA575CF5A009007C4
:108D0D0090121BB300000000E49005EEF090078B6D
:108D1D00F0900785E0FF90078BE0C39F4003028E24
:108D2D003475CEA575CF5A0075CEA575CF5A009066
:108D3D0005EEE060FAE49005EEF075CEA575CF5A1C
:108D4D000075CEA575CF5A00900786E070097FD4C7
:108D5D007E101293E9803AE4FB7D017F0E7E0112B5
:108D6D000000BF013478947C077D017B017A007986
:108D7D00007E007F0412182C7B017A0779947D0404
:108D8D0012C431900794E0FCA3E0FDA3E0FEA3E044
:108D9D00FF900787121BA7800790071AE04410F079
:108DAD00E4FFFEFD7C80900787E0F8A3E0F9A3E0E7
:108DBD00FAA3E0FBC3121B244024900787E0FCA319
:108DCD00E0FDA3E0FEA3E0FF121AF3EF2401FFE4A0
:108DDD003EFEE43DFDE43CFC900787121BA7900787
:108DED0087E0FCA3E0FDA3E0FEA3E0FF90078C125B
:108DFD001BA7900790E0FCA3E0FDA3E0FEA3E0FF1E
:108E0D0090078CE0F8A3E0F9A3E0FAA3E0FBEF2BC9
:108E1D00FFEE3AFEED39FDEC38FCA3121BA79007CF
:108E2D008BE004F0028D1E900785E0FBE4FAF9F863
:108E3D00900790E0FCA3E0FDA3E0FEA3E0FF121A73
:108E4D006175CEA575CF5A0075CEA575CF5A0000A8
:018E5D0022F2
:10AA26009000B1E0FCA3E0FDA3E0FEA3E0FF9000F0
:10AA3600C9121BA79000B9E0FCA3E0FDA3E0FEA3AA
:02AA4600E0FF2F
:10AA4800E412161C9000CD121BA79000C9E0FCA3CD
:10AA5800E0FDA3E0FEA3E0FFE412161C9000D11273
:10AA68001BA79000C9E0FCA3E0FDA3E0FEA3E0FF64
:10AA7800E412161CA804A905AA06AB079000CDE0AD
:10AA8800FCA3E0FDA3E0FEA3E0FF1213149000D1A5
:10AA9800E0F8A3E0F9A3E0FAA3E0FB121512900096
:10AAA800D5121BA7E4FFFE7D807C3F9000D5E0F81F
:10AAB800A3E0F9A3E0FAA3E0FB121318A804A90580
:10AAC800AA06AB07E4FFFE7D807C3F1215129000BA
:10AAD800D9121BA7E4FFFE7D807CBF9000D9E0F867
:10AAE800A3E0F9A3E0FAA3E0FB1213189000DD122B
:10AAF8001BA7E4FFFEFD7C4F9000DDE0F8A3E0F922
:0FAB0800A3E0FAA3E0FB12140912ADEA12165AE9
:01AB1700221B
:06A43B009000C5121BA7F2
:10A44100E49000CFF07F32FEFDFC9000C9E0F8A35C
:10A45100E0F9A3E0FAA3E0FBC3121B2450037F0041
:10A46100229000C5E0FCA3E0FDA3E0FEA3E0FFA372
:10A47100E0F8A3E0F9A3E0FAA3E0FBD3121B244028
:10A481004D9000C5E0F8A3E0F9A3E0FAA3E0FBA337
:10A49100E0FCA3E0FDA3E0FEA3E09BFFEE9AFEED4E
:10A4A10099FDEC98FCE47BE87A03F9F81219D6904F
:10A4B10000C9E0F8A3E0F9A3E0FAA3E0FB121A61F6
:10A4C1009000CDEEF0A3EFF0A37401F0804A90006C
:10A4D100C9E0F8A3E0F9A3E0FAA3E0FB9000C5E02E
:10A4E100FCA3E0FDA3E0FEA3E0C39BFFEE9AFEED1B
:10A4F10099FDEC98FCE47BE87A03F9F81219D690FF
:10A5010000C9E0F8A3E0F9A3E0FAA3E0FB121A61A5
:10A511009000CDEEF0A3EFF09000CDE0FEA3E0FFC0
:10A521007C0B7DC3121CC6E47BD07A07F9F8121AA2
:0CA53100619000CFE0B40104EF4480FF13
:01A53D0022FB
:06A21A009007DE121BA7F5
:10A2200075CEA575CF5A0075CEA575CF5A0090078B
:10A23000E2E07040A3121BB3000000009007E3E0CF
:10A24000FCA3E0FDA3E0FEA3E0FF9000CA7410F0C1
:10A25000A374E9F012CA049007E3E0FCA3E0FDA3B5
:10A26000E0FEA3E0FF9000CA7410F0A374EEF012B9
:10A27000CA0480469007E3121BB300000000900759
:10A28000E3E0FCA3E0FDA3E0FEA3E0FF9000007488
:10A2900001F0A3742EF0E4A3F01200009007E3E0B5
:10A2A000FCA3E0FDA3E0FEA3E0FF9000007401F03A
:10A2B000A3742FF0E4A3F01200009007E2E0FD7F0A
:10A2C00002128B8CC004C005C006C0079007DEE0F8
:10A2D000FCA3E0FDA3E0FEA3E0FF9000C9121BA7D2
:10A2E000D007D006D005D00412AA489007E3121B6D
:10A2F000A775CEA575CF5A0075CEA575CF5A00901B
:10A3000007E2E07011A3E0FCA3E0FDA3E0FEA3E000
:10A31000FF9005C480119007E3E0FCA3E0FDA3E0FB
:0AA32000FEA3E0FF9005B4121BA796
:01A32A002210
:06B793009007E7121BA75E
:10B79900C20575CEA575CF5A0075CEA575CF5A00CD
:10B7A9009007EC121BB3000000009007EBE0701B40
:10B7B900A3E0FCA3E0FDA3E0FEA3E0FF9000CA74B0
:10B7C90010F0A374EEF012CA04801E9007ECE0FC9E
:10B7D900A3E0FDA3E0FEA3E0FF9000007401F0A345
:10B7E900742FF0E4A3F01200009007EBE0FD7F0353
:10B7F900128B8CC004C005C006C0079007E7E0FCA7
:10B80900A3E0FDA3E0FEA3E0FF9000C9121BA7D0AF
:10B8190007D006D005D00412A43BE4FCFDFE900736
:10B82900EC121BA775CEA575CF5A0075CEA575CF9D
:10B839005A009007EBE07011A3E0FCA3E0FDA3E040
:10B84900FEA3E0FF9005CC80119007ECE0FCA3E09B
:0DB85900FDA3E0FEA3E0FF9005BC121BA7BD
:01B8660022BF
:0674AD009007F0121BA77E
:1074B30075CEA575CF5A0075CEA575CF5A00900726
:1074C300F5121BB3000000009007F4E0701BA3E06B
:1074D300FCA3E0FDA3E0FEA3E0FF9000CA7428F044
:1074E300A3747CF012CA0480169000007401F0A308
:1074F3007484F0E4A3F07FA9FE7D0BFC12000075F9
:10750300CEA575CF5A0075CEA575CF5A00E4900568
:10751300EEF09005EEE060FAE49005EEF09007F4EB
:10752300E0FD7F02128B8CC004C005C006C007902B
:1075330007F0E0FCA3E0FDA3E0FEA3E0FF9000C999
:10754300121BA7D007D006D005D00412A43BE4FC3D
:10755300FDFE9007F5121BA775CEA575CF5A0075D2
:10756300CEA575CF5A009007F4E0700FA3E0FCA3FB
:10757300E0FDA3E0FEA3E0FF02767B9007F5A3A363
:10758300A3E05480FFEF9007F56066E0FCA3E0FD05
:10759300A3E0FEA3E0547FFFEC9007F5121BA79036
:1075A30007F5E0FCA3E0FDA3E0FEA3E0FFE4121671
:1075B3001C7BCD7ACC798C783F12140912165A9021
:1075C30007F5121BA79007F5E0FCA3E0FDA3E0FE7F
:1075D300A3E0FF7808121B489007F5121BA790073A
:1075E300F5E0FCA3E0FDA3E0FEA3E0FFED4404808F
:1075F3004DE0FCA3E0FDA3E0FEA3E0FFE412161CB4
:107603007BCD7ACC798C783F12140912165A9007E5
:10761300F5121BA79007F5E0FCA3E0FDA3E0FEA392
:10762300E0FF7808121B489007F5121BA79007F597
:10763300E0FCA3E0FDA3E0FEA3E0FFED54FBFDECC3
:107643009007F5121BA79005C8121BB3000B00A9E6
:107653009005C8E0FCA3E0FDA3E0FEA3E0FF9007D4
:10766300F5E0F8A3E0F9A3E0FAA3E0FBEF4BFFEEAC
:0E7673004AFEED49FDEC48FC9005C8121BA72D
:0176810022E6
:10826A00900737EEF0A3EFF0E024E8FF900737E03D
:10827A003403AB07FA3395E0F9F8E4FFFEFD7C809E
:10828A00121A6190073D121BA7900738E024E8FFF5
:10829A00900737E03403AB07FA3395E0F9F8E4FFC7
:1082AA00FEFD7C80121A61AF03900739EAF0A3EF52
:1082BA00F0900739E0FEA3E0FF7C037DE81218EE98
:1082CA00900737E0FAA3E0FB24E8FDEA3403FC1246
:1082DA001900A3EEF0A3EFF0AF03AE02EE3395E080
:1082EA00FDFC90073DE0F8A3E0F9A3E0FAA3E0FB68
:1082FA001219D6C004A905AA06AB07900739E0FCF3
:10830A00A3E0FD900737E0FEA3E0FF1218EE7C031E
:10831A007DE8121900E4FCFDD000EB2FFFEA3EFED7
:10832A00ED39FDEC38FC900741121BA7900738E0A5
:10833A0024E8FF900737E03403AB07FA3395E0F9F6
:10834A00F8900733E0FCA3E0FDA3E0FEA3E0FF12F0
:10835A00E76B900745121BA7900738E024E8FF90C7
:10836A000737E03403AB07FA3395E0F9F89007339F
:10837A00E0FCA3E0FDA3E0FEA3E0FF12E76BAE0280
:10838A00AF0390073BEEF0A3EFF07C037DE81218F1
:10839A00EE900738E024E8FD900737E03403FC123A
:1083AA00190090073BEEF0A3EFF0E47FE87E03FDAF
:1083BA00FC900745E0F8A3E0F9A3E0FAA3E0FB127A
:1083CA0019D6A804A905AA06AB0790073BE0FEA3A5
:1083DA00E0FFE4FCFDEB2FFFEA3EFEED39FDEC3851
:1083EA00FC900741E0F8A3E0F9A3E0FAA3E0FBC39D
:0C83FA00EF9BFFEE9AFEED99FDEC98FC65
:018406002253
:10A73D007FFD7E101293E9A804A905AA06AB07E4D4
:10A74D00FFFE7D7DFC121A61900832EEF0A3EFF052
:10A75D00E4FCFD9005B0E0F8A3E0F9A3E0FAA3E076
:10A76D00FBC3121B24700302A839900832E0FAA330
:10A77D00E0FBFFAE02E4FCFD9005B0121BA7D3EB8E
:10A78D0094F4EA9401400F900833E0240CFF9008F4
:10A79D0032E034FE801F900832E0FEA3E0FFC39448
:10A7AD00F4EE94015057C374F49FFF74019EFEC3E1
:10A7BD00E49FFFE49EFEEF25E0FFEE33FEC006C0F2
:10A7CD00079005B4E0FCA3E0FDA3E0FEA3E0FF903D
:10A7DD000733121BA7D007D00612826A9005C41248
:10A7ED001BA79005C4E0FCA3E0FDA3E0FEA3E0FFE2
:10A7FD009000CA7410F0A374E9F002CA049005B475
:10A80D00E0FCA3E0FDA3E0FEA3E0FF9000CA7410FE
:10A81D00F0A374E9F012CA049005B4E0FCA3E0FDC6
:0CA82D00A3E0FEA3E0FF9005C4121BA7EF
:01A8390022FC
:102E680090069C121BB30000000020AF03023644FA
:102E78009005EF7455F090BEEB121B879006A012D8
:102E88001BA7E47F19FEFDFC9006A0E0F8A3E0F97B
:102E9800A3E0FAA3E0FB1219D6E47B0AFAF9F812C8
:102EA8001A619006A6121BA7E47F46FEFDFC900659
:102EB800A0E0F8A3E0F9A3E0FAA3E0FB1219D6E436
:102EC8007B64FAF9F8121A619006AA121BA7E47F2C
:102ED80023FEFDFC9006A0E0F8A3E0F9A3E0FAA326
:102EE800E0FB1219D6E47B64FAF9F8121A6190062D
:102EF800AE121BA7E47F03FEFDFC9006A0E0F8A33A
:102F0800E0F9A3E0FAA3E0FB1219D6E47B64FAF92E
:102F1800F8121A619006B2121BA775CEA575CF5A82
:102F28000075CEA575CF5A00E4FD7F04128B8C90F6
:102F380006B6121BA79006A6E0FCA3E0FDA3E0FEE0
:102F4800A3E0FF9006B6E0F8A3E0F9A3E0FAA3E057
:102F5800FBD3121B244008E49006A4F0022FE6904D
:102F680006AAE0FCA3E0FDA3E0FEA3E0FF9006B6FE
:102F7800E0F8A3E0F9A3E0FAA3E0FBD3121B244096
:102F8800089006A47401F080559006AEE0FCA3E01A
:102F9800FDA3E0FEA3E0FF9006B6E0F8A3E0F9A3E6
:102FA800E0FAA3E0FBD3121B2440089006A47402A5
:102FB800F0802B9006B2E0FCA3E0FDA3E0FEA3E0C6
:102FC800FFA3E0F8A3E0F9A3E0FAA3E0FBD3121B08
:102FD800249006A440057403F080037408F090065A
:102FE800A4E070199005C4121BB3000000009005FE
:102FF800C8121BB3000000007FA01203AE9006A405
:10300800E0640160030232319006A0E0FCA3E0FD19
:10301800A3E0FEA3E0FFE49007E2F012A21A9006F4
:1030280098121BB300000000E4900693F07F1E7E08
:103038000012F26A7FD57E101293E9900694121B53
:10304800A7E4FFFEFD7C80900694E0F8A3E0F9A3D6
:10305800E0FAA3E0FBC3121B244024900694E0FC92
:10306800A3E0FDA3E0FEA3E0FF121AF3EF2401FFA3
:10307800E43EFEE43DFDE43CFC900694121BA79060
:103088000698E0FCA3E0FDA3E0FEA3E0FF90069411
:10309800E0F8A3E0F9A3E0FAA3E0FBEF2BFFEE3A98
:1030A800FEED39FDEC38FCA3121BA775CEA575CF34
:1030B8005A0075CEA575CF5A00900693E004F0E04B
:1030C800C394085003023035900698E0FCA3E0FD55
:1030D800A3E0FEA3E0FFE47B08FAF9F8121A619076
:1030E8000698121BA7900698E0FCA3E0FDA3E0FE5B
:1030F800A3E0FFE412161CC004C005C006C0079078
:10310800BEDF121B87E412161CD003D002D001D0F8
:10311800001215129005E8121BA7900698121BB30F
:1031280000000000E4900693F07F1E7E0012F26A11
:103138007FD37E101293E9900694121BA7E4FFFE3A
:10314800FD7C80900694E0F8A3E0F9A3E0FAA3E000
:10315800FBC3121B244024900694E0FCA3E0FDA3CB
:10316800E0FEA3E0FF121AF3EF2401FFE43EFEE4C1
:103178003DFDE43CFC900694121BA7900698E0FCE9
:10318800A3E0FDA3E0FEA3E0FF900694E0F8A3E02F
:10319800F9A3E0FAA3E0FBEF2BFFEE3AFEED39FDD1
:1031A800EC38FCA3121BA775CEA575CF5A0075CEB7
:1031B800A575CF5A00900693E004F0E0C394085038
:1031C80003023131900698E0FCA3E0FDA3E0FEA3E2
:1031D800E0FFE47B08FAF9F8121A61900698121BCE
:1031E800A7900698E0FCA3E0FDA3E0FEA3E0FFE4BF
:1031F80012161CC004C005C006C00790BEDB121B17
:1032080087E412161CD003D002D001D00012151288
:103218009005E0121BA77FA11203AE75CEA575CF4E
:103228005A0075CEA575CF5A009006A4E0B40238AE
:103238009006A0E0FCA3E0FDA3E0FEA3E0FFE47B92
:1032480002FAF9F8121A619006A0121BA79006A0BC
:10325800E0FCA3E0FDA3E0FEA3E0FFE49007F4F0A8
:103268001274AD7FA21203AE9006A4E0B4033890A6
:1032780006A0E0FCA3E0FDA3E0FEA3E0FFE47B14CE
:10328800FAF9F8121A619006A0121BA79006A0E09E
:10329800FCA3E0FDA3E0FEA3E0FFE49007EBF0123F
:1032A800B7937FA31203AE9006A5E0B40419900566
:1032B800C4121BB3000000009005C8121BB3000B1A
:1032C80000A97FA41203AE9006A5E064056003027E
:1032D80035519007E204F07FED7EB37D637C0012E8
:1032E800A21A900698121BB300000000E4900693FF
:1032F800F0E4FB7D017F0E7E01120000BF013478EF
:10330800BA7C067D017B017A0079007E007F041279
:10331800182C7B017A0679BA7D0412C4319006BA5A
:10332800E0FCA3E0FDA3E0FEA3E0FF900694121BDF
:10333800A7800790071AE04410F0E4FFFEFD7C80A8
:10334800900694E0F8A3E0F9A3E0FAA3E0FBC31227
:103358001B244024900694E0FCA3E0FDA3E0FEA318
:10336800E0FF121AF3EF2401FFE43EFEE43DFDE422
:103378003CFC900694121BA7900698E0FCA3E0FD85
:10338800A3E0FEA3E0FF900694E0F8A3E0F9A3E031
:10339800FAA3E0FBEF2BFFEE3AFEED39FDEC38FC2B
:1033A800A3121BA775CEA575CF5A0075CEA575CFEC
:1033B8005A00900693E004F0E0C3940850030232E8
:1033C800F9900698E0FCA3E0FDA3E0FEA3E0FFE48B
:1033D8007B08FAF9F8121A61900698121BA7900652
:1033E80098E0FCA3E0FDA3E0FEA3E0FFE412161CB6
:1033F800C004C005C006C00790BEDF121B87E412D8
:10340800161CD003D002D001D0001215129005E886
:10341800121BA7900698121BB300000000E4900648
:1034280093F0E4FB7D017F0D7E01120000BF0134A3
:1034380078BA7C067D017B017A0079007E007F04E2
:1034480012182C7B017A0679BA7D0412C4319006D1
:10345800BAE0FCA3E0FDA3E0FEA3E0FF900694120F
:103468001BA7800790071AE04410F0E4FFFEFD7CDC
:1034780080900694E0F8A3E0F9A3E0FAA3E0FBC388
:10348800121B244024900694E0FCA3E0FDA3E0FE78
:10349800A3E0FF121AF3EF2401FFE43EFEE43DFD32
:1034A800E43CFC900694121BA7900698E0FCA3E06D
:1034B800FDA3E0FEA3E0FF900694E0F8A3E0F9A3E3
:1034C800E0FAA3E0FBEF2BFFEE3AFEED39FDEC3816
:1034D800FCA3121BA775CEA575CF5A0075CEA5758E
:1034E800CF5A00900693E004F0E0C394085003021A
:1034F800342A900698E0FCA3E0FDA3E0FEA3E0FFD9
:10350800E47B08FAF9F8121A61900698121BA79042
:103518000698E0FCA3E0FDA3E0FEA3E0FFE412169A
:103528001CC004C005C006C00790BEDB121B87E4A0
:1035380012161CD003D002D001D00012151290052B
:10354800E0121BA77FA51203AE9006A5E0B40639CA
:103558009006A0E0FCA3E0FDA3E0FEA3E0FFE47B6F
:1035680002FAF9F8121A619006A0121BA79006A099
:10357800E0FCA3E0FDA3E0FEA3E0FF9007F47401E4
:10358800F01274AD7FA61203AE9006A5E0B4073919
:103598009006A0E0FCA3E0FDA3E0FEA3E0FFE47B2F
:1035A80014FAF9F8121A619006A0121BA79006A047
:1035B800E0FCA3E0FDA3E0FEA3E0FF9007EB7401AD
:1035C800F012B7937FA71203AE9006A5E0640870C7
:1035D800529006A4E06408704A12DDF775CEA5750E
:1035E800CF5A0075CEA575CF5A0075CEA575CF5A9E
:1035F8000075CEA575CF5A0012A32B900565E0750E
:10360800F00AA424A9F582E43405F583E4F0A3F0D4
:1036180075CEA575CF5A0075CEA575CF5A007FA86F
:103628001203AE12EB4E1266FC75CEA575CF5A008A
:0C36380075CEA575CF5A00E49005EFF0A8
:013644002263
:0B52CE00900093EBF0A3EAF0A3E9F0DE
:1052D900E49000A2F0900093E0FBA3E0FAA3E0F9C8
:1052E90090000D12186BFF12EAB29000A3EFF09034
:1052F9000093E0FBA3E0FAA3E0F990000E12186B0B
:10530900FF12EAB2EFC454F0FEC006900093E0FB2E
:10531900A3E0FAA3E0F990000F12186BFF12EAB2AA
:10532900D0E02F9000A4F0900093E0FBA3E0FAA353
:10533900E0F990001112186BFF12EAB2EFC454F0B1
:10534900FEC006900093E0FBA3E0FAA3E0F9900009
:105359001212186BFF12EAB2D0E02F9000A5F07B71
:10536900017A0079A212BACC900096121BA7E49098
:1053790000A2F0900093E0FBA3E0FAA3E0F990000B
:105389001312186BFF12EAB29000A3EFF09000938A
:10539900E0FBA3E0FAA3E0F990001412186BFF12E6
:1053A900EAB2EFC454F0FEC006900093E0FBA3E01C
:1053B900FAA3E0F990001612186BFF12EAB2D0E0D6
:1053C9002F9000A4F0900093E0FBA3E0FAA3E0F98A
:1053D90090001712186BFF12EAB2EFC454F0FEC026
:1053E90006900093E0FBA3E0FAA3E0F990001812FD
:1053F900186BFF12EAB2D0E02F9000A5F07B017A7A
:105409000079A212BACC90009A121BA7E49000A2CC
:10541900F0900093E0FBA3E0FAA3E0F990001912E1
:10542900186BFF12EAB29000A3EFF0900093E0FB33
:10543900A3E0FAA3E0F990001A12186BFF12EAB27E
:10544900EFC454F0FEC006900093E0FBA3E0FAA37A
:10545900E0F990001B12186BFF12EAB2D0E02F900E
:1054690000A4F0900093E0FBA3E0FAA3E0F9900018
:105479001C12186BFF12EAB2EFC454F0FEC006907A
:105489000093E0FBA3E0FAA3E0F990001E12186B69
:10549900FF12EAB2D0E02F9000A5F07B017A0079E3
:1054A900A212BACC90009E121BA7900093E0FBA316
:1054B900E0FAA3E0241FF9E43AFA9001DFEBF0A344
:1054C900EAF0A3E9F0A3E4F0A37406F07B017A0003
:1054D90079A612E125E49000ACF07B017A0079A667
:1054E90012E64C9000AD121BA7900578E0FCA3E0F2
:1054F900FDA3E0FEA3E0FF121C8C552B0000FEB0BB
:1055090055710000FEB155840000FEB2552B000014
:10551900FEB355710000FEB455840000FEB50000CD
:1055290055A99000ADE0FCA3E0FDA3E0FEA3E0FFD8
:105539001297B075CEA575CF5A0075CEA575CF5AFD
:1055490000900096E0FCA3E0FDA3E0FEA3E0FF903D
:1055590000B5121BA790009AE0FCA3E0FDA3E0FEB2
:10556900A3E0FF125AFF80249000ADE0FCA3E0FD08
:10557900A3E0FEA3E0FF129EBF80119000ADE0FC06
:10558900A3E0FDA3E0FEA3E0FF127F2112EB4E1280
:1055990066FC75CEA575CF5A0075CEA575CF5A0094
:0155A90022DF
:0697B0009000B1121BA79E
:1097B60075CEA575CF5A0075CEA575CF5A00E4FFB4
:1097C600FEFDFC9000B1E0F8A3E0F9A3E0FAA3E007
:1097D600FB1215AFE4FFFE7DC87C429000B1E0F8B5
:1097E600A3E0F9A3E0FAA3E0FB1213187B007A507A
:1097F60079C3784712140912165A9000B5121BA79E
:10980600E47FB37EFEFDFC900578E0F8A3E0F9A3C3
:10981600E0FAA3E0FBC3121B2470517FE87E10120E
:1098260093E99000B9121BA79000C9121BB30098C8
:1098360096809000B512AA3D9000B9121BA7900021
:10984600B9E0FCA3E0FDA3E0FEA3E0FF9000CA742C
:1098560010F0A374E8F012CA049000B9E0FCA3E08B
:10986600FDA3E0FEA3E0FF9005B4806AE47FB07E2E
:10987600FEFDFC900578E0F8A3E0F9A3E0FAA3E08A
:10988600FBC3121B2470527FE97E101293E99000ED
:10989600B9121BA79000C9121BB3009896809000BE
:1098A600B512AA3D9000B9121BA79000B9E0FCA31F
:1098B600E0FDA3E0FEA3E0FF9000CA7410F0A374DD
:1098C600E9F012CA049000B9E0FCA3E0FDA3E0FEB3
:0998D600A3E0FF9005C4121BA7DA
:0198DF002266
:065AFF009000B1121BA78C
:105B0500E47FB07EFEFDFC900578E0F8A3E0F9A304
:105B1500E0FAA3E0FBC3121B246003025C1E7FD9DD
:105B25007E101293E99000B9121BA79000B9E0FC12
:105B3500A3E0FDA3E0FEA3E0FFE412161C9005E43C
:105B4500E0F8A3E0F9A3E0FAA3E0FB1214091216AA
:105B55005A9000B9121BA77FEB7E101293E99000B3
:105B6500BD121BA7E4FFFEFDFC9000BDE0F8A3E01D
:105B7500F9A3E0FAA3E0FBC3121B24701D12AA26A9
:105B85009000BD121BA79000BDE0FCA3E0FDA3E0C3
:105B9500FEA3E0FF9005C0121BA77FD87E101293CD
:105BA500E99000B9121BA7E4FFFE7D207C4190051A
:105BB500E0E0F8A3E0F9A3E0FAA3E0FB121409C0C2
:105BC50004C005C006C0079000B9E0FCA3E0FDA332
:105BD500E0FEA3E0FFE412161CD003D002D001D0F2
:105BE5000012140912165A9000B9121BA77FEA7EFB
:105BF500101293E99000BD121BA7E4FFFEFDFC9077
:105C050000BDE0F8A3E0F9A3E0FAA3E0FBC3121B93
:105C1500246003025D6C025D31E47FB37EFEFDFC12
:105C2500900578E0F8A3E0F9A3E0FAA3E0FBC3123E
:105C35001B246003025D6C7FDA7E101293E99000ED
:105C4500B9121BA79000B9E0FCA3E0FDA3E0FEA3F9
:105C5500E0FFE412161C9005E8E0F8A3E0F9A3E0E4
:105C6500FAA3E0FB12140912165A9000B9121BA7E9
:105C75007FEC7E101293E99000BD121BA7E4FFFE96
:105C8500FDFC9000BDE0F8A3E0F9A3E0FAA3E0FB7A
:105C9500C3121B24701D12AA269000BD121BA790CB
:105CA50000BDE0FCA3E0FDA3E0FEA3E0FF9005D06E
:105CB500121BA77FD87E101293E99000B9121BA77B
:105CC500E4FFFE7D207C419005E0E0F8A3E0F9A328
:105CD500E0FAA3E0FB121409C004C005C006C00722
:105CE5009000B9E0FCA3E0FDA3E0FEA3E0FFE41211
:105CF500161CD003D002D001D00012140912165A76
:105D05009000B9121BA77FEA7E101293E99000BD9F
:105D1500121BA7E4FFFEFDFC9000BDE0F8A3E0F92F
:105D2500A3E0FAA3E0FBC3121B24703B9000B5125D
:105D3500AA299000BD121BA79000BDE0FCA3E0FDC1
:105D4500A3E0FEA3E0FF9005D4121BA79000BDE0E1
:105D5500FCA3E0FDA3E0FEA3E0FF9000CA7410F0F1
:075D6500A374EAF012CA0466
:015D6C002214
:069EBF009000B1121BA788
:109EC500E4FFFEFDFC9000B1E0F8A3E0F9A3E0FAA1
:109ED500A3E0FB1215AFE4FFFE7DC87C429000B104
:109EE500E0F8A3E0F9A3E0FAA3E0FB1213187B0066
:109EF5007A5079C3784712140912165A9000B51290
:109F05001BA79000C9121BB3009896809000B5E07E
:109F1500FCA3E0FDA3E0FEA3E0FF12A43BE4FCFDEF
:109F2500FE9000B9121BA7E47FB47EFEFDFC9005F0
:109F350078E0F8A3E0F9A3E0FAA3E0FBC3121B2441
:109F4500703F9000B9E0FCA3E0FDA3E0FEA3E0FFB5
:109F55009005B8121BA77B017A0079BD9000B9E086
:109F6500FCA3E0FDA3E0FEA3E0FF12BF5A9000C0F2
:109F7500E0FFE4FCFDFE9000CA7428F0A3747B802A
:109F850058E47FB17EFEFDFC900578E0F8A3E0F98A
:109F9500A3E0FAA3E0FBC3121B2470419000B9E0D3
:109FA500FCA3E0FDA3E0FEA3E0FF9005C8121BA7FC
:109FB5007B017A0079C19000B9E0FCA3E0FDA3E044
:109FC500FEA3E0FF12BF5A9000C4E0FFE4FCFDFED3
:0D9FD5009000CA7428F0A3747CF012CA0436
:019FE200225C
:067F21009000B1121BA745
:107F2700E47FB57EFEFDFC900578E0F8A3E0F9A3B9
:107F3700E0FAA3E0FBC3121B246003027FF77FD69E
:107F47007E101293E99000BE121BA79000BEE0FCC2
:107F5700A3E0FDA3E0FEA3E0FFEC12161C9000B126
:107F6700E0F8A3E0F9A3E0FAA3E0FB121409E4FBAD
:107F7700FA79C8784212151212165A9000BA121BD3
:107F8700A7E49000B9F0FFFEFDFCA3E0F8A3E0F939
:107F9700A3E0FAA3E0FBD3121B0E9000BAE0FCA308
:107FA700E0FDA3E0FEA3E04003FF800F24FFFFEE08
:107FB70034FFFEED34FFFDEC34FFFC9000B5121BDF
:107FC700A79000B5E0FCA3E0FDA3E0FEA3E0FF90CF
:107FD70000CA7410F0A374EDF012CA049000B5E063
:107FE700FCA3E0FDA3E0FEA3E0FF9005BC0280C474
:107FF700E47FB27EFEFDFC900578E0F8A3E0F9A3EC
:10800700E0FAA3E0FBC3121B2460030280C77FD7FB
:108017007E101293E99000BE121BA79000BEE0FCF1
:10802700A3E0FDA3E0FEA3E0FFEC12161C9000B155
:10803700E0F8A3E0F9A3E0FAA3E0FB121409E4FBDC
:10804700FA79C8784212151212165A9000BA121B02
:10805700A7E49000B9F0FFFEFDFCA3E0F8A3E0F968
:10806700A3E0FAA3E0FBD3121B0E9000BAE0FCA337
:10807700E0FDA3E0FEA3E04003FF800F24FFFFEE37
:1080870034FFFEED34FFFDEC34FFFC9000B5121B0E
:10809700A79000B5E0FCA3E0FDA3E0FEA3E0FF90FE
:1080A70000CA7410F0A374EEF012CA049000B5E091
:1080B700FCA3E0FDA3E0FEA3E0FF9005CC121BA705
:0180C7002296
:03F4080002E8F720
:105D6D00900000EFF0BF030C9028637480F0A3E463
:105D7D00F0D28422C2849000CA7428F0A3747DF0FE
:105D8D007F007E007D007C0012CA049000CA74283A
:105D9D00F0A37478F07F007E007D007C0012CA04B1
:105DAD009028637480F0A3E4F0900000E07023FF6E
:105DBD00FE7D32FC12C0C5902864E04407F09000CF
:105DCD00CA7410F0A374EFF07FBC7E747D937C8851
:105DDD008031900000E0FF64016004EFB402297F80
:105DED00007E807D0C7C0012C0C5902864E04403C9
:105DFD00F09000CA7410F0A374EFF07F9C7E3C7D90
:105E0D001D7C9112CA04800312F3609028587449C6
:105E1D00F09000CA7410F0A374F4F07F307EA87D6A
:105E2D00617C0412CA049000CA7410F0A374FAF0D5
:105E3D007F107EC27DDE7C0612CA049000CA7410EB
:105E4D00F0A374F5F07F017E007D007C0012CA0482
:105E5D009000CA7410F0A374FBF07F017E007D00EA
:105E6D007C0012CA049000CA7428F0A37478F07FE5
:105E7D00577E007D007C0012CA049000CA7428F081
:105E8D00A37479F07F007E007D007C0012CA04901F
:105E9D0000CA7428F0A3747AF07F707E007D007CB8
:105EAD000012CA049000CA7410F0A374F0F07F00C1
:105EBD007E007D007C0012CA049000CA7410F0A30D
:105ECD0074F1F07F007E007D007C0012CA0490000A
:105EDD00CA7410F0A374F2F07F007E007D007C0088
:105EED0012CA049000CA7410F0A374F3F07F007E00
:105EFD00007D007C0012CA049000CA7410F0A374D7
:105F0D00F6F07F007E007D007C0012CA049000CA6E
:105F1D007410F0A374F7F07F007E007D007C0012FA
:105F2D00CA049000CA7410F0A374F8F07F007E00CC
:105F3D007D007C0012CA049000CA7410F0A374F99D
:105F4D00F07F007E007D007C0012CA049000CA74B0
:105F5D0028F0A3747DF07FDE7E007D007C0012CAE8
:105F6D00049000CA7428F0A3747BF07F007E007D3E
:105F7D00007C0012CA049000CA7428F0A3747CF04F
:105F8D007F007E007D007C0012CA049000CA742838
:105F9D00F0A3747EF07F017E007D007C0012CA04A8
:105FAD009000CA7410F0A374FCF07F017E007D0098
:105FBD007C0012CA0453A4DF43AD2043E8029028AD
:0C5FCD004BE04480F09008217403F022A7
:058FC60090000CEFF02B
:108FCB006401704E7FD37E101293E990000D121B3B
:108FDB00A7E4FFFEFD7C8090000DE0F8A3E0F9A371
:108FEB00E0FAA3E0FBC3121B24402490000DE0FC2D
:108FFB00A3E0FDA3E0FEA3E0FF121AF3EF2401FFB1
:10900B00E43EFEE43DFDE43CFC90000D121BA70288
:10901B0090AE90000CE0640260030290F0FB7D01C7
:10902B007F1B7E01120000BF013478197C007D018B
:10903B007B017A0079007E007F0412182C7B017A69
:10904B000079197D0412C431900019E0FCA3E0FDF6
:10905B00A3E0FEA3E0FF90000D121BA78007900773
:10906B001AE04410F0E4FFFEFD7C8090000DE0F868
:10907B00A3E0F9A3E0FAA3E0FBC3121B2440249066
:10908B00000DE0FCA3E0FDA3E0FEA3E0FF121AF34A
:10909B00EF2401FFE43EFEE43DFDE43CFC90000DBB
:1090AB00121BA790000DE0FCA3E0FDA3E0FEA3E0E4
:1090BB00FFE412161C9005E0E0F8A3E0F9A3E0FA38
:1090CB00A3E0FB121409900015121BA7900015E0EA
:1090DB00FCA3E0FDA3E0FEA3E0FF12165A900011E3
:1090EB00121BA7800A900011121BB300000000E4B2
:1090FB007F32FEFDFC900011E0F8A3E0F9A3E0FA4B
:10910B00A3E0FBC3121B24500A900011121BB300E7
:10911B00000000900011E0FCA3E0FDA3E0FEA3E043
:01912B00FF44
:01912C002220
:059C6B0090000CEFF079
:109C70006401704D7FD57E101293E990000D121B88
:109C8000A7E4FFFEFD7C8090000DE0F8A3E0F9A3BF
:109C9000E0FAA3E0FBC3121B24407C90000DE0FC23
:109CA000A3E0FDA3E0FEA3E0FF121AF3EF2401FFFF
:109CB000E43EFEE43DFDE43CFC90000D121BA78059
:109CC0005690000CE064026003029D597FD47E1020
:109CD0001293E990000D121BA7E4FFFEFD7C80901B
:109CE000000DE0F8A3E0F9A3E0FAA3E0FBC3121B28
:109CF00024402490000DE0FCA3E0FDA3E0FEA3E0DF
:109D0000FF121AF3EF2401FFE43EFEE43DFDE43CC4
:109D1000FC90000D121BA790000DE0FCA3E0FDA33A
:109D2000E0FEA3E0FFE412161C9005E8E0F8A3E0D3
:109D3000F9A3E0FAA3E0FB121409900015121BA787
:109D4000900015E0FCA3E0FDA3E0FEA3E0FF1216E7
:109D50005A900011121BA7800A900011121BB30029
:109D6000000000E47F14FEFDFC900011E0F8A3E089
:109D7000F9A3E0FAA3E0FBC3121B24500A900011E0
:109D8000121BB300000000900011E0FCA3E0FDA353
:059D9000E0FEA3E0FF6E
:019D950022AB
:056B4500900749EFF08C
:106B4A006003026BD17FD17E101293E990074A123B
:106B5A001BA7E4FB7D017F197E01120000BF0134EF
:106B6A00785A7C077D017B017A0079007E007F04D8
:106B7A0012182C7B017A07795A7D0412C4319007C6
:106B8A005AE0FCA3E0FDA3E0FEA3E0FF90074E124B
:106B9A001BA7800790071AE04410F090074EE0FC0C
:106BAA00A3E0FDA3E0FEA3E0FF90074AE0F8A3E01C
:106BBA00F9A3E0FAA3E02FFFEA3EFEE93DFDE83C37
:106BCA00FC900752121BA7900749E0B4012C7FD111
:106BDA007E101293E990074A121BA7E4FFFEFD7C80
:106BEA008090074AE0F8A3E0F9A3E0FAA3E0FBC328
:106BFA00121B245003026CA1806D900749E06402C5
:106C0A006003026C97FB7D017F197E01120000BFB1
:106C1A000134785A7C077D017B017A0079007E0075
:106C2A007F0412182C7B017A07795A7D0412C43129
:106C3A0090075AE0FCA3E0FDA3E0FEA3E0FF900763
:106C4A004A121BA7800790071AE04410F0E4FFFEDF
:106C5A00FD7C8090074AE0F8A3E0F9A3E0FAA3E0FC
:106C6A00FBC3121B24403090074AE0FCA3E0FDA3BB
:106C7A00E0FEA3E0FF121AF3EF2401FFE43EFEE474
:106C8A003DFDE43CFC90074A121BA7800A90074A84
:106C9A00121BB300000000E47F867E19FDFC9007FA
:106CAA004AE0F8A3E0F9A3E0FAA3E0FBC3121B242D
:106CBA00500C900752121BB300000000806390072B
:106CCA0049E0B4011FA3E0FCA3E0FDA3E0FEA3E0BA
:106CDA00FFE412161C90BEEF121B971214099007BC
:106CEA0056121BA7900749E0B4021FA3E0FCA3E0D9
:106CFA00FDA3E0FEA3E0FFE412161C90BEEF121BF8
:106D0A0097121409900756121BA7900756E0FCA386
:106D1A00E0FDA3E0FEA3E0FF12165A900752121BF1
:0F6D2A00A7900752E0FCA3E0FDA3E0FEA3E0FF6B
:016D39002237
:05B4310090000CEFF09B
:10B43600BF01247FFD7E101293E990000D121BA719
:10B4460090000DE0F8A3E0F9A3E0FAA3E0FBE4FF27
:10B45600FE7DE27C04805D90000CE064027069FB76
:10B466007D017F9A7E01120000EF6401705178150C
:10B476007C007D017B017A007900FE7F0412182C86
:10B486007B017A0079157D0412C431900015E0FC29
:10B49600A3E0FDA3E0FEA3E0FF90000D121BA79022
:10B4A600000DE0F8A3E0F9A3E0FAA3E0FBE4FFFE59
:10B4B6007D887C13121A61900011121BA7801390CD
:10B4C600071AE04410F0800A900011121BB3000026
:10B4D6000000900011E0FCA3E0FDA3E0FEA3E0FF66
:10B4E600E412161C7B9A7A997999783F12140912FC
:10B4F600165A900011121BA7900011E0FCA3E0FD64
:06B50600A3E0FEA3E0FF3C
:01B50C00221C
:10768200900010121BB300000000900010E0F8A35D
:10769200E0F9A3E0FAA3E0FBC000C001C002C0030E
:1076A2007FD17E101293E9D003D002D001D000EB3B
:1076B2002FFFEA3EFEE93DFDE83CFC900010121B64
:1076C200A7900010E0F8A3E0F9A3E0FAA3E0FBC062
:1076D20000C001C002C0037FD27E101293E9D00322
:1076E200D002D001D000EB2FFFEA3EFEE93DFDE8DB
:1076F2003CFC900010121BA7E4FFFEFD7C80900072
:1077020010E0F8A3E0F9A3E0FAA3E0FBC3121B2404
:10771200900822E0402954EFF0900010E0FCA3E032
:10772200FDA3E0FEA3E0FF121AF3EF2401FFE43E03
:10773200FEE43DFDE43CFC900010121BA7800344D4
:1077420010F0900010E0FCA3E0FDA3E0FEA3E0FF38
:1077520090000C121BA7E47F867E19FDFC9000109E
:10776200E0F8A3E0F9A3E0FAA3E0FBC3121B245064
:107772001190000C121BB300000000900822E0548C
:10778200EFF090000CE0FCA3E0FDA3E0FEA3E0FF1D
:10779200E47B02FAF9F8121A6190000C121BA7900E
:1077A200000CE0FCA3E0FDA3E0FEA3E0FF900010CC
:1077B200121BA790000CE0FCA3E0FDA3E0FEA3E0F7
:1077C200FF9000CA7410F0A374FCF012CA04900077
:1077D20010E0FCA3E0FDA3E0FEA3E0FFE412161C10
:1077E20090BEEF121B9712140912165A9006CC1271
:1077F2001BA79006CCE0FCA3E0FDA3E0FEA3E0FF04
:10780200E412161C900635121BA7900635E0FCA365
:10781200E0FDA3E0FEA3E0FFE4FBFAF978401215D5
:1078220012900635121BA7900635E0F8A3E0F9A3E3
:10783200E0FAA3E0FB7F007EA87DF77C46121512DA
:0678420090063B021BA7AB
:103C4E009006E8121BB3000000009006E4121BB3AE
:103C5E00000000009006F0121BB3000000007FD29F
:103C6E007E101293E99006E8121BA77FEE7E1012CB
:103C7E0093E99006E4121BA7E4FB7D017F1A7E01F7
:103C8E00120000EF6401704578F87C067D017B011F
:103C9E007A007900FE7F0412182C7B017A0679F8DF
:103CAE007D0412C4319006F8E0FCA3E0FDA3E0FE13
:103CBE00A3E0FFE412161C7BCB7AA179D5783F12D4
:103CCE00140912165A9006F0121BA7800890071AB4
:103CDE00E04410F022E47F867E19FDFC9006ECE0B5
:103CEE00F8A3E0F9A3E0FAA3E0FBD3121B24401BD8
:103CFE007F7A7EE67DFF7CFF9006ECE0F8A3E0F98C
:103D0E00A3E0FAA3E0FB121B24400A9006EC121B60
:103D1E00B300000000E47F867E19FDFC9006F4E0FF
:103D2E00F8A3E0F9A3E0FAA3E0FBD3121B24401B97
:103D3E007F7A7EE67DFF7CFF9006F4E0F8A3E0F943
:103D4E00A3E0FAA3E0FB121B24400A9006F4121B18
:103D5E00B3000000009006E89006F0900822E030D4
:103D6E00E503023E9430E3509006F0E0FCA3E0FD44
:103D7E00A3E0FEA3E0FF121AF3EF2401FFE43EFEE0
:103D8E00E43DFDE43CFC9006F0121BA79006E8E033
:103D9E00FCA3E0FDA3E0FEA3E0FF9006F0E0F8A395
:103DAE00E0F9A3E0FAA3E02FFFEA3EFEE93DFDE8CD
:103DBE003CFC9006F8023FD79006F0E0FCA3E0FD35
:103DCE00A3E0FEA3E0FF9006E8E0F8A3E0F9A3E08D
:103DDE00FAA3E0FBC3121B2440509006F0E0F8A3B8
:103DEE00E0F9A3E0FAA3E0FB9006E8E0FCA3E0FD17
:103DFE00A3E0FEA3E09BFFEE9AFEED99FDEC98FC8E
:103E0E009006F8121BA79006F0E0FCA3E0FDA3E0DD
:103E1E00FEA3E0FF121AF3EF2401FFE43EFEE43DA1
:103E2E00FDE43CFC9006F0023FD79006E8E0F8A3D4
:103E3E00E0F9A3E0FAA3E0FB9006F0E0FCA3E0FDBE
:103E4E00A3E0FEA3E0C39BFFEE9AFEED99FDEC9876
:103E5E00FC9006F8121BA7900725E064556003023C
:103E6E003FDA9006F0E0FCA3E0FDA3E0FEA3E0FF46
:103E7E00121AF3EF2401FFE43EFEE43DFDE43CFCA8
:103E8E009006F0023FD7900822E020E303023F7530
:103E9E009006F0E0FCA3E0FDA3E0FEA3E0FF900699
:103EAE00E8E0F8A3E0F9A3E0FAA3E0FBC3121B24B9
:103EBE0040659006F0E0F8A3E0F9A3E0FAA3E0FB7A
:103ECE009006E8E0FCA3E0FDA3E0FEA3E09BFFEE7E
:103EDE009AFEED99FDEC98FC9006F8121BA7900740
:103EEE0025E064559006F0600DE0FCA3E0FDA3E034
:103EFE00FEA3E0FF801BE0FCA3E0FDA3E0FEA3E039
:103F0E00FF121AF3EF2401FFE43EFEE43DFDE43C14
:103F1E00FC9006F0023FD79006E8E0F8A3E0F9A384
:103F2E00E0FAA3E0FB9006F0E0FCA3E0FDA3E0FEC8
:103F3E00A3E0C39BFFEE9AFEED99FDEC98FC900674
:103F4E00F8121BA79006F0E0FCA3E0FDA3E0FEA391
:103F5E00E0FF121AF3EF2401FFE43EFEE43DFDE420
:103F6E003CFC9006F080629006F0E0FCA3E0FDA31E
:103F7E00E0FEA3E0FF9006E8E0F8A3E0F9A3E0FA84
:103F8E00A3E02FFFEA3EFEE93DFDE83CFC9006F87B
:103F9E00121BA7900725E064559006F0600DE0FC1B
:103FAE00A3E0FDA3E0FEA3E0FF801BE0FCA3E0FD89
:103FBE00A3E0FEA3E0FF121AF3EF2401FFE43EFE9E
:103FCE00E43DFDE43CFC9006F0121BA79005B4E026
:103FDE00FCA3E0FDA3E0FEA3E02400FFE43EFEE42C
:103FEE003DFDEC3480FCE412161CA804A905AA06BB
:103FFE00AB07E4FFFEFD7C4F1215129006FC121B60
:10400E00A7E4FFFEFD7C809006F0E0F8A3E0F9A3A4
:10401E00E0FAA3E0FBD3121B249006F0E0FC406B09
:10402E00A3E0FDA3E0FEA3E0FF121AF3EF2401FFCD
:10403E00E43EFEE43DFDE43CFC9006F0121BA7902E
:10404E0006F0E0FCA3E0FDA3E0FEA3E0FFE4121601
:10405E001C9006FCE0F8A3E0F9A3E0FAA3E0FB1243
:10406E00140912165A9006F0121BA79006F0E0FCE7
:10407E00A3E0FDA3E0FEA3E0FF121AF3EF2401FF7D
:10408E00E43EFEE43DFDE43CFC8021A3E0FDA3E024
:10409E00FEA3E0FFE412161C9006FCE0F8A3E0F984
:1040AE00A3E0FAA3E0FB12140912165A9006F012BE
:1040BE001BA79006F0E0FCA3E0FDA3E0FEA3E0FF4B
:1040CE009000CA7410F0A374EEF012CA04E4FFFE5E
:1040DE00FD7C809006F0E0F8A3E0F9A3E0FAA3E0FF
:1040EE00FBD3121B2440249006F0E0FCA3E0FDA3BA
:1040FE00E0FEA3E0FF121AF3EF2401FFE43EFEE41C
:10410E003DFDE43CFC9006F0121BA7E4FFFEFD7C97
:10411E00809006E8E0F8A3E0F9A3E0FAA3E0FBD371
:10412E00121B2440249006E8E0FCA3E0FDA3E0FE71
:10413E00A3E0FF121AF3EF2401FFE43EFEE43DFD7F
:10414E00E43CFC9006E8121BA7E4FFFEFD7C809089
:10415E0006F8E0F8A3E0F9A3E0FAA3E0FBD3121B04
:10416E002440249006F8E0FCA3E0FDA3E0FEA3E0CB
:10417E00FF121AF3EF2401FFE43EFEE43DFDE43CA2
:10418E00FC9006F8121BA79006E8E0FCA3E0FDA346
:10419E00E0FEA3E0FFE412161C90BEF3121B971272
:1041AE00140912165A9006D0121BA79006F8E0FCBE
:1041BE00A3E0FDA3E0FEA3E0FFE412161C90BEF305
:1041CE00121B9712140912165A9006E4121BA7908E
:1041DE0006F0E0FCA3E0FDA3E0FEA3E0FFE4121670
:1041EE001C90BEF3121B9712140912165A9006F861
:0D41FE00121BA790070C121BB3000000005D
:01420B002290
:057D7200900798EFF0FE
:107D7700BF014B7FD27E101293E9900799121BA780
:107D8700E4FFFEFD7C80900799E0F8A3E0F9A3E00B
:107D9700FAA3E0FBC3121B245003027E88900799C5
:107DA700E0FCA3E0FDA3E0FEA3E0FF121AF3EF243B
:107DB70001FFE43EFEE43DFDE43CFC027E769007D5
:107DC70098E064026003027E7EFB7D017F1A7E01DC
:107DD700120000BF013478A57C077D017B017A0082
:107DE70079007E007F0412182C7B017A0779A57D24
:107DF7000412C4319007A5E0FCA3E0FDA3E0FEA3B5
:107E0700E0FF900799121BA7800790071AE044101C
:107E1700F0E4FFFEFD7C80900799E0F8A3E0F9A36A
:107E2700E0FAA3E0FBC3121B244024900799E0FC6F
:107E3700A3E0FDA3E0FEA3E0FF121AF3EF2401FF86
:107E4700E43EFEE43DFDE43CFC900799121BA7903D
:107E57000799E0FCA3E0FDA3E0FEA3E0FFE4121610
:107E67001C7BCB7AA179D5783F12140912165A9048
:107E77000799121BA7800A900799121BB3000000ED
:107E870000E47F867E19FDFC900799E0F8A3E0F9EE
:107E9700A3E0FAA3E0FBC3121B24500C90079D122A
:107EA7001BB3000000008063900798E0B4011FA394
:107EB700E0FCA3E0FDA3E0FEA3E0FFE412161C90A4
:107EC700BEF3121B971214099007A1121BA7900764
:107ED70098E0B4021FA3E0FCA3E0FDA3E0FEA3E04B
:107EE700FFE412161C90BEF3121B97121409900799
:107EF700A1121BA79007A1E0FCA3E0FDA3E0FEA34E
:107F0700E0FF12165A90079D121BA790079DE0FCF1
:097F1700A3E0FDA3E0FEA3E0FFDE
:017F2000223E
:10E8770003E503E803EC03EF03D903DC03E003E359
:10E8870003D303D603D903DC03C603C903CC03CFE1
:10E89700041004130416041904030407040A040DDE
:10E8A70003FA03FD0400040303ED03F103F403F784
:10E9B000EFB401089028637481F0800BEF6402705B
:10E9C0002A90286374A2F0902864E04408F0A3E041
:10E9D0004401F07F787E281293E9EF4418FF9000FD
:0BE9E000CA7428F0A37478F012CA0477
:01E9EB002209
:10EE4E00902864E054F7F09028637480F090286561
:10EE5E00E04401F07F787E281293E9EF54F7FF909B
:0CEE6E0000CA7428F0A37478F002CA04F3
:10E9EC007F0212E9B07F0A7E0012F26A7FCE7E109F
:10E9FC001293E97810121B35EE30E70FEFF4FFEEAF
:10EA0C00F4FEEF2401FFE43EFE800F7C007D4712F4
:0BEA1C001900EF24FBFFEE34FFFE00AA
:01EA270022CC
:10ED65007F0112E9B07F0A7E0012F26A1200569006
:10ED7500000D121BA7E4FFFE7D207C4190000DE0F5
:10ED8500F8A3E0F9A3E0FAA3E0FB12140912165A5E
:01ED9500225B
:100056009000127404F0A37420F0E4900011F09064
:100066000011E0FFC394035043EF75F018A4FF900E
:100076000013E02FFD900012E035F0FC7E007F14A7
:100086007B1512EB147B017A00791490003D7433D2
:10009600F07D137C0012EF97900033EFF09000286C
:1000A600E06F6008900011E004F080B37B017A00F5
:1000B60079147D0412C4317B017A0079187D04120B
:1000C600C4317B017A00791C7D0412C4317B017A2C
:1000D6000079207D0412C4317B017A0079247D04E5
:1000E60012C4317FCE7E101293E97810121B359020
:1000F6000034121BA77E007F29902862E0543E241C
:1001060077F582E434E8AD82FC7B0212EB149000B2
:1001160029E0FEA3E0FFE4FCFD900034E0F8A3E054
:10012600F9A3E0FAA3E0FB1219D6E47BE87A03F917
:10013600F8121A61900034121BA7900028E0FF9075
:100146000033E06F6032900014121BB30000466269
:10015600900018121BB30000000190001C121BB384
:100166000D5A4336900020121BB300001BB49000BA
:1001760024121BB30000000A900034E0FCA3E0FD4B
:10018600A3E0FEA3E0FF900020E0F8A3E0F9A3E0DF
:10019600FAA3E0FB1219D690001CE0F8A3E0F9A33D
:1001A600E0FAA3E02FFFEA3EFEE93DFDE83CFCE471
:1001B60012161C12C4E2C004C005C006C007900097
:1001C60018E0FCA3E0FDA3E0FEA3E0FFE412161C8A
:1001D600D003D002D001D000121409C004C005C05B
:1001E60006C007900014E0FCA3E0FDA3E0FEA3E038
:1001F600FFE412161CA804A905AA06AB07D007D06F
:1002060006D005D004121314C004C005C006C007EA
:10021600900024E0FCA3E0FDA3E0FEA3E0FFE412CF
:10022600161CA804A905AA06AB07D007D006D00558
:10023600D00412151290002F121BA79000127404FE
:10024600F0A37480F0E4900011F0900011E0FFC379
:1002560094035046EF75F004A4FF900013E02FFDC1
:10026600900012E035F0FC7E007F2B7B0412EB142D
:100276007B017A00792B90003D7433F07D027C007F
:1002860012EF9790002DEFF0A3E0FF90002DE06FA6
:100296006008900011E004F080B090002EE0FF901E
:1002A600002DE06F6007E490002BF0A3F090002B88
:1002B600E030E75B90002BE0FEA3E0F4FFEEF4FEF7
:1002C600EF2401FFE43E90002BF0A3EFF090002F07
:1002D600E0FCA3E0FDA3E0FEA3E0FFC004C005C070
:1002E60006C00790002BE0FEA3E0FF7C007D0A120B
:1002F6001900AC06AD07E4121621A804A905AA0642
:10030600AB07D007D006D005D0041213148038905E
:10031600002FE0F8A3E0F9A3E0FAA3E0FBC000C0D9
:1003260001C002C00390002BE0FEA3E0FF7C007D2D
:100336000A121900AC06AD07E4121621D003D0024A
:10034600D001D00012131890002F121BA7E4FFFE55
:100356007DB47C4290002FE0F8A3E0F9A3E0FAA375
:10036600E0FB1215AF600E400C90002F121BB3423B
:10037600B400008024E4FFFE7D2C7CC290002FE0B8
:10038600F8A3E0F9A3E0FAA3E0FB1215AF500A9038
:10039600002F121BB3C22C000090002FE0FCA3E03C
:0703A600FDA3E0FEA3E0FF50
:0103AD00222D
:06B0AF00900009121BA72E
:10B0B500E490000DF0C286C285902867E044C0F098
:10B0C500A37420F0900009E0FCA3E0FDA3E0FEA33B
:10B0D500E0FF121C8CB102000C8000B10A001900BF
:10B0E50000B11A00320000B12200640000B12F0047
:10B0F500C80000B141019000000000B153902867DD
:10B10500E054FC800A902867E04401F0E054FDF02B
:10B11500A3E4F0803C902867E054FE800690286701
:10B12500E04401F0E04402F08027902867E0440104
:10B13500F0E04402F0A3E04440F08015902867E079
:10B145004401F0E04402F0A3E044C0F0800312F3B0
:10B1550060E5A320E00F90000DE004F0E0D3943209
:10B1650040EF7F0022D280E490000DF020800F9008
:10B17500000DE004F0E0D3943240F17F00229028E6
:0EB185005FE4F0A37403F0A3E04420F07F0128
:01B193002299
:06C0C500900001121BA710
:10C0CB00E4900005F0C284902867E044C0F0900033
:10C0DB0001E0FCA3E0FDA3E0FEA3E0FF121C8CC17A
:10C0EB000600000000C10B000C8000C118001900F5
:10C0FB0000C12D003200000000C142D2847F01221A
:10C10B00902867E054F3F0E054CFF0802D9028672F
:10C11B00E04404F0E054F7F0E04410F0E054DFF0BA
:10C12B008018902867E054FBF0E04408F0E054EFEF
:10C13B00F0E04420F0800312F360E5A320E00F90C1
:10C14B000005E004F0E0D3943240EF7F0022D28769
:10C15B00E4900005F020870F900005E004F0E0D399
:09C16B00943240F17F00227F01B3
:01C1740022A8
:10E39600C286C285902864E4F0902866F090000951
:10E3A600F0900009E004F0E0B414F6D284E5A13060
:10E3B600E00312F360C2802080FDE5A130E0031285
:10E3C600F360E4900009F0900009E004F0E0B40383
:10E3D600F6902867E4F0902867E070FAD2817F32E1
:04E3E60012F3B90075
:01E3EA002210
:10D7C3009028ADE054FDF09028ACE054FDF0902893
:10D7D300AEE04402F09028ACE054FBF0A3E054FB2D
