:01040000FFFC
:0300000002D2FA2F
:06D2FA0075812002D33B08
:10C08D000075CEA575CF5A0075CEA575CF5A00C2D5
:10C09D00AF12EC04D2AF0075CEA575CF5A0075CE98
:10C0AD00A575CF5A0012F177EF6401707C75CEA59E
:10C0BD0075CF5A0075CEA575CF5A00900714E0FFC5
:10C0CD0030E00654FEF012EEB51289B6900714E07A
:10C0DD00FF30E10654FDF01290C390069BE0640121
:10C0ED00600790069CE0B4010312B51E900697E020
:10C0FD0064017024F012B44775CEA575CF5A007542
:10C10D00CEA575CF5A007D017F0112BAB37FFF1204
:10C11D00EE4090069D7403F01289B675CEA575CFCD
:0FC12D005A0075CEA575CF5A001289B602C0A46C
:10DF7D0000100044443031412D5632302E30351EC4
:10DF8D001E26002000111111111111FFFFFFFFFFBF
:10DF9D00FFFFFFFFFF111111111111000000000013
:10DFAD0000000000000000000000005A000000000A
:10DFBD001C0000000000000000000F0101FFFFFF2A
:10DFCD00FFFFFFFFFF001234560000006534120002
:01DFDD000043
:10D99B00E4900714F0A3F09007187403F0E49007D9
:10D9AB002BF07B017A07791D9001D6F0A304F0A32D
:10D9BB0004F07D997C0012CE927B017A07791E9040
:10D9CB0001D6E4F0A37402F0A3F07D9F7C0012CE8D
:10D9DB00927B017A0779209001D6E4F0A37402F0D0
:10D9EB00A3F07DA17C0012CE927B017A0779279060
:10D9FB0001D6E4F0A37404F0A37402F07DC17C00A3
:03DA0B0002CE92B6
:10DBCB0000020000003E0102003E002F1402006D17
:10DBDB000052150200BF00101B02011B001A190294
:10DBEB0000CF0009460200D8003A150200BF001012
:10DBFB0052020135001A5302014F001E5402016DEF
:10DC0B0000621A0201120009650208000071660227
:10DC1B0008710071670208E2007168020953007114
:0CDC2B00690209C400716A020A35007128
:10B92800900012E0FEA3E0FF900016E0FCA3E0FD0B
:02B938007B0290
:10B93A00900189EEF0A3EFF0A3ECF0A3EDF0A3EBF6
:01B94A00F00C
:10B94B009001CF74A5F0A3745AF090018BE0FEA385
:10B95B00E0FFD39400EE9400500302B9E6EF94405D
:10B96B00EE940090018E40057440F08002EFF07B66
:10B97B00017A01798F900189E0FCA3E0FD90018EA3
:10B98B00E0FF9001D6E4F0A3EFF090018DE0900181
:10B99B00D8F012CE927B017A01798F90018EE0FD67
:10B9AB007C00E49001D6F0A3F012EC669001D0E09D
:10B9BB002FF09001CFE03EF090018EE0FF7E0090E3
:10B9CB00018AE02FF0900189E03EF0C390018CE0FA
:10B9DB009FF090018BE09EF002B9559001CFE0FEF5
:03B9EB00A3E0FFD7
:01B9EE002236
:08CFAF00900189EEF0A3EFF000
:10CFB700E4FFEF75F006A424CCF582E434DBF583B7
:10CFC700E4936D7068ED640260037FFF22EF75F0F4
:10CFD70006A424CDF582E434DBF583E493FB7401E6
:10CFE7009390018BCBF0A3EBF0EF75F006A424CF61
:10CFF700F582E434DBF583740193F990018BE0FA51
:10D00700A3E0FBC390018AE09B900189E09A401D51
:10D01700E9FB90018CE02BFB90018BE03400FAC315
:10D0270090018AE09B900189E09A5001220FEF64FA
:08D0370012600302CFB97FFF74
:01D03F0022CE
:10AE1A00900012E0FCA3E0FD2400FFEC3404FE9055
:10AE2A000017E02402FB900016E03400FA9000209C
:03AE3A007422F08F
:10AE3D0090001AEEF0A3EFF0A3ECF0A3EDF0A3EA6F
:04AE4D00F0A3EBF093
:10AE510090001EE0FEA3E0FFD39400EE94005003A7
:10AE610002AF08D3EF9440EE940090006140057466
:10AE710040F08002EFF07B017A00792190001CE024
:10AE8100FCA3E0FD900061E0FF9001D6E4F0A3EFA8
:10AE9100F0900020E0FFC4540F9001D8F012CE9240
:10AEA10075CEA575CF5A0075CEA575CF5A007B0119
:10AEB1007A007921900061E0FD90018EE4F0A3ED2C
:10AEC100F0900020E0540F900190F090001AE0FE05
:10AED100A3E0FF12CB15900061E0FFFD7C00900024
:10AEE1001BE02DF090001AE03CF090001DE02DF0E9
:10AEF10090001CE03CF0C390001FE09FF090001E0A
:07AF0100E09400F002AE51E4
:01AF08002226
:10C7E00090007AEEF0A3EFF0A3ECF0A3EDF0AF032E
:10C7F0007B017A007980AD0790017BE4F0A374405F
:10C80000F012ED7590007CE0FEA3E0FFD39400EE03
:10C8100094004069D3EF9440EE94009000C040052E
:10C820007440F08002EFF090007AE0FEA3E0FF7B1E
:10C83000017A0079809000C0E0FD90018EE4F0A3C1
:10C84000EDF090007FE0900190F012CB1575CEA531
:10C8500075CF5A0075CEA575CF5A009000C0E0FF85
:10C860007E0090007BE02FF090007AE03EF0C390D5
:0DC87000007DE09FF090007CE09EF080874E
:01C87D002298
:0BCE87009001D6E4F0A37402F0A3F0C9
:10CE92009001D1EBF0A3EAF0A3E9F0A3ECF0A3ED4B
:01CEA200F09F
:10CEA3009001D8E024FE604B0470699001D4E0FE49
:10CEB300A3E0AA06F99001D97401F0A3EAF0A3E96B
:10CEC300F09001D9E0F9A3E0FAA3E09001DFC9F003
:10CED300A3EAF0A3E9F09001D6E0FFA3E09001E21A
:10CEE300CFF0A3EFF09001D1E0FBA3E0FAA3E0F9C8
:10CEF30002E03D9001D1E0FBA3E0FAA3E0F9A3E057
:10CF0300FCA3E0FDA3E0FFA3E09001E1CFF0A3EFDA
:07CF1300F002C6A012F25467
:01CF1A0022F4
:10CAF40090000EEEF0A3EFF09000147A00790EE0AF
:10CB0400FEA3E0FF7B0190018EE4F0A37402F0A386
:01CB1400F030
:10CB1500900189EEF0A3EFF0A3EBF0A3EAF0A3E90F
:01CB2500F01F
:10CB2600900190E024FE603C04705A900189E0FE7A
:10CB3600A3E0AA06F97B01C002C001A3E0F9A3E0C5
:10CB4600FAA3E09001DFC9F0A3EAF0A3E9F09001AF
:10CB56008EE0FFA3E09001E2CFF0A3EFF0D001D08A
:10CB66000202E03D900189E0FEA3E0FFA3E0FBA303
:10CB7600E0FAA3E0F9A3E0FDA3E0900196CDF0A3CF
:08CB8600EDF002C9BA12F254ED
:01CB8E002284
:10999400900179EBF0A3EAF0A3E9F0900177EEF0FF
:0399A400A3EFF03E
:1099A70090017EE0FD12CFAF90017FEFF0C39412DC
:1099B700400312F25490017FE0FF75F006A424CD16
:1099C700F582E434DBF583E493FD7401939001821F
:1099D700CDF0A3EDF0EF75F006A424CFF582E434C3
:1099E700DBF58374019324FEFFE49334FFFE9001BB
:1099F70086F0A3EFF0900183E02FFF900182E03E15
:109A0700900184F0A3EFF090017FE075F006A424A5
:109A1700CBF582E434DBF583E493900188F0900181
:109A270077E0FEA3E0FFA3E0FBA3E0FAA3E0F9A33E
:109A3700E0FDA3E090018ECDF0A3EDF090017EE074
:109A4700900190F012CB15900182E0FEA3E0FF9009
:109A5700018612B933900180EEF0A3EFF0900184F4
:109A67007A01798012CB03900188E0C3946450484F
:109A7700900178E02400FF900177E03404FE900124
:109A870079E0FBA3E0FAA3E0F9A3E0FDA3E09001EE
:109A97008ECDF0A3EDF090017EE0900190F012CB17
:109AA70015900185E02400FF900184E03404FE7BDB
:089AB700017A01798012CB0A4B
:019ABF002284
:10A38700E4FEEE75F006A424CBF582E434DBF58316
:10A39700E4936F60050EEEB412E8EEC39412400327
:10A3A70002A487EE75F006A424CDF582E434DBF52C
:10A3B70083E493FD74019390001ACDF0A3EDF0EEC2
:10A3C70075F006A424CFF582E434DBF5837401939A
:10A3D70024FEFCE49334FF90001CF0A3CCF0EF24A0
:10A3E700EB602224CF602E24F4603A146047146097
:10A3F700542440707290001AE0FEA3E0FF7BFF7ABE
:10A40700DF798C804E90001AE0FEA3E0FF7BFF7A95
:10A41700DE79B3803E90001AE0FEA3E0FF7BFF7A6F
:10A42700BD79B9802E90001AE0FEA3E0FF7BFF7A8A
:10A43700CC7929801E90001AE0FEA3E0FF7BFF7A0B
:10A44700CC7943800E90001AE0FEA3E0FF7BFF7AF1
:10A45700CC7961A3E0FDA3E090018ECDF0A3EDF0F0
:10A46700A37402F002CB1590001AE0FEA3E0FFA34D
:10A47700E0FCA3E0FD90007F7402F0E4FB12C7E06C
:01A4870022B2
:10709400E490000DF090000DE0F9C3941240030257
:1070A400726BE4900018F090000DE0FF75F006A4F8
:1070B40024CDF582E434DBF583E493FD74019390ED
:1070C4000012CDF0A3EDF0EF75F006A424CFF58205
:1070D400E434DBF58374019324FEFEE49334FF90DF
:1070E4000016F0A3CEF0900016E0FAA3E0FB9000A7
:1070F40012E0FCA3E0FD2BFEEC3AA3F0A3CEF0E9F2
:1071040075F006A424CBF582E434DBF583E4939094
:107114000019F075CEA575CF5A0075CEA575CF5A56
:1071240000AF05AE04AD03AC027B0212B93A900085
:107134000EEEF0A3EFF07B017A007910900014E0DA
:10714400FCA3E0FD12CE87900010E0FEA3E0FF90C8
:10715400000EE06E7003A3E06F6007900018E04437
:1071640001F0900019E0C39464504B900013E024A4
:1071740000FF900012E03404FE12B93090000EEECD
:10718400F0A3EFF07B017A007910900015E0240061
:10719400FD900014E03404FC12CE87900010E0FE51
:1071A400A3E0FF90000EE06E7003A3E06F60079011
:1071B4000018E04402F075CEA575CF5A0075CEA52F
:1071C40075CF5A00900018E0700302725424FE60D8
:1071D4003614604124027075900019E0C394645021
:1071E40015900012E0FEA3E0FF2400FDEE3404FC41
:1071F40012AE29027241900019E0FF12A38712B95E
:107204002812CAF4027241900019E0C394645040F9
:1072140012AE1A8028900019E0FF12A38712B92831
:1072240012CAF475CEA575CF5A0075CEA575CF5A7E
:1072340000900019E0C39464501612AE1A75CEA5DE
:1072440075CF5A0075CEA575CF5A00800312F2543B
:1072540075CEA575CF5A0075CEA575CF5A0090008E
:077264000DE004F002709937
:01726B002200
:05BCF900900093EFF044
:10BCFE00E4A3F0900094E0F9C39412400302BDB89F
:10BD0E00E0FE75F006A424CDF582E434DBF583E481
:10BD1E0093FC740193FDEE75F006A424CFF582E436
:10BD2E0034DBF58374019324FE2DFEE43C900097E2
:10BD3E00F0A3CEF0E975F006A424CBF582E434DB53
:10BD4E00F583E493FF900099F0BF4608900093E0CE
:10BD5E0064A5704D75CEA575CF5A0075CEA575CF5D
:10BD6E005A00E4900095F0A3F0900097E0FEA3E057
:10BD7E00FF7B017A00799512CB0A900099E0C3946B
:10BD8E0064501EE4900095F0A3F0900098E024001B
:10BD9E00FF900097E03404FE7B017A00799512CB78
:0ABDAE000A900094E004F002BD01C9
:01BDB8002268
:10C13C0012F0F6EF6401600302C1D69007F3E0C37E
:10C14C009403400302C1EAE004F0E0C394035003FB
:10C15C0002C1EA90071DE0645A600302C1EA90072D
:10C16C00F4E06401607812DD0F75CEA575CF5A002E
:10C17C0075CEA575CF5A0012B44775CEA575CF5A9A
:10C18C000075CEA575CF5A0012D92775CEA575CFDF
:10C19C005A0075CEA575CF5A0012A06D12E6FD752A
:10C1AC00CEA575CF5A0075CEA575CF5A00129BEB54
:10C1BC0075CEA575CF5A0075CEA575CF5A007FA840
:10C1CC001203AE9007F47401F0229007F3E0D394BD
:0FC1DC00004003E014F09007F3E07002A3F0229C
:10E2040012F1A7EF640170269007F1E0C394035064
:10E2140043E004F0E0C39403403AA3E064016034B3
:10E224007D017F0912BAB39007F27401F0229007BE
:10E23400F1E0D3940040069007F3E014F09007F166
:10E24400E07011A3E0B4010C7DFF7F0912BAB3E4BE
:05E254009007F2F0222A
:10F218007B017A0779F090017BE4F0A37405F0E4B0
:04F22800FD02ED7581
:01004A002293
:10F17700E4FFE5A120E0050FEFB41EF6EFC39419F5
:07F1870050037F01227F000D
:01F18E00225E
:10E2AE00900716E5A1F0E59560047F0180027F00DE
:10E2BE00E59460047E0180027E00EE4F6011759041
:10E2CE0096759757E4F594F5957590967597560053
:10E2DE00758F019004027486F0E4F58F75A001FF2E
:10E2EE00FE7D32FC12AFEF12E1AD12F03102E8F01A
:1077DE007B017A00790A9001D6E4F0A37403F0A33A
:1077EE0014F07DBA7C0012CE9290000AE0B4650BC4
:1077FE00A3E0B43406A3E06412602D9004BC7401BF
:10780E00F012D38090007F7402F0E4FBFD7C10FF39
:10781E007E0812C7E07FA512BCF975CEA575CF5AAA
:10782E000075CEA575CF5A00900717E07011127033
:10783E009475CEA575CF5A0075CEA575CF5A001288
:10784E00D99B12F21875CEA575CF5A0075CEA575B7
:10785E00CF5A007B017A0579BF9001D6E4F0A3746C
:10786E003AF0A37402F07DD87C0012CE9212F2FC94
:10787E0012F2F912DC3775CEA575CF5A0075CEA56A
:10788E0075CF5A0012EA161268CA12EDC912EB68C9
:10789E0012F14475CEA575CF5A0075CEA575CF5A87
:1078AE000012E0F775CEA575CF5A0075CEA575CF2F
:1078BE005A009006AEE06430600302799D75CEA545
:1078CE0075CF5A0075CEA575CF5A00900000F07B8B
:1078DE00017A0079029001D6F0A37405F0A3740228
:1078EE00F07D6C7C0C12CE927B017A0079089001AF
:1078FE00D6E4F0A37402F0A3F07D6F7C0012CE925A
:10790E00900008E0FB900004E0C39B50089000003C
:10791E007401F08005E4900000F09006B4E0FE9053
:10792E000000E02EFD900003E0FCC3ED9C900000F3
:10793E00F0EEC39B5005E014F08005900000E0F0DF
:10794E00900000E0D3940640037406F0900000E02F
:10795E00D39400403AE4A3F0900000E0FFA3E0C30C
:10796E009F501BE4FF12839D75CEA575CF5A0075EF
:10797E00CEA575CF5A00900001E004F080DA75CEE6
:10798E00A575CF5A0075CEA575CF5A0012B4470211
:02799E00EB9E5E
:10A87100E4900000F0A3F075CEA575CF5A0075CE17
:10A88100A575CF5A0075CEA575CF5A0075CEA575A1
:10A89100CF5A0012EDC91268CA12DB5E12EDF11235
:10A8A100E1AD9028C8E4F09028ADE04410F07D02BD
:10A8B1007F0112E92B43C90112E25975CEA575CF6B
:10A8C1005A0075CEA575CF5A007F007E007D327C7F
:10A8D1000012AFEF7B017A00790212DFDE9001DF17
:10A8E1007401F0A37400F0A37402F0A3E4F0A37464
:10A8F10007F07B017A0679B212E03DE5A130E05C18
:10A9010012D15B12F03112EB317B017A0479709034
:10A91100018EE4F0A3741EF0A37402F07FCF7E01D8
:10A9210012CB157B017A04798F90018EE4F0A37428
:10A931002DF0A37402F07FED7E0112CB157B017A1D
:10A941000479BE90018EE4F0A37432F0A37402F096
:10A951007F1AFE12CB1512D38012F254126EB3126B
:05A96100E34D02A8AF68
:10D480007F007E007D327C0012AFEF12D15B12DB99
:10D490005E7FFF12EE4075CEA575CF5A0075CEA502
:10D4A00075CF5A001277DE12EFADE4FF12DCA31243
:10D4B000F2A2E4FF125A891266937B017A0679FF81
:10D4C00090017BE4F0A37405F0E4FD12ED75900784
:10D4D000907404F090078CF07DFF7F0712BAB37B45
:10D4E000017A07798C90017BE4F0A3740CF0E4FDE1
:0AD4F00012ED7543A50143A40122CB
:10EC040012E2AE12F177EF70077F2C7E0112F15EF3
:10EC140012F177EF70089007177403F08005E49001
:10EC24000717F0900717E0B4030302A87112D48009
:01EC340022BD
:10E34D0012F110EF64014E700590069B04F09006DB
:10E35D009BE0B4011EE4F090062FE0B40504E4F058
:10E36D00800690062FE004F0129E38900619740670
:10E37D00F0800C900619E0D394004003E014F09067
:0DE38D000619E0700790062FF0129E38224E
:1089B60012F177EF6003028B21D284C2AF125F708F
:1089C6007B017A05792E90017CE4F0A3743CF0A338
:1089D6007402F0E4FFFE1299949007177403F07B7B
:1089E600017A0679B290017CE4F0A37407F0A374CF
:1089F60002F07FCF7E001299949007907404F07D68
:108A0600017F0712BAB39007937404F090078FF0B2
:108A16007DFF7F0A12BAB37B017A0779969001D659
:108A2600E4F0A304F0A304F07D217C0112CE92129F
:108A3600C29A12EDF112E1AD9028C8E4F09028AD8B
:108A4600E04410F012F03112E8F012EDC9E490069D
:108A560019F09004BCF075CEA575CF5A0075CEA559
:108A660075CF5A00E4FD7F0112E92B43C90112F2CA
:108A7600A212E25975CEA575CF5A0075CEA575CF4F
:108A86005A007F007E007D327C0012AFEF7B017AB8
:108A960000790012DFDE9001DF7401F0A37400F0AC
:108AA600A37400F0A3E4F0A37407F07B017A0679BF
:108AB600B212E03DE5A130E05912D15B12F031125D
:108AC600EB317B017A04797090018EE4F0A3741E79
:108AD600F0A37402F07FCF7E0112CB157B017A04DE
:108AE600798F90018EE4F0A3742DF0A37402F07FC9
:108AF600ED7E0112CB157B017A0479BE90018EE4DE
:108B0600F0A37432F0A37402F07F1AFE12CB151292
:0B8B1600F254126EB312E34D028A5CB1
:018B21002231
:10F2540075CEA575CF5A0075CEA575CF5A0000009E
:03F264000080FB2C
:03000300020046B2
:040046005388FD32AC
:03000B0002E153BC
:10E15300C0E0C083C082C0D0758A65758C669007A5
:10E1630014E04401F09005B4E0600E9005B6E004BD
:10E17300F070069005B5E004F09005B9E0B4011B1A
:10E18300D39005B8E094009005B7E09400400CA349
:10E19300E024FFF09005B7E034FFF090072BE00494
:0AE1A300F0D0D0D082D083D0E0325B
:0300130002004E9A
:04004E005388F732AA
:03001B0002EF8C65
:10EF8C00C0E0C083C08253887F758B53758D9A9077
:10EF9C0028B2E04402F0C28EC2ABD082D083D0E063
:01EFAC003232
:03002B0002EF24BD
:10EF2400C0E0C0F0C083C082C0D075D01053C87F89
:10EF340075CC6575CD6612A683D0D0D082D083D02F
:04EF4400F0D0E032F7
:03003B0002F1BF10
:10F1BF00C0E0E5C030E00553C0FE8008E5C030E197
:07F1CF000353C0FDD0E03244
:030043000294C75D
:0D94C700C0E0C0F0C083C082C0D075D010DE
:1094D400902840E0FF902843E05F900241F0E020B4
:1094E400E20302956A902840E054FBF0902836E0AD
:1094F40054FDF0900242E0D394004057A3E0FC24D2
:1095040046F582E43402F583E0900240F090034390
:10951400E0B40716900240E0FE547FFD30D006EE22
:109524004480F08005900240EDF0900240E09028E5
:1095340037F09005B5E4F0A3F074462CF582E434DA
:1095440002F583E4F0900243E004F0900242E01458
:10955400F08013900243E4F09003407404F012E6A8
:1095640077E4FF12C5F8900241E0FF30E350902801
:1095740040E054F7F0902836E054FEF0A3E0900267
:1095840040F0E0547FFE900243E02446F582E43448
:1095940002F583EEF09005B5E4F0A3F0900243E009
:1095A40004F0E0FED3940440020000EE75F0FA8467
:1095B400AEF0900243EEF0D3941540020000EF3079
:1095C400E407902840E054EFF0900241E030E507D2
:1095D400902840E054DFF0900241E0FF30E607902D
:1095E4002840E054BFF0EF30E70D902840E0547F6E
:0A95F400F090056DE004F05391EFD4
:0B95FE00D0D0D082D083D0F0D0E0327B
:03004B0002BC38BC
:0DBC3800C0E0C0F0C083C082C0D075D01045
:10BC4500902848E0FF90284BE05FFD30E4079028FE
:10BC550048E054EFF0AF15ED30E507902848E05483
:10BC6500DFF0AF15ED30E614902848E054BFF090B2
:10BC75000714E04402F09005F97401F0AF15ED30BA
:10BC8500E764902848E0547FF090056CE004F0905C
:10BC950006B0E06401702C9028B0E04402F0A3E007
:10BCA50054FEF09028C9E4F0A3F09028B2E054FDCA
:10BCB500F09028B0E054FDF0758B53758D9A120005
:10BCC500068004C28EC2AB900605E0541FF07B01CE
:10BCD5007A0579FB12B0D490069EE4F075CC6575B3
:09BCE500CD66D2CAD2AD5391DF45
:0BBCEE00D0D0D082D083D0F0D0E03264
:0300530002ECF2CA
:0BECF200C0E0C083C082C0D075D0100D
:10ECFD00902850E0FF902853E05FFF30E307902805
:08ED0D0050E054F7F05391BFF0
:09ED1500D0D0D082D083D0E032CE
:1092210041069B00410698004106970041069601C0
:1092310041069C0041069A0041069D004106AF008F
:1092410041069F004106B000410699004106B10068
:1092510041069E004406AA00000000440692000058
:0292610000000B
:10CCC3007B017A00790D12DFDE7B017A00790D1288
:10CCD300AB4AEF70647B017A00790D9001D6F0A323
:10CCE3007407F0A37402F07DCF7C0012CE927B0117
:10CCF3007A00790D12AB4AEF703690000D7403F091
:10CD0300A37416F0A37404F0A37420F0A37412F0B8
:10CD1300A37430F0A3F07B017A00790D90017CE4D9
:10CD2300F0A37407F0A37402F07FCF7E00129994EE
:10CD33007B017A00790D12DD799001DF7401F0A394
:10CD43007400F0A3740DF0A3E4F0A37407F07B0167
:07CD53007A0679B202E03D0F
:03F2F90002CCC381
:10D1E70012F1A7EF700E9006AFE0700804F09006FA
:10D1F7009F7403F012F1A7BF0109E49006AFF09006
:10D20700069FF012F110EF64014E700F900698E040
:10D21700700990069B04F0900698F012F110EF4EFB
:10D227007004900698F012F18FEF64014E700D9024
:10D237000696E07007A304F0900696F012F18FEFC0
:10D247004E7004900696F012F12AEF64014E700FAB
:10D2570090069AE0700990069C04F090069AF012E6
:0BD26700F12AEF4E700490069AF022AE
:10A683009006C7E0FCA3E0FDA3E0FEA3E0FFE41215
:10A69300161C900234121BA7900234E0F8A3E0F9D1
:10A6A300A3E0FAA3E0FB7F007E807DF77C461215D2
:10A6B30012900238121BA7E4FFFEFDFC900234E067
:10A6C300F8A3E0F9A3E0FAA3E0FB1215AF60025090
:10A6D3000302A779900692E0FCA3E0FDA3E0FEA3AA
:10A6E300E0FF90023C121BA7E4FFFE7DC87C419073
:10A6F3000238E0F8A3E0F9A3E0FAA3E0FB1214099F
:10A7030090023CE0F8A3E0F9A3E0FAA3E0FB121502
:10A71300AF404590069EE004F0900692121BB300F2
:10A7230000000090069EE024FE60101460162402D0
:10A73300701D900605E04480F08014900605E04407
:10A74300C0F0800B900605E044E0F0C2CAC2AD7BC6
:10A75300017A0579FB02B0D4900692E0FCA3E0FDF8
:10A76300A3E0FEA3E0FFE4FBFA7980783F1213181D
:06A77300900692121BA7E4
:01A7790022BD
:10EEB500E4900000F0900000E0FFC39401501312AD
:10EEC500B1B4900000E0FF12A17D900000E004F0D5
:05EED50080E302D1E71B
:1090C30012CCC375CEA575CF5A0075CEA575CF5AF0
:1090D30000900804E0D394004006E014F012EDC9B8
:1090E300900804E0703F128DF475CEA575CF5A0039
:1090F30075CEA575CF5A00125F7075CEA575CF5A80
:109103000075CEA575CF5A0012EC9712D8B375CE61
:10911300A575CF5A0075CEA575CF5A0012C13C1262
:10912300F30D12EB6890069DE0700812B51E129EB7
:1091330038800690069DE014F012A5869006B8E0EC
:10914300706212669375CEA575CF5A0075CEA5755C
:10915300CF5A0012643775CEA575CF5A0075CEA5C8
:1091630075CF5A00126EB312D3809006AEE0B430BE
:109173001175CEA575CF5A0075CEA575CF5A0012BD
:10918300CB8F75CEA575CF5A0075CEA575CF5A0076
:1091930012CF1B75CEA575CF5A0075CEA575CF5AC4
:1091A3000012E0F712F1A7EF702190069FE0D3942D
:1091B300004002802E9006B07401F0900699740A64
:1091C300F09006B8E09006B1F08022900699E0D3C3
:1091D300940040149006B1E0FF9006B8E0B5070D87
:1091E300900699E014F08005E49006B0F09006B87C
:1091F300E0B4251112F30B75CEA575CF5A0075CEC9
:10920300A575CF5A009006B8E0B4311112F1447538
:0E921300CEA575CF5A0075CEA575CF5A002294
:01005200228B
:0AF2B800E49006A9F09006A8F022E9
:0BBF2900E0FCA3E0A3FDE0900230F07C
:10BF340090022BEBF0A3EAF0A3E9F0A3ECF0A3ED5D
:01BF4400F00C
:10BF4500E4900233F090023174A0F0A304F012E8FB
:10BF5500F0900233E004F0E0D3940A40037F00221E
:10BF650012EB31900231E0FF12CA57BF01E0900297
:10BF75002EE0FF12CA57EF640160037F0022900292
:10BF85002EA3E0FF12CA57EF640160037F0022125F
:10BF9500EB31900232E0FF12CA57EF640160037F74
:10BFA5000022900230E0FF14F0EF6026E07003FFFE
:10BFB50080027F0112D04090022BE0FBA3E0FAA3A0
:10BFC500E0F9EF1218BA90022CE475F00112198B02
:07BFD50080D012E8F07F01AB
:01BFDC002242
:10C4A2009001E0EEF0A3EFF0A3EBF0A3EAF0A3E932
:01C4B200F099
:10C4B300E49001E8F09001E674A0F0A304F0001208
:10C4C300E8F09001E8E004F0E0D3940A40037F0031
:10C4D3002212EB319001E6E0FF12CA57BF01E09050
:10C4E30001E0E0FF12CA57EF640160037F0022906E
:10C4F30001E0A3E0FF12CA57EF640160037F00224B
:10C503009001E2E0FBA3E0FAA3E0F9121852FF1254
:10C51300CA57EF64016004007F00229001E3E475D1
:10C52300F00112198B9001E1E004F070069001E034
:10C53300E004F09001E5E014F0E070C412E8F07F4D
:09C54300057E0012F15E007F018B
:01C54C0022CC
:10D405009001E4EBF0A3EAF0A3E9F0A3ECF0A3EDBF
:01D41500F026
:10D41600A3E0FFD394004006EFD3944040037F007F
:10D4260022E490022AF07B017A0179EA9001E71260
:10D43600BF299001E4E0FBA3E0FAA3E0F9A312BF41
:10D446002990022E7401F0A37401F0A374EAF090FF
:10D4560001E9E0900231F09001E4E0FBA3E0FAA3D9
:10D46600E0F912D4FAEF70037F012290022AE00459
:09D47600F0E0C3940340AF7F0015
:01D47F00228A
:10D0CE00900199EEF0A3EFF0A3EBF0A3EAF0A3E941
:01D0DE00F061
:10D0DF00A3E0FFD394004006EFD39440400312F235
:10D0EF0054E49001DFF0900199E0FEA3E0FFA3E08C
:10D0FF00FBA3E0FAA3E0F9A3E09001E5F012C4A2CC
:10D10F007B017A01799F900199E0FCA3E090019E49
:10D11F0012BF2E90022E7401F0A37401F0A3749F1E
:10D12F00F090019EE0900231F090019BE0FBA3E0B4
:10D13F00FAA3E0F912D4FAEF70037F01229001DF16
:0BD14F00E004F0E0C39403409D7F006B
:01D15A0022B2
:10C6A0009001DCEBF0A3EAF0A3E9F0A3ECF0A3ED3A
:01C6B000F099
:10C6B1009001E1E0FEA3E0FFD39400EE9400407C02
:10C6C1009001DFA3E0543FFD600974409D9001E3B8
:10C6D100F080069001E37440F09001E3E0FDC3EFC8
:10C6E1009DEE940050079001E1A3E0A3F09001DCDE
:10C6F100E0FBA3E0FAA3E0F9A3E0FCA3E0FD9001D5
:10C70100E3E09001E9F012D405EF7002FF229001FD
:10C71100E3E0FFFD7C009001DDEC8DF012198B90C0
:10C7210001E0E02DF09001DFE03CF0C39001E2E098
:0EC731009FF09001E1E09400F002C6B17F019C
:01C73F0022D7
:10C9BA00900191EEF0A3EFF0A3EBF0A3EAF0A3E964
:01C9CA00F07C
:10C9CB00900196E0FCA3E0FDD39400EC9400407939
:10C9DB00900191E0FEA3E0FF543FFB600974409B84
:10C9EB00900198F080069001987440F0900198E0C7
:10C9FB00FBC3ED9BEC94005007900196A3E0A3F0D2
:10CA0B00900193E0FBA3E0FAA3E0F9900198E0908A
:10CA1B00019EF012D0CEEF7002FF22900198E0FF42
:10CA2B00FD7C00900192E02DF0900191E03CF090A4
:10CA3B000194EC8DF012198BC3900197E09FF0904D
:0BCA4B000196E09400F002C9CB7F01CF
:01CA560022BD
:10F031009028ACE04402F0A3E04402F0A3E04404D1
:0EF04100F09028ACE054FBF0A3E054FBF0226A
:10EB31009028ACE04402F0A3E04402F0A3E04404D6
:10EB4100F0000000000000E054FDF09028ADE0541A
:10EB5100FDF09028ACE054FDF000000000000090B2
:07EB610028AEE054FBF02296
:10E8F0009028AEE054FDF09028ADE054FDF0902853
:10E90000ACE054FDF00000000000009028AEE044B0
:10E9100004F00000000000009028ACE04402F0A3E6
:0BE92000E04402F000000000000022B4
:10CA5700E4F508F5089028AEE054FBF0EF30E70E58
:10CA67009028ACE04402F0A3E04402F0801590283F
:10CA7700AEE054FDF09028ADE054FDF09028ACE016
:10CA870054FDF0EF25E0FF9028AEE04404F00000ED
:10CA9700000000000508E508B408BA9028AEE05485
:10CAA700FBF09028ACE04402F0A3E04402F07508E4
:10CAB70020E4F5089028AFE020E1149028AEE04488
:10CAC70004F0000000000000E054FBF07F012205A5
:10CAD70008E508B420DE9028AEE04404F00000002A
:0CCAE700000000E054FBF012E8F07F00BB
:01CAF3002220
:10D04000E4F508F5099028ACE04402F0A3E04402BE
:10D05000F0A3E054FBF0E4F508E50925E0F50990BC
:10D0600028AEE04404F0000000000000A3E030E13E
:10D07000034309019028AEE054FBF00000000000DB
:10D08000000508E508B408D1EF60179028AEE05419
:10D09000FDF09028ADE054FDF09028ACE054FDF098
:10D0A000800C9028ACE04402F0A3E04402F0902809
:10D0B000AEE04404F0000000000000E054FBF090FB
:0DD0C00028ACE04402F0A3E04402F0AF0908
:01D0CD002240
:01F30A0022E0
:10F22C00E5E820E10343E80290284BE020E704E006
:04F23C004480F022F8
:10EE19007F7D7E2812937CEF54C7FF9000CA742827
:10EE2900F0A3747DF012C91C902843E0547FF09040
:06EE390028AEE04408F0E1
:01EE3F0022B0
:06C87E009007EA121BA75F
:10C88400E4FF90288474CCF0E4F0902885E0600AFA
:10C894000FEFD3940840F37F00229007EAA3A3A3E9
:10C8A400E0FF902880EFF09007EAE0FCA3E0FDA30E
:10C8B400E0FEA3E0FF7808121B35902881EFF0908A
:10C8C40007EAE0FCA3E0FDA3E0FEA3E0FF7810127A
:10C8D4001B35902882EFF09007EAE0FCA3E0FDA36B
:10C8E400E0FEA3E0FF7818121B35902883EFF09048
:10C8F40007EEE0FEA3E0F5828E83E4F0FF000FEF85
:10C90400B408FAE4FF902885E0600A0FEFD3940896
:07C9140040F37F00227F01C8
:01C91B0022F9
:06C1EB009007DC121BA707
:10C1F100E4FB90288474CCF0E4F0902885E0600A98
:10C201000BEBD3940840F37F00229007DCA3A3A398
:10C21100E0FF902880EFF09007DCE0FCA3E0FDA3B5
:10C22100E0FEA3E0FF7808121B35902881EFF09023
:10C2310007DCE0FCA3E0FDA3E0FEA3E0FF78101221
:10C241001B35902882EFF09007DCE0FCA3E0FDA312
:10C25100E0FEA3E0FF7818121B35902883EFF0D29F
:10C261008720870C9007E2E004F0E0D3941E40F1B0
:10C271009007E0E0FEA3E0F5828E83E4F0FB000B83
:10C28100EBB408FAE4FB902885E0600A0BEBD39449
:08C291000840F37F00227F0149
:01C299002282
:06C91C009000C6121BA7EB
:10C92200E4FF90288474CCF0E4F0902885E0600A5B
:10C932000FEFD3940840F37F00229000C6A3A3A375
:10C94200E0FF902880EFF09000C6E0FCA3E0FDA39A
:10C95200E0FEA3E0FF7808121B35902881EFF090EB
:10C9620000C6E0FCA3E0FDA3E0FEA3E0FF78101206
:10C972001B35902882EFF09000C6E0FCA3E0FDA3F7
:10C98200E0FEA3E0FF7818121B35902883EFF090A9
:10C9920000CAE0FEA3E0F5828E83E4F0FF000FEF11
:10C9A200B408FAE4FF902885E0600A0FEFD39408F8
:07C9B20040F37F00227F012A
:01C9B900225B
:10937C0090288474CCF0E4F0F508902885E0600B1C
:10938C000508E508D3940840F180248F828E83E091
:10939C00F508E4F508000508E508B408F8E4F50854
:1093AC00902885E0600F0508E508D3940840F1E4A7
:1093BC00FFFEFDFC22902880E0FFE4FCFDFE900007
:1093CC00C6121BA7902881E0FFE4FCFDFE78081272
:1093DC001B489000CA121BA79000C6E0FCA3E0FD3E
:1093EC00A3E0FEA3E0FFA3E0F8A3E0F9A3E0FAA357
:1093FC00E0FBEF2BFFEE3AFEED39FDEC38FC900074
:10940C00C6121BA7902882E0FFE4FCFDFE9000CA68
:10941C00121BA79000CAE0FCA3E0FDA3E0FEA3E0B2
:10942C00FF7810121B489000CA121BA79000C6E0D0
:10943C00FCA3E0FDA3E0FEA3E0FFA3E0F8A3E0F9AA
:10944C00A3E0FAA3E0FBEF2BFFEE3AFEED39FDECC7
:10945C0038FC9000C6121BA7902883E0FFE4FCFDAB
:10946C00FE9000CA121BA79000CAE0FCA3E0FDA36B
:10947C00E0FEA3E0FF7818121B489000CA121BA74D
:10948C009000C6E0FCA3E0FDA3E0FEA3E0FFA3E098
:10949C00F8A3E0F9A3E0FAA3E0FBEF2BFFEE3AFE12
:1094AC00ED39FDEC38FC9000C6121BA79000C6E00D
:0A94BC00FCA3E0FDA3E0FEA3E0FF27
:0194C6002283
:10BDB900000000000000000000000000000000007A
:10BDC900000000000000000000000000000000006A
:10BDD900000000003D99E1FB3DE6D2F937341C9F94
:10BDE900392B0436392B04360000000009600000A5
:10BDF90027100461A83000927C000063B3ED3B700A
:10BE0900B76B3B70B76B0105BF10E80105CF10E9AF
:10BE19000105C3287B0105D3287C0105C710ED0165
:10BE290005D710EE0105CB10EB0105DB10EC010580
:10BE3900DF10EA00927C0010F500927C0010FB1DD7
:10BE49000004C301853000000001860000000001E4
:10BE590087811D2BA7012500000000018300000038
:09BE690000013200000000012C70
:079263004405BB0000000000
:10EA50007B017A0579BF9001D674A5F0A3745AF0B2
:10EA60007D387C0012EC669005F7EEF0A3EFF07BAA
:10EA7000017A0579BF90017CE4F0A37438F0A374A7
:09EA800002F07FD87E0002999497
:10E7BF007B017A0579BF9001D674A5F0A3745AF046
:10E7CF007D387C0012EC669005F7E06E7003A3E0D5
:10E7DF006F601A7B017A0579BF9001D6E4F0A374BC
:0DE7EF003AF0A37402F07DD87C0012CE92A7
:01E7FC0022FA
:106693009000C1121BB30000000012E7BF7B017A18
:1066A3000079C59001D6E4F0A304F0A304F07DB90A
:1066B3007C0012CE929000C5E09000CAB43C2674D0
:1066C30010F0A374F4F07F6B7E2A7D707C0012C9F6
:1066D3001C9000CA7410F0A374FAF07F6B7E2A7DBD
:1066E300707C0080247410F0A374F4F07F307EA8D3
:1066F3007D617C0412C91C9000CA7410F0A374FA63
:10670300F07F307EA87D617C0412C91CE49000B543
:10671300F09000B5E0FF75F006A42440F582E43460
:10672300BEF583E493FD7401939000BFCDF0A3ED18
:10673300F0EF75F006A4243CF582E434BEF5831231
:106743001B879000BB121BA79000B1121BB3000064
:1067530000009000BFE0FEA3E0FF12937C9000B125
:10676300121BA79000BBE0FCA3E0FDA3E0FEA3E0A7
:10677300FF9000B1E0F8A3E0F9A3E0FAA3E0FBC3C4
:10678300121B2460349000BBE0FCA3E0FDA3E0FEF9
:10679300A3E0FF9000B1121BA79000B1E0FCA3E0BF
:1067A300FDA3E0FEA3E0FF9000BFE0FBA3E09000A9
:1067B300CACBF0A3EBF012C91C9000B5E004F0E0E3
:1067C300C394025003026714E49000B5F09000B53F
:1067D300E0FF75F005A42412F582E434BEF583E4EA
:1067E30093FD7401939000B9CDF0A3EDF0EF75F034
:1067F30005A4240FF582E434BEF583E493F9740110
:1068030093FA7402939000B6C9F0A3EAF0A3E9F0F7
:106813009000B1121BB3000000009000B9E0FEA38A
:10682300E0FF12937C9000B1121BA79000B9E0FE29
:10683300A3E0FF647B7003EE6428600AEF647C705E
:1068430003EE6428701B9000B6E0FBA3E0FAA3E01C
:10685300F9121B5B9000B4E06F605CE4FCFDFE800A
:10686300309000B6E0FBA3E0FAA3E0F9121B5B90C3
:1068730000B1E0F8A3E0F9A3E0FAA3E0FBC3121B25
:106883002460349000B6E0FBA3E0FAA3E0F9121B06
:106893005B9000B1121BA79000B1E0FCA3E0FDA345
:1068A300E0FEA3E0FF9000B9E0FBA3E09000CACBB9
:1068B300F0A3EBF012C91C9000B5E004F0E0C39420
:0668C3000950030267D03A
:0168C90022AC
:088B2200900755EFF0A3EDF000
:108B2A0075CEA575CF5A0075CEA575CF5A00900798
:108B3A0060121BB300000000E49005F9F090075B97
:108B4A00F0900755E0FF90075BE0C39F4003028C5B
:108B5A006175CEA575CF5A0075CEA575CF5A00900E
:108B6A0005F9E060FAE49005F9F075CEA575CF5ADB
:108B7A000075CEA575CF5A00900756E070097FD2CE
:108B8A007E1012937C803AE4FB7D017F0B7E0112FA
:108B9A000000BF013478647C077D017B017A00798B
:108BAA00007E007F0412182C7B017A0779647D0409
:108BBA0012C349900764E0FCA3E0FDA3E0FEA3E032
:108BCA00FF900757121BA78007900715E04410F083
:108BDA00E4FFFEFD7C80900757E0F8A3E0F9A3E0EC
:108BEA00FAA3E0FBC3121B244024900757E0FCA31E
:108BFA00E0FDA3E0FEA3E0FF121AF3EF2401FFE475
:108C0A003EFEE43DFDE43CFC900757121BA790078B
:108C1A0057E0FCA3E0FDA3E0FEA3E0FF90075C128F
:108C2A001BA7900760E0FCA3E0FDA3E0FEA3E0FF22
:108C3A0090075CE0F8A3E0F9A3E0FAA3E0FBEF2BCE
:108C4A00FFEE3AFEED39FDEC38FCA3121BA79007A4
:108C5A005BE004F0028B4B900755E0FBE4FAF9F86D
:108C6A00900760E0FCA3E0FDA3E0FEA3E0FF121A78
:108C7A006175CEA575CF5A0075CEA575CF5A00007D
:018C8A0022C7
:088C8B00900768EFF0A3EDF083
:108C930075CEA575CF5A0075CEA575CF5A0090072E
:108CA30073121BB300000000E49005F9F090076E07
:108CB300F0900768E0FF90076EE0C39F4003028DCA
:108CC300CA75CEA575CF5A0075CEA575CF5A00903B
:108CD30005F9E060FAE49005F9F075CEA575CF5A71
:108CE3000075CEA575CF5A00900769E070097FD44F
:108CF3007E1012937C803AE4FB7D017F0E7E01128D
:108D03000000BF013478777C077D017B017A00790D
:108D1300007E007F0412182C7B017A0779777D048B
:108D230012C349900777E0FCA3E0FDA3E0FEA3E0B4
:108D3300FF90076A121BA78007900715E04410F005
:108D4300E4FFFEFD7C8090076AE0F8A3E0F9A3E06E
:108D5300FAA3E0FBC3121B24402490076AE0FCA3A0
:108D6300E0FDA3E0FEA3E0FF121AF3EF2401FFE40A
:108D73003EFEE43DFDE43CFC90076A121BA790070E
:108D83006AE0FCA3E0FDA3E0FEA3E0FF90076F12FF
:108D93001BA7900773E0FCA3E0FDA3E0FEA3E0FFA5
:108DA30090076FE0F8A3E0F9A3E0FAA3E0FBEF2B51
:108DB300FFEE3AFEED39FDEC38FCA3121BA790073A
:108DC3006EE004F0028CB4900768E0FBE4FAF9F873
:108DD300900773E0FCA3E0FDA3E0FEA3E0FF121AFB
:108DE3006175CEA575CF5A0075CEA575CF5A000013
:018DF300225D
:10A966009000B1E0FCA3E0FDA3E0FEA3E0FF9000B1
:10A97600C9121BA79000B9E0FCA3E0FDA3E0FEA36B
:02A98600E0FFF0
:10A98800E412161C9000CD121BA79000C9E0FCA38E
:10A99800E0FDA3E0FEA3E0FFE412161C9000D11234
:10A9A8001BA79000C9E0FCA3E0FDA3E0FEA3E0FF25
:10A9B800E412161CA804A905AA06AB079000CDE06E
:10A9C800FCA3E0FDA3E0FEA3E0FF1213149000D166
:10A9D800E0F8A3E0F9A3E0FAA3E0FB121512900057
:10A9E800D5121BA7E4FFFE7D807C3F9000D5E0F8E0
:10A9F800A3E0F9A3E0FAA3E0FB121318A804A90541
:10AA0800AA06AB07E4FFFE7D807C3F12151290007A
:10AA1800D9121BA7E4FFFE7D807CBF9000D9E0F827
:10AA2800A3E0F9A3E0FAA3E0FB1213189000DD12EB
:10AA38001BA7E4FFFEFD7C4F9000DDE0F8A3E0F9E2
:0FAA4800A3E0FAA3E0FB12140912AD2A12165A6A
:01AA570022DC
:06A284009000C5121BA7AB
:10A28A00E49000CFF07F32FEFDFC9000C9E0F8A315
:10A29A00E0F9A3E0FAA3E0FBC3121B2450037F00FA
:10A2AA00229000C5E0FCA3E0FDA3E0FEA3E0FFA32B
:10A2BA00E0F8A3E0F9A3E0FAA3E0FBD3121B2440E1
:10A2CA004D9000C5E0F8A3E0F9A3E0FAA3E0FBA3F0
:10A2DA00E0FCA3E0FDA3E0FEA3E09BFFEE9AFEED07
:10A2EA0099FDEC98FCE47BE87A03F9F81219D69008
:10A2FA0000C9E0F8A3E0F9A3E0FAA3E0FB121A61AF
:10A30A009000CDEEF0A3EFF0A37401F0804A900024
:10A31A00C9E0F8A3E0F9A3E0FAA3E0FB9000C5E0E6
:10A32A00FCA3E0FDA3E0FEA3E0C39BFFEE9AFEEDD3
:10A33A0099FDEC98FCE47BE87A03F9F81219D690B7
:10A34A0000C9E0F8A3E0F9A3E0FAA3E0FB121A615E
:10A35A009000CDEEF0A3EFF09000CDE0FEA3E0FF79
:10A36A007C0B7DC3121CC6E47BD07A07F9F8121A5B
:0CA37A00619000CFE0B40104EF4480FFCC
:01A3860022B4
:069F5C009007C1121BA7D3
:109F620075CEA575CF5A0075CEA575CF5A0090074C
:109F7200C5E07040A3121BB3000000009007C6E0CA
:109F8200FCA3E0FDA3E0FEA3E0FF9000CA7410F082
:109F9200A374E9F012C91C9007C6E0FCA3E0FDA37C
:109FA200E0FEA3E0FF9000CA7410F0A374EEF0127A
:109FB200C91C80469007C6121BB300000000900720
:109FC200C6E0FCA3E0FDA3E0FEA3E0FF9000007466
:109FD20001F0A3742EF0E4A3F01200009007C6E093
:109FE200FCA3E0FDA3E0FEA3E0FF9000007401F0FB
:109FF200A3742FF0E4A3F01200009007C5E0FD7FE8
:10A0020002128B22C004C005C006C0079007C1E03F
:10A01200FCA3E0FDA3E0FEA3E0FF9000C9121BA792
:10A02200D007D006D005D00412A9889007C6121B0B
:10A03200A775CEA575CF5A0075CEA575CF5A0090DB
:10A0420007C5E07011A3E0FCA3E0FDA3E0FEA3E0DE
:10A05200FF9005CF80119007C6E0FCA3E0FDA3E0CE
:0AA06200FEA3E0FF9005BF121BA74C
:01A06C0022D1
:06B5F4009007CA121BA71C
:10B5FA00C20575CEA575CF5A0075CEA575CF5A006E
:10B60A009007CF121BB3000000009007CEE0701B1A
:10B61A00A3E0FCA3E0FDA3E0FEA3E0FF9000CA7450
:10B62A0010F0A374EEF012C91C801E9007CFE0FC44
:10B63A00A3E0FDA3E0FEA3E0FF9000007401F0A3E5
:10B64A00742FF0E4A3F01200009007CEE0FD7F0310
:10B65A00128B22C004C005C006C0079007CAE0FCCE
:10B66A00A3E0FDA3E0FEA3E0FF9000C9121BA7D050
:10B67A0007D006D005D00412A284E4FCFDFE900790
:10B68A00CF121BA775CEA575CF5A0075CEA575CF5B
:10B69A005A009007CEE07011A3E0FCA3E0FDA3E0FE
:10B6AA00FEA3E0FF9005D780119007CFE0FCA3E04E
:0DB6BA00FDA3E0FEA3E0FF9005C7121BA753
:01B6C7002260
:067444009007D3121BA704
:10744A0075CEA575CF5A0075CEA575CF5A0090078F
:10745A00D8121BB3000000009007D7E0701BA3E00E
:10746A00FCA3E0FDA3E0FEA3E0FF9000CA7428F0AD
:10747A00A3747CF012C91C80169000007401F0A35A
:10748A007484F0E4A3F07FA9FE7D0BFC1200007562
:10749A00CEA575CF5A0075CEA575CF5A00E49005D2
:1074AA00F9F09005F9E060FAE49005F9F09007D751
:1074BA00E0FD7F02128B22C004C005C006C00790FF
:1074CA0007D3E0FCA3E0FDA3E0FEA3E0FF9000C920
:1074DA00121BA7D007D006D005D00412A284E4FC60
:1074EA00FDFE9007D8121BA775CEA575CF5A007559
:1074FA00CEA575CF5A009007D7E0700FA3E0FCA382
:10750A00E0FDA3E0FEA3E0FF0276129007D8A3A352
:10751A00A3E05480FFEF9007D86066E0FCA3E0FD8B
:10752A00A3E0FEA3E0547FFFEC9007D8121BA790BC
:10753A0007D8E0FCA3E0FDA3E0FEA3E0FFE41216F7
:10754A001C7BCD7ACC798C783F12140912165A908A
:10755A0007D8121BA79007D8E0FCA3E0FDA3E0FE22
:10756A00A3E0FF7808121B489007D8121BA79007C0
:10757A00D8E0FCA3E0FDA3E0FEA3E0FFED44048015
:10758A004DE0FCA3E0FDA3E0FEA3E0FFE412161C1D
:10759A007BCD7ACC798C783F12140912165A90074F
:1075AA00D8121BA79007D8E0FCA3E0FDA3E0FEA336
:1075BA00E0FF7808121B489007D8121BA79007D83B
:1075CA00E0FCA3E0FDA3E0FEA3E0FFED54FBFDEC2D
:1075DA009007D8121BA79005D3121BB3000B00A962
:1075EA009005D3E0FCA3E0FDA3E0FEA3E0FF900733
:1075FA00D8E0F8A3E0F9A3E0FAA3E0FBEF4BFFEE33
:0E760A004AFEED49FDEC48FC9005D3121BA78B
:01761800224F
:10820000900008EEF0A3EFF0E024E8FF900008E013
:108210003403AB07FA3395E0F9F8E4FFFEFD7C8008
:10822000121A6190000E121BA7900009E024E8FFCB
:10823000900008E03403AB07FA3395E0F9F8E4FF67
:10824000FEFD7C80121A61AF0390000AEAF0A3EFF2
:10825000F090000AE0FEA3E0FF7C037DE81218EE38
:10826000900008E0FAA3E0FB24E8FDEA3403FC12E6
:108270001900A3EEF0A3EFF0AF03AE02EE3395E0EA
:10828000FDFC90000EE0F8A3E0F9A3E0FAA3E0FB08
:108290001219D6C004A905AA06AB0790000AE0FC93
:1082A000A3E0FD900008E0FEA3E0FF1218EE7C03BF
:1082B0007DE8121900E4FCFDD000EB2FFFEA3EFE42
:1082C000ED39FDEC38FC900012121BA7900009E07C
:1082D00024E8FF900008E03403AB07FA3395E0F997
:1082E000F8900004E0FCA3E0FDA3E0FEA3E0FF1291
:1082F000E633900016121BA7900009E024E8FF90D7
:108300000008E03403AB07FA3395E0F9F890000475
:10831000E0FCA3E0FDA3E0FEA3E0FF12E633AE0223
:10832000AF0390000CEEF0A3EFF07C037DE8121891
:10833000EE900009E024E8FD900008E03403FC1210
:10834000190090000CEEF0A3EFF0E47FE87E03FD4F
:10835000FC900016E0F8A3E0F9A3E0FAA3E0FB121A
:1083600019D6A804A905AA06AB0790000CE0FEA345
:10837000E0FFE4FCFDEB2FFFEA3EFEED39FDEC38BB
:10838000FC900012E0F8A3E0F9A3E0FAA3E0FBC33D
:0C839000EF9BFFEE9AFEED99FDEC98FCCF
:01839C0022BE
:10A586007FFD7E1012937CA804A905AA06AB07E4FA
:10A59600FFFE7D7DFC121A61900000EEF0A3EFF045
:10A5A600E4FCFD9005BBE0F8A3E0F9A3E0FAA3E024
:10A5B600FBC3121B24700302A682900000E0FAA3DC
:10A5C600E0FBFFAE02E4FCFD9005BB121BA7D3EB3C
:10A5D60094F4EA9401400F900001E0240CFF9000EF
:10A5E60000E034FE801F900000E0FEA3E0FFC3946D
:10A5F600F4EE94015057C374F49FFF74019EFEC39A
:10A60600E49FFFE49EFEEF25E0FFEE33FEC006C0AA
:10A61600079005BFE0FCA3E0FDA3E0FEA3E0FF90EA
:10A626000004121BA7D007D0061282009005CF1295
:10A636001BA79005CFE0FCA3E0FDA3E0FEA3E0FF8F
:10A646009000CA7410F0A374E9F002C91C9005BF0B
:10A65600E0FCA3E0FDA3E0FEA3E0FF9000CA7410B7
:10A66600F0A374E9F012C91C9005BFE0FCA3E0FD5D
:0CA67600A3E0FEA3E0FF9005CF121BA79D
:01A6820022B5
:102DF200900670121BB30000000020AF030235CE14
:102E02009005FA7455F090BE03121B879006741257
:102E12001BA7E47F19FEFDFC900674E0F8A3E0F91D
:102E2200A3E0FAA3E0FB1219D6E47B0AFAF9F8123E
:102E32001A6190067A121BA7E47F46FEFDFC9006FB
:102E420074E0F8A3E0F9A3E0FAA3E0FB1219D6E4D8
:102E52007B64FAF9F8121A6190067E121BA7E47FCE
:102E620023FEFDFC900674E0F8A3E0F9A3E0FAA3C8
:102E7200E0FB1219D6E47B64FAF9F8121A619006A3
:102E820082121BA7E47F03FEFDFC900674E0F8A308
:102E9200E0F9A3E0FAA3E0FB1219D6E47B64FAF9A5
:102EA200F8121A61900686121BA775CEA575CF5A25
:102EB2000075CEA575CF5A00E4FD7F04128B2290D7
:102EC200068A121BA790067AE0FCA3E0FDA3E0FEAF
:102ED200A3E0FF90068AE0F8A3E0F9A3E0FAA3E0FA
:102EE200FBD3121B244008E4900678F0022F709066
:102EF200067EE0FCA3E0FDA3E0FEA3E0FF90068ACD
:102F0200E0F8A3E0F9A3E0FAA3E0FBD3121B24400C
:102F1200089006787401F08055900682E0FCA3E0E8
:102F2200FDA3E0FEA3E0FF90068AE0F8A3E0F9A388
:102F3200E0FAA3E0FBD3121B244008900678740247
:102F4200F0802B900686E0FCA3E0FDA3E0FEA3E068
:102F5200FFA3E0F8A3E0F9A3E0FAA3E0FBD3121B7E
:102F62002490067840057403F080037408F09006FC
:102F720078E070199005CF121BB300000000900595
:102F8200D3121BB3000000007FA01203AE9006789C
:102F9200E0640160030231BB900674E0FCA3E0FD33
:102FA200A3E0FEA3E0FFE49007C5F0129F5C900649
:102FB2006C121BB300000000E4900667F07F1E7ED7
:102FC2000012F15E7FD57E1012937C900668121B70
:102FD200A7E4FFFEFD7C80900668E0F8A3E0F9A379
:102FE200E0FAA3E0FBC3121B244024900668E0FC35
:102FF200A3E0FDA3E0FEA3E0FF121AF3EF2401FF1A
:10300200E43EFEE43DFDE43CFC900668121BA79002
:10301200066CE0FCA3E0FDA3E0FEA3E0FF900668DF
:10302200E0F8A3E0F9A3E0FAA3E0FBEF2BFFEE3A0E
:10303200FEED39FDEC38FCA3121BA775CEA575CFAA
:103042005A0075CEA575CF5A00900667E004F0E0ED
:10305200C394085003022FBF90066CE0FCA3E0FD6E
:10306200A3E0FEA3E0FFE47B08FAF9F8121A6190EC
:10307200066C121BA790066CE0FCA3E0FDA3E0FE29
:10308200A3E0FFE412161CC004C005C006C00790EE
:10309200BDF7121B87E412161CD003D002D001D058
:1030A200001215129005F3121BA790066C121BB3A7
:1030B20000000000E4900667F07F1E7E0012F15EC1
:1030C2007FD37E1012937C900668121BA7E4FFFE4A
:1030D200FD7C80900668E0F8A3E0F9A3E0FAA3E0A3
:1030E200FBC3121B244024900668E0FCA3E0FDA36E
:1030F200E0FEA3E0FF121AF3EF2401FFE43EFEE438
:103102003DFDE43CFC900668121BA790066CE0FCB7
:10311200A3E0FDA3E0FEA3E0FF900668E0F8A3E0D1
:10312200F9A3E0FAA3E0FBEF2BFFEE3AFEED39FD47
:10313200EC38FCA3121BA775CEA575CF5A0075CE2D
:10314200A575CF5A00900667E004F0E0C3940850DA
:10315200030230BB90066CE0FCA3E0FDA3E0FEA3FB
:10316200E0FFE47B08FAF9F8121A6190066C121B70
:10317200A790066CE0FCA3E0FDA3E0FEA3E0FFE461
:1031820012161CC004C005C006C00790BDF3121B76
:1031920087E412161CD003D002D001D000121512FF
:1031A2009005EB121BA77FA11203AE75CEA575CFBA
:1031B2005A0075CEA575CF5A00900678E0B4023851
:1031C200900674E0FCA3E0FDA3E0FEA3E0FFE47B35
:1031D20002FAF9F8121A61900674121BA79006748B
:1031E200E0FCA3E0FDA3E0FEA3E0FFE49007D7F03C
:1031F2001274447FA21203AE900678E0B4033890B2
:103202000674E0FCA3E0FDA3E0FEA3E0FFE47B1470
:10321200FAF9F8121A61900674121BA7900674E06C
:10322200FCA3E0FDA3E0FEA3E0FFE49007CEF012D2
:10323200B5F47FA31203AE900679E0B404199005A9
:10324200CF121BB3000000009005D3121BB3000B7A
:1032520000A97FA41203AE900679E0640560030220
:1032620034DB9007C504F07FED7EB37D637C0012F2
:103272009F5C90066C121BB300000000E49006678E
:10328200F0E4FB7D017F0E7E01120000BF01347865
:103292008E7C067D017B017A0079007E007F04121C
:1032A200182C7B017A06798E7D0412C34990068E12
:1032B200E0FCA3E0FDA3E0FEA3E0FF900668121B82
:1032C200A78007900715E04410F0E4FFFEFD7C8024
:1032D200900668E0F8A3E0F9A3E0FAA3E0FBC312CA
:1032E2001B244024900668E0FCA3E0FDA3E0FEA3BB
:1032F200E0FF121AF3EF2401FFE43EFEE43DFDE499
:103302003CFC900668121BA790066CE0FCA3E0FD53
:10331200A3E0FEA3E0FF900668E0F8A3E0F9A3E0D3
:10332200FAA3E0FBEF2BFFEE3AFEED39FDEC38FCA1
:10333200A3121BA775CEA575CF5A0075CEA575CF62
:103342005A00900667E004F0E0C39408500302328A
:103352008390066CE0FCA3E0FDA3E0FEA3E0FFE4A3
:103362007B08FAF9F8121A6190066C121BA79006F4
:103372006CE0FCA3E0FDA3E0FEA3E0FFE412161C58
:10338200C004C005C006C00790BDF7121B87E41237
:10339200161CD003D002D001D0001215129005F3F2
:1033A200121BA790066C121BB300000000E49006EB
:1033B20067F0E4FB7D017F0D7E01120000BF013446
:1033C200788E7C067D017B017A0079007E007F0485
:1033D20012182C7B017A06798E7D0412C34990065D
:1033E2008EE0FCA3E0FDA3E0FEA3E0FF90066812DE
:1033F2001BA78007900715E04410F0E4FFFEFD7C58
:1034020080900668E0F8A3E0F9A3E0FAA3E0FBC32A
:10341200121B244024900668E0FCA3E0FDA3E0FE1A
:10342200A3E0FF121AF3EF2401FFE43EFEE43DFDA8
:10343200E43CFC900668121BA790066CE0FCA3E03B
:10344200FDA3E0FEA3E0FF900668E0F8A3E0F9A385
:10345200E0FAA3E0FBEF2BFFEE3AFEED39FDEC388C
:10346200FCA3121BA775CEA575CF5A0075CEA57504
:10347200CF5A00900667E004F0E0C39408500302BC
:1034820033B490066CE0FCA3E0FDA3E0FEA3E0FFF2
:10349200E47B08FAF9F8121A6190066C121BA790E5
:1034A200066CE0FCA3E0FDA3E0FEA3E0FFE412163D
:1034B2001CC004C005C006C00790BDF3121B87E400
:1034C20012161CD003D002D001D0001215129005A2
:1034D200EB121BA77FA51203AE900679E0B4063962
:1034E200900674E0FCA3E0FDA3E0FEA3E0FFE47B12
:1034F20002FAF9F8121A61900674121BA790067468
:10350200E0FCA3E0FDA3E0FEA3E0FF9007D7740177
:10351200F01274447FA61203AE900679E0B4073924
:10352200900674E0FCA3E0FDA3E0FEA3E0FFE47BD1
:1035320014FAF9F8121A61900674121BA790067415
:10354200E0FCA3E0FDA3E0FEA3E0FF9007CE740140
:10355200F012B5F47FA71203AE900679E06408700A
:1035620052900678E06408704A12DD0F75CEA57598
:10357200CF5A0075CEA575CF5A0075CEA575CF5A14
:103582000075CEA575CF5A0012A06D900571E07539
:10359200F00AA424B5F582E43405F583E4F0A3F03F
:1035A20075CEA575CF5A0075CEA575CF5A007FA8E6
:1035B2001203AE12EA5012669375CEA575CF5A0069
:0C35C20075CEA575CF5A00E49005FAF014
:0135CE0022DA
:0B525800900093EBF0A3EAF0A3E9F054
:10526300E49000A2F0900093E0FBA3E0FAA3E0F93E
:1052730090000D12186BFF12E97A9000A3EFF090E3
:105283000093E0FBA3E0FAA3E0F990000E12186B81
:10529300FF12E97AEFC454F0FEC006900093E0FBDE
:1052A300A3E0FAA3E0F990000F12186BFF12E97A5A
:1052B300D0E02F9000A4F0900093E0FBA3E0FAA3CA
:1052C300E0F990001112186BFF12E97AEFC454F061
:1052D300FEC006900093E0FBA3E0FAA3E0F9900080
:1052E3001212186BFF12E97AD0E02F9000A5F07B21
:1052F300017A0079A212B85F900096121BA7E4907E
:1053030000A2F0900093E0FBA3E0FAA3E0F9900081
:105313001312186BFF12E97A9000A3EFF090009339
:10532300E0FBA3E0FAA3E0F990001412186BFF125C
:10533300E97AEFC454F0FEC006900093E0FBA3E0CB
:10534300FAA3E0F990001612186BFF12E97AD0E085
:105353002F9000A4F0900093E0FBA3E0FAA3E0F900
:1053630090001712186BFF12E97AEFC454F0FEC0D5
:1053730006900093E0FBA3E0FAA3E0F99000181273
:10538300186BFF12E97AD0E02F9000A5F07B017A29
:105393000079A212B85F90009A121BA7E49000A2B2
:1053A300F0900093E0FBA3E0FAA3E0F99000191258
:1053B300186BFF12E97A9000A3EFF0900093E0FBE3
:1053C300A3E0FAA3E0F990001A12186BFF12E97A2E
:1053D300EFC454F0FEC006900093E0FBA3E0FAA3F1
:1053E300E0F990001B12186BFF12E97AD0E02F90BE
:1053F30000A4F0900093E0FBA3E0FAA3E0F990008F
:105403001C12186BFF12E97AEFC454F0FEC0069029
:105413000093E0FBA3E0FAA3E0F990001E12186BDF
:10542300FF12E97AD0E02F9000A5F07B017A007992
:10543300A212B85F90009E121BA7900093E0FBA3FB
:10544300E0FAA3E0241FF9E43AFA9001DFEBF0A3BA
:10545300EAF0A3E9F0A3E4F0A37406F07B017A0079
:1054630079A612E03DE49000ACF07B017A0079A6C6
:1054730012E55C9000AD121BA7900584E0FCA3E04D
:10548300FDA3E0FEA3E0FF121C8C54B50000FEB0A8
:1054930054FB0000FEB1550E0000FEB254B50000EF
:1054A300FEB354FB0000FEB4550E0000FEB5000031
:1054B30055339000ADE0FCA3E0FDA3E0FEA3E0FFC5
:1054C30012B9EF75CEA575CF5A0075CEA575CF5A13
:1054D30000900096E0FCA3E0FDA3E0FEA3E0FF90B4
:1054E30000B5121BA790009AE0FCA3E0FDA3E0FE29
:1054F300A3E0FF125D0280249000ADE0FCA3E0FD79
:10550300A3E0FEA3E0FF129D1480119000ADE0FC28
:10551300A3E0FDA3E0FEA3E0FF127EB712EA501260
:10552300669375CEA575CF5A0075CEA575CF5A0073
:015533002255
:06B9EF009000B1121BA73D
:10B9F50075CEA575CF5A0075CEA575CF5A00E4FF53
:10BA0500FEFDFC9000B1E0F8A3E0F9A3E0FAA3E0A5
:10BA1500FB1215AFE4FFFE7DC87C429000B1E0F853
:10BA2500A3E0F9A3E0FAA3E0FB1213187B007A5018
:10BA350079C3784712140912165A9000B5121BA73C
:10BA4500E47FB07EFEFDFC900584E0F8A3E0F9A359
:10BA5500E0FAA3E0FBC3121B2470527FE87E1012AC
:10BA6500937C9000B9121BA79000C9121BB30098D4
:10BA750096809000B512A97D9000B9121BA7900081
:10BA8500B9E0FCA3E0FDA3E0FEA3E0FF9000CA74CB
:10BA950010F0A374E8F012C91C9000B9E0FCA3E013
:0DBAA500FDA3E0FEA3E0FF9005BF121BA76C
:01BAB2002271
:065D02009000B1121BA786
:105D0800E47FB07EFEFDFC900584E0F8A3E0F9A3F3
:105D1800E0FAA3E0FBC3121B246003025E217FD9D3
:105D28007E1012937C9000B9121BA79000B9E0FC7A
:105D3800A3E0FDA3E0FEA3E0FFE412161C9005EF2C
:105D4800E0F8A3E0F9A3E0FAA3E0FB1214091216A5
:105D58005A9000B9121BA77FEB7E1012937C90001B
:105D6800BD121BA7E4FFFEFDFC9000BDE0F8A3E018
:105D7800F9A3E0FAA3E0FBC3121B24701D12A96665
:105D88009000BD121BA79000BDE0FCA3E0FDA3E0BE
:105D9800FEA3E0FF9005CB121BA77FD87E101293BD
:105DA8007C9000B9121BA7E4FFFE7D207C41900582
:105DB800EBE0F8A3E0F9A3E0FAA3E0FB121409C0B2
:105DC80004C005C006C0079000B9E0FCA3E0FDA32D
:105DD800E0FEA3E0FFE412161CD003D002D001D0ED
:105DE8000012140912165A9000B9121BA77FEA7EF6
:105DF8001012937C9000BD121BA7E4FFFEFDFC90DF
:105E080000BDE0F8A3E0F9A3E0FAA3E0FBC3121B8E
:105E1800246003025F6F025F34E47FB37EFEFDFC03
:105E2800900584E0F8A3E0F9A3E0FAA3E0FBC3122D
:105E38001B246003025F6F7FDA7E1012937C900050
:105E4800B9121BA79000B9E0FCA3E0FDA3E0FEA3F4
:105E5800E0FFE412161C9005F3E0F8A3E0F9A3E0D4
:105E6800FAA3E0FB12140912165A9000B9121BA7E4
:105E78007FEC7E1012937C9000BD121BA7E4FFFEFE
:105E8800FDFC9000BDE0F8A3E0F9A3E0FAA3E0FB75
:105E9800C3121B24701D12A9669000BD121BA79087
:105EA80000BDE0FCA3E0FDA3E0FEA3E0FF9005DB5E
:105EB800121BA77FD87E1012937C9000B9121BA7E3
:105EC800E4FFFE7D207C419005EBE0F8A3E0F9A318
:105ED800E0FAA3E0FB121409C004C005C006C0071D
:105EE8009000B9E0FCA3E0FDA3E0FEA3E0FFE4120C
:105EF800161CD003D002D001D00012140912165A71
:105F08009000B9121BA77FEA7E1012937C9000BD07
:105F1800121BA7E4FFFEFDFC9000BDE0F8A3E0F92A
:105F2800A3E0FAA3E0FBC3121B24703B9000B51258
:105F3800A9699000BD121BA79000BDE0FCA3E0FD7D
:105F4800A3E0FEA3E0FF9005DF121BA79000BDE0D1
:105F5800FCA3E0FDA3E0FEA3E0FF9000CA7410F0EC
:075F6800A374EAF012C91C4A
:015F6F00220F
:069D14009000B1121BA734
:109D1A00E4FFFEFDFC9000B1E0F8A3E0F9A3E0FA4D
:109D2A00A3E0FB1215AFE4FFFE7DC87C429000B1B0
:109D3A00E0F8A3E0F9A3E0FAA3E0FB1213187B0012
:109D4A007A5079C3784712140912165A9000B5123C
:109D5A001BA79000C9121BB3009896809000B5E02B
:109D6A00FCA3E0FDA3E0FEA3E0FF12A284E4FCFD55
:109D7A00FE9000B9121BA7E47FB17EFEFDFC9005A0
:109D8A0084E0F8A3E0F9A3E0FAA3E0FBC3121B24E2
:109D9A00703F9000B9E0FCA3E0FDA3E0FEA3E0FF62
:109DAA009005C3121BA77B017A0079BD9000B9E028
:109DBA00FCA3E0FDA3E0FEA3E0FF12BE729000C088
:109DCA00E0FFE4FCFDFE9000CA7428F0A3747B80D7
:109DDA0058E47FB47EFEFDFC900584E0F8A3E0F928
:109DEA00A3E0FAA3E0FBC3121B2470419000B9E080
:109DFA00FCA3E0FDA3E0FEA3E0FF9005D3121BA79E
:109E0A007B017A0079C19000B9E0FCA3E0FDA3E0F0
:109E1A00FEA3E0FF12BE729000C4E0FFE4FCFDFE68
:0D9E2A009000CA7428F0A3747CF012C91CCB
:019E37002208
:067EB7009000B1121BA7B0
:107EBD00E47FB27EFEFDFC900584E0F8A3E0F9A31B
:107ECD00E0FAA3E0FBC3121B246003027F8D7FD673
:107EDD007E1012937C9000BE121BA79000BEE0FC9A
:107EED00A3E0FDA3E0FEA3E0FFEC12161C9000B191
:107EFD00E0F8A3E0F9A3E0FAA3E0FB121409E4FB18
:107F0D00FA79C8784212151212165A9000BA121B3D
:107F1D00A7E49000B9F0FFFEFDFCA3E0F8A3E0F9A3
:107F2D00A3E0FAA3E0FBD3121B0E9000BAE0FCA372
:107F3D00E0FDA3E0FEA3E04003FF800F24FFFFEE72
:107F4D0034FFFEED34FFFDEC34FFFC9000B5121B49
:107F5D00A79000B5E0FCA3E0FDA3E0FEA3E0FF9039
:107F6D0000CA7410F0A374EDF012C91C9000B5E0B6
:107F7D00FCA3E0FDA3E0FEA3E0FF9005C702805A3D
:107F8D00E47FB57EFEFDFC900584E0F8A3E0F9A347
:107F9D00E0FAA3E0FBC3121B24600302805D7FD7D0
:107FAD007E1012937C9000BE121BA79000BEE0FCC9
:107FBD00A3E0FDA3E0FEA3E0FFEC12161C9000B1C0
:107FCD00E0F8A3E0F9A3E0FAA3E0FB121409E4FB47
:107FDD00FA79C8784212151212165A9000BA121B6D
:107FED00A7E49000B9F0FFFEFDFCA3E0F8A3E0F9D3
:107FFD00A3E0FAA3E0FBD3121B0E9000BAE0FCA3A2
:10800D00E0FDA3E0FEA3E04003FF800F24FFFFEEA1
:10801D0034FFFEED34FFFDEC34FFFC9000B5121B78
:10802D00A79000B5E0FCA3E0FDA3E0FEA3E0FF9068
:10803D0000CA7410F0A374EEF012C91C9000B5E0E4
:10804D00FCA3E0FDA3E0FEA3E0FF9005D7121BA764
:01805D002200
:03F2FC0002E7BF67
:105A8900900000EFF0BF030C9028637480F0A3E44A
:105A9900F0D28422C2849000CA7428F0A3747DF0E5
:105AA9007F007E007D007C0012C91C9000CA74280A
:105AB900F0A37478F07F007E007D007C0012C91C81
:105AC9009028637480F0A3E4F0900000E07023FF55
:105AD900FE7D32FC12BFDD902864E04407F090009F
:105AE900CA7410F0A374EFF07FBC7E747D937C8838
:105AF9008031900000E0FF64016004EFB402297F67
:105B0900007E807D0C7C0012BFDD902864E0440398
:105B1900F09000CA7410F0A374EFF07F9C7E3C7D76
:105B29001D7C9112C91C800312F2549028587449A3
:105B3900F09000CA7410F0A374F4F07F307EA87D51
:105B4900617C0412C91C9000CA7410F0A374FAF0A5
:105B59007F107EC27DDE7C0612C91C9000CA7410BB
:105B6900F0A374F5F07F017E007D007C0012C91C52
:105B79009000CA7410F0A374FBF07F017E007D00D1
:105B89007C0012C91C9000CA7428F0A37478F07FB5
:105B9900737E007D007C0012C91C9000CA7428F035
:105BA900A37479F07F007E007D007C0012C91C90EF
:105BB90000CA7428F0A3747AF07F607E007D007CAF
:105BC9000012C91C9000CA7410F0A374F0F07F0091
:105BD9007E007D007C0012C91C9000CA7410F0A3DD
:105BE90074F1F07F007E007D007C0012C91C9000DA
:105BF900CA7410F0A374F2F07F007E007D007C006F
:105C090012C91C9000CA7410F0A374F3F07F007ECF
:105C1900007D007C0012C91C9000CA7410F0A374A6
:105C2900F6F07F007E007D007C0012C91C9000CA3E
:105C39007410F0A374F7F07F007E007D007C0012E1
:105C4900C91C9000CA7410F0A374F8F07F007E009C
:105C59007D007C0012C91C9000CA7410F0A374F96D
:105C6900F07F007E007D007C0012C91C9000CA7480
:105C790028F0A3747DF07F7F7E007D007C0012C92F
:105C89001C9000CA7428F0A3747BF07F007E007D0D
:105C9900007C0012C91C9000CA7428F0A3747CF01F
:105CA9007F007E007D007C0012C91C9000CA742808
:105CB900F0A3747EF07F007E007D007C0012C91C79
:105CC9009000CA7410F0A374FCF07F007E007D0080
:105CD9007C0012C91C53A4DF43AD2053A4BF43ADBC
:105CE9004043E803902843E04480F090284BE04487
:095CF90080F09008047403F0220D
:058F5C0090000CEFF095
:108F61006401704E7FD37E1012937C90000D121B12
:108F7100A7E4FFFEFD7C8090000DE0F8A3E0F9A3DB
:108F8100E0FAA3E0FBC3121B24402490000DE0FC97
:108F9100A3E0FDA3E0FEA3E0FF121AF3EF2401FF1B
:108FA100E43EFEE43DFDE43CFC90000D121BA702F3
:108FB100904490000CE064026003029086FB7D0106
:108FC1007F1B7E01120000BF013478197C007D01F6
:108FD1007B017A0079007E007F0412182C7B017AD4
:108FE1000079197D0412C349900019E0FCA3E0FD4A
:108FF100A3E0FEA3E0FF90000D121BA780079007DE
:1090010015E04410F0E4FFFEFD7C8090000DE0F8D7
:10901100A3E0F9A3E0FAA3E0FBC3121B24402490D0
:10902100000DE0FCA3E0FDA3E0FEA3E0FF121AF3B4
:10903100EF2401FFE43EFEE43DFDE43CFC90000D25
:10904100121BA790000DE0FCA3E0FDA3E0FEA3E04E
:10905100FFE412161C9005EBE0F8A3E0F9A3E0FA97
:10906100A3E0FB121409900015121BA7900015E054
:10907100FCA3E0FDA3E0FEA3E0FF12165A9000114D
:10908100121BA7800A900011121BB300000000E41C
:109091007F32FEFDFC900011E0F8A3E0F9A3E0FAB5
:1090A100A3E0FBC3121B24500A900011121BB30052
:1090B100000000900011E0FCA3E0FDA3E0FEA3E0AE
:0190C100FFAF
:0190C200228B
:059AC00090000CEFF026
:109AC5006401704D7FD57E1012937C90000D121BA2
:109AD500A7E4FFFEFD7C8090000DE0F8A3E0F9A36C
:109AE500E0FAA3E0FBC3121B24407C90000DE0FCD0
:109AF500A3E0FDA3E0FEA3E0FF121AF3EF2401FFAC
:109B0500E43EFEE43DFDE43CFC90000D121BA78005
:109B15005690000CE064026003029BAE7FD47E1079
:109B250012937C90000D121BA7E4FFFEFD7C809034
:109B3500000DE0F8A3E0F9A3E0FAA3E0FBC3121BD4
:109B450024402490000DE0FCA3E0FDA3E0FEA3E08B
:109B5500FF121AF3EF2401FFE43EFEE43DFDE43C71
:109B6500FC90000D121BA790000DE0FCA3E0FDA3E7
:109B7500E0FEA3E0FFE412161C9005F3E0F8A3E075
:109B8500F9A3E0FAA3E0FB121409900015121BA734
:109B9500900015E0FCA3E0FDA3E0FEA3E0FF121694
:109BA5005A900011121BA7800A900011121BB300D6
:109BB500000000E47F14FEFDFC900011E0F8A3E036
:109BC500F9A3E0FAA3E0FBC3121B24500A9000118D
:109BD500121BB300000000900011E0FCA3E0FDA300
:059BE500E0FEA3E0FF1B
:019BEA002258
:056ADC0090072CEFF013
:106AE1006003026B687FD17E1012937C90072D1298
:106AF1001BA7E4FB7D017F197E01120000BF013459
:106B0100783D7C077D017B017A0079007E007F045E
:106B110012182C7B017A07793D7D0412C349900735
:106B21003DE0FCA3E0FDA3E0FEA3E0FF90073112EE
:106B31001BA78007900715E04410F0900731E0FC97
:106B4100A3E0FDA3E0FEA3E0FF90072DE0F8A3E0A2
:106B5100F9A3E0FAA3E02FFFEA3EFEE93DFDE83CA0
:106B6100FC900735121BA790072CE0B4012C7FD1B4
:106B71007E1012937C90072D121BA7E4FFFEFD7C73
:106B81008090072DE0F8A3E0F9A3E0FAA3E0FBC3AE
:106B9100121B245003026C38806D90072CE06402B4
:106BA1006003026C2EFB7D017F197E01120000BF84
:106BB1000134783D7C077D017B017A0079007E00FC
:106BC1007F0412182C7B017A07793D7D0412C34999
:106BD10090073DE0FCA3E0FDA3E0FEA3E0FF9007EA
:106BE1002D121BA78007900715E04410F0E4FFFE6B
:106BF100FD7C8090072DE0F8A3E0F9A3E0FAA3E083
:106C0100FBC3121B24403090072DE0FCA3E0FDA341
:106C1100E0FEA3E0FF121AF3EF2401FFE43EFEE4DD
:106C21003DFDE43CFC90072D121BA7800A90072D27
:106C3100121BB300000000E47F867E19FDFC900763
:106C41002DE0F8A3E0F9A3E0FAA3E0FBC3121B24B3
:106C5100500C900735121BB30000000080639007B1
:106C61002CE0B4011FA3E0FCA3E0FDA3E0FEA3E040
:106C7100FFE412161C90BE07121B9712140990070D
:106C810039121BA790072CE0B4021FA3E0FCA3E07C
:106C9100FDA3E0FEA3E0FFE412161C90BE07121B49
:106CA10097121409900739121BA7900739E0FCA32A
:106CB100E0FDA3E0FEA3E0FF12165A900735121B78
:0F6CC100A7900735E0FCA3E0FDA3E0FEA3E0FFF2
:016CD00022A1
:05B2920090000CEFF03C
:10B29700BF01247FFD7E1012937C90000D121BA727
:10B2A70090000DE0F8A3E0F9A3E0FAA3E0FBE4FFC8
:10B2B700FE7DE27C04805D90000CE064027069FB17
:10B2C7007D017F9A7E01120000EF640170517815AD
:10B2D7007C007D017B017A007900FE7F0412182C27
:10B2E7007B017A0079157D0412C349900015E0FCB3
:10B2F700A3E0FDA3E0FEA3E0FF90000D121BA790C3
:10B30700000DE0F8A3E0F9A3E0FAA3E0FBE4FFFEF9
:10B317007D887C13121A61900011121BA78013906D
:10B327000715E04410F0800A900011121BB30000CB
:10B337000000900011E0FCA3E0FDA3E0FEA3E0FF06
:10B34700E412161C7B9A7A997999783F121409129C
:10B35700165A900011121BA7900011E0FCA3E0FD04
:06B36700A3E0FEA3E0FFDD
:01B36D0022BD
:10761900900010121BB3000000007FD17E1012935E
:107629007C900010121BA7E4FFFEFD7C80900010E7
:10763900E0F8A3E0F9A3E0FAA3E0FBC3121B24904E
:107649000805E0402954EFF0900010E0FCA3E0FDAC
:10765900A3E0FEA3E0FF121AF3EF2401FFE43EFECC
:10766900E43DFDE43CFC900010121BA7800344108C
:10767900F0900010E0FCA3E0FDA3E0FEA3E0FF9082
:10768900000C121BA7E47F867E19FDFC900010E018
:10769900F8A3E0F9A3E0FAA3E0FBC3121B24501BF3
:1076A90090000C121BB300000000900010121BB3D5
:1076B90000000000900805E054EFF090000CE0FC99
:1076C900A3E0FDA3E0FEA3E0FF9000CA7410F0A3BD
:1076D90074FCF012C91C900010E0FCA3E0FDA3E0CB
:1076E900FEA3E0FFE412161C90BE07121B971214AA
:1076F9000912165A9006C7121BA77FD27E10129341
:107709007C900010121BA7E4FFFEFD7C8090001006
:10771900E0F8A3E0F9A3E0FAA3E0FBC3121B2440BD
:1077290024900010E0FCA3E0FDA3E0FEA3E0FF121B
:107739001AF3EF2401FFE43EFEE43DFDE43CFC9036
:107749000010121BA7900010E0FCA3E0FDA3E0FECF
:10775900A3E0FF90000C121BA7E47F867E19FDFCB5
:10776900900010E0F8A3E0F9A3E0FAA3E0FBC3124C
:107779001B24501490000C121BB300000000900051
:1077890010121BB300000000900010E0FCA3E0FD04
:10779900A3E0FEA3E0FFE412161C90BE0B121B9798
:1077A9001214097B397AB479C8783F121512121666
:1077B9005A9006CB121BA7E4FFFEFDFC9006CBE016
:1077C900F8A3E0F9A3E0FAA3E0FBC3121B247004B9
:0477D90090069EF088
:0177DD002289
:103BD8009006E3121BB3000000009006DF121BB32F
:103BE800000000009006EB121BB3000000007FD21B
:103BF8007E1012937C9006E3121BA77FEE7E1012B4
:103C0800937C9006DF121BA7E4FB7D017F1A7E01DF
:103C1800120000EF6401704578F37C067D017B019A
:103C28007A007900FE7F0412182C7B017A0679F35A
:103C38007D0412C3499006F3E0FCA3E0FDA3E0FE77
:103C4800A3E0FFE412161C7BCB7AA179D5783F124A
:103C5800140912165A9006EB121BA7800890071534
:103C6800E04410F022E47F867E19FDFC9006E7E030
:103C7800F8A3E0F9A3E0FAA3E0FBD3121B24401B4E
:103C88007F7A7EE67DFF7CFF9006E7E0F8A3E0F907
:103C9800A3E0FAA3E0FB121B24400A9006E7121BDC
:103CA800B300000000E47F867E19FDFC9006EFE07B
:103CB800F8A3E0F9A3E0FAA3E0FBD3121B24401B0E
:103CC8007F7A7EE67DFF7CFF9006EFE0F8A3E0F9BF
:103CD800A3E0FAA3E0FB121B24400A9006EF121B94
:103CE800B3000000009006E39006EB900805E03072
:103CF800E503023E1E30E3509006EBE0FCA3E0FD36
:103D0800A3E0FEA3E0FF121AF3EF2401FFE43EFE56
:103D1800E43DFDE43CFC9006EB121BA79006E3E0B3
:103D2800FCA3E0FDA3E0FEA3E0FF9006EBE0F8A310
:103D3800E0F9A3E0FAA3E02FFFEA3EFEE93DFDE843
:103D48003CFC9006F3023F619006EBE0FCA3E0FD2B
:103D5800A3E0FEA3E0FF9006E3E0F8A3E0F9A3E008
:103D6800FAA3E0FBC3121B2440509006EBE0F8A333
:103D7800E0F9A3E0FAA3E0FB9006E3E0FCA3E0FD92
:103D8800A3E0FEA3E09BFFEE9AFEED99FDEC98FC04
:103D98009006F3121BA79006EBE0FCA3E0FDA3E05E
:103DA800FEA3E0FF121AF3EF2401FFE43EFEE43D18
:103DB800FDE43CFC9006EB023F619006E3E0F8A3CB
:103DC800E0F9A3E0FAA3E0FB9006EBE0FCA3E0FD3A
:103DD800A3E0FEA3E0C39BFFEE9AFEED99FDEC98ED
:103DE800FC9006F3121BA7900720E06455600302BD
:103DF8003F649006EBE0FCA3E0FDA3E0FEA3E0FF38
:103E0800121AF3EF2401FFE43EFEE43DFDE43CFC1E
:103E18009006EB023F61900805E020E303023EFFB5
:103E28009006EBE0FCA3E0FDA3E0FEA3E0FF900614
:103E3800E3E0F8A3E0F9A3E0FAA3E0FBC3121B2434
:103E480040659006EBE0F8A3E0F9A3E0FAA3E0FBF5
:103E58009006E3E0FCA3E0FDA3E0FEA3E09BFFEEF9
:103E68009AFEED99FDEC98FC9006F3121BA79007BB
:103E780020E064559006EB600DE0FCA3E0FDA3E0B4
:103E8800FEA3E0FF801BE0FCA3E0FDA3E0FEA3E0AF
:103E9800FF121AF3EF2401FFE43EFEE43DFDE43C8B
:103EA800FC9006EB023F619006E3E0F8A3E0F9A37B
:103EB800E0FAA3E0FB9006EBE0FCA3E0FDA3E0FE44
:103EC800A3E0C39BFFEE9AFEED99FDEC98FC9006EB
:103ED800F3121BA79006EBE0FCA3E0FDA3E0FEA312
:103EE800E0FF121AF3EF2401FFE43EFEE43DFDE497
:103EF8003CFC9006EB80629006EBE0FCA3E0FDA39F
:103F0800E0FEA3E0FF9006E3E0F8A3E0F9A3E0FAFF
:103F1800A3E02FFFEA3EFEE93DFDE83CFC9006F3F6
:103F2800121BA7900720E064559006EB600DE0FC9B
:103F3800A3E0FDA3E0FEA3E0FF801BE0FCA3E0FDFF
:103F4800A3E0FEA3E0FF121AF3EF2401FFE43EFE14
:103F5800E43DFDE43CFC9006EB121BA79005BFE096
:103F6800FCA3E0FDA3E0FEA3E02400FFE43EFEE4A2
:103F78003DFDEC3480FCE412161CA804A905AA0631
:103F8800AB07E4FFFEFD7C4F1215129006F7121BDB
:103F9800A7E4FFFEFD7C809006EBE0F8A3E0F9A320
:103FA800E0FAA3E0FBD3121B249006EBE0FC406B85
:103FB800A3E0FDA3E0FEA3E0FF121AF3EF2401FF44
:103FC800E43EFEE43DFDE43CFC9006EB121BA790AA
:103FD80006EBE0FCA3E0FDA3E0FEA3E0FFE412167D
:103FE8001C9006F7E0F8A3E0F9A3E0FAA3E0FB12BF
:103FF800140912165A9006EB121BA79006EBE0FC68
:10400800A3E0FDA3E0FEA3E0FF121AF3EF2401FFF3
:10401800E43EFEE43DFDE43CFC8021A3E0FDA3E09A
:10402800FEA3E0FFE412161C9006F7E0F8A3E0F9FF
:10403800A3E0FAA3E0FB12140912165A9006EB1239
:104048001BA79006EBE0FCA3E0FDA3E0FEA3E0FFC6
:104058009000CA7410F0A374EEF012C91CE4FFFEBD
:10406800FD7C809006EBE0F8A3E0F9A3E0FAA3E07A
:10407800FBD3121B2440249006EBE0FCA3E0FDA335
:10408800E0FEA3E0FF121AF3EF2401FFE43EFEE492
:104098003DFDE43CFC9006EB121BA7E4FFFEFD7C13
:1040A800809006E3E0F8A3E0F9A3E0FAA3E0FBD3ED
:1040B800121B2440249006E3E0FCA3E0FDA3E0FEED
:1040C800A3E0FF121AF3EF2401FFE43EFEE43DFDF6
:1040D800E43CFC9006E3121BA7E4FFFEFD7C809005
:1040E80006F3E0F8A3E0F9A3E0FAA3E0FBD3121B80
:1040F8002440249006F3E0FCA3E0FDA3E0FEA3E047
:10410800FF121AF3EF2401FFE43EFEE43DFDE43C18
:10411800FC9006F3121BA79006E3E0FCA3E0FDA3C6
:10412800E0FEA3E0FFE412161C90BE0B121B9712D0
:10413800140912165A9006CB121BA79006F3E0FC3E
:10414800A3E0FDA3E0FEA3E0FFE412161C90BE0B63
:10415800121B9712140912165A9006DF121BA79009
:1041680006EBE0FCA3E0FDA3E0FEA3E0FFE41216EB
:104178001C90BE0B121B9712140912165A9006F3C4
:0D418800121BA7900707121BB300000000D8
:014195002207
:057D080090077BEFF085
:107D0D00BF014B7FD27E1012937C90077C121BA774
:107D1D00E4FFFEFD7C8090077CE0F8A3E0F9A3E092
:107D2D00FAA3E0FBC3121B245003027E1E90077CB6
:107D3D00E0FCA3E0FDA3E0FEA3E0FF121AF3EF24A5
:107D4D0001FFE43EFEE43DFDE43CFC027E0C9007A9
:107D5D007BE064026003027E14FB7D017F1A7E01CD
:107D6D00120000BF013478887C077D017B017A0009
:107D7D0079007E007F0412182C7B017A0779887DAB
:107D8D000412C349900788E0FCA3E0FDA3E0FEA325
:107D9D00E0FF90077C121BA78007900715E04410A9
:107DAD00F0E4FFFEFD7C8090077CE0F8A3E0F9A3F2
:107DBD00E0FAA3E0FBC3121B24402490077CE0FCF7
:107DCD00A3E0FDA3E0FEA3E0FF121AF3EF2401FFF1
:107DDD00E43EFEE43DFDE43CFC90077C121BA790C5
:107DED00077CE0FCA3E0FDA3E0FEA3E0FFE4121698
:107DFD001C7BCB7AA179D5783F12140912165A90B3
:107E0D00077C121BA7800A90077C121BB300000091
:107E1D0000E47F867E19FDFC90077CE0F8A3E0F975
:107E2D00A3E0FAA3E0FBC3121B24500C90078012B1
:107E3D001BB300000000806390077BE0B4011FA31B
:107E4D00E0FCA3E0FDA3E0FEA3E0FFE412161C900E
:107E5D00BE0B121B97121409900784121BA79007D3
:107E6D007BE0B4021FA3E0FCA3E0FDA3E0FEA3E0D2
:107E7D00FFE412161C90BE0B121B971214099007EB
:107E8D0084121BA7900784E0FCA3E0FDA3E0FEA3F2
:107E9D00E0FF12165A900780121BA7900780E0FC96
:097EAD00A3E0FDA3E0FEA3E0FF49
:017EB60022A9
:10E73F0003E503E803EC03EF03D903DC03E003E392
:10E74F0003D303D603D903DC03C603C903CC03CF1A
:10E75F00041004130416041904030407040A040D17
:10E76F0003FA03FD0400040303ED03F103F403F7BD
:10E87800EFB401089028637481F0800BEF64027094
:10E888002A90286374A2F0902864E04408F0A3E07A
:10E898004401F07F787E2812937CEF4418FF9000A3
:0BE8A800CA7428F0A37478F012C91C99
:01E8B3002242
:10ED1E00902864E054F7F09028637480F090286592
:10ED2E00E04401F07F787E2812937CEF54F7FF9039
:0CED3E0000CA7428F0A37478F002C91C0D
:10E8B4007F0212E8787F0A7E0012F15E7FCE7E101E
:10E8C40012937C7810121B35EE30E70FEFF4FFEE55
:10E8D400F4FEEF2401FFE43EFE800F7C007D47122E
:0BE8E4001900EF24FBFFEE34FFFE00E4
:01E8EF002206
:10EC35007F0112E8787F0A7E0012F15E120056907D
:10EC4500000D121BA7E4FFFE7D207C4190000DE026
:10EC5500F8A3E0F9A3E0FAA3E0FB12140912165A8F
:01EC6500228C
:100056009000127404F0A37420F0E4900011F09064
:100066000011E0FFC394035043EF75F018A4FF900E
:100076000013E02FFD900012E035F0FC7E007F14A7
:100086007B1512E9DC7B017A00791490003D74330C
:10009600F07D137C0012EE67900033EFF09000289D
:1000A600E06F6008900011E004F080B37B017A00F5
:1000B60079147D0412C3497B017A0079187D0412F4
:1000C600C3497B017A00791C7D0412C3497B017AFE
:1000D6000079207D0412C3497B017A0079247D04CE
:1000E60012C3497FCE7E1012937C7810121B359076
:1000F6000034121BA77E007F29902862E0543E241C
:100106003FF582E434E7AD82FC7B0212E9DC900025
:1001160029E0FEA3E0FFE4FCFD900034E0F8A3E054
:10012600F9A3E0FAA3E0FB1219D6E47BE87A03F917
:10013600F8121A61900034121BA7900028E0FF9075
:100146000033E06F6032900014121BB30000466269
:10015600900018121BB30000000190001C121BB384
:100166000D5A4336900020121BB300001BB49000BA
:1001760024121BB30000000A900034E0FCA3E0FD4B
:10018600A3E0FEA3E0FF900020E0F8A3E0F9A3E0DF
:10019600FAA3E0FB1219D690001CE0F8A3E0F9A33D
:1001A600E0FAA3E02FFFEA3EFEE93DFDE83CFCE471
:1001B60012161C12C3FAC004C005C006C007900080
:1001C60018E0FCA3E0FDA3E0FEA3E0FFE412161C8A
:1001D600D003D002D001D000121409C004C005C05B
:1001E60006C007900014E0FCA3E0FDA3E0FEA3E038
:1001F600FFE412161CA804A905AA06AB07D007D06F
:1002060006D005D004121314C004C005C006C007EA
:10021600900024E0FCA3E0FDA3E0FEA3E0FFE412CF
:10022600161CA804A905AA06AB07D007D006D00558
:10023600D00412151290002F121BA79000127404FE
:10024600F0A37480F0E4900011F0900011E0FFC379
:1002560094035046EF75F004A4FF900013E02FFDC1
:10026600900012E035F0FC7E007F2B7B0412E9DC67
:100276007B017A00792B90003D7433F07D027C007F
:1002860012EE6790002DEFF0A3E0FF90002DE06FD7
:100296006008900011E004F080B090002EE0FF901E
:1002A600002DE06F6007E490002BF0A3F090002B88
:1002B600E030E75B90002BE0FEA3E0F4FFEEF4FEF7
:1002C600EF2401FFE43E90002BF0A3EFF090002F07
:1002D600E0FCA3E0FDA3E0FEA3E0FFC004C005C070
:1002E60006C00790002BE0FEA3E0FF7C007D0A120B
:1002F6001900AC06AD07E4121621A804A905AA0642
:10030600AB07D007D006D005D0041213148038905E
:10031600002FE0F8A3E0F9A3E0FAA3E0FBC000C0D9
:1003260001C002C00390002BE0FEA3E0FF7C007D2D
:100336000A121900AC06AD07E4121621D003D0024A
:10034600D001D00012131890002F121BA7E4FFFE55
:100356007DB47C4290002FE0F8A3E0F9A3E0FAA375
:10036600E0FB1215AF600E400C90002F121BB3423B
:10037600B400008024E4FFFE7D2C7CC290002FE0B8
:10038600F8A3E0F9A3E0FAA3E0FB1215AF500A9038
:10039600002F121BB3C22C000090002FE0FCA3E03C
:0703A600FDA3E0FEA3E0FF50
:0103AD00222D
:06AFEF00900009121BA7EF
:10AFF500E490000DF0C286C285902867E044C0F059
:10B00500A37420F0900009E0FCA3E0FDA3E0FEA3FB
:10B01500E0FF121C8CB042000C8000B04A00190001
:10B0250000B05A00320000B06200640000B06F004A
:10B03500C80000B081019000000000B0939028671F
:10B04500E054FC800A902867E04401F0E054FDF0EC
:10B05500A3E4F0803C902867E054FE8006902867C2
:10B06500E04401F0E04402F08027902867E04401C5
:10B07500F0E04402F0A3E04440F08015902867E03A
:10B085004401F0E04402F0A3E044C0F0800312F272
:10B0950054E5A320E00F90000DE004F0E0D39432D6
:10B0A50040EF7F0022D280E490000DF020800F90C9
:10B0B500000DE004F0E0D3943240F17F00229028A7
:0EB0C5005FE4F0A37403F0A3E04420F07F01E9
:01B0D300225A
:06BFDD00900001121BA7F9
:10BFE300E4900005F0C284902867E044C0F090001C
:10BFF30001E0FCA3E0FDA3E0FEA3E0FF121C8CC064
:10C003001E00000000C023000C8000C03000190097
:10C0130000C045003200000000C05AD2847F0122D4
:10C02300902867E054F3F0E054CFF0802D90286718
:10C03300E04404F0E054F7F0E04410F0E054DFF0A3
:10C043008018902867E054FBF0E04408F0E054EFD8
:10C05300F0E04420F0800312F254E5A320E00F90B7
:10C063000005E004F0E0D3943240EF7F0022D28752
:10C07300E4900005F020870F900005E004F0E0D382
:09C08300943240F17F00227F019C
:01C08C002291
:10E25900C286C285902864E4F0902866F09000098F
:10E26900F0900009E004F0E0B414F6D284E5A1309E
:10E27900E00312F254C2802080FDE5A130E00312D0
:10E28900F254E4900009F0900009E004F0E0B403CE
:10E29900F6902867E4F0902867E070FAD2817F321F
:04E2A90012F2AD00C0
:01E2AD00224E
:10D6DB009028ADE054FDF09028ACE054FDF090287C
:10D6EB00AEE04402F09028ACE054FBF0A3E054FB16
:10D6FB00F0A3E04404F0902820E4F0902828F09068
:10D70B002830F0902A05F0902864F0902866E044C9
:10D71B0020F09000CA7428F0A3747DF07F007E0087
:10D72B007D007C0012C91C9000CA7428F0A3747889
:10D73B00F07F007E007D007C0012C91CE4FF0FEF20
:05D74B00B414FBD284C0
:01D7500022B6
:10D15B009028A8E054F0F09028AAE054F0F075A4C1
:10D16B00F275A50AE4F5A643A6049028B2E04402A2
