:01040000FFFC
:0300000002D29594
:06D2950075812002D2D6D3
:10C028000075CEA575CF5A0075CEA575CF5A00C23A
:10C03800AF12EB9FD2AF0075CEA575CF5A0075CE63
:10C04800A575CF5A0012F112EF6401707C75CEA568
:10C0580075CF5A0075CEA575CF5A00900711E0FF2D
:10C0680030E00654FEF012EE50128981900711E07C
:10C07800FF30E10654FDF012908E9006BEE0640198
:10C0880060079006BFE0B4010312B3E49006BAE07B
:10C0980064017024F012B30D75CEA575CF5A0075E2
:10C0A800CEA575CF5A007D017F0112BA4E7FFF12CF
:10C0B800EDDB9006C07403F012898175CEA575CFAB
:0FC0C8005A0075CEA575CF5A0012898102C03F6C
:10DF180000100044443031412D5632302E30341E2A
:10DF28001E26002000111111111111FFFFFFFFFF24
:10DF3800FFFFFFFFFF111111111111000000000078
:10DF480000000000000000000000005A000000006F
:10DF58001C0000000000000000000F0101FFFFFF8F
:10DF6800FFFFFFFFFF001234560000006534120067
:01DF780000A8
:10D93600E4900711F0A3F09007157403F0E4900744
:10D9460028F07B017A07791A9001D6F0A304F0A398
:10D9560004F07D997C0012CE2D7B017A07791B900D
:10D9660001D6E4F0A37402F0A3F07D9F7C0012CEF2
:10D976002D7B017A07791D9001D6E4F0A37402F09D
:10D98600A3F07DA17C0012CE2D7B017A077924902D
:10D9960001D6E4F0A37404F0A37402F07DC17C0008
:03D9A60002CE2D81
:10DB660000020000003E0102003E002F1402006D7C
:10DB76000052150200BF00101B02011B001A1902F9
:10DB860000CF0009460200D8003A150200BF001077
:10DB960052020135001A5302014F001E5402016D54
:10DBA60000621A020112000965020800007166028D
:10DBB60008710071670208E200716802095300717A
:0CDBC600690209C400716A020A3500718E
:10B8C300900012E0FEA3E0FF900016E0FCA3E0FD71
:02B8D3007B02F6
:10B8D500900189EEF0A3EFF0A3ECF0A3EDF0A3EB5C
:01B8E500F072
:10B8E6009001CF74A5F0A3745AF090018BE0FEA3EB
:10B8F600E0FFD39400EE9400500302B981EF944028
:10B90600EE940090018E40057440F08002EFF07BCB
:10B91600017A01798F900189E0FCA3E0FD90018E08
:10B92600E0FF9001D6E4F0A3EFF090018DE09001E6
:10B93600D8F012CE2D7B017A01798F90018EE0FD31
:10B946007C00E49001D6F0A3F012EC019001D0E067
:10B956002FF09001CFE03EF090018EE0FF7E009048
:10B96600018AE02FF0900189E03EF0C390018CE05F
:10B976009FF090018BE09EF002B8F09001CFE0FEC0
:03B98600A3E0FF3C
:01B98900229B
:08CF4A00900189EEF0A3EFF065
:10CF5200E4FFEF75F006A42467F582E434DBF58381
:10CF6200E4936D7068ED640260037FFF22EF75F059
:10CF720006A42468F582E434DBF583E493FB7401B0
:10CF82009390018BCBF0A3EBF0EF75F006A4246A2B
:10CF9200F582E434DBF583740193F990018BE0FAB6
:10CFA200A3E0FBC390018AE09B900189E09A401DB7
:10CFB200E9FB90018CE02BFB90018BE03400FAC37B
:10CFC20090018AE09B900189E09A5001220FEF6460
:08CFD20012600302CF547FFF3F
:01CFDA002234
:10ACE000900012E0FCA3E0FD2400FFEC3404FE9091
:10ACF0000017E02402FB900016E03400FA900020D8
:03AD00007422F0CA
:10AD030090001AEEF0A3EFF0A3ECF0A3EDF0A3EAAA
:04AD1300F0A3EBF0CE
:10AD170090001EE0FEA3E0FFD39400EE94005003E2
:10AD270002ADCED3EF9440EE9400900061400574DD
:10AD370040F08002EFF07B017A00792190001CE05F
:10AD4700FCA3E0FD900061E0FF9001D6E4F0A3EFE3
:10AD5700F0900020E0FFC4540F9001D8F012CE2DE0
:10AD670075CEA575CF5A0075CEA575CF5A007B0154
:10AD77007A007921900061E0FD90018EE4F0A3ED67
:10AD8700F0900020E0540F900190F090001AE0FE40
:10AD9700A3E0FF12CAB0900061E0FFFD7C009000C5
:10ADA7001BE02DF090001AE03CF090001DE02DF024
:10ADB70090001CE03CF0C390001FE09FF090001E45
:07ADC700E09400F002AD175B
:01ADCE002262
:10C77B0090007AEEF0A3EFF0A3ECF0A3EDF0AF0393
:10C78B007B017A007980AD0790017BE4F0A37440C4
:10C79B00F012ED1090007CE0FEA3E0FFD39400EECE
:10C7AB0094004069D3EF9440EE94009000C0400594
:10C7BB007440F08002EFF090007AE0FEA3E0FF7B84
:10C7CB00017A0079809000C0E0FD90018EE4F0A327
:10C7DB00EDF090007FE0900190F012CAB075CEA5FD
:10C7EB0075CF5A0075CEA575CF5A009000C0E0FFEB
:10C7FB007E0090007BE02FF090007AE03EF0C3903B
:0DC80B00007DE09FF090007CE09EF08087B3
:01C8180022FD
:0BCE22009001D6E4F0A37402F0A3F02E
:10CE2D009001D1EBF0A3EAF0A3E9F0A3ECF0A3EDB0
:01CE3D00F004
:10CE3E009001D8E024FE604B0470699001D4E0FEAE
:10CE4E00A3E0AA06F99001D97401F0A3EAF0A3E9D0
:10CE5E00F09001D9E0F9A3E0FAA3E09001DFC9F068
:10CE6E00A3EAF0A3E9F09001D6E0FFA3E09001E27F
:10CE7E00CFF0A3EFF09001D1E0FBA3E0FAA3E0F92D
:10CE8E0002DFD89001D1E0FBA3E0FAA3E0F9A3E022
:10CE9E00FCA3E0FDA3E0FFA3E09001E1CFF0A3EF40
:07CEAE00F002C63B12F1EF98
:01CEB500225A
:10CA8F0090000EEEF0A3EFF09000147A00790EE014
:10CA9F00FEA3E0FF7B0190018EE4F0A37402F0A3EC
:01CAAF00F096
:10CAB000900189EEF0A3EFF0A3EBF0A3EAF0A3E975
:01CAC000F085
:10CAC100900190E024FE603C04705A900189E0FEE0
:10CAD100A3E0AA06F97B01C002C001A3E0F9A3E02B
:10CAE100FAA3E09001DFC9F0A3EAF0A3E9F0900115
:10CAF1008EE0FFA3E09001E2CFF0A3EFF0D001D0F0
:10CB01000202DFD8900189E0FEA3E0FFA3E0FBA3CE
:10CB1100E0FAA3E0F9A3E0FDA3E0900196CDF0A334
:08CB2100EDF002C95512F1EF1D
:01CB290022E9
:10995C00900179EBF0A3EAF0A3E9F0900177EEF037
:03996C00A3EFF076
:10996F0090017EE0FD12CF4A90017FEFF0C3941279
:10997F00400312F1EF90017FE0FF75F006A4246819
:10998F00F582E434DBF583E493FD74019390018257
:10999F00CDF0A3EDF0EF75F006A4246AF582E43460
:1099AF00DBF58374019324FEFFE49334FFFE9001F3
:1099BF0086F0A3EFF0900183E02FFF900182E03E4D
:1099CF00900184F0A3EFF090017FE075F006A424DE
:1099DF0066F582E434DBF583E493900188F090011F
:1099EF0077E0FEA3E0FFA3E0FBA3E0FAA3E0F9A377
:1099FF00E0FDA3E090018ECDF0A3EDF090017EE0AD
:109A0F00900190F012CAB0900182E0FEA3E0FF90A7
:109A1F00018612B8CE900180EEF0A3EFF090018492
:109A2F007A01798012CA9E900188E0C394645048ED
:109A3F00900178E02400FF900177E03404FE90015C
:109A4F0079E0FBA3E0FAA3E0F9A3E0FDA3E0900126
:109A5F008ECDF0A3EDF090017EE0900190F012CA50
:109A6F00B0900185E02400FF900184E03404FE7B78
:089A7F00017A01798012CAA5E9
:019A870022BC
:10A34400E4FEEE75F006A42466F582E434DBF583BE
:10A35400E4936F60050EEEB412E8EEC3941240036A
:10A3640002A444EE75F006A42468F582E434DBF517
:10A3740083E493FD74019390001ACDF0A3EDF0EE05
:10A3840075F006A4246AF582E434DBF58374019342
:10A3940024FEFCE49334FF90001CF0A3CCF0EF24E3
:10A3A400EB602224CF602E24F4603A1460471460DA
:10A3B400542440707290001AE0FEA3E0FF7BFF7A01
:10A3C400DF7927804E90001AE0FEA3E0FF7BFF7A3E
:10A3D400DE794E803E90001AE0FEA3E0FF7BFF7A18
:10A3E400BD7954802E90001AE0FEA3E0FF7BFF7A33
:10A3F400CB79C4801E90001AE0FEA3E0FF7BFF7AB5
:10A40400CB79DE800E90001AE0FEA3E0FF7BFF7A9A
:10A41400CB79FCA3E0FDA3E090018ECDF0A3EDF099
:10A42400A37402F002CAB090001AE0FEA3E0FFA3F6
:10A43400E0FCA3E0FD90007F7402F0E4FB12C77B14
:01A4440022F5
:10707D00E490000DF090000DE0F9C394124003026E
:10708D007254E4900018F090000DE0FF75F006A426
:10709D002468F582E434DBF583E493FD7401939069
:1070AD000012CDF0A3EDF0EF75F006A4246AF58281
:1070BD00E434DBF58374019324FEFEE49334FF90F6
:1070CD000016F0A3CEF0900016E0FAA3E0FB9000BE
:1070DD0012E0FCA3E0FD2BFEEC3AA3F0A3CEF0E909
:1070ED0075F006A42466F582E434DBF583E4939011
:1070FD000019F075CEA575CF5A0075CEA575CF5A6E
:10710D0000AF05AE04AD03AC027B0212B8D5900002
:10711D000EEEF0A3EFF07B017A007910900014E0F1
:10712D00FCA3E0FD12CE22900010E0FEA3E0FF9044
:10713D00000EE06E7003A3E06F6007900018E0444E
:10714D0001F0900019E0C39464504B900013E024BB
:10715D0000FF900012E03404FE12B8CB90000EEE4A
:10716D00F0A3EFF07B017A007910900015E0240078
:10717D00FD900014E03404FC12CE22900010E0FECD
:10718D00A3E0FF90000EE06E7003A3E06F60079028
:10719D000018E04402F075CEA575CF5A0075CEA546
:1071AD0075CF5A00900018E0700302723D24FE6006
:1071BD003614604124027075900019E0C394645038
:1071CD0015900012E0FEA3E0FF2400FDEE3404FC58
:1071DD0012ACEF02722A900019E0FF12A34412B80C
:1071ED00C312CA8F02722A900019E0C394645040F2
:1071FD0012ACE08028900019E0FF12A34412B8C32E
:10720D0012CA8F75CEA575CF5A0075CEA575CF5AFA
:10721D0000900019E0C39464501612ACE075CEA531
:10722D0075CF5A0075CEA575CF5A00800312F1EFB8
:10723D0075CEA575CF5A0075CEA575CF5A009000A5
:07724D000DE004F002708265
:017254002217
:05BC9400900093EFF0A9
:10BC9900E4A3F0900094E0F9C39412400302BD5369
:10BCA900E0FE75F006A42468F582E434DBF583E44C
:10BCB90093FC740193FDEE75F006A4246AF582E401
:10BCC90034DBF58374019324FE2DFEE43C90009748
:10BCD900F0A3CEF0E975F006A42466F582E434DB1E
:10BCE900F583E493FF900099F0BF4608900093E034
:10BCF90064A5704D75CEA575CF5A0075CEA575CFC3
:10BD09005A00E4900095F0A3F0900097E0FEA3E0BC
:10BD1900FF7B017A00799512CAA5900099E0C39436
:10BD290064501EE4900095F0A3F0900098E0240080
:10BD3900FF900097E03404FE7B017A00799512CADE
:0ABD4900A5900094E004F002BC9CF9
:01BD530022CD
:10C0D70012F091EF6401600302C1719007F0E0C3B1
:10C0E7009403400302C185E004F0E0C394035003C6
:10C0F70002C18590071AE0645A600302C185900760
:10C10700F1E06401607812DCAA75CEA575CF5A00FC
:10C1170075CEA575CF5A0012B30D75CEA575CF5A3A
:10C127000075CEA575CF5A0012D8C275CEA575CFAA
:10C137005A0075CEA575CF5A0012A02A12E6987537
:10C14700CEA575CF5A0075CEA575CF5A00129BB3F1
:10C1570075CEA575CF5A0075CEA575CF5A007FA8A5
:10C167001203AE9007F17401F0229007F0E0D39428
:0FC17700004003E014F09007F0E07002A3F02204
:10E19F0012F142EF640170269007EEE0C394035032
:10E1AF0043E004F0E0C39403403AA3E06401603419
:10E1BF007D017F0912BA4E9007EF7401F02290078C
:10E1CF00EEE0D3940040069007F0E014F09007EED5
:10E1DF00E07011A3E0B4010C7DFF7F0912BA4EE489
:05E1EF009007EFF02293
:10F1B3007B017A0779ED90017BE4F0A37405F0E419
:04F1C300FD02ED104C
:01004A002293
:10F11200E4FFE5A120E0050FEFB41EF6EFC394195A
:07F1220050037F01227F0072
:01F1290022C3
:10E24900900713E5A1F0E59560047F0180027F0046
:10E25900E59460047E0180027E00EE4F60117590A6
:10E2690096759757E4F594F59575909675975600B8
:10E27900758F019004027486F0E4F58F75A001FF93
:10E28900FE7D32FC12AEB512E14812EFCC02E88BEA
:107602007B017A00790A9001D6E4F0A37403F0A317
:1076120014F07DBA7C0012CE2D90000AE0B4650B06
:10762200A3E0B43406A3E06412602D9004BC74019C
:10763200F012D31B90007F7402F0E4FBFD7C10FF7C
:107642007E0812C77B7FA512BC9475CEA575CF5A52
:107652000075CEA575CF5A00900714E07011127014
:107662007D75CEA575CF5A0075CEA575CF5A00127D
:10767200D93612F1B375CEA575CF5A0075CEA57560
:10768200CF5A007B017A0579BF9001D6E4F0A3744A
:107692003AF0A37402F07DD87C0012CE2D12F2973C
:1076A20012F29412DBD275CEA575CF5A0075CEA513
:1076B20075CF5A0012E9B11268B312ED6412EB03EE
:1076C20012F0DF75CEA575CF5A0075CEA575CF5ACB
:1076D2000012E09275CEA575CF5A0075CEA575CF72
:1076E2005A009006D1E0643060030277C175CEA5DE
:1076F20075CF5A0075CEA575CF5A00900000F07B69
:10770200017A0079029001D6F0A37405F0A3740205
:10771200F07D6C7C0C12CE2D7B017A0079089001F1
:10772200D6E4F0A37402F0A3F07D6F7C0012CE2D9C
:10773200900008E0FB900004E0C39B50089000001A
:107742007401F08005E4900000F09006D7E0FE900E
:107752000000E02EFD900003E0FCC3ED9C900000D1
:10776200F0EEC39B5005E014F08005900000E0F0BD
:10777200900000E0D3940640037406F0900000E00D
:10778200D39400403AE4A3F0900000E0FFA3E0C3EA
:107792009F501BE4FF12836875CEA575CF5A007502
:1077A200CEA575CF5A00900001E004F080DA75CEC4
:1077B200A575CF5A0075CEA575CF5A0012B30D022A
:0277C200EB39A1
:10A73700E4900000F0A3F075CEA575CF5A0075CE52
:10A74700A575CF5A0075CEA575CF5A0075CEA575DC
:10A75700CF5A0012ED641268B312DAF912ED8C12B7
:10A76700E1489028C8E4F09028ADE04410F07D025D
:10A777007F0112E8C643C90112E1F475CEA575CF72
:10A787005A0075CEA575CF5A007F007E007D327CBA
:10A797000012AEB57B017A00790212DF799001DFF2
:10A7A7007401F0A37400F0A37402F0A3E4F0A3749F
:10A7B70007F07B017A0679D512DFD8E5A130E05C96
:10A7C70012D0F612EFCC12EACC7B017A04797090A2
:10A7D700018EE4F0A3741EF0A37402F07FCF7E0114
:10A7E70012CAB07B017A04798F90018EE4F0A374CA
:10A7F7002DF0A37402F07FED7E0112CAB07B017ABF
:10A807000479BE90018EE4F0A37432F0A37402F0D1
:10A817007F1AFE12CAB012D31B12F1EF126E9C12EE
:05A82700E2E802A77544
:10D41B007F007E007D327C0012AEB512D0F612DAA0
:10D42B00F97FFF12EDDB75CEA575CF5A0075CEA532
:10D43B0075CF5A0012760212EF48E4FF12DC3E124F
:10D44B00F23DE4FF125A7212667C7B017A0679FC7C
:10D45B0090017BE4F0A37405F0E4FD12ED1090074E
:10D46B008D7404F0900789F07DFF7F0712BA4E7B15
:10D47B00017A07798990017BE4F0A3740CF0E4FD49
:0AD48B0012ED1043A50143A4012295
:10EB9F0012E24912F112EF70077F2C7E0112F0F989
:10EBAF0012F112EF70089007147403F08005E490CF
:10EBBF000714F0900714E0B4030302A73712D41B15
:01EBCF002223
:10E2E80012F0ABEF64014E70059006BE04F0900684
:10E2F800BEE0B4011EE4F090062FE0B40504E4F09B
:10E30800800690062FE004F0129E0090061974060D
:10E31800F0800C900619E0D394004003E014F090CC
:0DE328000619E0700790062FF0129E0022EB
:1089810012F112EF6003028AECD284C2AF125F5976
:108991007B017A05792E90017CE4F0A3743CF0A36D
:1089A1007402F0E4FFFE12995C9007147403F07BEB
:1089B100017A0679D590017CE4F0A37407F0A374E1
:1089C10002F07FCF7E0012995C90078D7404F07DD8
:1089D100017F0712BA4E9007907404F090078CF053
:1089E1007DFF7F0A12BA4E7B017A0779939001D6F7
:1089F100E4F0A304F0A304F07D217C0112CE2D123A
:108A0100C23512ED8C12E1489028C8E4F09028ADEF
:108A1100E04410F012EFCC12E88B12ED64E4900602
:108A210019F09004BCF075CEA575CF5A0075CEA58E
:108A310075CF5A00E4FD7F0112E8C643C90112F265
:108A41003D12E1F475CEA575CF5A0075CEA575CF4F
:108A51005A007F007E007D327C0012AEB57B017A28
:108A610000790012DF799001DF7401F0A37400F046
:108A7100A37400F0A3E4F0A37407F07B017A0679F4
:108A8100D512DFD8E5A130E05912D0F612EFCC12A1
:108A9100EACC7B017A04797090018EE4F0A3741E14
:108AA100F0A37402F07FCF7E0112CAB07B017A0479
:108AB100798F90018EE4F0A3742DF0A37402F07FFE
:108AC100ED7E0112CAB07B017A0479BE90018EE479
:108AD100F0A37432F0A37402F07F1AFE12CAB0122E
:0B8AE100F1EF126E9C12E2E8028A27FF
:018AEC002267
:10F1EF0075CEA575CF5A0075CEA575CF5A00000004
:03F1FF000080FB92
:03000300020046B2
:040046005388FD32AC
:03000B0002E0EE22
:10E0EE00C0E0C083C082C0D0758A65758C6690070B
:10E0FE0011E04401F09005B4E0600E9005B6E00426
:10E10E00F070069005B5E004F09005B9E0B4011B7F
:10E11E00D39005B8E094009005B7E09400400CA3AE
:10E12E00E024FFF09005B7E034FFF0900728E004FC
:0AE13E00F0D0D0D082D083D0E032C0
:0300130002004E9A
:04004E005388F732AA
:03001B0002EF27CA
:10EF2700C0E0C083C08253887F758B53758D9A90DC
:10EF370028B2E04402F0C28EC2ABD082D083D0E0C8
:01EF47003297
:03002B0002EEBF23
:10EEBF00C0E0C0F0C083C082C0D075D01053C87FEF
:10EECF0075CC6575CD6612B4BAD0D0D082D083D050
:04EEDF00F0D0E0325D
:03003B0002F15A75
:10F15A00C0E0E5C030E00553C0FE8008E5C030E1FC
:07F16A000353C0FDD0E032A9
:0300430002948F95
:0D948F00C0E0C0F0C083C082C0D075D01016
:10949C00902840E0FF902843E05F900241F0E020EC
:1094AC00E203029532902840E054FBF0902836E01D
:1094BC0054FDF0900242E0D394004057A3E0FC240A
:1094CC0046F582E43402F583E0900240F0900343C9
:1094DC00E0B40716900240E0FE547FFD30D006EE5B
:1094EC004480F08005900240EDF0900240E090281E
:1094FC0037F09005B5E4F0A3F074462CF582E43413
:10950C0002F583E4F0900243E004F0900242E01490
:10951C00F08013900243E4F09003407404F012E6E0
:10952C0012E4FF12C593900241E0FF30E350902803
:10953C0040E054F7F0902836E054FEF0A3E090029F
:10954C0040F0E0547FFE900243E02446F582E43480
:10955C0002F583EEF09005B5E4F0A3F0900243E041
:10956C0004F0E0FED3940440020000EE75F0FA849F
:10957C00AEF0900243EEF0D3941540020000EF30B1
:10958C00E407902840E054EFF0900241E030E5070A
:10959C00902840E054DFF0900241E0FF30E6079065
:1095AC002840E054BFF0EF30E70D902840E0547FA6
:0A95BC00F090056DE004F05391EF0C
:0B95C600D0D0D082D083D0F0D0E032B3
:03004B0002BBD322
:0DBBD300C0E0C0F0C083C082C0D075D010AB
:10BBE000902848E0FF90284BE05FFD30E407902864
:10BBF00048E054EFF0AF15ED30E507902848E054E9
:10BC0000DFF0AF15ED30E614902848E054BFF09017
:10BC10000711E04402F09005F97401F0AF15ED3022
:10BC2000E764902848E0547FF090056CE004F090C1
:10BC300006D3E06401702C9028B0E04402F0A3E049
:10BC400054FEF09028C9E4F0A3F09028B2E054FD2F
:10BC5000F09028B0E054FDF0758B53758D9A12006A
:10BC6000068004C28EC2AB900605E0541FF07B0133
:10BC70007A0579FB12AF9A9006C1E4F075CC657530
:09BC8000CD66D2CAD2AD5391DFAA
:0BBC8900D0D0D082D083D0F0D0E032C9
:0300530002EC8D2F
:0BEC8D00C0E0C083C082C0D075D01072
:10EC9800902850E0FF902853E05FFF30E30790286A
:08ECA80050E054F7F05391BF56
:09ECB000D0D0D082D083D0E03234
:1091EC004106BE004106BB004106BA004106B9016A
:1091FC004106BF004106BD004106C0004106D20039
:10920C004106C2004106D3004106BC004106D40011
:0F921C004106C1004406CD000000004106B80025
:10CC5E007B017A00790D12DF797B017A00790D1252
:10CC6E00AA10EF70647B017A00790D9001D6F0A3C3
:10CC7E007407F0A37402F07DCF7C0012CE2D7B01E1
:10CC8E007A00790D12AA10EF703690000D7403F031
:10CC9E00A37416F0A37404F0A37420F0A37412F01E
:10CCAE00A37430F0A3F07B017A00790D90017CE43F
:10CCBE00F0A37407F0A37402F07FCF7E0012995C8C
:10CCCE007B017A00790D12DD149001DF7401F0A35F
:10CCDE007400F0A3740DF0A3E4F0A37407F07B01CD
:07CCEE007A0679D502DFD8B8
:03F2940002CC5E4B
:10D1820012F142EF700E9006D2E0700804F09006A1
:10D19200C27403F012F142BF0109E49006D2F0908A
:10D1A20006C2F012F0ABEF64014E700F9006BBE0C6
:10D1B20070099006BE04F09006BBF012F0ABEF4E81
:10D1C20070049006BBF012F12AEF64014E700D90CC
:10D1D20006B9E07007A304F09006B9F012F12AEF45
:10D1E2004E70049006B9F012F0C5EF64014E700F54
:10D1F2009006BDE070099006BF04F09006BDF012E3
:0BD20200F0C5EF4E70049006BDF02256
:10B4BA009006A0E0FCA3E0FDA3E0FEA3E0FFE412F7
:10B4CA00161C900234121BA7900234E0F8A3E0F98C
:10B4DA00A3E0FAA3E0FB7F007E807DF77C4612158D
:10B4EA0012900238121BA7E4FFFEFDFC900234E022
:10B4FA00F8A3E0F9A3E0FAA3E0FB1215AF6002504B
:10B50A000302B58E9006B8E0FCE412162690023CBF
:10B51A00121BA7E4FFFE7DC87C41900238E0F8A325
:10B52A00E0F9A3E0FAA3E0FB12140990023CE0F868
:10B53A00A3E0F9A3E0FAA3E0FB1215AF404090069E
:10B54A00C1E004F0E49006B8F09006C1E024FE6081
:10B55A00101460162402701D900605E04480F080E5
:10B56A0014900605E044C0F0800B900605E044E024
:10B57A00F0C2CAC2AD7B017A0579FB02AF9A900686
:04B58A00B8E004F031
:01B58E00229A
:10EE5000E4900000F0900000E0FFC3940150131212
:10EE6000B07A900000E0FF12A13A900000E004F0B8
:05EE700080E302D182E5
:10908E0012CC5E75CEA575CF5A0075CEA575CF5A8A
:10909E0000900801E0D394004006E014F012ED6455
:1090AE00900801E0703F128DBF75CEA575CF5A00A6
:1090BE0075CEA575CF5A00125F5975CEA575CF5ACC
:1090CE000075CEA575CF5A0012EC3212D84E75CE61
:1090DE00A575CF5A0075CEA575CF5A0012C0D712FE
:1090EE00F2A812EB039006C0E0700812B3E4129ED1
:1090FE000080069006C0E014F012A5439006DBE057
:10910E00706212667C75CEA575CF5A0075CEA575A8
:10911E00CF5A0012642075CEA575CF5A0075CEA514
:10912E0075CF5A00126E9C12D31B9006D1E0B4304C
:10913E001175CEA575CF5A0075CEA575CF5A0012F2
:10914E00CB2A75CEA575CF5A0075CEA575CF5A0010
:10915E0012CEB675CEA575CF5A0075CEA575CF5A5F
:10916E000012E09212F142EF70219006C2E0D39409
:10917E00004002802E9006D37401F09006BC740A53
:10918E00F09006DBE09006D4F080229006BCE0D38F
:10919E00940040149006D4E0FF9006DBE0B5070D76
:1091AE009006BCE014F08005E49006D3F09006DB48
:1091BE00E0B4251112F2A675CEA575CF5A0075CE64
:1091CE00A575CF5A009006DBE0B4311112F0DF75B1
:0E91DE00CEA575CF5A0075CEA575CF5A0022CA
:01005200228B
:0AF25300E49006CCF09006CBF02208
:0BBEC400E0FCA3E0A3FDE0900230F0E2
:10BECF0090022BEBF0A3EAF0A3E9F0A3ECF0A3EDC3
:01BEDF00F072
:10BEE000E4900233F090023174A0F0A304F012E861
:10BEF0008B900233E004F0E0D3940A40037F0022E9
:10BF000012EACC900231E0FF12C9F2BF01E09002C8
:10BF10002EE0FF12C9F2EF640160037F002290025D
:10BF20002EA3E0FF12C9F2EF640160037F0022122A
:10BF3000EACC900232E0FF12C9F2EF640160037FA5
:10BF40000022900230E0FF14F0EF6026E07003FF63
:10BF500080027F0112CFDB90022BE0FBA3E0FAA36B
:10BF6000E0F9EF1218BA90022CE475F00112198B67
:07BF700080D012E88B7F0175
:01BF770022A7
:10C43D009001E0EEF0A3EFF0A3EBF0A3EAF0A3E997
:01C44D00F0FE
:10C44E00E49001E8F09001E674A0F0A304F000126D
:10C45E00E88B9001E8E004F0E0D3940A40037F00FB
:10C46E002212EACC9001E6E0FF12C9F2BF01E09081
:10C47E0001E0E0FF12C9F2EF640160037F00229039
:10C48E0001E0A3E0FF12C9F2EF640160037F002216
:10C49E009001E2E0FBA3E0FAA3E0F9121852FF12BA
:10C4AE00C9F2EF64016004007F00229001E3E4759D
:10C4BE00F00112198B9001E1E004F070069001E09A
:10C4CE00E004F09001E5E014F0E070C412E88B7F18
:09C4DE00057E0012F0F9007F0157
:01C4E7002232
:10D3A0009001E4EBF0A3EAF0A3E9F0A3ECF0A3ED25
:01D3B000F08C
:10D3B100A3E0FFD394004006EFD3944040037F00E5
:10D3C10022E490022AF07B017A0179EA9001E712C6
:10D3D100BEC49001E4E0FBA3E0FAA3E0F9A312BE0E
:10D3E100C490022E7401F0A37401F0A374EAF090CA
:10D3F10001E9E0900231F09001E4E0FBA3E0FAA33F
:10D40100E0F912D495EF70037F012290022AE00423
:09D41100F0E0C3940340AF7F007A
:01D41A0022EF
:10D06900900199EEF0A3EFF0A3EBF0A3EAF0A3E9A6
:01D07900F0C6
:10D07A00A3E0FFD394004006EFD39440400312F19B
:10D08A00EFE49001DFF0900199E0FEA3E0FFA3E056
:10D09A00FBA3E0FAA3E0F9A3E09001E5F012C43D96
:10D0AA007B017A01799F900199E0FCA3E090019EAF
:10D0BA0012BEC990022E7401F0A37401F0A3749FEA
:10D0CA00F090019EE0900231F090019BE0FBA3E01A
:10D0DA00FAA3E0F912D495EF70037F01229001DFE1
:0BD0EA00E004F0E0C39403409D7F00D1
:01D0F5002218
:10C63B009001DCEBF0A3EAF0A3E9F0A3ECF0A3ED9F
:01C64B00F0FE
:10C64C009001E1E0FEA3E0FFD39400EE9400407C67
:10C65C009001DFA3E0543FFD600974409D9001E31D
:10C66C00F080069001E37440F09001E3E0FDC3EF2D
:10C67C009DEE940050079001E1A3E0A3F09001DC43
:10C68C00E0FBA3E0FAA3E0F9A3E0FCA3E0FD90013A
:10C69C00E3E09001E9F012D3A0EF7002FF229001C9
:10C6AC00E3E0FFFD7C009001DDEC8DF012198B9026
:10C6BC0001E0E02DF09001DFE03CF0C39001E2E0FE
:0EC6CC009FF09001E1E09400F002C64C7F0167
:01C6DA00223D
:10C95500900191EEF0A3EFF0A3EBF0A3EAF0A3E9C9
:01C96500F0E1
:10C96600900196E0FCA3E0FDD39400EC940040799E
:10C97600900191E0FEA3E0FF543FFB600974409BE9
:10C98600900198F080069001987440F0900198E02C
:10C99600FBC3ED9BEC94005007900196A3E0A3F037
:10C9A600900193E0FBA3E0FAA3E0F9900198E090F0
:10C9B600019EF012D069EF7002FF22900198E0FF0D
:10C9C600FD7C00900192E02DF0900191E03CF0900A
:10C9D6000194EC8DF012198BC3900197E09FF090B3
:0BC9E6000196E09400F002C9667F019A
:01C9F1002223
:10EFCC009028ACE04402F0A3E04402F0A3E0440437
:0EEFDC00F09028ACE054FBF0A3E054FBF022D0
:10EACC009028ACE04402F0A3E04402F0A3E044043C
:10EADC00F0000000000000E054FDF09028ADE05480
:10EAEC00FDF09028ACE054FDF00000000000009018
:07EAFC0028AEE054FBF022FC
:10E88B009028AEE054FDF09028ADE054FDF09028B8
:10E89B00ACE054FDF00000000000009028AEE04416
:10E8AB0004F00000000000009028ACE04402F0A34C
:0BE8BB00E04402F0000000000000221A
:10C9F200E4F508F5089028AEE054FBF0EF30E70EBE
:10CA02009028ACE04402F0A3E04402F080159028A4
:10CA1200AEE054FDF09028ADE054FDF09028ACE07B
:10CA220054FDF0EF25E0FF9028AEE04404F0000052
:10CA3200000000000508E508B408BA9028AEE054EA
:10CA4200FBF09028ACE04402F0A3E04402F0750849
:10CA520020E4F5089028AFE020E1149028AEE044ED
:10CA620004F0000000000000E054FBF07F0122050A
:10CA720008E508B420DE9028AEE04404F00000008F
:0CCA8200000000E054FBF012E88B7F0085
:01CA8E002285
:10CFDB00E4F508F5099028ACE04402F0A3E0440224
:10CFEB00F0A3E054FBF0E4F508E50925E0F5099022
:10CFFB0028AEE04404F0000000000000A3E030E1A4
:10D00B00034309019028AEE054FBF0000000000040
:10D01B00000508E508B408D1EF60179028AEE0547E
:10D02B00FDF09028ADE054FDF09028ACE054FDF0FD
:10D03B00800C9028ACE04402F0A3E04402F090286E
:10D04B00AEE04404F0000000000000E054FBF09060
:0DD05B0028ACE04402F0A3E04402F0AF096D
:01D0680022A5
:01F2A5002246
:10F1C700E5E820E10343E80290284BE020E704E06C
:04F1D7004480F0225E
:10EDB4007F7D7E28129344EF54C7FF9000CA7428C5
:10EDC400F0A3747DF012C8B7902843E0547FF0900C
:06EDD40028AEE04408F047
:01EDDA002216
:06C819009007E7121BA7C7
:10C81F00E4FF90288474CCF0E4F0902885E0600A5F
:10C82F000FEFD3940840F37F00229007E7A3A3A351
:10C83F00E0FF902880EFF09007E7E0FCA3E0FDA376
:10C84F00E0FEA3E0FF7808121B35902881EFF090EF
:10C85F0007E7E0FCA3E0FDA3E0FEA3E0FF781012E2
:10C86F001B35902882EFF09007E7E0FCA3E0FDA3D3
:10C87F00E0FEA3E0FF7818121B35902883EFF090AD
:10C88F0007EBE0FEA3E0F5828E83E4F0FF000FEFED
:10C89F00B408FAE4FF902885E0600A0FEFD39408FC
:07C8AF0040F37F00227F012E
:01C8B600225F
:06C186009007D9121BA76F
:10C18C00E4FB90288474CCF0E4F0902885E0600AFD
:10C19C000BEBD3940840F37F00229007D9A3A3A301
:10C1AC00E0FF902880EFF09007D9E0FCA3E0FDA31E
:10C1BC00E0FEA3E0FF7808121B35902881EFF09089
:10C1CC0007D9E0FCA3E0FDA3E0FEA3E0FF7810128A
:10C1DC001B35902882EFF09007D9E0FCA3E0FDA37B
:10C1EC00E0FEA3E0FF7818121B35902883EFF0D205
:10C1FC008720870C9007DFE004F0E0D3941E40F119
:10C20C009007DDE0FEA3E0F5828E83E4F0FB000BEB
:10C21C00EBB408FAE4FB902885E0600A0BEBD394AE
:08C22C000840F37F00227F01AE
:01C2340022E7
:06C8B7009000C6121BA751
:10C8BD00E4FF90288474CCF0E4F0902885E0600AC1
:10C8CD000FEFD3940840F37F00229000C6A3A3A3DB
:10C8DD00E0FF902880EFF09000C6E0FCA3E0FDA300
:10C8ED00E0FEA3E0FF7808121B35902881EFF09051
:10C8FD0000C6E0FCA3E0FDA3E0FEA3E0FF7810126C
:10C90D001B35902882EFF09000C6E0FCA3E0FDA35C
:10C91D00E0FEA3E0FF7818121B35902883EFF0900E
:10C92D0000CAE0FEA3E0F5828E83E4F0FF000FEF76
:10C93D00B408FAE4FF902885E0600A0FEFD394085D
:07C94D0040F37F00227F018F
:01C9540022C0
:1093440090288474CCF0E4F0F508902885E0600B54
:109354000508E508D3940840F180248F828E83E0C9
:10936400F508E4F508000508E508B408F8E4F5088C
:10937400902885E0600F0508E508D3940840F1E4DF
:10938400FFFEFDFC22902880E0FFE4FCFDFE90003F
:10939400C6121BA7902881E0FFE4FCFDFE780812AA
:1093A4001B489000CA121BA79000C6E0FCA3E0FD76
:1093B400A3E0FEA3E0FFA3E0F8A3E0F9A3E0FAA38F
:1093C400E0FBEF2BFFEE3AFEED39FDEC38FC9000AC
:1093D400C6121BA7902882E0FFE4FCFDFE9000CAA1
:1093E400121BA79000CAE0FCA3E0FDA3E0FEA3E0EB
:1093F400FF7810121B489000CA121BA79000C6E009
:10940400FCA3E0FDA3E0FEA3E0FFA3E0F8A3E0F9E2
:10941400A3E0FAA3E0FBEF2BFFEE3AFEED39FDECFF
:1094240038FC9000C6121BA7902883E0FFE4FCFDE3
:10943400FE9000CA121BA79000CAE0FCA3E0FDA3A3
:10944400E0FEA3E0FF7818121B489000CA121BA785
:109454009000C6E0FCA3E0FDA3E0FEA3E0FFA3E0D0
:10946400F8A3E0F9A3E0FAA3E0FBEF2BFFEE3AFE4A
:10947400ED39FDEC38FC9000C6121BA79000C6E045
:0A948400FCA3E0FDA3E0FEA3E0FF5F
:01948E0022BB
:10BD540000000000000000000000000000000000DF
:10BD640000000000000000000000000000000000CF
:10BD7400000000003D99E1FB3DE6D2F937341C9FF9
:10BD8400392B0436392B043600000000096000000A
:10BD940027100461A83000927C000063B3ED3B706F
:10BDA400B76B3B70B76B0105BF10E80105CF10E915
:10BDB4000105C3287B0105D3287C0105C710ED01CB
:10BDC40005D710EE0105CB10EB0105DB10EC0105E6
:10BDD400DF10EA00927C0010F500927C0010FB1D3D
:10BDE4000004C3018530000000018600000000014A
:10BDF40087811D2BA701250000000001830000009E
:09BE040000013200000000012CD5
:07922B004405BB0000000038
:10E9EB007B017A0579BF9001D674A5F0A3745AF018
:10E9FB007D387C0012EC019005F7EEF0A3EFF07B75
:10EA0B00017A0579BF90017CE4F0A37438F0A3740C
:09EA1B0002F07FD87E0002995C34
:10E75A007B017A0579BF9001D674A5F0A3745AF0AB
:10E76A007D387C0012EC019005F7E06E7003A3E09F
:10E77A006F601A7B017A0579BF9001D6E4F0A37421
:0DE78A003AF0A37402F07DD87C0012CE2D71
:01E79700225F
:10667C009000C1121BB30000000012E75A7B017A94
:10668C000079C59001D6E4F0A304F0A304F07DB921
:10669C007C0012CE2D9000C5E09000CAB43C26744C
:1066AC0010F0A374F4F07F6B7E2A7D707C0012C80E
:1066BC00B79000CA7410F0A374FAF07F6B7E2A7D39
:1066CC00707C0080247410F0A374F4F07F307EA8EA
:1066DC007D617C0412C8B79000CA7410F0A374FAE0
:1066EC00F07F307EA87D617C0412C8B7E49000B5C1
:1066FC00F09000B5E0FF75F006A424DBF582E434DD
:10670C00BDF583E493FD7401939000BFCDF0A3ED30
:10671C00F0EF75F006A424D7F582E434BDF58312AE
:10672C001B879000BB121BA79000B1121BB300007B
:10673C0000009000BFE0FEA3E0FF1293449000B174
:10674C00121BA79000BBE0FCA3E0FDA3E0FEA3E0BE
:10675C00FF9000B1E0F8A3E0F9A3E0FAA3E0FBC3DB
:10676C00121B2460349000BBE0FCA3E0FDA3E0FE10
:10677C00A3E0FF9000B1121BA79000B1E0FCA3E0D6
:10678C00FDA3E0FEA3E0FF9000BFE0FBA3E09000C0
:10679C00CACBF0A3EBF012C8B79000B5E004F0E060
:1067AC00C3940250030266FDE49000B5F09000B56E
:1067BC00E0FF75F005A424ADF582E434BDF583E467
:1067CC0093FD7401939000B9CDF0A3EDF0EF75F04B
:1067DC0005A424AAF582E434BDF583E493F974018D
:1067EC0093FA7402939000B6C9F0A3EAF0A3E9F00F
:1067FC009000B1121BB3000000009000B9E0FEA3A2
:10680C00E0FF1293449000B1121BA79000B9E0FE78
:10681C00A3E0FF647B7003EE6428600AEF647C7075
:10682C0003EE6428701B9000B6E0FBA3E0FAA3E033
:10683C00F9121B5B9000B4E06F605CE4FCFDFE8021
:10684C00309000B6E0FBA3E0FAA3E0F9121B5B90DA
:10685C0000B1E0F8A3E0F9A3E0FAA3E0FBC3121B3C
:10686C002460349000B6E0FBA3E0FAA3E0F9121B1D
:10687C005B9000B1121BA79000B1E0FCA3E0FDA35C
:10688C00E0FEA3E0FF9000B9E0FBA3E09000CACBD0
:10689C00F0A3EBF012C8B79000B5E004F0E0C3949D
:0668AC000950030267B968
:0168B20022C3
:088AED00900752EFF0A3EDF039
:108AF50075CEA575CF5A0075CEA575CF5A009007CE
:108B05005D121BB300000000E49005F9F0900758D2
:108B1500F0900752E0FF900758E0C39F4003028C96
:108B25002C75CEA575CF5A0075CEA575CF5A009078
:108B350005F9E060FAE49005F9F075CEA575CF5A10
:108B45000075CEA575CF5A00900753E070097FD206
:108B55007E10129344803AE4FB7D017F0B7E011267
:108B65000000BF013478617C077D017B017A0079C3
:108B7500007E007F0412182C7B017A0779617D0441
:108B850012C2E4900761E0FCA3E0FDA3E0FEA3E0D0
:108B9500FF900754121BA78007900712E04410F0BE
:108BA500E4FFFEFD7C80900754E0F8A3E0F9A3E024
:108BB500FAA3E0FBC3121B244024900754E0FCA356
:108BC500E0FDA3E0FEA3E0FF121AF3EF2401FFE4AA
:108BD5003EFEE43DFDE43CFC900754121BA79007C4
:108BE50054E0FCA3E0FDA3E0FEA3E0FF90075912CB
:108BF5001BA790075DE0FCA3E0FDA3E0FEA3E0FF5B
:108C0500900759E0F8A3E0F9A3E0FAA3E0FBEF2B06
:108C1500FFEE3AFEED39FDEC38FCA3121BA79007D9
:108C250058E004F0028B16900752E0FBE4FAF9F8DD
:108C350090075DE0FCA3E0FDA3E0FEA3E0FF121AB0
:108C45006175CEA575CF5A0075CEA575CF5A0000B2
:018C550022FC
:088C5600900765EFF0A3EDF0BB
:108C5E0075CEA575CF5A0075CEA575CF5A00900763
:108C6E0070121BB300000000E49005F9F090076B42
:108C7E00F0900765E0FF90076BE0C39F4003028D05
:108C8E009575CEA575CF5A0075CEA575CF5A0090A5
:108C9E0005F9E060FAE49005F9F075CEA575CF5AA6
:108CAE000075CEA575CF5A00900766E070097FD487
:108CBE007E10129344803AE4FB7D017F0E7E0112FA
:108CCE000000BF013478747C077D017B017A007946
:108CDE00007E007F0412182C7B017A0779747D04C4
:108CEE0012C2E4900774E0FCA3E0FDA3E0FEA3E053
:108CFE00FF900767121BA78007900712E04410F041
:108D0E00E4FFFEFD7C80900767E0F8A3E0F9A3E0A6
:108D1E00FAA3E0FBC3121B244024900767E0FCA3D8
:108D2E00E0FDA3E0FEA3E0FF121AF3EF2401FFE43F
:108D3E003EFEE43DFDE43CFC900767121BA7900746
:108D4E0067E0FCA3E0FDA3E0FEA3E0FF90076C123A
:108D5E001BA7900770E0FCA3E0FDA3E0FEA3E0FFDD
:108D6E0090076CE0F8A3E0F9A3E0FAA3E0FBEF2B89
:108D7E00FFEE3AFEED39FDEC38FCA3121BA790076F
:108D8E006BE004F0028C7F900765E0FBE4FAF9F8E3
:108D9E00900770E0FCA3E0FDA3E0FEA3E0FF121A33
:108DAE006175CEA575CF5A0075CEA575CF5A000048
:018DBE002292
:10A82C009000B1E0FCA3E0FDA3E0FEA3E0FF9000EC
:10A83C00C9121BA79000B9E0FCA3E0FDA3E0FEA3A6
:02A84C00E0FF2B
:10A84E00E412161C9000CD121BA79000C9E0FCA3C9
:10A85E00E0FDA3E0FEA3E0FFE412161C9000D1126F
:10A86E001BA79000C9E0FCA3E0FDA3E0FEA3E0FF60
:10A87E00E412161CA804A905AA06AB079000CDE0A9
:10A88E00FCA3E0FDA3E0FEA3E0FF1213149000D1A1
:10A89E00E0F8A3E0F9A3E0FAA3E0FB121512900092
:10A8AE00D5121BA7E4FFFE7D807C3F9000D5E0F81B
:10A8BE00A3E0F9A3E0FAA3E0FB121318A804A9057C
:10A8CE00AA06AB07E4FFFE7D807C3F1215129000B6
:10A8DE00D9121BA7E4FFFE7D807CBF9000D9E0F863
:10A8EE00A3E0F9A3E0FAA3E0FB1213189000DD1227
:10A8FE001BA7E4FFFEFD7C4F9000DDE0F8A3E0F91E
:0FA90E00A3E0FAA3E0FB12140912ABF012165AE1
:01A91D002217
:06A241009000C5121BA7EE
:10A24700E49000CFF07F32FEFDFC9000C9E0F8A358
:10A25700E0F9A3E0FAA3E0FBC3121B2450037F003D
:10A26700229000C5E0FCA3E0FDA3E0FEA3E0FFA36E
:10A27700E0F8A3E0F9A3E0FAA3E0FBD3121B244024
:10A287004D9000C5E0F8A3E0F9A3E0FAA3E0FBA333
:10A29700E0FCA3E0FDA3E0FEA3E09BFFEE9AFEED4A
:10A2A70099FDEC98FCE47BE87A03F9F81219D6904B
:10A2B70000C9E0F8A3E0F9A3E0FAA3E0FB121A61F2
:10A2C7009000CDEEF0A3EFF0A37401F0804A900068
:10A2D700C9E0F8A3E0F9A3E0FAA3E0FB9000C5E02A
:10A2E700FCA3E0FDA3E0FEA3E0C39BFFEE9AFEED17
:10A2F70099FDEC98FCE47BE87A03F9F81219D690FB
:10A3070000C9E0F8A3E0F9A3E0FAA3E0FB121A61A1
:10A317009000CDEEF0A3EFF09000CDE0FEA3E0FFBC
:10A327007C0B7DC3121CC6E47BD07A07F9F8121A9E
:0CA33700619000CFE0B40104EF4480FF0F
:01A3430022F7
:069F19009007BE121BA719
:109F1F0075CEA575CF5A0075CEA575CF5A0090078F
:109F2F00C2E07040A3121BB3000000009007C3E013
:109F3F00FCA3E0FDA3E0FEA3E0FF9000CA7410F0C5
:109F4F00A374E9F012C8B79007C3E0FCA3E0FDA328
:109F5F00E0FEA3E0FF9000CA7410F0A374EEF012BD
:109F6F00C8B780469007C3121BB3000000009007CC
:109F7F00C3E0FCA3E0FDA3E0FEA3E0FF90000074AC
:109F8F0001F0A3742EF0E4A3F01200009007C3E0D9
:109F9F00FCA3E0FDA3E0FEA3E0FF9000007401F03E
:109FAF00A3742FF0E4A3F01200009007C2E0FD7F2E
:109FBF0002128AEDC004C005C006C0079007BEE0BC
:109FCF00FCA3E0FDA3E0FEA3E0FF9000C9121BA7D6
:109FDF00D007D006D005D00412A84E9007C3121B8D
:109FEF00A775CEA575CF5A0075CEA575CF5A00901F
:109FFF0007C2E07011A3E0FCA3E0FDA3E0FEA3E025
:10A00F00FF9005CF80119007C3E0FCA3E0FDA3E014
:0AA01F00FEA3E0FF9005BF121BA78F
:01A029002214
:06B58F009007C7121BA784
:10B59500C20575CEA575CF5A0075CEA575CF5A00D3
:10B5A5009007CC121BB3000000009007CBE0701B86
:10B5B500A3E0FCA3E0FDA3E0FEA3E0FF9000CA74B6
:10B5C50010F0A374EEF012C8B7801E9007CCE0FC13
:10B5D500A3E0FDA3E0FEA3E0FF9000007401F0A34B
:10B5E500742FF0E4A3F01200009007CBE0FD7F0379
:10B5F500128AEDC004C005C006C0079007C7E0FC6D
:10B60500A3E0FDA3E0FEA3E0FF9000C9121BA7D0B5
:10B6150007D006D005D00412A241E4FCFDFE900738
:10B62500CC121BA775CEA575CF5A0075CEA575CFC3
:10B635005A009007CBE07011A3E0FCA3E0FDA3E066
:10B64500FEA3E0FF9005D780119007CCE0FCA3E0B6
:0DB65500FDA3E0FEA3E0FF9005C7121BA7B8
:01B6620022C5
:06742D009007D0121BA71E
:1074330075CEA575CF5A0075CEA575CF5A009007A6
:10744300D5121BB3000000009007D4E0701BA3E02B
:10745300FCA3E0FDA3E0FEA3E0FF9000CA7428F0C4
:10746300A3747CF012C8B780169000007401F0A3D7
:107473007484F0E4A3F07FA9FE7D0BFC1200007579
:10748300CEA575CF5A0075CEA575CF5A00E49005E9
:10749300F9F09005F9E060FAE49005F9F09007D46B
:1074A300E0FD7F02128AEDC004C005C006C007904C
:1074B30007D0E0FCA3E0FDA3E0FEA3E0FF9000C93A
:1074C300121BA7D007D006D005D00412A241E4FCBA
:1074D300FDFE9007D5121BA775CEA575CF5A007573
:1074E300CEA575CF5A009007D4E0700FA3E0FCA39C
:1074F300E0FDA3E0FEA3E0FF0275FB9007D5A3A385
:10750300A3E05480FFEF9007D56066E0FCA3E0FDA5
:10751300A3E0FEA3E0547FFFEC9007D5121BA790D6
:1075230007D5E0FCA3E0FDA3E0FEA3E0FFE4121611
:107533001C7BCD7ACC798C783F12140912165A90A1
:1075430007D5121BA79007D5E0FCA3E0FDA3E0FE3F
:10755300A3E0FF7808121B489007D5121BA79007DA
:10756300D5E0FCA3E0FDA3E0FEA3E0FFED4404802F
:107573004DE0FCA3E0FDA3E0FEA3E0FFE412161C34
:107583007BCD7ACC798C783F12140912165A900766
:10759300D5121BA79007D5E0FCA3E0FDA3E0FEA353
:1075A300E0FF7808121B489007D5121BA79007D558
:1075B300E0FCA3E0FDA3E0FEA3E0FFED54FBFDEC44
:1075C3009007D5121BA79005D3121BB3000B00A97C
:1075D3009005D3E0FCA3E0FDA3E0FEA3E0FF90074A
:1075E300D5E0F8A3E0F9A3E0FAA3E0FBEF4BFFEE4D
:0E75F3004AFEED49FDEC48FC9005D3121BA7A3
:017601002266
:1081CB00900008EEF0A3EFF0E024E8FF900008E049
:1081DB003403AB07FA3395E0F9F8E4FFFEFD7C803E
:1081EB00121A6190000E121BA7900009E024E8FF01
:1081FB00900008E03403AB07FA3395E0F9F8E4FF9D
:10820B00FEFD7C80121A61AF0390000AEAF0A3EF27
:10821B00F090000AE0FEA3E0FF7C037DE81218EE6D
:10822B00900008E0FAA3E0FB24E8FDEA3403FC121B
:10823B001900A3EEF0A3EFF0AF03AE02EE3395E01F
:10824B00FDFC90000EE0F8A3E0F9A3E0FAA3E0FB3D
:10825B001219D6C004A905AA06AB0790000AE0FCC8
:10826B00A3E0FD900008E0FEA3E0FF1218EE7C03F4
:10827B007DE8121900E4FCFDD000EB2FFFEA3EFE77
:10828B00ED39FDEC38FC900012121BA7900009E0B1
:10829B0024E8FF900008E03403AB07FA3395E0F9CC
:1082AB00F8900004E0FCA3E0FDA3E0FEA3E0FF12C6
:1082BB00E5CE900016121BA7900009E024E8FF9072
:1082CB000008E03403AB07FA3395E0F9F8900004AB
:1082DB00E0FCA3E0FDA3E0FEA3E0FF12E5CEAE02BF
:1082EB00AF0390000CEEF0A3EFF07C037DE81218C7
:1082FB00EE900009E024E8FD900008E03403FC1246
:10830B00190090000CEEF0A3EFF0E47FE87E03FD84
:10831B00FC900016E0F8A3E0F9A3E0FAA3E0FB124F
:10832B0019D6A804A905AA06AB0790000CE0FEA37A
:10833B00E0FFE4FCFDEB2FFFEA3EFEED39FDEC38F0
:10834B00FC900012E0F8A3E0F9A3E0FAA3E0FBC372
:0C835B00EF9BFFEE9AFEED99FDEC98FC04
:0183670022F3
:10A543007FFD7E10129344A804A905AA06AB07E475
:10A55300FFFE7D7DFC121A61900000EEF0A3EFF088
:10A56300E4FCFD9005BBE0F8A3E0F9A3E0FAA3E067
:10A57300FBC3121B24700302A63F900000E0FAA362
:10A58300E0FBFFAE02E4FCFD9005BB121BA7D3EB7F
:10A5930094F4EA9401400F900001E0240CFF900032
:10A5A30000E034FE801F900000E0FEA3E0FFC394B0
:10A5B300F4EE94015057C374F49FFF74019EFEC3DD
:10A5C300E49FFFE49EFEEF25E0FFEE33FEC006C0EE
:10A5D300079005BFE0FCA3E0FDA3E0FEA3E0FF902E
:10A5E3000004121BA7D007D0061281CB9005CF120F
:10A5F3001BA79005CFE0FCA3E0FDA3E0FEA3E0FFD3
:10A603009000CA7410F0A374E9F002C8B79005BFB4
:10A61300E0FCA3E0FDA3E0FEA3E0FF9000CA7410FA
:10A62300F0A374E9F012C8B79005BFE0FCA3E0FD06
:0CA63300A3E0FEA3E0FF9005CF121BA7E0
:01A63F0022F8
:102DF200900670121BB30000000020AF030235CE14
:102E02009005FA7455F090BD9E121B8790067412BD
:102E12001BA7E47F19FEFDFC900674E0F8A3E0F91D
:102E2200A3E0FAA3E0FB1219D6E47B0AFAF9F8123E
:102E32001A6190067A121BA7E47F46FEFDFC9006FB
:102E420074E0F8A3E0F9A3E0FAA3E0FB1219D6E4D8
:102E52007B64FAF9F8121A6190067E121BA7E47FCE
:102E620023FEFDFC900674E0F8A3E0F9A3E0FAA3C8
:102E7200E0FB1219D6E47B64FAF9F8121A619006A3
:102E820082121BA7E47F03FEFDFC900674E0F8A308
:102E9200E0F9A3E0FAA3E0FB1219D6E47B64FAF9A5
:102EA200F8121A61900686121BA775CEA575CF5A25
:102EB2000075CEA575CF5A00E4FD7F04128AED900D
:102EC200068A121BA790067AE0FCA3E0FDA3E0FEAF
:102ED200A3E0FF90068AE0F8A3E0F9A3E0FAA3E0FA
:102EE200FBD3121B244008E4900678F0022F709066
:102EF200067EE0FCA3E0FDA3E0FEA3E0FF90068ACD
:102F0200E0F8A3E0F9A3E0FAA3E0FBD3121B24400C
:102F1200089006787401F08055900682E0FCA3E0E8
:102F2200FDA3E0FEA3E0FF90068AE0F8A3E0F9A388
:102F3200E0FAA3E0FBD3121B244008900678740247
:102F4200F0802B900686E0FCA3E0FDA3E0FEA3E068
:102F5200FFA3E0F8A3E0F9A3E0FAA3E0FBD3121B7E
:102F62002490067840057403F080037408F09006FC
:102F720078E070199005CF121BB300000000900595
:102F8200D3121BB3000000007FA01203AE9006789C
:102F9200E0640160030231BB900674E0FCA3E0FD33
:102FA200A3E0FEA3E0FFE49007C2F0129F1990068F
:102FB2006C121BB300000000E4900667F07F1E7ED7
:102FC2000012F0F97FD57E10129344900668121B0E
:102FD200A7E4FFFEFD7C80900668E0F8A3E0F9A379
:102FE200E0FAA3E0FBC3121B244024900668E0FC35
:102FF200A3E0FDA3E0FEA3E0FF121AF3EF2401FF1A
:10300200E43EFEE43DFDE43CFC900668121BA79002
:10301200066CE0FCA3E0FDA3E0FEA3E0FF900668DF
:10302200E0F8A3E0F9A3E0FAA3E0FBEF2BFFEE3A0E
:10303200FEED39FDEC38FCA3121BA775CEA575CFAA
:103042005A0075CEA575CF5A00900667E004F0E0ED
:10305200C394085003022FBF90066CE0FCA3E0FD6E
:10306200A3E0FEA3E0FFE47B08FAF9F8121A6190EC
:10307200066C121BA790066CE0FCA3E0FDA3E0FE29
:10308200A3E0FFE412161CC004C005C006C00790EE
:10309200BD92121B87E412161CD003D002D001D0BD
:1030A200001215129005F3121BA790066C121BB3A7
:1030B20000000000E4900667F07F1E7E0012F0F927
:1030C2007FD37E10129344900668121BA7E4FFFE82
:1030D200FD7C80900668E0F8A3E0F9A3E0FAA3E0A3
:1030E200FBC3121B244024900668E0FCA3E0FDA36E
:1030F200E0FEA3E0FF121AF3EF2401FFE43EFEE438
:103102003DFDE43CFC900668121BA790066CE0FCB7
:10311200A3E0FDA3E0FEA3E0FF900668E0F8A3E0D1
:10312200F9A3E0FAA3E0FBEF2BFFEE3AFEED39FD47
:10313200EC38FCA3121BA775CEA575CF5A0075CE2D
:10314200A575CF5A00900667E004F0E0C3940850DA
:10315200030230BB90066CE0FCA3E0FDA3E0FEA3FB
:10316200E0FFE47B08FAF9F8121A6190066C121B70
:10317200A790066CE0FCA3E0FDA3E0FEA3E0FFE461
:1031820012161CC004C005C006C00790BD8E121BDB
:1031920087E412161CD003D002D001D000121512FF
:1031A2009005EB121BA77FA11203AE75CEA575CFBA
:1031B2005A0075CEA575CF5A00900678E0B4023851
:1031C200900674E0FCA3E0FDA3E0FEA3E0FFE47B35
:1031D20002FAF9F8121A61900674121BA79006748B
:1031E200E0FCA3E0FDA3E0FEA3E0FFE49007D4F03F
:1031F20012742D7FA21203AE900678E0B4033890C9
:103202000674E0FCA3E0FDA3E0FEA3E0FFE47B1470
:10321200FAF9F8121A61900674121BA7900674E06C
:10322200FCA3E0FDA3E0FEA3E0FFE49007CBF012D5
:10323200B58F7FA31203AE900679E0B4041990050E
:10324200CF121BB3000000009005D3121BB3000B7A
:1032520000A97FA41203AE900679E0640560030220
:1032620034DB9007C204F07FED7EB37D637C0012F5
:103272009F1990066C121BB300000000E4900667D1
:10328200F0E4FB7D017F0E7E01120000BF01347865
:103292008E7C067D017B017A0079007E007F04121C
:1032A200182C7B017A06798E7D0412C2E490068E78
:1032B200E0FCA3E0FDA3E0FEA3E0FF900668121B82
:1032C200A78007900712E04410F0E4FFFEFD7C8027
:1032D200900668E0F8A3E0F9A3E0FAA3E0FBC312CA
:1032E2001B244024900668E0FCA3E0FDA3E0FEA3BB
:1032F200E0FF121AF3EF2401FFE43EFEE43DFDE499
:103302003CFC900668121BA790066CE0FCA3E0FD53
:10331200A3E0FEA3E0FF900668E0F8A3E0F9A3E0D3
:10332200FAA3E0FBEF2BFFEE3AFEED39FDEC38FCA1
:10333200A3121BA775CEA575CF5A0075CEA575CF62
:103342005A00900667E004F0E0C39408500302328A
:103352008390066CE0FCA3E0FDA3E0FEA3E0FFE4A3
:103362007B08FAF9F8121A6190066C121BA79006F4
:103372006CE0FCA3E0FDA3E0FEA3E0FFE412161C58
:10338200C004C005C006C00790BD92121B87E4129C
:10339200161CD003D002D001D0001215129005F3F2
:1033A200121BA790066C121BB300000000E49006EB
:1033B20067F0E4FB7D017F0D7E01120000BF013446
:1033C200788E7C067D017B017A0079007E007F0485
:1033D20012182C7B017A06798E7D0412C2E49006C3
:1033E2008EE0FCA3E0FDA3E0FEA3E0FF90066812DE
:1033F2001BA78007900712E04410F0E4FFFEFD7C5B
:1034020080900668E0F8A3E0F9A3E0FAA3E0FBC32A
:10341200121B244024900668E0FCA3E0FDA3E0FE1A
:10342200A3E0FF121AF3EF2401FFE43EFEE43DFDA8
:10343200E43CFC900668121BA790066CE0FCA3E03B
:10344200FDA3E0FEA3E0FF900668E0F8A3E0F9A385
:10345200E0FAA3E0FBEF2BFFEE3AFEED39FDEC388C
:10346200FCA3121BA775CEA575CF5A0075CEA57504
:10347200CF5A00900667E004F0E0C39408500302BC
:1034820033B490066CE0FCA3E0FDA3E0FEA3E0FFF2
:10349200E47B08FAF9F8121A6190066C121BA790E5
:1034A200066CE0FCA3E0FDA3E0FEA3E0FFE412163D
:1034B2001CC004C005C006C00790BD8E121B87E465
:1034C20012161CD003D002D001D0001215129005A2
:1034D200EB121BA77FA51203AE900679E0B4063962
:1034E200900674E0FCA3E0FDA3E0FEA3E0FFE47B12
:1034F20002FAF9F8121A61900674121BA790067468
:10350200E0FCA3E0FDA3E0FEA3E0FF9007D474017A
:10351200F012742D7FA61203AE900679E0B407393B
:10352200900674E0FCA3E0FDA3E0FEA3E0FFE47BD1
:1035320014FAF9F8121A61900674121BA790067415
:10354200E0FCA3E0FDA3E0FEA3E0FF9007CB740143
:10355200F012B58F7FA71203AE900679E06408706F
:1035620052900678E06408704A12DCAA75CEA575FE
:10357200CF5A0075CEA575CF5A0075CEA575CF5A14
:103582000075CEA575CF5A0012A02A900571E0757C
:10359200F00AA424B5F582E43405F583E4F0A3F03F
:1035A20075CEA575CF5A0075CEA575CF5A007FA8E6
:1035B2001203AE12E9EB12667C75CEA575CF5A00E6
:0C35C20075CEA575CF5A00E49005FAF014
:0135CE0022DA
:0B524100900093EBF0A3EAF0A3E9F06B
:10524C00E49000A2F0900093E0FBA3E0FAA3E0F955
:10525C0090000D12186BFF12E9159000A3EFF0905F
:10526C000093E0FBA3E0FAA3E0F990000E12186B98
:10527C00FF12E915EFC454F0FEC006900093E0FB5A
:10528C00A3E0FAA3E0F990000F12186BFF12E915D6
:10529C00D0E02F9000A4F0900093E0FBA3E0FAA3E1
:1052AC00E0F990001112186BFF12E915EFC454F0DD
:1052BC00FEC006900093E0FBA3E0FAA3E0F9900097
:1052CC001212186BFF12E915D0E02F9000A5F07B9D
:1052DC00017A0079A212B7FA900096121BA7E490FB
:1052EC0000A2F0900093E0FBA3E0FAA3E0F9900099
:1052FC001312186BFF12E9159000A3EFF0900093B6
:10530C00E0FBA3E0FAA3E0F990001412186BFF1273
:10531C00E915EFC454F0FEC006900093E0FBA3E047
:10532C00FAA3E0F990001612186BFF12E915D0E001
:10533C002F9000A4F0900093E0FBA3E0FAA3E0F917
:10534C0090001712186BFF12E915EFC454F0FEC051
:10535C0006900093E0FBA3E0FAA3E0F9900018128A
:10536C00186BFF12E915D0E02F9000A5F07B017AA5
:10537C000079A212B7FA90009A121BA7E49000A22F
:10538C00F0900093E0FBA3E0FAA3E0F9900019126F
:10539C00186BFF12E9159000A3EFF0900093E0FB5F
:1053AC00A3E0FAA3E0F990001A12186BFF12E915AA
:1053BC00EFC454F0FEC006900093E0FBA3E0FAA308
:1053CC00E0F990001B12186BFF12E915D0E02F903A
:1053DC0000A4F0900093E0FBA3E0FAA3E0F99000A6
:1053EC001C12186BFF12E915EFC454F0FEC00690A6
:1053FC000093E0FBA3E0FAA3E0F990001E12186BF7
:10540C00FF12E915D0E02F9000A5F07B017A00790E
:10541C00A212B7FA90009E121BA7900093E0FBA378
:10542C00E0FAA3E0241FF9E43AFA9001DFEBF0A3D1
:10543C00EAF0A3E9F0A3E4F0A37406F07B017A0090
:10544C0079A612DFD8E49000ACF07B017A0079A643
:10545C0012E4F79000AD121BA7900584E0FCA3E0CA
:10546C00FDA3E0FEA3E0FF121C8C549E0000FEB0D6
:10547C0054E40000FEB154F70000FEB2549E00004C
:10548C00FEB354E40000FEB454F70000FEB5000077
:10549C00551C9000ADE0FCA3E0FDA3E0FEA3E0FFF3
:1054AC0012B98A75CEA575CF5A0075CEA575CF5A8F
:1054BC0000900096E0FCA3E0FDA3E0FEA3E0FF90CB
:1054CC0000B5121BA790009AE0FCA3E0FDA3E0FE40
:1054DC00A3E0FF125CEB80249000ADE0FCA3E0FDA8
:1054EC00A3E0FEA3E0FF129CDC80119000ADE0FC79
:1054FC00A3E0FDA3E0FEA3E0FF127CDB12E9EB12BC
:10550C00667C75CEA575CF5A0075CEA575CF5A00A1
:01551C00226C
:06B98A009000B1121BA7A2
:10B9900075CEA575CF5A0075CEA575CF5A00E4FFB8
:10B9A000FEFDFC9000B1E0F8A3E0F9A3E0FAA3E00B
:10B9B000FB1215AFE4FFFE7DC87C429000B1E0F8B9
:10B9C000A3E0F9A3E0FAA3E0FB1213187B007A507E
:10B9D00079C3784712140912165A9000B5121BA7A2
:10B9E000E47FB07EFEFDFC900584E0F8A3E0F9A3BF
:10B9F000E0FAA3E0FBC3121B2470527FE87E101212
:10BA000093449000B9121BA79000C9121BB3009871
:10BA100096809000B512A8439000B9121BA7900021
:10BA2000B9E0FCA3E0FDA3E0FEA3E0FF9000CA7430
:10BA300010F0A374E8F012C8B79000B9E0FCA3E0DE
:0DBA4000FDA3E0FEA3E0FF9005BF121BA7D1
:01BA4D0022D6
:065CEB009000B1121BA79E
:105CF100E47FB07EFEFDFC900584E0F8A3E0F9A30B
:105D0100E0FAA3E0FBC3121B246003025E0A7FD901
:105D11007E101293449000B9121BA79000B9E0FCC9
:105D2100A3E0FDA3E0FEA3E0FFE412161C9005EF43
:105D3100E0F8A3E0F9A3E0FAA3E0FB1214091216BC
:105D41005A9000B9121BA77FEB7E1012934490006A
:105D5100BD121BA7E4FFFEFDFC9000BDE0F8A3E02F
:105D6100F9A3E0FAA3E0FBC3121B24701D12A82CB7
:105D71009000BD121BA79000BDE0FCA3E0FDA3E0D5
:105D8100FEA3E0FF9005CB121BA77FD87E101293D4
:105D9100449000B9121BA7E4FFFE7D207C419005D1
:105DA100EBE0F8A3E0F9A3E0FAA3E0FB121409C0C9
:105DB10004C005C006C0079000B9E0FCA3E0FDA344
:105DC100E0FEA3E0FFE412161CD003D002D001D004
:105DD1000012140912165A9000B9121BA77FEA7E0D
:105DE100101293449000BD121BA7E4FFFEFDFC902E
:105DF10000BDE0F8A3E0F9A3E0FAA3E0FBC3121BA6
:105E0100246003025F58025F1DE47FB37EFEFDFC48
:105E1100900584E0F8A3E0F9A3E0FAA3E0FBC31244
:105E21001B246003025F587FDA7E101293449000B6
:105E3100B9121BA79000B9E0FCA3E0FDA3E0FEA30B
:105E4100E0FFE412161C9005F3E0F8A3E0F9A3E0EB
:105E5100FAA3E0FB12140912165A9000B9121BA7FB
:105E61007FEC7E101293449000BD121BA7E4FFFE4D
:105E7100FDFC9000BDE0F8A3E0F9A3E0FAA3E0FB8C
:105E8100C3121B24701D12A82C9000BD121BA790D9
:105E910000BDE0FCA3E0FDA3E0FEA3E0FF9005DB75
:105EA100121BA77FD87E101293449000B9121BA732
:105EB100E4FFFE7D207C419005EBE0F8A3E0F9A32F
:105EC100E0FAA3E0FB121409C004C005C006C00734
:105ED1009000B9E0FCA3E0FDA3E0FEA3E0FFE41223
:105EE100161CD003D002D001D00012140912165A88
:105EF1009000B9121BA77FEA7E101293449000BD57
:105F0100121BA7E4FFFEFDFC9000BDE0F8A3E0F941
:105F1100A3E0FAA3E0FBC3121B24703B9000B5126F
:105F2100A82F9000BD121BA79000BDE0FCA3E0FDCF
:105F3100A3E0FEA3E0FF9005DF121BA79000BDE0E8
:105F4100FCA3E0FDA3E0FEA3E0FF9000CA7410F003
:075F5100A374EAF012C8B7C7
:015F58002226
:069CDC009000B1121BA76D
:109CE200E4FFFEFDFC9000B1E0F8A3E0F9A3E0FA86
:109CF200A3E0FB1215AFE4FFFE7DC87C429000B1E9
:109D0200E0F8A3E0F9A3E0FAA3E0FB1213187B004A
:109D12007A5079C3784712140912165A9000B51274
:109D22001BA79000C9121BB3009896809000B5E063
:109D3200FCA3E0FDA3E0FEA3E0FF12A241E4FCFDD0
:109D4200FE9000B9121BA7E47FB17EFEFDFC9005D8
:109D520084E0F8A3E0F9A3E0FAA3E0FBC3121B241A
:109D6200703F9000B9E0FCA3E0FDA3E0FEA3E0FF9A
:109D72009005C3121BA77B017A0079BD9000B9E060
:109D8200FCA3E0FDA3E0FEA3E0FF12BE0D9000C025
:109D9200E0FFE4FCFDFE9000CA7428F0A3747B800F
:109DA20058E47FB47EFEFDFC900584E0F8A3E0F960
:109DB200A3E0FAA3E0FBC3121B2470419000B9E0B8
:109DC200FCA3E0FDA3E0FEA3E0FF9005D3121BA7D6
:109DD2007B017A0079C19000B9E0FCA3E0FDA3E029
:109DE200FEA3E0FF12BE0D9000C4E0FFE4FCFDFE06
:0D9DF2009000CA7428F0A3747CF012C8B76A
:019DFF002241
:067CDB009000B1121BA78E
:107CE100E47FB27EFEFDFC900584E0F8A3E0F9A3F9
:107CF100E0FAA3E0FBC3121B246003027DB17FD62F
:107D01007E101293449000BE121BA79000BEE0FCAF
:107D1100A3E0FDA3E0FEA3E0FFEC12161C9000B16E
:107D2100E0F8A3E0F9A3E0FAA3E0FB121409E4FBF5
:107D3100FA79C8784212151212165A9000BA121B1B
:107D4100A7E49000B9F0FFFEFDFCA3E0F8A3E0F981
:107D5100A3E0FAA3E0FBD3121B0E9000BAE0FCA350
:107D6100E0FDA3E0FEA3E04003FF800F24FFFFEE50
:107D710034FFFEED34FFFDEC34FFFC9000B5121B27
:107D8100A79000B5E0FCA3E0FDA3E0FEA3E0FF9017
:107D910000CA7410F0A374EDF012C8B79000B5E0FA
:107DA100FCA3E0FDA3E0FEA3E0FF9005C7027E7EF9
:107DB100E47FB57EFEFDFC900584E0F8A3E0F9A325
:107DC100E0FAA3E0FBC3121B246003027E817FD78C
:107DD1007E101293449000BE121BA79000BEE0FCDF
:107DE100A3E0FDA3E0FEA3E0FFEC12161C9000B19E
:107DF100E0F8A3E0F9A3E0FAA3E0FB121409E4FB25
:107E0100FA79C8784212151212165A9000BA121B4A
:107E1100A7E49000B9F0FFFEFDFCA3E0F8A3E0F9B0
:107E2100A3E0FAA3E0FBD3121B0E9000BAE0FCA37F
:107E3100E0FDA3E0FEA3E04003FF800F24FFFFEE7F
:107E410034FFFEED34FFFDEC34FFFC9000B5121B56
:107E5100A79000B5E0FCA3E0FDA3E0FEA3E0FF9046
:107E610000CA7410F0A374EEF012C8B79000B5E028
:107E7100FCA3E0FDA3E0FEA3E0FF9005D7121BA742
:017E810022DE
:03F2970002E75A31
:105A7200900000EFF0BF030C9028637480F0A3E461
:105A8200F0D28422C2849000CA7428F0A3747DF0FC
:105A92007F007E007D007C0012C8B79000CA742887
:105AA200F0A37478F07F007E007D007C0012C8B7FE
:105AB2009028637480F0A3E4F0900000E07023FF6C
:105AC200FE7D32FC12BF78902864E04407F090001B
:105AD200CA7410F0A374EFF07FBC7E747D937C884F
:105AE2008031900000E0FF64016004EFB402297F7E
:105AF200007E807D0C7C0012BF78902864E0440315
:105B0200F09000CA7410F0A374EFF07F9C7E3C7D8D
:105B12001D7C9112C8B7800312F1EF902858744986
:105B2200F09000CA7410F0A374F4F07F307EA87D68
:105B3200617C0412C8B79000CA7410F0A374FAF022
:105B42007F107EC27DDE7C0612C8B79000CA741038
:105B5200F0A374F5F07F017E007D007C0012C8B7CF
:105B62009000CA7410F0A374FBF07F017E007D00E8
:105B72007C0012C8B79000CA7428F0A37478F07F32
:105B8200737E007D007C0012C8B79000CA7428F0B2
:105B9200A37479F07F007E007D007C0012C8B7906C
:105BA20000CA7428F0A3747AF07F607E007D007CC6
:105BB2000012C8B79000CA7410F0A374F0F07F000E
:105BC2007E007D007C0012C8B79000CA7410F0A35A
:105BD20074F1F07F007E007D007C0012C8B7900057
:105BE200CA7410F0A374F2F07F007E007D007C0086
:105BF20012C8B79000CA7410F0A374F3F07F007E4D
:105C0200007D007C0012C8B79000CA7410F0A37423
:105C1200F6F07F007E007D007C0012C8B79000CABB
:105C22007410F0A374F7F07F007E007D007C0012F8
:105C3200C8B79000CA7410F0A374F8F07F007E0019
:105C42007D007C0012C8B79000CA7410F0A374F9EA
:105C5200F07F007E007D007C0012C8B79000CA74FD
:105C620028F0A3747DF07F7F7E007D007C0012C847
:105C7200B79000CA7428F0A3747BF07F007E007D89
:105C8200007C0012C8B79000CA7428F0A3747CF09C
:105C92007F007E007D007C0012C8B79000CA742885
:105CA200F0A3747EF07F007E007D007C0012C8B7F6
:105CB2009000CA7410F0A374FCF07F007E007D0097
:105CC2007C0012C8B753A4DF43AD2053A4BF43AD39
:105CD2004043E803902843E04480F090284BE0449E
:095CE20080F09008017403F02227
:058F270090000CEFF0CA
:108F2C006401704E7FD37E1012934490000D121B7F
:108F3C00A7E4FFFEFD7C8090000DE0F8A3E0F9A310
:108F4C00E0FAA3E0FBC3121B24402490000DE0FCCC
:108F5C00A3E0FDA3E0FEA3E0FF121AF3EF2401FF50
:108F6C00E43EFEE43DFDE43CFC90000D121BA70228
:108F7C00900F90000CE064026003029051FB7D01A5
:108F8C007F1B7E01120000BF013478197C007D012B
:108F9C007B017A0079007E007F0412182C7B017A09
:108FAC000079197D0412C2E4900019E0FCA3E0FDE5
:108FBC00A3E0FEA3E0FF90000D121BA78007900713
:108FCC0012E04410F0E4FFFEFD7C8090000DE0F810
:108FDC00A3E0F9A3E0FAA3E0FBC3121B2440249006
:108FEC00000DE0FCA3E0FDA3E0FEA3E0FF121AF3EA
:108FFC00EF2401FFE43EFEE43DFDE43CFC90000D5B
:10900C00121BA790000DE0FCA3E0FDA3E0FEA3E083
:10901C00FFE412161C9005EBE0F8A3E0F9A3E0FACC
:10902C00A3E0FB121409900015121BA7900015E089
:10903C00FCA3E0FDA3E0FEA3E0FF12165A90001182
:10904C00121BA7800A900011121BB300000000E451
:10905C007F32FEFDFC900011E0F8A3E0F9A3E0FAEA
:10906C00A3E0FBC3121B24500A900011121BB30087
:10907C00000000900011E0FCA3E0FDA3E0FEA3E0E3
:01908C00FFE4
:01908D0022C0
:059A880090000CEFF05E
:109A8D006401704D7FD57E1012934490000D121B12
:109A9D00A7E4FFFEFD7C8090000DE0F8A3E0F9A3A4
:109AAD00E0FAA3E0FBC3121B24407C90000DE0FC08
:109ABD00A3E0FDA3E0FEA3E0FF121AF3EF2401FFE4
:109ACD00E43EFEE43DFDE43CFC90000D121BA7803E
:109ADD005690000CE064026003029B767FD47E10EA
:109AED0012934490000D121BA7E4FFFEFD7C8090A5
:109AFD00000DE0F8A3E0F9A3E0FAA3E0FBC3121B0D
:109B0D0024402490000DE0FCA3E0FDA3E0FEA3E0C3
:109B1D00FF121AF3EF2401FFE43EFEE43DFDE43CA9
:109B2D00FC90000D121BA790000DE0FCA3E0FDA31F
:109B3D00E0FEA3E0FFE412161C9005F3E0F8A3E0AD
:109B4D00F9A3E0FAA3E0FB121409900015121BA76C
:109B5D00900015E0FCA3E0FDA3E0FEA3E0FF1216CC
:109B6D005A900011121BA7800A900011121BB3000E
:109B7D00000000E47F14FEFDFC900011E0F8A3E06E
:109B8D00F9A3E0FAA3E0FBC3121B24500A900011C5
:109B9D00121BB300000000900011E0FCA3E0FDA338
:059BAD00E0FEA3E0FF53
:019BB2002290
:056AC500900729EFF02D
:106ACA006003026B517FD17E1012934490072A1201
:106ADA001BA7E4FB7D017F197E01120000BF013470
:106AEA00783A7C077D017B017A0079007E007F0479
:106AFA0012182C7B017A07793A7D0412C2E49007B6
:106B0A003AE0FCA3E0FDA3E0FEA3E0FF90072E120B
:106B1A001BA78007900712E04410F090072EE0FCB4
:106B2A00A3E0FDA3E0FEA3E0FF90072AE0F8A3E0BC
:106B3A00F9A3E0FAA3E02FFFEA3EFEE93DFDE83CB7
:106B4A00FC900732121BA7900729E0B4012C7FD1D1
:106B5A007E1012934490072A121BA7E4FFFEFD7CC5
:106B6A008090072AE0F8A3E0F9A3E0FAA3E0FBC3C8
:106B7A00121B245003026C21806D900729E06402E5
:106B8A006003026C17FB7D017F197E01120000BFB2
:106B9A000134783A7C077D017B017A0079007E0016
:106BAA007F0412182C7B017A07793A7D0412C2E419
:106BBA0090073AE0FCA3E0FDA3E0FEA3E0FF900704
:106BCA002A121BA78007900712E04410F0E4FFFE88
:106BDA00FD7C8090072AE0F8A3E0F9A3E0FAA3E09D
:106BEA00FBC3121B24403090072AE0FCA3E0FDA35C
:106BFA00E0FEA3E0FF121AF3EF2401FFE43EFEE4F5
:106C0A003DFDE43CFC90072A121BA7800A90072A44
:106C1A00121BB300000000E47F867E19FDFC90077A
:106C2A002AE0F8A3E0F9A3E0FAA3E0FBC3121B24CD
:106C3A00500C900732121BB30000000080639007CB
:106C4A0029E0B4011FA3E0FCA3E0FDA3E0FEA3E05A
:106C5A00FFE412161C90BDA2121B9712140990078A
:106C6A0036121BA7900729E0B4021FA3E0FCA3E099
:106C7A00FDA3E0FEA3E0FFE412161C90BDA2121BC6
:106C8A0097121409900736121BA7900736E0FCA347
:106C9A00E0FDA3E0FEA3E0FF12165A900732121B92
:0F6CAA00A7900732E0FCA3E0FDA3E0FEA3E0FF0C
:016CB90022B8
:05B1580090000CEFF077
:10B15D00BF01247FFD7E1012934490000D121BA79A
:10B16D0090000DE0F8A3E0F9A3E0FAA3E0FBE4FF03
:10B17D00FE7DE27C04805D90000CE064027069FB52
:10B18D007D017F9A7E01120000EF640170517815E8
:10B19D007C007D017B017A007900FE7F0412182C62
:10B1AD007B017A0079157D0412C2E4900015E0FC54
:10B1BD00A3E0FDA3E0FEA3E0FF90000D121BA790FE
:10B1CD00000DE0F8A3E0F9A3E0FAA3E0FBE4FFFE35
:10B1DD007D887C13121A61900011121BA7801390A9
:10B1ED000712E04410F0800A900011121BB300000A
:10B1FD000000900011E0FCA3E0FDA3E0FEA3E0FF42
:10B20D00E412161C7B9A7A997999783F12140912D7
:10B21D00165A900011121BA7900011E0FCA3E0FD3F
:06B22D00A3E0FEA3E0FF18
:01B2330022F8
:107E8200900010121BB3000000007FD17E101293ED
:107E920044900010121BA7E4FFFEFD7C80900010AE
:107EA200E0F8A3E0F9A3E0FAA3E0FBC3121B2490DD
:107EB2000802E0402954EFF0900010E0FCA3E0FD3E
:107EC200A3E0FEA3E0FF121AF3EF2401FFE43EFE5B
:107ED200E43DFDE43CFC900010121BA7800344101B
:107EE200F0900010E0FCA3E0FDA3E0FEA3E0FF9011
:107EF200000C121BA7E47F867E19FDFC900010E0A7
:107F0200F8A3E0F9A3E0FAA3E0FBC3121B24501B81
:107F120090000C121BB300000000900010121BB363
:107F220000000000900802E054EFF090000CE0FC2A
:107F3200A3E0FDA3E0FEA3E0FF9000CA7410F0A34B
:107F420074FCF012C8B7900010E0FCA3E0FDA3E0BF
:107F5200FEA3E0FFE412161C90BDA2121B9712149E
:107F62000912165A9006A0121BA77FD27E101293F6
:107F720044900010121BA7E4FFFEFD7C80900010CD
:107F8200E0F8A3E0F9A3E0FAA3E0FBC3121B24404C
:107F920024900010E0FCA3E0FDA3E0FEA3E0FF12AA
:107FA2001AF3EF2401FFE43EFEE43DFDE43CFC90C5
:107FB2000010121BA7900010E0FCA3E0FDA3E0FE5E
:107FC200A3E0FF90000C121BA7E47F867E19FDFC44
:107FD200900010E0F8A3E0F9A3E0FAA3E0FBC312DB
:107FE2001B24501490000C121BB3000000009000E0
:107FF20010121BB300000000900010E0FCA3E0FD93
:10800200A3E0FEA3E0FFE412161C90BDA6121B978C
:108012001214097B397AB479C8783F1215121216F4
:078022005A9006A4021BA7FF
:103BD8009006E0121BB3000000009006DC121BB335
:103BE800000000009006E8121BB3000000007FD21E
:103BF8007E101293449006E0121BA77FEE7E1012EF
:103C080093449006DC121BA7E4FB7D017F1A7E011A
:103C1800120000EF6401704578F07C067D017B019D
:103C28007A007900FE7F0412182C7B017A0679F05D
:103C38007D0412C2E49006F0E0FCA3E0FDA3E0FEE0
:103C4800A3E0FFE412161C7BCB7AA179D5783F124A
:103C5800140912165A9006E8121BA780089007123A
:103C6800E04410F022E47F867E19FDFC9006E4E033
:103C7800F8A3E0F9A3E0FAA3E0FBD3121B24401B4E
:103C88007F7A7EE67DFF7CFF9006E4E0F8A3E0F90A
:103C9800A3E0FAA3E0FB121B24400A9006E4121BDF
:103CA800B300000000E47F867E19FDFC9006ECE07E
:103CB800F8A3E0F9A3E0FAA3E0FBD3121B24401B0E
:103CC8007F7A7EE67DFF7CFF9006ECE0F8A3E0F9C2
:103CD800A3E0FAA3E0FB121B24400A9006EC121B97
:103CE800B3000000009006E09006E8900802E0307B
:103CF800E503023E1E30E3509006E8E0FCA3E0FD39
:103D0800A3E0FEA3E0FF121AF3EF2401FFE43EFE56
:103D1800E43DFDE43CFC9006E8121BA79006E0E0B9
:103D2800FCA3E0FDA3E0FEA3E0FF9006E8E0F8A313
:103D3800E0F9A3E0FAA3E02FFFEA3EFEE93DFDE843
:103D48003CFC9006F0023F619006E8E0FCA3E0FD31
:103D5800A3E0FEA3E0FF9006E0E0F8A3E0F9A3E00B
:103D6800FAA3E0FBC3121B2440509006E8E0F8A336
:103D7800E0F9A3E0FAA3E0FB9006E0E0FCA3E0FD95
:103D8800A3E0FEA3E09BFFEE9AFEED99FDEC98FC04
:103D98009006F0121BA79006E8E0FCA3E0FDA3E064
:103DA800FEA3E0FF121AF3EF2401FFE43EFEE43D18
:103DB800FDE43CFC9006E8023F619006E0E0F8A3D1
:103DC800E0F9A3E0FAA3E0FB9006E8E0FCA3E0FD3D
:103DD800A3E0FEA3E0C39BFFEE9AFEED99FDEC98ED
:103DE800FC9006F0121BA790071DE06455600302C3
:103DF8003F649006E8E0FCA3E0FDA3E0FEA3E0FF3B
:103E0800121AF3EF2401FFE43EFEE43DFDE43CFC1E
:103E18009006E8023F61900802E020E303023EFFBB
:103E28009006E8E0FCA3E0FDA3E0FEA3E0FF900617
:103E3800E0E0F8A3E0F9A3E0FAA3E0FBC3121B2437
:103E480040659006E8E0F8A3E0F9A3E0FAA3E0FBF8
:103E58009006E0E0FCA3E0FDA3E0FEA3E09BFFEEFC
:103E68009AFEED99FDEC98FC9006F0121BA79007BE
:103E78001DE064559006E8600DE0FCA3E0FDA3E0BA
:103E8800FEA3E0FF801BE0FCA3E0FDA3E0FEA3E0AF
:103E9800FF121AF3EF2401FFE43EFEE43DFDE43C8B
:103EA800FC9006E8023F619006E0E0F8A3E0F9A381
:103EB800E0FAA3E0FB9006E8E0FCA3E0FDA3E0FE47
:103EC800A3E0C39BFFEE9AFEED99FDEC98FC9006EB
:103ED800F0121BA79006E8E0FCA3E0FDA3E0FEA318
:103EE800E0FF121AF3EF2401FFE43EFEE43DFDE497
:103EF8003CFC9006E880629006E8E0FCA3E0FDA3A5
:103F0800E0FEA3E0FF9006E0E0F8A3E0F9A3E0FA02
:103F1800A3E02FFFEA3EFEE93DFDE83CFC9006F0F9
:103F2800121BA790071DE064559006E8600DE0FCA1
:103F3800A3E0FDA3E0FEA3E0FF801BE0FCA3E0FDFF
:103F4800A3E0FEA3E0FF121AF3EF2401FFE43EFE14
:103F5800E43DFDE43CFC9006E8121BA79005BFE099
:103F6800FCA3E0FDA3E0FEA3E02400FFE43EFEE4A2
:103F78003DFDEC3480FCE412161CA804A905AA0631
:103F8800AB07E4FFFEFD7C4F1215129006F4121BDE
:103F9800A7E4FFFEFD7C809006E8E0F8A3E0F9A323
:103FA800E0FAA3E0FBD3121B249006E8E0FC406B88
:103FB800A3E0FDA3E0FEA3E0FF121AF3EF2401FF44
:103FC800E43EFEE43DFDE43CFC9006E8121BA790AD
:103FD80006E8E0FCA3E0FDA3E0FEA3E0FFE4121680
:103FE8001C9006F4E0F8A3E0F9A3E0FAA3E0FB12C2
:103FF800140912165A9006E8121BA79006E8E0FC6E
:10400800A3E0FDA3E0FEA3E0FF121AF3EF2401FFF3
:10401800E43EFEE43DFDE43CFC8021A3E0FDA3E09A
:10402800FEA3E0FFE412161C9006F4E0F8A3E0F902
:10403800A3E0FAA3E0FB12140912165A9006E8123C
:104048001BA79006E8E0FCA3E0FDA3E0FEA3E0FFC9
:104058009000CA7410F0A374EEF012C8B7E4FFFE23
:10406800FD7C809006E8E0F8A3E0F9A3E0FAA3E07D
:10407800FBD3121B2440249006E8E0FCA3E0FDA338
:10408800E0FEA3E0FF121AF3EF2401FFE43EFEE492
:104098003DFDE43CFC9006E8121BA7E4FFFEFD7C16
:1040A800809006E0E0F8A3E0F9A3E0FAA3E0FBD3F0
:1040B800121B2440249006E0E0FCA3E0FDA3E0FEF0
:1040C800A3E0FF121AF3EF2401FFE43EFEE43DFDF6
:1040D800E43CFC9006E0121BA7E4FFFEFD7C809008
:1040E80006F0E0F8A3E0F9A3E0FAA3E0FBD3121B83
:1040F8002440249006F0E0FCA3E0FDA3E0FEA3E04A
:10410800FF121AF3EF2401FFE43EFEE43DFDE43C18
:10411800FC9006F0121BA79006E0E0FCA3E0FDA3CC
:10412800E0FEA3E0FFE412161C90BDA6121B971236
:10413800140912165A9006A4121BA79006F0E0FC68
:10414800A3E0FDA3E0FEA3E0FFE412161C90BDA6C9
:10415800121B9712140912165A9006B8121BA79030
:1041680006E8E0FCA3E0FDA3E0FEA3E0FFE41216EE
:104178001C90BDA6121B9712140912165A9006CC51
:0D418800121BA79006E0121BB30000000000
:014195002207
:057B2C00900778EFF066
:107B3100BF014B7FD27E10129344900779121BA78D
:107B4100E4FFFEFD7C80900779E0F8A3E0F9A3E073
:107B5100FAA3E0FBC3121B245003027C4290077975
:107B6100E0FCA3E0FDA3E0FEA3E0FF121AF3EF2483
:107B710001FFE43EFEE43DFDE43CFC027C30900765
:107B810078E064026003027C38FB7D017F1A7E018C
:107B9100120000BF013478857C077D017B017A00EA
:107BA10079007E007F0412182C7B017A0779857D8C
:107BB1000412C2E4900785E0FCA3E0FDA3E0FEA36C
:107BC100E0FF900779121BA78007900712E044108D
:107BD100F0E4FFFEFD7C80900779E0F8A3E0F9A3D3
:107BE100E0FAA3E0FBC3121B244024900779E0FCD8
:107BF100A3E0FDA3E0FEA3E0FF121AF3EF2401FFCF
:107C0100E43EFEE43DFDE43CFC900779121BA790A5
:107C11000779E0FCA3E0FDA3E0FEA3E0FFE4121678
:107C21001C7BCB7AA179D5783F12140912165A9090
:107C31000779121BA7800A900779121BB300000075
:107C410000E47F867E19FDFC900779E0F8A3E0F956
:107C5100A3E0FAA3E0FBC3121B24500C90077D1292
:107C61001BB3000000008063900778E0B4011FA3FC
:107C7100E0FCA3E0FDA3E0FEA3E0FFE412161C90EC
:107C8100BDA6121B97121409900781121BA790071A
:107C910078E0B4021FA3E0FCA3E0FDA3E0FEA3E0B3
:107CA100FFE412161C90BDA6121B9712140990072F
:107CB10081121BA7900781E0FCA3E0FDA3E0FEA3D6
:107CC100E0FF12165A90077D121BA790077DE0FC7A
:097CD100A3E0FDA3E0FEA3E0FF27
:017CDA002287
:10E6DA0003E503E803EC03EF03D903DC03E003E3F8
:10E6EA0003D303D603D903DC03C603C903CC03CF80
:10E6FA00041004130416041904030407040A040D7D
:10E70A0003FA03FD0400040303ED03F103F403F722
:10E81300EFB401089028637481F0800BEF640270F9
:10E823002A90286374A2F0902864E04408F0A3E0DF
:10E833004401F07F787E28129344EF4418FF900040
:0BE84300CA7428F0A37478F012C8B764
:01E84E0022A7
:10ECB900902864E054F7F09028637480F0902865F8
:10ECC900E04401F07F787E28129344EF54F7FF90D7
:0CECD90000CA7428F0A37478F002C8B7D9
:10E84F007F0212E8137F0A7E0012F0F97FCE7E104E
:10E85F001293447810121B35EE30E70FEFF4FFEEF2
:10E86F00F4FEEF2401FFE43EFE800F7C007D471293
:0BE87F001900EF24FBFFEE34FFFE0049
:01E88A00226B
:10EBD0007F0112E8137F0A7E0012F0F912005690AE
:10EBE000000D121BA7E4FFFE7D207C4190000DE08C
:10EBF000F8A3E0F9A3E0FAA3E0FB12140912165AF5
:01EC000022F1
:100056009000127404F0A37420F0E4900011F09064
:100066000011E0FFC394035043EF75F018A4FF900E
:100076000013E02FFD900012E035F0FC7E007F14A7
:100086007B1512E9777B017A00791490003D743371
:10009600F07D137C0012EE02900033EFF090002802
:1000A600E06F6008900011E004F080B37B017A00F5
:1000B60079147D0412C2E47B017A0079187D04125A
:1000C600C2E47B017A00791C7D0412C2E47B017ACA
:1000D6000079207D0412C2E47B017A0079247D0434
:1000E60012C2E47FCE7E101293447810121B359014
:1000F6000034121BA77E007F29902862E0543E241C
:10010600DAF582E434E6AD82FC7B0212E9779000F0
:1001160029E0FEA3E0FFE4FCFD900034E0F8A3E054
:10012600F9A3E0FAA3E0FB1219D6E47BE87A03F917
:10013600F8121A61900034121BA7900028E0FF9075
:100146000033E06F6032900014121BB30000466269
:10015600900018121BB30000000190001C121BB384
:100166000D5A4336900020121BB300001BB49000BA
:1001760024121BB30000000A900034E0FCA3E0FD4B
:10018600A3E0FEA3E0FF900020E0F8A3E0F9A3E0DF
:10019600FAA3E0FB1219D690001CE0F8A3E0F9A33D
:1001A600E0FAA3E02FFFEA3EFEE93DFDE83CFCE471
:1001B60012161C12C395C004C005C006C0079000E5
:1001C60018E0FCA3E0FDA3E0FEA3E0FFE412161C8A
:1001D600D003D002D001D000121409C004C005C05B
:1001E60006C007900014E0FCA3E0FDA3E0FEA3E038
:1001F600FFE412161CA804A905AA06AB07D007D06F
:1002060006D005D004121314C004C005C006C007EA
:10021600900024E0FCA3E0FDA3E0FEA3E0FFE412CF
:10022600161CA804A905AA06AB07D007D006D00558
:10023600D00412151290002F121BA79000127404FE
:10024600F0A37480F0E4900011F0900011E0FFC379
:1002560094035046EF75F004A4FF900013E02FFDC1
:10026600900012E035F0FC7E007F2B7B0412E977CC
:100276007B017A00792B90003D7433F07D027C007F
:1002860012EE0290002DEFF0A3E0FF90002DE06F3C
:100296006008900011E004F080B090002EE0FF901E
:1002A600002DE06F6007E490002BF0A3F090002B88
:1002B600E030E75B90002BE0FEA3E0F4FFEEF4FEF7
:1002C600EF2401FFE43E90002BF0A3EFF090002F07
:1002D600E0FCA3E0FDA3E0FEA3E0FFC004C005C070
:1002E60006C00790002BE0FEA3E0FF7C007D0A120B
:1002F6001900AC06AD07E4121621A804A905AA0642
:10030600AB07D007D006D005D0041213148038905E
:10031600002FE0F8A3E0F9A3E0FAA3E0FBC000C0D9
:1003260001C002C00390002BE0FEA3E0FF7C007D2D
:100336000A121900AC06AD07E4121621D003D0024A
:10034600D001D00012131890002F121BA7E4FFFE55
:100356007DB47C4290002FE0F8A3E0F9A3E0FAA375
:10036600E0FB1215AF600E400C90002F121BB3423B
:10037600B400008024E4FFFE7D2C7CC290002FE0B8
:10038600F8A3E0F9A3E0FAA3E0FB1215AF500A9038
:10039600002F121BB3C22C000090002FE0FCA3E03C
:0703A600FDA3E0FEA3E0FF50
:0103AD00222D
:06AEB500900009121BA72A
:10AEBB00E490000DF0C286C285902867E044C0F094
:10AECB00A37420F0900009E0FCA3E0FDA3E0FEA337
:10AEDB00E0FF121C8CAF08000C8000AF10001900B3
:10AEEB0000AF2000320000AF2800640000AF350037
:10AEFB00C80000AF47019000000000AF59902867D1
:10AF0B00E054FC800A902867E04401F0E054FDF027
:10AF1B00A3E4F0803C902867E054FE8006902867FD
:10AF2B00E04401F0E04402F08027902867E0440100
:10AF3B00F0E04402F0A3E04440F08015902867E075
:10AF4B004401F0E04402F0A3E044C0F0800312F1AE
:10AF5B00EFE5A320E00F90000DE004F0E0D3943276
:10AF6B0040EF7F0022D280E490000DF020800F9004
:10AF7B00000DE004F0E0D3943240F17F00229028E2
:0EAF8B005FE4F0A37403F0A3E04420F07F0124
:01AF99002295
:06BF7800900001121BA75E
:10BF7E00E4900005F0C284902867E044C0F0900081
:10BF8E0001E0FCA3E0FDA3E0FEA3E0FF121C8CBFCA
:10BF9E00B900000000BFBE000C8000BFCB0019002E
:10BFAE0000BFE0003200000000BFF5D2847F012206
:10BFBE00902867E054F3F0E054CFF0802D9028677E
:10BFCE00E04404F0E054F7F0E04410F0E054DFF009
:10BFDE008018902867E054FBF0E04408F0E054EF3E
:10BFEE00F0E04420F0800312F1EFE5A320E00F9083
:10BFFE000005E004F0E0D3943240EF7F0022D287B8
:10C00E00E4900005F020870F900005E004F0E0D3E7
:09C01E00943240F17F00227F0101
:01C0270022F6
:10E1F400C286C285902864E4F0902866F0900009F5
:10E20400F0900009E004F0E0B414F6D284E5A13003
:10E21400E00312F1EFC2802080FDE5A130E003129B
:10E22400F1EFE4900009F0900009E004F0E0B40399
:10E23400F6902867E4F0902867E070FAD2817F3284
:04E2440012F248008A
:01E2480022B3
:10D676009028ADE054FDF09028ACE054FDF09028E1
:10D68600AEE04402F09028ACE054FBF0A3E054FB7B
:10D69600F0A3E04404F0902820E4F0902828F090CD
:10D6A6002830F0902A05F0902864F0902866E0442F
:10D6B60020F09000CA7428F0A3747DF07F007E00ED
:10D6C6007D007C0012C8B79000CA7428F0A3747855
:10D6D600F07F007E007D007C0012C8B7E4FF0FEFEC
:05D6E600B414FBD28426
:01D6EB00221C
:10D0F6009028A8E054F0F09028AAE054F0F075A427
:10D10600F275A50AE4F5A643A6049028B2E0440207
:10D11600F09028B0E054FDF0A3E04401F09028B070
:10D12600E054FDF0A3E04401F09028C97402F0A396
:10D13600F09028B1E04410F09028B0E04410F09050
:10D1460028CDE4F053ADDF53A4DF53A6DFA3F09060
