:01040000FFFC
:0300000002D44CDB
:06D44C0075812002D48D61
:10C1DF000075CEA575CF5A0075CEA575CF5A00C282
:10C1EF00AF12ED6CD2AF0075CEA575CF5A0075CEDC
:10C1FF00A575CF5A0012F2EAEF6401707C75CEA5D7
:10C20F0075CF5A0075CEA575CF5A0090071AE0FF6B
:10C21F0030E00654FEF012EDFF128BE990071AE0A2
:10C22F00FF30E10654FDF01292F1900640E06401F8
:10C23F006007900641E0B4010312B72C900634E07A
:10C24F0064017024F012B65575CEA575CF5A0075DE
:10C25F00CEA575CF5A007D017F0112BCC67FFF129C
:10C26F00EFD89006427403F0128BE975CEA575CF07
:0FC27F005A0075CEA575CF5A00128BE902C1F691
:10E0CF0000100044443031412D5633302E31341E70
:10E0DF001E26002000111111111111FFFFFFFFFF6C
:10E0EF00FFFFFFFFFF1111111111110000000000C0
:10E0FF0000000000000000000000005A00000000B7
:10E10F001C0000000000000000000F0101FFFFFFD6
:10E11F00FFFFFFFFFF0012345600000065341200AE
:01E12F0000EF
:10DAED00E490071AF0A3F090071E7403F0E490077A
:10DAFD0031F07B017A0779239001D6F0A304F0A3CE
:10DB0D0004F07D997C0012CFE47B017A0779249093
:10DB1D0001D6E4F0A37402F0A3F07D9F7C0012CF38
:10DB2D00E47B017A0779269001D6E4F0A37402F024
:10DB3D00A3F07DA17C0012CFE47B017A07792D90B3
:10DB4D0001D6E4F0A37404F0A37402F07DC17C004F
:03DB5D0002CFE410
:10DD1D0000020000003E0102003E002F1402006DC3
:10DD2D000052150200BF00101B02011B001A190240
:10DD3D0000CF0009460200D8003A150200BF0010BE
:10DD4D0052020135001A5302014F001E5402016D9B
:10DD5D0000621A02011200096502080000716602D4
:10DD6D0008710071670208E20071680209530071C1
:0CDD7D00690209C400716A020A350071D5
:10BBFF00900012E0FEA3E0FF900016E0FCA3E0FD32
:02BC0F007B02B6
:10BC1100900189EEF0A3EFF0A3ECF0A3EDF0A3EB1C
:01BC2100F032
:10BC22009001CF74A5F0A3745AF090018BE0FEA3AB
:10BC3200E0FFD39400EE9400500302BCBDEF9440A9
:10BC4200EE940090018E40057440F08002EFF07B8C
:10BC5200017A01798F900189E0FCA3E0FD90018EC9
:10BC6200E0FF9001D6E4F0A3EFF090018DE09001A7
:10BC7200D8F012CFE47B017A01798F90018EE0FD3A
:10BC82007C00E49001D6F0A3F012EDCE9001D0E05A
:10BC92002FF09001CFE03EF090018EE0FF7E009009
:10BCA200018AE02FF0900189E03EF0C390018CE020
:10BCB2009FF090018BE09EF002BC2C9001CFE0FE41
:03BCC200A3E0FFFD
:01BCC500225C
:08D10100900189EEF0A3EFF0AC
:10D10900E4FFEF75F006A4241EF582E434DDF5830F
:10D11900E4936D7068ED640260037FFF22EF75F0A0
:10D1290006A4241FF582E434DDF583E493FB74013E
:10D139009390018BCBF0A3EBF0EF75F006A42421BB
:10D14900F582E434DDF583740193F990018BE0FAFB
:10D15900A3E0FBC390018AE09B900189E09A401DFE
:10D16900E9FB90018CE02BFB90018BE03400FAC3C2
:10D1790090018AE09B900189E09A5001220FEF64A7
:08D1890012600302D10B7FFFCD
:01D19100227B
:10AF4900900012E0FCA3E0FD2400FFEC3404FE9025
:10AF59000017E02402FB900016E03400FA9000206C
:03AF69007422F05F
:10AF6C0090001AEEF0A3EFF0A3ECF0A3EDF0A3EA3F
:04AF7C00F0A3EBF063
:10AF800090001EE0FEA3E0FFD39400EE9400500377
:10AF900002B037D3EF9440EE940090006140057406
:10AFA00040F08002EFF07B017A00792190001CE0F4
:10AFB000FCA3E0FD900061E0FF9001D6E4F0A3EF78
:10AFC000F0900020E0FFC4540F9001D8F012CFE4BD
:10AFD00075CEA575CF5A0075CEA575CF5A007B01E9
:10AFE0007A007921900061E0FD90018EE4F0A3EDFC
:10AFF000F0900020E0540F900190F090001AE0FED5
:10B00000A3E0FF12CC67900061E0FFFD7C009000A0
:10B010001BE02DF090001AE03CF090001DE02DF0B8
:10B0200090001CE03CF0C390001FE09FF090001ED9
:07B03000E09400F002AF8084
:01B0370022F6
:10C9320090007AEEF0A3EFF0A3ECF0A3EDF0AF03DA
:10C942007B017A007980AD0790017BE4F0A374400B
:10C95200F012EF0D90007CE0FEA3E0FFD39400EE16
:10C9620094004069D3EF9440EE94009000C04005DB
:10C972007440F08002EFF090007AE0FEA3E0FF7BCB
:10C98200017A0079809000C0E0FD90018EE4F0A36E
:10C99200EDF090007FE0900190F012CC6775CEA58B
:10C9A20075CF5A0075CEA575CF5A009000C0E0FF32
:10C9B2007E0090007BE02FF090007AE03EF0C39082
:0DC9C200007DE09FF090007CE09EF08087FB
:01C9CF002245
:0BCFD9009001D6E4F0A37402F0A3F076
:10CFE4009001D1EBF0A3EAF0A3E9F0A3ECF0A3EDF8
:01CFF400F04C
:10CFF5009001D8E024FE604B0470699001D4E0FEF6
:10D00500A3E0AA06F99001D97401F0A3EAF0A3E917
:10D01500F09001D9E0F9A3E0FAA3E09001DFC9F0AF
:10D02500A3EAF0A3E9F09001D6E0FFA3E09001E2C6
:10D03500CFF0A3EFF09001D1E0FBA3E0FAA3E0F974
:10D0450002E18F9001D1E0FBA3E0FAA3E0F9A3E0B0
:10D05500FCA3E0FDA3E0FFA3E09001E1CFF0A3EF87
:07D06500F002C7F212F3C74D
:01D06C0022A1
:10CC460090000EEEF0A3EFF09000147A00790EE05B
:10CC5600FEA3E0FF7B0190018EE4F0A37402F0A333
:01CC6600F0DD
:10CC6700900189EEF0A3EFF0A3EBF0A3EAF0A3E9BC
:01CC7700F0CC
:10CC7800900190E024FE603C04705A900189E0FE27
:10CC8800A3E0AA06F97B01C002C001A3E0F9A3E072
:10CC9800FAA3E09001DFC9F0A3EAF0A3E9F090015C
:10CCA8008EE0FFA3E09001E2CFF0A3EFF0D001D037
:10CCB8000202E18F900189E0FEA3E0FFA3E0FBA35D
:10CCC800E0FAA3E0F9A3E0FDA3E0900196CDF0A37C
:08CCD800EDF002CB0C12F3C7D2
:01CCE0002231
:1096DB00900179EBF0A3EAF0A3E9F0900177EEF0BB
:0396EB00A3EFF0FA
:1096EE0090017EE0FD12D10190017FEFF0C3941244
:1096FE00400312F3C790017FE0FF75F006A4241F0C
:10970E00F582E434DDF583E493FD740193900182D8
:10971E00CDF0A3EDF0EF75F006A42421F582E4342C
:10972E00DDF58374019324FEFFE49334FFFE900174
:10973E0086F0A3EFF0900183E02FFF900182E03ED0
:10974E00900184F0A3EFF090017FE075F006A42461
:10975E001DF582E434DDF583E493900188F09001E9
:10976E0077E0FEA3E0FFA3E0FBA3E0FAA3E0F9A3FA
:10977E00E0FDA3E090018ECDF0A3EDF090017EE030
:10978E00900190F012CC6775CEA575CF5A0075CEAC
:10979E00A575CF5A00900182E0FEA3E0FF900186EE
:1097AE0012BC0A900180EEF0A3EFF09001847A01D2
:1097BE00798012CC55900188E0C394645048900192
:1097CE0078E02400FF900177E03404FE900179E008
:1097DE00FBA3E0FAA3E0F9A3E0FDA3E090018ECD98
:1097EE00F0A3EDF090017EE0900190F012CC679026
:1097FE000185E02400FF900184E03404FE7B017AB1
:06980E0001798012CC5C20
:019814002231
:10A5AD00E4FEEE75F006A4241DF582E434DDF5839A
:10A5BD00E4936F60050EEEB412E8EEC394124003FF
:10A5CD0002A6ADEE75F006A4241FF582E434DDF588
:10A5DD0083E493FD74019390001ACDF0A3EDF0EE9A
:10A5ED0075F006A42421F582E434DDF5837401931E
:10A5FD0024FEFCE49334FF90001CF0A3CCF0EF2478
:10A60D00EB602224CF602E24F4603A14604714606E
:10A61D00542440707290001AE0FEA3E0FF7BFF7A95
:10A62D00E079DE804E90001AE0FEA3E0FF7BFF7A1A
:10A63D00E07905803E90001AE0FEA3E0FF7BFF7AF3
:10A64D00BF790B802E90001AE0FEA3E0FF7BFF7A0E
:10A65D00CD797B801E90001AE0FEA3E0FF7BFF7A90
:10A66D00CD7995800E90001AE0FEA3E0FF7BFF7A76
:10A67D00CD79B3A3E0FDA3E090018ECDF0A3EDF075
:10A68D00A37402F002CC6790001AE0FEA3E0FFA3D2
:10A69D00E0FCA3E0FD90007F7402F0E4FB12C932F0
:01A6AD00228A
:10714100E490000DF090000DE0F9C39412400302A9
:107151007318E4900018F090000DE0FF75F006A49C
:10716100241FF582E434DDF583E493FD74019390EB
:107171000012CDF0A3EDF0EF75F006A42421F58205
:10718100E434DDF58374019324FEFEE49334FF902F
:107191000016F0A3CEF0900016E0FAA3E0FB9000F9
:1071A10012E0FCA3E0FD2BFEEC3AA3F0A3CEF0E944
:1071B10075F006A4241DF582E434DDF583E4939093
:1071C1000019F075CEA575CF5A0075CEA575CF5AA9
:1071D10000AF05AE04AD03AC027B0212BC119000FE
:1071E1000EEEF0A3EFF07B017A007910900014E02D
:1071F100FCA3E0FD12CFD9900010E0FEA3E0FF90C8
:10720100000EE06E7003A3E06F6007900018E04489
:1072110001F0900019E0C39464504B900013E024F6
:1072210000FF900012E03404FE12BC0790000EEE45
:10723100F0A3EFF07B017A007910900015E02400B3
:10724100FD900014E03404FC12CFD9900010E0FE50
:10725100A3E0FF90000EE06E7003A3E06F60079063
:107261000018E04402F075CEA575CF5A0075CEA581
:1072710075CF5A00900018E0700302730124FE607C
:107281003614604124027075900019E0C394645073
:1072910015900012E0FEA3E0FF2400FDEE3404FC93
:1072A10012AF580272EE900019E0FF12A5AD12BBA9
:1072B100FF12CC460272EE900019E0C39464504074
:1072C10012AF498028900019E0FF12A5AD12BBFF53
:1072D10012CC4675CEA575CF5A0075CEA575CF5A7D
:1072E10000900019E0C39464501612AF4975CEA501
:1072F10075CF5A0075CEA575CF5A00800312F3C71A
:1073010075CEA575CF5A0075CEA575CF5A009000E0
:077311000DE004F0027146DB
:017318002252
:05BE4B00900093EFF0F0
:10BE5000E4A3F0900094E0F9C39412400302BF0AF7
:10BE6000E0FE75F006A4241FF582E434DDF583E4DA
:10BE700093FC740193FDEE75F006A42421F582E491
:10BE800034DDF58374019324FE2DFEE43C9000978D
:10BE9000F0A3CEF0E975F006A4241DF582E434DDAC
:10BEA000F583E493FF900099F0BF4608900093E07B
:10BEB00064A5704D75CEA575CF5A0075CEA575CF0A
:10BEC0005A00E4900095F0A3F0900097E0FEA3E004
:10BED000FF7B017A00799512CC5C900099E0C394C5
:10BEE00064501EE4900095F0A3F0900098E02400C8
:10BEF000FF900097E03404FE7B017A00799512CC24
:0ABF00005C900094E004F002BE53D0
:01BF0A002214
:10C28E0012F269EF6401600302C328900811E0C343
:10C29E009403400302C33CE004F0E0C39403500354
:10C2AE0002C33C900723E0645A600302C33C90082B
:10C2BE0012E06401607812DE6175CEA575CF5A006A
:10C2CE0075CEA575CF5A0012B65575CEA575CF5A37
:10C2DE000075CEA575CF5A0012DA7975CEA575CF39
:10C2EE005A0075CEA575CF5A0012A39A12E89F7503
:10C2FE00CEA575CF5A0075CEA575CF5A00129DFBEF
:10C30E0075CEA575CF5A0075CEA575CF5A007FA8EC
:10C31E001203AE9008127401F022900811E0D3942B
:0FC32E00004003E014F0900811E07002A3F02229
:10E3560012F31AEF6401702690080FE0C39403507D
:10E3660043E004F0E0C39403403AA3E06401603460
:10E376007D017F0912BCC69008107401F022900836
:10E386000FE0D394004006900811E014F090080FB7
:10E39600E07011A3E0B4010C7DFF7F0912BCC6E456
:05E3A600900810F022B8
:10F38B007B017A08790E90017BE4F0A37405F0E41D
:04F39B00FD02EF0D73
:01005200228B
:10F2EA00E4FFE5A120E0050FEFB41EF6EFC3941981
:07F2FA0050037F01227F0099
:01F3010022E9
:10E4550090071CE5A1F0E59560047F0180027F002F
:10E46500E59460047E0180027E00EE4F6011759098
:10E4750096759757E4F594F59575909675975600AA
:10E48500758F019004027486F0E4F58F75A001FF85
:10E49500FE7D32FC12B11E12E2FF12F1A402EA92D5
:10788C007B017A00790A9001D6E4F0A37403F0A38B
:10789C0014F07DBA7C0012CFE490000AE0B4650BC2
:1078AC00A3E0B43406A3E06412602D9004B074011C
:1078BC00F012D4D290007F7402F0E4FBFD7C10FF38
:1078CC007E0812C9327FA512BE4B75CEA575CF5A54
:1078DC000075CEA575CF5A0090071DE0701112717E
:1078EC004175CEA575CF5A0075CEA575CF5A00122D
:1078FC00DAED12F38B75CEA575CF5A0075CEA57542
:10790C00CF5A007B017A0579B59001D6E4F0A374C7
:10791C003AF0A37402F07DD87C0012CFE412F46A22
:10792C0012F46712DD8975CEA575CF5A0075CEA5F8
:10793C0075CF5A0012E6FF12697712EF6112ECD084
:10794C0012F2B775CEA575CF5A0075CEA575CF5A64
:10795C000012E24975CEA575CF5A0075CEA575CF2C
:10796C005A00900653E064306003027A4B75CEA542
:10797C0075CF5A0075CEA575CF5A00900000F07BDC
:10798C00017A0079029001D6F0A37405F0A3740279
:10799C00F07D6C7C0C12CFE47B017A0079089001AD
:1079AC00D6E4F0A37402F0A3F07D6F7C0012CFE458
:1079BC00900008E0FB900004E0D39B50089000007E
:1079CC007401F08005E4900000F0900661E0FE90F8
:1079DC000000E02EFD900003E0FCC3ED9C90000045
:1079EC00F0EEC39B5005E014F08005900000E0F031
:1079FC00900000E0D3940640037406F0900000E081
:107A0C00D39400403AE4A3F0900000E0FFA3E0C35D
:107A1C009F501BE4FF12844B75CEA575CF5A007591
:107A2C00CEA575CF5A00900001E004F080DA75CE37
:107A3C00A575CF5A0075CEA575CF5A0012B6550252
:027A4C00ED0645
:10A9A000E4900000F0A3F075CEA575CF5A0075CEE7
:10A9B000A575CF5A0075CEA575CF5A0075CEA57571
:10A9C000CF5A0012EF6112697712DCB012EF8912D0
:10A9D000E2FF9028C8E4F09028ADE04410F07D023A
:10A9E0007F0112EACD43C90112E40075CEA575CFEF
:10A9F0005A0075CEA575CF5A007F007E007D327C4F
:10AA00000012B11E7B017A00790212E1309001DF61
:10AA10007401F0A37400F0A37402F0A3E4F0A37433
:10AA200007F07B017A06795F12E18FE5A130E05CE7
:10AA300012D2AD12F1A412EC997B017A04796490E0
:10AA4000018EE4F0A3741EF0A37402F07FCF7E01A8
:10AA500012CC677B017A04798390018EE4F0A374B1
:10AA60002DF0A37402F07FED7E0112CC677B017A9A
:10AA70000479B290018EE4F0A37432F0A37402F072
:10AA80007F1AFE12CC6712D4D212F3C7126F601273
:05AA9000E3AB02A9DEAA
:10D5D2007F007E007D327C0012B11E12D2AD12DCC1
:10D5E200B07FFF12EFD875CEA575CF5A0075CEA5C4
:10D5F20075CF5A0012788C12F120E4FF12DDF51279
:10D60200F415E4FF125DB11267407B017A077905D8
:10D6120090017BE4F0A37405F0E4FD12EF0D900796
:10D62200AE7404F09007AAF07DFF7F0712BCC67BA0
:10D63200017A0779AA90017BE4F0A3740CF0E4FD6F
:0AD6420012EF0D43A50143A40122DD
:10ED6C0012E45512F2EAEF70077F2C7E0112F2D1F9
:10ED7C0012F2EAEF700890071D7403F08005E4901E
:10ED8C00071DF090071DE0B4030302A9A012D5D211
:01ED9C002254
:10E3AB0012F283EF64014E700590064004F0900664
:10E3BB0040E0B4011EE4F0900625E0B40504E4F05F
:10E3CB008006900625E004F012A04890060F740614
:10E3DB00F0800C90060FE0D394004003E014F09013
:10E3EB00060FE0700F900625F0900643F090065D47
:05E3FB00F012A0482211
:108BE90012F2EAEF6003028D54D284C2AF12601D03
:108BF9007B017A05792290017CE4F0A3743CF0A30F
:108C09007402F0E4FFFE1296DB90071D7403F07BFB
:108C1900017A06795F90017CE4F0A37407F0A374EC
:108C290002F07FCF7E001296DB9007AE7404F07DD0
:108C3900017F0712BCC69007B17404F09007ADF02C
:108C49007DFF7F0A12BCC67B017A0779B49001D6F1
:108C5900E4F0A304F0A304F07D217C0112CFE41217
:108C6900C3EC12EF8912E2FF9028C8E4F09028AD16
:108C7900E04410F012F1A412EA9212EF61E49006B6
:108C89000FF09004B0F075CEA575CF5A0075CEA53A
:108C990075CF5A00E4FD7F0112EACD43C90112F4F0
:108CA9001512E40075CEA575CF5A0075CEA575CFFE
:108CB9005A007F007E007D327C0012B11E7B017A52
:108CC90000790012E1309001DF7401F0A37400F023
:108CD900A37400F0A3E4F0A37407F07B017A06798A
:108CE9005F12E18FE5A130E05912D2AD12F1A41261
:108CF900EC997B017A04796490018EE4F0A3741EE7
:108D0900F0A37402F07FCF7E0112CC677B017A0455
:108D1900798390018EE4F0A3742DF0A37402F07F9F
:108D2900ED7E0112CC677B017A0479B290018EE461
:108D3900F0A37432F0A37402F07F1AFE12CC67120A
:0B8D4900F3C7126F6012E3AB028C8FC7
:018D540022FC
:10F3C70075CEA575CF5A0075CEA575CF5A0000002A
:03F3D7000080FBB8
:0300030002004EAA
:04004E005388FD32A4
:03000B0002E2A569
:10E2A500C0E0C083C082C0D0758A65758C66900752
:10E2B5001AE04401F09005A9E0600E9005ABE0047A
:10E2C500F070069005AAE004F09005AEE0B4011BDD
:10E2D500D39005ADE094009005ACE09400400CA30C
:10E2E500E024FFF09005ACE034FFF0900731E00446
:0AE2F500F0D0D0D082D083D0E03208
:0300130002F46391
:04F463005388F732A1
:03001B0002F09759
:10F09700C0E0C0F0C083C082C0D075D01053887F55
:10F0A700758BCD758DCC12B2E3D0D0D082D083D002
:04F0B700F0D0E03283
:03002B0002F0FFE1
:10F0FF00C0E0C083C08253C87F75CC5375CD9A9042
:10F10F0028B2E04402F0C2CAC2ADD082D083D0E0B0
:01F11F0032BD
:03003B0002F3329B
:10F33200C0E0E5C030E00553C0FE8008E5C030E122
:07F342000353C0FDD0E032CF
:030043000295998A
:0D959900C0E0C0F0C083C082C0D075D0100B
:1095A600902840E0FF902843E05F900235F0E020ED
:1095B600E20302963C902840E054FBF0902836E007
:1095C60054FDF0900236E0D394004057A3E0FC240B
:1095D6003AF582E43402F583E0900234F0900337E2
:1095E600E0B40716900234E0FE547FFD30D006EE5C
:1095F6004480F08005900234EDF0900234E090282B
:1096060037F09005AAE4F0A3F0743A2CF582E4341E
:1096160002F583E4F0900237E004F0900236E0149D
:10962600F08013900237E4F09003347404F012E8EB
:1096360019E4FF12C74A900235E0FF30E350902844
:1096460040E054F7F0902836E054FEF0A3E0900294
:1096560034F0E0547FFE900237E0243AF582E43499
:1096660002F583EEF09005AAE4F0A3F0900237E04D
:1096760004F0E0FED3940440020000EE75F0FA8494
:10968600AEF0900237EEF0D3941540020000EF30B2
:10969600E407902840E054EFF0900235E030E5070B
:1096A600902840E054DFF0900235E0FF30E6079066
:1096B6002840E054BFF0EF30E70D902840E0547F9B
:0A96C600F0900561E004F05391EF0D
:0B96D000D0D0D082D083D0F0D0E032A8
:03004B0002BA6D89
:0DBA6D00C0E0C0F0C083C082C0D075D01012
:10BA7A00902848E0FF90284BE05FFD30E4079028CB
:10BA8A0048E054EFF0AF15ED30E507902848E05450
:10BA9A00DFF0AF15ED30E614902848E054BFF0907F
:10BAAA00071AE04402F09005EF7401F0AF15ED308B
:10BABA00E76C902848E0547FF0900560E004F0902D
:10BACA00065DE06401702B9028B0E04402F0A3E028
:10BADA0054FEF09028C9E4F0A3F09028B2E054FD97
:10BAEA00F09028B0E054FDF075CC5375CD9AD2CAC7
:10BAFA00D2AD9005FBE0541FF0900642E0700B7B3C
:10BB0A00017A0579F112B20380057FFF12EFD8900E
:10BB1A000643E4F0758BCD758DCCD28ED2AB5391A2
:01BB2A00DF3B
:0BBB2B00D0D0D082D083D0F0D0E03228
:0300530002EE8A30
:0BEE8A00C0E0C083C082C0D075D01073
:10EE9500902850E0FF902853E05FFF30E30790286B
:08EEA50050E054F7F05391BF57
:09EEAD00D0D0D082D083D0E03235
:10918E0041064000410635004106340041063301D8
:10919E004106410041063B0041064200410658008F
:1091AE004106440041065D0041063A0041065E005C
:1091BE004106430044064F0000000044062F000005
:0291CE0000009F
:10CE15007B017A00790D12E1307B017A00790D12E0
:10CE2500AC79EF70647B017A00790D9001D6F0A39F
:10CE35007407F0A37402F07DCF7C0012CFE47B0170
:10CE45007A00790D12AC79EF703690000D7403F00D
:10CE5500A37416F0A37404F0A37420F0A37412F065
:10CE6500A37430F0A3F07B017A00790D90017CE486
:10CE7500F0A37407F0A37402F07FCF7E001296DB57
:10CE85007B017A00790D12DECB9001DF7401F0A3EE
:10CE95007400F0A3740DF0A3E4F0A37407F07B0114
:07CEA5007A06795F02E18FBC
:03F4670002CE15BD
:10D3390012F31AEF700E900658E0700804F0900688
:10D34900447403F012F31ABF0109E4900658F090EF
:10D359000644F012F283EF64014E700F900635E037
:10D36900700990064004F0900635F012F283EF4EF2
:10D379007004900635F012F302EF64014E700D90BF
:10D389000633E07007A304F0900633F012F302EFBE
:10D399004E7004900633F012F29DEF64014E700F47
:10D3A90090063BE0700990064104F090063BF012AC
:0BD3B900F29DEF4E700490063BF02246
:10B2E300E4FFFEFDFC900636E0F8A3E0F9A3E0FAE4
:10B2F300A3E0FB1215AF6002500302B3C190062F07
:10B30300E0FCA3E0FDA3E0FEA3E0FF900654121BC4
:10B31300A7E4FFFE7D287C4290063CE0F8A3E0F919
:10B32300A3E0FAA3E0FB121409900659121BA7909D
:10B333000659E0FCA3E0FDA3E0FEA3E0FF90065462
:10B34300E0F8A3E0F9A3E0FAA3E0FB1215AF405045
:10B35300900643E004F090062F121BB30000000098
:10B36300900643E024FE60101460162402701D90C2
:10B3730005FBE04480F080149005FBE044C0F080BE
:10B383000B9005FBE044E0F0C2CAC2AD900642E078
:10B3930070097B017A0579F102B2037FFF02EFD8CE
:10B3A30090062FE0FCA3E0FDA3E0FEA3E0FFE4FB97
:0FB3B300FA7980783F12131890062F121BA722E9
:10EDFF00E4900000F0900000E0FFC3940150131264
:10EE0F00B3C2900000E0FF12A16C900000E004F08C
:0FEE1F0080E312D33990065DE07004C2CAC2AD21
:01EE2E0022C1
:1092F10012CE1575CEA575CF5A0075CEA575CF5A6C
:1093010000900822E0D394004006E014F012EF61CF
:10931100900822E0703F12876C75CEA575CF5A0078
:1093210075CEA575CF5A0012601D75CEA575CF5AA1
:109331000075CEA575CF5A0012EE2F12DA0575CE43
:10934100A575CF5A0075CEA575CF5A0012C28E12DF
:10935100F47C12ECD0900642E0700812B72C12A0F7
:10936100488006900642E014F0900665E0706212B3
:10937100674075CEA575CF5A0075CEA575CF5A0039
:109381001264E475CEA575CF5A0075CEA575CF5A76
:1093910000126F6012D4D2900653E0B4301175CE32
:1093A100A575CF5A0075CEA575CF5A0012CCE175BF
:1093B100CEA575CF5A0075CEA575CF5A0012D06DC6
:1093C10075CEA575CF5A0075CEA575CF5A0012E29C
:1093D1004912F31AEF7023900644E0D3940040023F
:1093E100803090065DE0703404F090063A740AF023
:1093F100900665E090065EF0802290063AE0D394F4
:1094010000401490065EE0FF900665E0B5070D9000
:10941100063AE014F08005E490065DF0900665E000
:10942100B4251112F47A75CEA575CF5A0075CEA563
:1094310075CF5A00900665E0B4311112F2B775CEBE
:0D944100A575CF5A0075CEA575CF5A002233
:01F478002271
:0AF42B00E490064EF090064DF0222A
:0BC07B00E0FCA3E0A3FDE0900230F029
:10C0860090022BEBF0A3EAF0A3E9F0A3ECF0A3ED0A
:01C09600F0B9
:10C09700E4900233F090023174A0F0A304F012EAA6
:10C0A70092900233E004F0E0D3940A40037F002229
:10C0B70012EC99900231E0FF12CBA9BF01E0900288
:10C0C7002EE0FF12CBA9EF640160037F00229002EC
:10C0D7002EA3E0FF12CBA9EF640160037F002212B9
:10C0E700EC99900232E0FF12CBA9EF640160037F65
:10C0F7000022900230E0FF14F0EF6026E07003FFAB
:10C1070080027F0112D19290022BE0FBA3E0FAA3F9
:10C11700E0F9EF1218BA90022CE475F00112198BAE
:07C1270080D012EA927F01B3
:01C12E0022EE
:10C5F4009001E0EEF0A3EFF0A3EBF0A3EAF0A3E9DF
:01C60400F045
:10C60500E49001E8F09001E674A0F0A304F00012B4
:10C61500EA929001E8E004F0E0D3940A40037F0039
:10C625002212EC999001E6E0FF12CBA9BF01E09040
:10C6350001E0E0FF12CBA9EF640160037F002290C7
:10C6450001E0A3E0FF12CBA9EF640160037F0022A4
:10C655009001E2E0FBA3E0FAA3E0F9121852FF1201
:10C66500CBA9EF64016004007F00229001E3E4752B
:10C67500F00112198B9001E1E004F070069001E0E1
:10C68500E004F09001E5E014F0E070C412EA927F56
:09C69500057E0012F2D1007F01C4
:01C69E002279
:10D557009001E4EBF0A3EAF0A3E9F0A3ECF0A3ED6C
:01D56700F0D3
:10D56800A3E0FFD394004006EFD3944040037F002C
:10D5780022E490022AF07B017A0179EA9001E7120D
:10D58800C07B9001E4E0FBA3E0FAA3E0F9A312C09A
:10D598007B90022E7401F0A37401F0A374EAF0905A
:10D5A80001E9E0900231F09001E4E0FBA3E0FAA386
:10D5B800E0F912D64CEF70037F012290022AE004B2
:09D5C800F0E0C3940340AF7F00C2
:01D5D1002237
:10D22000900199EEF0A3EFF0A3EBF0A3EAF0A3E9ED
:01D23000F00D
:10D23100A3E0FFD394004006EFD39440400312F3E0
:10D24100C7E49001DFF0900199E0FEA3E0FFA3E0C5
:10D25100FBA3E0FAA3E0F9A3E09001E5F012C5F425
:10D261007B017A01799F900199E0FCA3E090019EF6
:10D2710012C08090022E7401F0A37401F0A3749F78
:10D28100F090019EE0900231F090019BE0FBA3E061
:10D29100FAA3E0F912D64CEF70037F01229001DF6F
:0BD2A100E004F0E0C39403409D7F0018
:01D2AC00225F
:10C7F2009001DCEBF0A3EAF0A3E9F0A3ECF0A3EDE7
:01C80200F045
:10C803009001E1E0FEA3E0FFD39400EE9400407CAE
:10C813009001DFA3E0543FFD600974409D9001E364
:10C82300F080069001E37440F09001E3E0FDC3EF74
:10C833009DEE940050079001E1A3E0A3F09001DC8A
:10C84300E0FBA3E0FAA3E0F9A3E0FCA3E0FD900181
:10C85300E3E09001E9F012D557EF7002FF22900157
:10C86300E3E0FFFD7C009001DDEC8DF012198B906D
:10C8730001E0E02DF09001DFE03CF0C39001E2E045
:0EC883009FF09001E1E09400F002C8037F01F5
:01C891002284
:10CB0C00900191EEF0A3EFF0A3EBF0A3EAF0A3E910
:01CB1C00F028
:10CB1D00900196E0FCA3E0FDD39400EC94004079E5
:10CB2D00900191E0FEA3E0FF543FFB600974409B30
:10CB3D00900198F080069001987440F0900198E073
:10CB4D00FBC3ED9BEC94005007900196A3E0A3F07E
:10CB5D00900193E0FBA3E0FAA3E0F9900198E09037
:10CB6D00019EF012D220EF7002FF22900198E0FF9B
:10CB7D00FD7C00900192E02DF0900191E03CF09051
:10CB8D000194EC8DF012198BC3900197E09FF090FA
:0BCB9D000196E09400F002CB1D7F0128
:01CBA800226A
:10F1A4009028ACE04402F0A3E04402F0A3E044045D
:0EF1B400F09028ACE054FBF0A3E054FBF022F6
:10EC99009028ACE04402F0A3E04402F0A3E044046D
:10ECA900F0000000000000E054FDF09028ADE054B1
:10ECB900FDF09028ACE054FDF00000000000009049
:07ECC90028AEE054FBF0222D
:10EA92009028AEE054FDF09028ADE054FDF09028AF
:10EAA200ACE054FDF00000000000009028AEE0440D
:10EAB20004F00000000000009028ACE04402F0A343
:0BEAC200E04402F00000000000002211
:10CBA900E4F508F5089028AEE054FBF0EF30E70E05
:10CBB9009028ACE04402F0A3E04402F080159028EC
:10CBC900AEE054FDF09028ADE054FDF09028ACE0C3
:10CBD90054FDF0EF25E0FF9028AEE04404F000009A
:10CBE900000000000508E508B408BA9028AEE05432
:10CBF900FBF09028ACE04402F0A3E04402F0750891
:10CC090020E4F5089028AFE020E1149028AEE04434
:10CC190004F0000000000000E054FBF07F01220551
:10CC290008E508B420DE9028AEE04404F0000000D6
:0CCC3900000000E054FBF012EA927F00C3
:01CC450022CC
:10D19200E4F508F5099028ACE04402F0A3E044026B
:10D1A200F0A3E054FBF0E4F508E50925E0F5099069
:10D1B20028AEE04404F0000000000000A3E030E1EB
:10D1C200034309019028AEE054FBF0000000000088
:10D1D200000508E508B408D1EF60179028AEE054C6
:10D1E200FDF09028ADE054FDF09028ACE054FDF045
:10D1F200800C9028ACE04402F0A3E04402F09028B6
:10D20200AEE04404F0000000000000E054FBF090A7
:0DD2120028ACE04402F0A3E04402F0AF09B4
:01D21F0022EC
:01F479002270
:10F39F00E5E820E10343E80290284BE020E704E092
:04F3AF004480F02284
:10EFB1007F7D7E2812944EEF54C7FF9000CA7428BB
:10EFC100F0A3747DF012CA6E902843E0547FF09054
:06EFD10028AEE04408F048
:01EFD7002217
:06C9D000900808121BA7ED
:10C9D600E4FF90288474CCF0E4F0902885E0600AA7
:10C9E6000FEFD3940840F37F0022900808A3A3A377
:10C9F600E0FF902880EFF0900808E0FCA3E0FDA39C
:10CA0600E0FEA3E0FF7808121B35902881EFF09036
:10CA16000808E0FCA3E0FDA3E0FEA3E0FF78101207
:10CA26001B35902882EFF0900808E0FCA3E0FDA3F8
:10CA3600E0FEA3E0FF7818121B35902883EFF090F4
:10CA4600080CE0FEA3E0F5828E83E4F0FF000FEF12
:10CA5600B408FAE4FF902885E0600A0FEFD3940843
:07CA660040F37F00227F0175
:01CA6D0022A6
:06C33D009007FA121BA795
:10C34300E4FB90288474CCF0E4F0902885E0600A44
:10C353000BEBD3940840F37F00229007FAA3A3A327
:10C36300E0FF902880EFF09007FAE0FCA3E0FDA344
:10C37300E0FEA3E0FF7808121B35902881EFF090D0
:10C3830007FAE0FCA3E0FDA3E0FEA3E0FF781012B0
:10C393001B35902882EFF09007FAE0FCA3E0FDA3A1
:10C3A300E0FEA3E0FF7818121B35902883EFF0D24C
:10C3B3008720870C900800E004F0E0D3941E40F13E
:10C3C3009007FEE0FEA3E0F5828E83E4F0FB000B12
:10C3D300EBB408FAE4FB902885E0600A0BEBD394F6
:08C3E3000840F37F00227F01F6
:01C3EB00222F
:06CA6E009000C6121BA798
:10CA7400E4FF90288474CCF0E4F0902885E0600A08
:10CA84000FEFD3940840F37F00229000C6A3A3A322
:10CA9400E0FF902880EFF09000C6E0FCA3E0FDA347
:10CAA400E0FEA3E0FF7808121B35902881EFF09098
:10CAB40000C6E0FCA3E0FDA3E0FEA3E0FF781012B3
:10CAC4001B35902882EFF09000C6E0FCA3E0FDA3A4
:10CAD400E0FEA3E0FF7818121B35902883EFF09056
:10CAE40000CAE0FEA3E0F5828E83E4F0FF000FEFBE
:10CAF400B408FAE4FF902885E0600A0FEFD39408A5
:07CB040040F37F00227F01D6
:01CB0B002207
:10944E0090288474CCF0E4F0F508902885E0600B49
:10945E000508E508D3940840F180248F828E83E0BE
:10946E00F508E4F508000508E508B408F8E4F50881
:10947E00902885E0600F0508E508D3940840F1E4D4
:10948E00FFFEFDFC22902880E0FFE4FCFDFE900034
:10949E00C6121BA7902881E0FFE4FCFDFE7808129F
:1094AE001B489000CA121BA79000C6E0FCA3E0FD6B
:1094BE00A3E0FEA3E0FFA3E0F8A3E0F9A3E0FAA384
:1094CE00E0FBEF2BFFEE3AFEED39FDEC38FC9000A1
:1094DE00C6121BA7902882E0FFE4FCFDFE9000CA96
:1094EE00121BA79000CAE0FCA3E0FDA3E0FEA3E0E0
:1094FE00FF7810121B489000CA121BA79000C6E0FE
:10950E00FCA3E0FDA3E0FEA3E0FFA3E0F8A3E0F9D7
:10951E00A3E0FAA3E0FBEF2BFFEE3AFEED39FDECF4
:10952E0038FC9000C6121BA7902883E0FFE4FCFDD8
:10953E00FE9000CA121BA79000CAE0FCA3E0FDA398
:10954E00E0FEA3E0FF7818121B489000CA121BA77A
:10955E009000C6E0FCA3E0FDA3E0FEA3E0FFA3E0C5
:10956E00F8A3E0F9A3E0FAA3E0FBEF2BFFEE3AFE3F
:10957E00ED39FDEC38FC9000C6121BA79000C6E03A
:0A958E00FCA3E0FDA3E0FEA3E0FF54
:0195980022B0
:10BF0B000000000000000000000000000000000026
:10BF1B000000000000000000000000000000000016
:10BF2B00000000003D99E1FB3DE6D2F937341C9F40
:10BF3B00392B0436392B0436000000000960000051
:10BF4B0027100461A83000927C000063B3ED3B70B6
:10BF5B00B76B3B70B76B0105B510E80105C510E970
:10BF6B000105B9287B0105C9287C0105BD10ED0130
:10BF7B0005CD10EE0105C110EB0105D110EC01054B
:10BF8B00D510EA00927C0010F500927C0010FB1D8E
:10BF9B000004C30185300000000186000000000191
:10BFAB0087811D2BA70125000000000183000000E5
:09BFBB0000013200000000012C1D
:0791D0004405B1000000009E
:10EBB8007B017A0579B59001D674A5F0A3745AF053
:10EBC8007D387C0012EDCE9005EDEEF0A3EFF07BE2
:10EBD800017A0579B590017CE4F0A37438F0A37448
:09EBE80002F07FD87E000296DBEA
:10E961007B017A0579B59001D674A5F0A3745AF0AC
:10E971007D387C0012EDCE9005EDE06E7003A3E0D2
:10E981006F601A7B017A0579B59001D6E4F0A37422
:0DE991003AF0A37402F07DD87C0012CFE4B0
:01E99E002256
:106740009000C1121BB30000000012E9617B017AC6
:106750000079C59001D6E4F0A304F0A304F07DB95C
:106760007C0012CFE49000C5E09000CAB43C2674CF
:1067700010F0A374F4F07F6B7E2A7D707C0012CA47
:106780006E9000CA7410F0A374FAF07F6B7E2A7DBD
:10679000707C0080247410F0A374F4F07F307EA825
:1067A0007D617C0412CA6E9000CA7410F0A374FA62
:1067B000F07F307EA87D617C0412CA6EE49000B543
:1067C000F09000B5E0FF75F006A42492F582E43461
:1067D000BFF583E493FD7401939000BFCDF0A3ED6A
:1067E000F0EF75F006A4248EF582E434BFF5831231
:1067F0001B879000BB121BA79000B1121BB30000B7
:1068000000009000BFE0FEA3E0FF12944E9000B1A4
:10681000121BA79000BBE0FCA3E0FDA3E0FEA3E0F9
:10682000FF9000B1E0F8A3E0F9A3E0FAA3E0FBC316
:10683000121B2460349000BBE0FCA3E0FDA3E0FE4B
:10684000A3E0FF9000B1121BA79000B1E0FCA3E011
:10685000FDA3E0FEA3E0FF9000BFE0FBA3E09000FB
:10686000CACBF0A3EBF012CA6E9000B5E004F0E0E2
:10687000C3940250030267C1E49000B5F09000B5E4
:10688000E0FF75F005A42464F582E434BFF583E4E9
:1068900093FD7401939000B9CDF0A3EDF0EF75F086
:1068A00005A42461F582E434BFF583E493F974010F
:1068B00093FA7402939000B6C9F0A3EAF0A3E9F04A
:1068C0009000B1121BB3000000009000B9E0FEA3DD
:1068D000E0FF12944E9000B1121BA79000B9E0FEA9
:1068E000A3E0FF647B7003EE6428600AEF647C70B1
:1068F00003EE6428701B9000B6E0FBA3E0FAA3E06F
:10690000F9121B5B9000B4E06F605CE4FCFDFE805C
:10691000309000B6E0FBA3E0FAA3E0F9121B5B9015
:1069200000B1E0F8A3E0F9A3E0FAA3E0FBC3121B77
:106930002460349000B6E0FBA3E0FAA3E0F9121B58
:106940005B9000B1121BA79000B1E0FCA3E0FDA397
:10695000E0FEA3E0FF9000B9E0FBA3E09000CACB0B
:10696000F0A3EBF012CA6E9000B5E004F0E0C3941F
:0669700009500302687DDE
:0169760022FE
:088D5500900773EFF0A3EDF0AD
:108D5D0075CEA575CF5A0075CEA575CF5A00900763
:108D6D007E121BB300000000E49005EFF090077930
:108D7D00F0900773E0FF900779E0C39F4003028EE8
:108D8D009475CEA575CF5A0075CEA575CF5A0090A6
:108D9D0005EFE060FAE49005EFF075CEA575CF5ABA
:108DAD000075CEA575CF5A00900774E070097FD27B
:108DBD007E1012944E803AE4FB7D017F0B7E0112F2
:108DCD000000BF013478827C077D017B017A007938
:108DDD00007E007F0412182C7B017A0779827D04B6
:108DED0012C49B900782E0FCA3E0FDA3E0FEA3E08C
:108DFD00FF900775121BA7800790071BE04410F02A
:108E0D00E4FFFEFD7C80900775E0F8A3E0F9A3E098
:108E1D00FAA3E0FBC3121B244024900775E0FCA3CA
:108E2D00E0FDA3E0FEA3E0FF121AF3EF2401FFE43F
:108E3D003EFEE43DFDE43CFC900775121BA7900738
:108E4D0075E0FCA3E0FDA3E0FEA3E0FF90077A121E
:108E5D001BA790077EE0FCA3E0FDA3E0FEA3E0FFCF
:108E6D0090077AE0F8A3E0F9A3E0FAA3E0FBEF2B7B
:108E7D00FFEE3AFEED39FDEC38FCA3121BA790076F
:108E8D0079E004F0028D7E900773E0FBE4FAF9F8C7
:108E9D0090077EE0FCA3E0FDA3E0FEA3E0FF121A25
:108EAD006175CEA575CF5A0075CEA575CF5A000048
:018EBD002292
:088EBE00900786EFF0A3EDF030
:108EC60075CEA575CF5A0075CEA575CF5A009007F9
:108ED60091121BB300000000E49005EFF090078CA0
:108EE600F0900786E0FF90078CE0C39F4003028F57
:108EF600FD75CEA575CF5A0075CEA575CF5A0090D3
:108F060005EFE060FAE49005EFF075CEA575CF5A4F
:108F16000075CEA575CF5A00900787E070097FD4FB
:108F26007E1012944E803AE4FB7D017F0E7E011284
:108F36000000BF013478957C077D017B017A0079BA
:108F4600007E007F0412182C7B017A0779957D0438
:108F560012C49B900795E0FCA3E0FDA3E0FEA3E00E
:108F6600FF900788121BA7800790071BE04410F0AC
:108F7600E4FFFEFD7C80900788E0F8A3E0F9A3E01B
:108F8600FAA3E0FBC3121B244024900788E0FCA34D
:108F9600E0FDA3E0FEA3E0FF121AF3EF2401FFE4D5
:108FA6003EFEE43DFDE43CFC900788121BA79007BB
:108FB60088E0FCA3E0FDA3E0FEA3E0FF90078D128E
:108FC6001BA7900791E0FCA3E0FDA3E0FEA3E0FF52
:108FD60090078DE0F8A3E0F9A3E0FAA3E0FBEF2BFE
:108FE600FFEE3AFEED39FDEC38FCA3121BA7900705
:108FF6008CE004F0028EE7900786E0FBE4FAF9F8CD
:10900600900791E0FCA3E0FDA3E0FEA3E0FF121AA7
:109016006175CEA575CF5A0075CEA575CF5A0000DD
:019026002227
:10AA95009000B1E0FCA3E0FDA3E0FEA3E0FF900081
:10AAA500C9121BA79000B9E0FCA3E0FDA3E0FEA33B
:02AAB500E0FFC0
:10AAB700E412161C9000CD121BA79000C9E0FCA35E
:10AAC700E0FDA3E0FEA3E0FFE412161C9000D11204
:10AAD7001BA79000C9E0FCA3E0FDA3E0FEA3E0FFF5
:10AAE700E412161CA804A905AA06AB079000CDE03E
:10AAF700FCA3E0FDA3E0FEA3E0FF1213149000D136
:10AB0700E0F8A3E0F9A3E0FAA3E0FB121512900026
:10AB1700D5121BA7E4FFFE7D807C3F9000D5E0F8AF
:10AB2700A3E0F9A3E0FAA3E0FB121318A804A90510
:10AB3700AA06AB07E4FFFE7D807C3F12151290004A
:10AB4700D9121BA7E4FFFE7D807CBF9000D9E0F8F7
:10AB5700A3E0F9A3E0FAA3E0FB1213189000DD12BB
:10AB67001BA7E4FFFEFD7C4F9000DDE0F8A3E0F9B2
:0FAB7700A3E0FAA3E0FB12140912AE5912165A0A
:01AB860022AC
:06A4AA009000C5121BA783
:10A4B000E49000CFF07F32FEFDFC9000C9E0F8A3ED
:10A4C000E0F9A3E0FAA3E0FBC3121B2450037F00D2
:10A4D000229000C5E0FCA3E0FDA3E0FEA3E0FFA303
:10A4E000E0F8A3E0F9A3E0FAA3E0FBD3121B2440B9
:10A4F0004D9000C5E0F8A3E0F9A3E0FAA3E0FBA3C8
:10A50000E0FCA3E0FDA3E0FEA3E09BFFEE9AFEEDDE
:10A5100099FDEC98FCE47BE87A03F9F81219D690DF
:10A5200000C9E0F8A3E0F9A3E0FAA3E0FB121A6186
:10A530009000CDEEF0A3EFF0A37401F0804A9000FC
:10A54000C9E0F8A3E0F9A3E0FAA3E0FB9000C5E0BE
:10A55000FCA3E0FDA3E0FEA3E0C39BFFEE9AFEEDAB
:10A5600099FDEC98FCE47BE87A03F9F81219D6908F
:10A5700000C9E0F8A3E0F9A3E0FAA3E0FB121A6136
:10A580009000CDEEF0A3EFF09000CDE0FEA3E0FF51
:10A590007C0B7DC3121CC6E47BD07A07F9F8121A33
:0CA5A000619000CFE0B40104EF4480FFA4
:01A5AC00228C
:06A289009007DF121BA785
:10A28F0075CEA575CF5A0075CEA575CF5A0090071C
:10A29F00E3E07040A3121BB3000000009007E4E05E
:10A2AF00FCA3E0FDA3E0FEA3E0FF9000CA7410F052
:10A2BF00A374E9F012CA6E9007E4E0FCA3E0FDA3DB
:10A2CF00E0FEA3E0FF9000CA7410F0A374EEF0124A
:10A2DF00CA6E80469007E4121BB30000000090077F
:10A2EF00E4E0FCA3E0FDA3E0FEA3E0FF9000007418
:10A2FF0001F0A3742EF0E4A3F01200009007E4E045
:10A30F00FCA3E0FDA3E0FEA3E0FF9000007401F0CA
:10A31F00A3742FF0E4A3F01200009007E3E0FD7F99
:10A32F0002128D55C004C005C006C0079007DFE0BC
:10A33F00FCA3E0FDA3E0FEA3E0FF9000C9121BA762
:10A34F00D007D006D005D00412AAB79007E4121B8D
:10A35F00A775CEA575CF5A0075CEA575CF5A0090AB
:10A36F0007E3E07011A3E0FCA3E0FDA3E0FEA3E090
:10A37F00FF9005C580119007E4E0FCA3E0FDA3E08A
:0AA38F00FEA3E0FF9005B5121BA726
:01A3990022A1
:06B802009007E8121BA7ED
:10B80800C20575CEA575CF5A0075CEA575CF5A005D
:10B818009007ED121BB3000000009007ECE0701BCE
:10B82800A3E0FCA3E0FDA3E0FEA3E0FF9000CA7440
:10B8380010F0A374EEF012CA6E801E9007EDE0FCC3
:10B84800A3E0FDA3E0FEA3E0FF9000007401F0A3D5
:10B85800742FF0E4A3F01200009007ECE0FD7F03E2
:10B86800128D55C004C005C006C0079007E8E0FC6B
:10B87800A3E0FDA3E0FEA3E0FF9000C9121BA7D040
:10B8880007D006D005D00412A4AAE4FCFDFE900758
:10B89800ED121BA775CEA575CF5A0075CEA575CF2D
:10B8A8005A009007ECE07011A3E0FCA3E0FDA3E0D0
:10B8B800FEA3E0FF9005CD80119007EDE0FCA3E02A
:0DB8C800FDA3E0FEA3E0FF9005BD121BA74D
:01B8D5002250
:0674F1009007F1121BA739
:1074F70075CEA575CF5A0075CEA575CF5A009007E2
:10750700F6121BB3000000009007F5E0701BA3E024
:10751700FCA3E0FDA3E0FEA3E0FF9000CA7428F0FF
:10752700A3747CF012CA6E80169000007401F0A359
:107537007484F0E4A3F07FA9FE7D0BFC12000075B4
:10754700CEA575CF5A0075CEA575CF5A00E4900524
:10755700EFF09005EFE060FAE49005EFF09007F5A3
:10756700E0FD7F02128D55C004C005C006C007901C
:1075770007F1E0FCA3E0FDA3E0FEA3E0FF9000C954
:10758700121BA7D007D006D005D00412A4AAE4FC8A
:10759700FDFE9007F6121BA775CEA575CF5A00758D
:1075A700CEA575CF5A009007F5E0700FA3E0FCA3B6
:1075B700E0FDA3E0FEA3E0FF0276BF9007F6A3A3DA
:1075C700A3E05480FFEF9007F66066E0FCA3E0FDC0
:1075D700A3E0FEA3E0547FFFEC9007F6121BA790F1
:1075E70007F6E0FCA3E0FDA3E0FEA3E0FFE412162C
:1075F7001C7BCD7ACC798C783F12140912165A90DD
:1076070007F6121BA79007F6E0FCA3E0FDA3E0FE38
:10761700A3E0FF7808121B489007F6121BA79007F4
:10762700F6E0FCA3E0FDA3E0FEA3E0FFED44048049
:107637004DE0FCA3E0FDA3E0FEA3E0FFE412161C6F
:107647007BCD7ACC798C783F12140912165A9007A1
:10765700F6121BA79007F6E0FCA3E0FDA3E0FEA34C
:10766700E0FF7808121B489007F6121BA79007F651
:10767700E0FCA3E0FDA3E0FEA3E0FFED54FBFDEC7F
:107687009007F6121BA79005C9121BB3000B00A9A0
:107697009005C9E0FCA3E0FDA3E0FEA3E0FF90078F
:1076A700F6E0F8A3E0F9A3E0FAA3E0FBEF4BFFEE67
:0E76B7004AFEED49FDEC48FC9005C9121BA7E8
:0176C50022A2
:1082AE00900738EEF0A3EFF0E024E8FF900738E0F7
:1082BE003403AB07FA3395E0F9F8E4FFFEFD7C805A
:1082CE00121A6190073E121BA7900739E024E8FFAF
:1082DE00900738E03403AB07FA3395E0F9F8E4FF82
:1082EE00FEFD7C80121A61AF0390073AEAF0A3EF0D
:1082FE00F090073AE0FEA3E0FF7C037DE81218EE53
:10830E00900738E0FAA3E0FB24E8FDEA3403FC1200
:10831E001900A3EEF0A3EFF0AF03AE02EE3395E03B
:10832E00FDFC90073EE0F8A3E0F9A3E0FAA3E0FB22
:10833E001219D6C004A905AA06AB0790073AE0FCAD
:10834E00A3E0FD900738E0FEA3E0FF1218EE7C03D9
:10835E007DE8121900E4FCFDD000EB2FFFEA3EFE93
:10836E00ED39FDEC38FC900742121BA7900739E05F
:10837E0024E8FF900738E03403AB07FA3395E0F9B1
:10838E00F8900734E0FCA3E0FDA3E0FEA3E0FF12AB
:10839E00E7D5900746121BA7900739E024E8FF9017
:1083AE000738E03403AB07FA3395E0F9F890073459
:1083BE00E0FCA3E0FDA3E0FEA3E0FF12E7D5AE02D2
:1083CE00AF0390073CEEF0A3EFF07C037DE81218AC
:1083DE00EE900739E024E8FD900738E03403FC12F4
:1083EE00190090073CEEF0A3EFF0E47FE87E03FD6A
:1083FE00FC900746E0F8A3E0F9A3E0FAA3E0FB1235
:10840E0019D6A804A905AA06AB0790073CE0FEA35F
:10841E00E0FFE4FCFDEB2FFFEA3EFEED39FDEC380C
:10842E00FC900742E0F8A3E0F9A3E0FAA3E0FBC357
:0C843E00EF9BFFEE9AFEED99FDEC98FC20
:01844A00220F
:10A7AC007FFD7E1012944EA804A905AA06AB07E4FF
:10A7BC00FFFE7D7DFC121A61900833EEF0A3EFF0E2
:10A7CC00E4FCFD9005B1E0F8A3E0F9A3E0FAA3E006
:10A7DC00FBC3121B24700302A8A8900833E0FAA351
:10A7EC00E0FBFFAE02E4FCFD9005B1121BA7D3EB1E
:10A7FC0094F4EA9401400F900834E0240CFF900884
:10A80C0033E034FE801F900833E0FEA3E0FFC394D6
:10A81C00F4EE94015057C374F49FFF74019EFEC371
:10A82C00E49FFFE49EFEEF25E0FFEE33FEC006C082
:10A83C00079005B5E0FCA3E0FDA3E0FEA3E0FF90CC
:10A84C000734121BA7D007D0061282AE9005C51292
:10A85C001BA79005C5E0FCA3E0FDA3E0FEA3E0FF71
:10A86C009000CA7410F0A374E9F002CA6E9005B59A
:10A87C00E0FCA3E0FDA3E0FEA3E0FF9000CA74108F
:10A88C00F0A374E9F012CA6E9005B5E0FCA3E0FDEC
:0CA89C00A3E0FEA3E0FF9005C5121BA77F
:01A8A800228D
:102EAC0090069D121BB30000000020AF0302368871
:102EBC009005F07455F090BF55121B879006A11227
:102ECC001BA7E47F19FEFDFC9006A1E0F8A3E0F936
:102EDC00A3E0FAA3E0FB1219D6E47B0AFAF9F81284
:102EEC001A619006A7121BA7E47F46FEFDFC900614
:102EFC00A1E0F8A3E0F9A3E0FAA3E0FB1219D6E4F1
:102F0C007B64FAF9F8121A619006AB121BA7E47FE6
:102F1C0023FEFDFC9006A1E0F8A3E0F9A3E0FAA3E0
:102F2C00E0FB1219D6E47B64FAF9F8121A619006E8
:102F3C00AF121BA7E47F03FEFDFC9006A1E0F8A3F3
:102F4C00E0F9A3E0FAA3E0FB1219D6E47B64FAF9EA
:102F5C00F8121A619006B3121BA775CEA575CF5A3D
:102F6C000075CEA575CF5A00E4FD7F04128D5590E7
:102F7C0006B7121BA79006A7E0FCA3E0FDA3E0FE9A
:102F8C00A3E0FF9006B7E0F8A3E0F9A3E0FAA3E012
:102F9C00FBD3121B244008E49006A5F002302A90C3
:102FAC0006ABE0FCA3E0FDA3E0FEA3E0FF9006B7B8
:102FBC00E0F8A3E0F9A3E0FAA3E0FBD3121B244052
:102FCC00089006A57401F080559006AFE0FCA3E0D4
:102FDC00FDA3E0FEA3E0FF9006B7E0F8A3E0F9A3A1
:102FEC00E0FAA3E0FBD3121B2440089006A5740260
:102FFC00F0802B9006B3E0FCA3E0FDA3E0FEA3E081
:10300C00FFA3E0F8A3E0F9A3E0FAA3E0FBD3121BC3
:10301C00249006A540057403F080037408F0900614
:10302C00A5E070199005C5121BB3000000009005B7
:10303C00C9121BB3000000007FA01203AE9006A5BE
:10304C00E0640160030232759006A1E0FCA3E0FD90
:10305C00A3E0FEA3E0FFE49007E3F012A289900640
:10306C0099121BB300000000E4900694F07F1E7EC2
:10307C000012F2D17FD57E1012944E900695121B41
:10308C00A7E4FFFEFD7C80900695E0F8A3E0F9A391
:10309C00E0FAA3E0FBC3121B244024900695E0FC4D
:1030AC00A3E0FDA3E0FEA3E0FF121AF3EF2401FF5F
:1030BC00E43EFEE43DFDE43CFC900695121BA7901B
:1030CC000699E0FCA3E0FDA3E0FEA3E0FF900695CB
:1030DC00E0F8A3E0F9A3E0FAA3E0FBEF2BFFEE3A54
:1030EC00FEED39FDEC38FCA3121BA775CEA575CFF0
:1030FC005A0075CEA575CF5A00900694E004F0E006
:10310C00C394085003023079900699E0FCA3E0FDCB
:10311C00A3E0FEA3E0FFE47B08FAF9F8121A619031
:10312C000699121BA7900699E0FCA3E0FDA3E0FE14
:10313C00A3E0FFE412161CC004C005C006C0079033
:10314C00BF49121B87E412161CD003D002D001D049
:10315C00001215129005E9121BA7900699121BB3C9
:10316C0000000000E4900694F07F1E7E0012F2D165
:10317C007FD37E1012944E900695121BA7E4FFFE8F
:10318C00FD7C80900695E0F8A3E0F9A3E0FAA3E0BB
:10319C00FBC3121B244024900695E0FCA3E0FDA386
:1031AC00E0FEA3E0FF121AF3EF2401FFE43EFEE47D
:1031BC003DFDE43CFC900695121BA7900699E0FCA3
:1031CC00A3E0FDA3E0FEA3E0FF900695E0F8A3E0EA
:1031DC00F9A3E0FAA3E0FBEF2BFFEE3AFEED39FD8D
:1031EC00EC38FCA3121BA775CEA575CF5A0075CE73
:1031FC00A575CF5A00900694E004F0E0C3940850F3
:10320C0003023175900699E0FCA3E0FDA3E0FEA358
:10321C00E0FFE47B08FAF9F8121A61900699121B88
:10322C00A7900699E0FCA3E0FDA3E0FEA3E0FFE479
:10323C0012161CC004C005C006C00790BF45121B67
:10324C0087E412161CD003D002D001D00012151244
:10325C009005E1121BA77FA11203AE75CEA575CF09
:10326C005A0075CEA575CF5A009006A5E0B4023869
:10327C009006A1E0FCA3E0FDA3E0FEA3E0FFE47B4D
:10328C0002FAF9F8121A619006A1121BA79006A176
:10329C00E0FCA3E0FDA3E0FEA3E0FFE49007F5F063
:1032AC001274F17FA21203AE9006A5E0B40338901D
:1032BC0006A1E0FCA3E0FDA3E0FEA3E0FFE47B1489
:1032CC00FAF9F8121A619006A1121BA79006A1E058
:1032DC00FCA3E0FDA3E0FEA3E0FFE49007ECF012FA
:1032EC00B8027FA31203AE9006A6E0B404199005B1
:1032FC00C5121BB3000000009005C9121BB3000BD4
:10330C0000A97FA41203AE9006A6E0640560030238
:10331C0035959007E304F07FED7EB37D637C00125E
:10332C00A289900699121BB300000000E490069449
:10333C00F0E4FB7D017F0E7E01120000BF013478AA
:10334C00BB7C067D017B017A0079007E007F041234
:10335C00182C7B017A0679BB7D0412C49B9006BBAA
:10336C00E0FCA3E0FDA3E0FEA3E0FF900695121B9A
:10337C00A7800790071BE04410F0E4FFFEFD7C8063
:10338C00900695E0F8A3E0F9A3E0FAA3E0FBC312E2
:10339C001B244024900695E0FCA3E0FDA3E0FEA3D3
:1033AC00E0FF121AF3EF2401FFE43EFEE43DFDE4DE
:1033BC003CFC900695121BA7900699E0FCA3E0FD3F
:1033CC00A3E0FEA3E0FF900695E0F8A3E0F9A3E0EC
:1033DC00FAA3E0FBEF2BFFEE3AFEED39FDEC38FCE7
:1033EC00A3121BA775CEA575CF5A0075CEA575CFA8
:1033FC005A00900694E004F0E0C3940850030233A2
:10340C003D900699E0FCA3E0FDA3E0FEA3E0FFE401
:10341C007B08FAF9F8121A61900699121BA790060C
:10342C0099E0FCA3E0FDA3E0FEA3E0FFE412161C70
:10343C00C004C005C006C00790BF49121B87E41228
:10344C00161CD003D002D001D0001215129005E941
:10345C00121BA7900699121BB300000000E4900603
:10346C0094F0E4FB7D017F0D7E01120000BF01345E
:10347C0078BB7C067D017B017A0079007E007F049D
:10348C0012182C7B017A0679BB7D0412C49B900622
:10349C00BBE0FCA3E0FDA3E0FEA3E0FF90069512C9
:1034AC001BA7800790071BE04410F0E4FFFEFD7C97
:1034BC0080900695E0F8A3E0F9A3E0FAA3E0FBC343
:1034CC00121B244024900695E0FCA3E0FDA3E0FE33
:1034DC00A3E0FF121AF3EF2401FFE43EFEE43DFDEE
:1034EC00E43CFC900695121BA7900699E0FCA3E027
:1034FC00FDA3E0FEA3E0FF900695E0F8A3E0F9A39E
:10350C00E0FAA3E0FBEF2BFFEE3AFEED39FDEC38D1
:10351C00FCA3121BA775CEA575CF5A0075CEA57549
:10352C00CF5A00900694E004F0E0C39408500302D4
:10353C00346E900699E0FCA3E0FDA3E0FEA3E0FF4F
:10354C00E47B08FAF9F8121A61900699121BA790FD
:10355C000699E0FCA3E0FDA3E0FEA3E0FFE4121655
:10356C001CC004C005C006C00790BF45121B87E4F1
:10357C0012161CD003D002D001D0001215129005E7
:10358C00E1121BA77FA51203AE9006A6E0B4063984
:10359C009006A1E0FCA3E0FDA3E0FEA3E0FFE47B2A
:1035AC0002FAF9F8121A619006A1121BA79006A153
:1035BC00E0FCA3E0FDA3E0FEA3E0FF9007F574019F
:1035CC00F01274F17FA61203AE9006A6E0B4073990
:1035DC009006A1E0FCA3E0FDA3E0FEA3E0FFE47BEA
:1035EC0014FAF9F8121A619006A1121BA79006A101
:1035FC00E0FCA3E0FDA3E0FEA3E0FF9007EC740168
:10360C00F012B8027FA71203AE9006A6E064087011
:10361C00529006A5E06408704A12DE6175CEA5755D
:10362C00CF5A0075CEA575CF5A0075CEA575CF5A59
:10363C000075CEA575CF5A0012A39A900565E0755A
:10364C00F00AA424AAF582E43405F583E4F0A3F08F
:10365C0075CEA575CF5A0075CEA575CF5A007FA82B
:10366C001203AE12EBB812674075CEA575CF5A0097
:0C367C0075CEA575CF5A00E49005F0F063
:01368800221F
:0B531200900093EBF0A3EAF0A3E9F099
:10531D00E49000A2F0900093E0FBA3E0FAA3E0F983
:10532D0090000D12186BFF12EB1C9000A3EFF09084
:10533D000093E0FBA3E0FAA3E0F990000E12186BC6
:10534D00FF12EB1CEFC454F0FEC006900093E0FB7F
:10535D00A3E0FAA3E0F990000F12186BFF12EB1CFB
:10536D00D0E02F9000A4F0900093E0FBA3E0FAA30F
:10537D00E0F990001112186BFF12EB1CEFC454F002
:10538D00FEC006900093E0FBA3E0FAA3E0F99000C5
:10539D001212186BFF12EB1CD0E02F9000A5F07BC2
:1053AD00017A0079A212BB36900096121BA7E490E9
:1053BD0000A2F0900093E0FBA3E0FAA3E0F99000C7
:1053CD001312186BFF12EB1C9000A3EFF0900093DB
:1053DD00E0FBA3E0FAA3E0F990001412186BFF12A2
:1053ED00EB1CEFC454F0FEC006900093E0FBA3E06D
:1053FD00FAA3E0F990001612186BFF12EB1CD0E027
:10540D002F9000A4F0900093E0FBA3E0FAA3E0F945
:10541D0090001712186BFF12EB1CEFC454F0FEC076
:10542D0006900093E0FBA3E0FAA3E0F990001812B8
:10543D00186BFF12EB1CD0E02F9000A5F07B017ACA
:10544D000079A212BB3690009A121BA7E49000A21D
:10545D00F0900093E0FBA3E0FAA3E0F9900019129D
:10546D00186BFF12EB1C9000A3EFF0900093E0FB84
:10547D00A3E0FAA3E0F990001A12186BFF12EB1CCF
:10548D00EFC454F0FEC006900093E0FBA3E0FAA336
:10549D00E0F990001B12186BFF12EB1CD0E02F905F
:1054AD0000A4F0900093E0FBA3E0FAA3E0F99000D4
:1054BD001C12186BFF12EB1CEFC454F0FEC00690CB
:1054CD000093E0FBA3E0FAA3E0F990001E12186B25
:1054DD00FF12EB1CD0E02F9000A5F07B017A007934
:1054ED00A212BB3690009E121BA7900093E0FBA367
:1054FD00E0FAA3E0241FF9E43AFA9001DFEBF0A300
:10550D00EAF0A3E9F0A3E4F0A37406F07B017A00BE
:10551D0079A612E18FE49000ACF07B017A0079A6B8
:10552D0012E6B69000AD121BA7900578E0FCA3E043
:10553D00FDA3E0FEA3E0FF121C8C556F0000FEB032
:10554D0055B50000FEB155C80000FEB2556F000004
:10555D00FEB355B50000FEB455C80000FEB5000001
:10556D0055ED9000ADE0FCA3E0FDA3E0FEA3E0FF50
:10557D0012981575CEA575CF5A0075CEA575CF5A53
:10558D0000900096E0FCA3E0FDA3E0FEA3E0FF90F9
:10559D0000B5121BA790009AE0FCA3E0FDA3E0FE6E
:1055AD00A3E0FF125B4380249000ADE0FCA3E0FD7F
:1055BD00A3E0FEA3E0FF129F2480119000ADE0FC5C
:1055CD00A3E0FDA3E0FEA3E0FF127F6512EBB8128E
:1055DD00674075CEA575CF5A0075CEA575CF5A000B
:0155ED00229B
:069815009000B1121BA738
:10981B0075CEA575CF5A0075CEA575CF5A00E4FF4E
:10982B00FEFDFC9000B1E0F8A3E0F9A3E0FAA3E0A1
:10983B00FB1215AFE4FFFE7DC87C429000B1E0F84F
:10984B00A3E0F9A3E0FAA3E0FB1213187B007A5014
:10985B0079C3784712140912165A9000B5121BA738
:10986B00E47FB37EFEFDFC900578E0F8A3E0F9A35E
:10987B00E0FAA3E0FBC3121B2470517FE87E1012A9
:10988B00944E9000B9121BA79000C9121BB30098FD
:10989B0096809000B512AAAC9000B9121BA790004D
:1098AB00B9E0FCA3E0FDA3E0FEA3E0FF9000CA74C7
:1098BB0010F0A374E8F012CA6E9000B9E0FCA3E0BC
:1098CB00FDA3E0FEA3E0FF9005B5806AE47FB07EC8
:1098DB00FEFDFC900578E0F8A3E0F9A3E0FAA3E025
:1098EB00FBC3121B2470527FE97E1012944E900022
:1098FB00B9121BA79000C9121BB300989680900059
:10990B00B512AAAC9000B9121BA79000B9E0FCA34A
:10991B00E0FDA3E0FEA3E0FF9000CA7410F0A37477
:10992B00E9F012CA6E9000B9E0FCA3E0FDA3E0FEE3
:09993B00A3E0FF9005C5121BA773
:019944002200
:065B43009000B1121BA747
:105B4900E47FB07EFEFDFC900578E0F8A3E0F9A3C0
:105B5900E0FAA3E0FBC3121B246003025C627FD955
:105B69007E1012944E9000B9121BA79000B9E0FC68
:105B7900A3E0FDA3E0FEA3E0FFE412161C9005E5F7
:105B8900E0F8A3E0F9A3E0FAA3E0FB121409121666
:105B99005A9000B9121BA77FEB7E1012944E900009
:105BA900BD121BA7E4FFFEFDFC9000BDE0F8A3E0D9
:105BB900F9A3E0FAA3E0FBC3121B24701D12AA95F6
:105BC9009000BD121BA79000BDE0FCA3E0FDA3E07F
:105BD900FEA3E0FF9005C1121BA77FD87E10129487
:105BE9004E9000B9121BA7E4FFFE7D207C41900571
:105BF900E1E0F8A3E0F9A3E0FAA3E0FB121409C07D
:105C090004C005C006C0079000B9E0FCA3E0FDA3ED
:105C1900E0FEA3E0FFE412161CD003D002D001D0AD
:105C29000012140912165A9000B9121BA77FEA7EB6
:105C39001012944E9000BD121BA7E4FFFEFDFC90CC
:105C490000BDE0F8A3E0F9A3E0FAA3E0FBC3121B4F
:105C5900246003025DB0025D75E47FB37EFEFDFC46
:105C6900900578E0F8A3E0F9A3E0FAA3E0FBC312FA
:105C79001B246003025DB07FDA7E1012944E9000FF
:105C8900B9121BA79000B9E0FCA3E0FDA3E0FEA3B5
:105C9900E0FFE412161C9005E9E0F8A3E0F9A3E09F
:105CA900FAA3E0FB12140912165A9000B9121BA7A5
:105CB9007FEC7E1012944E9000BD121BA7E4FFFEEC
:105CC900FDFC9000BDE0F8A3E0F9A3E0FAA3E0FB36
:105CD900C3121B24701D12AA959000BD121BA79018
:105CE90000BDE0FCA3E0FDA3E0FEA3E0FF9005D129
:105CF900121BA77FD87E1012944E9000B9121BA7D1
:105D0900E4FFFE7D207C419005E1E0F8A3E0F9A3E2
:105D1900E0FAA3E0FB121409C004C005C006C007DD
:105D29009000B9E0FCA3E0FDA3E0FEA3E0FFE412CC
:105D3900161CD003D002D001D00012140912165A31
:105D49009000B9121BA77FEA7E1012944E9000BDF5
:105D5900121BA7E4FFFEFDFC9000BDE0F8A3E0F9EB
:105D6900A3E0FAA3E0FBC3121B24703B9000B51219
:105D7900AA989000BD121BA79000BDE0FCA3E0FD0E
:105D8900A3E0FEA3E0FF9005D5121BA79000BDE09C
:105D9900FCA3E0FDA3E0FEA3E0FF9000CA7410F0AD
:075DA900A374EAF012CA6EB8
:015DB00022D0
:069F24009000B1121BA722
:109F2A00E4FFFEFDFC9000B1E0F8A3E0F9A3E0FA3B
:109F3A00A3E0FB1215AFE4FFFE7DC87C429000B19E
:109F4A00E0F8A3E0F9A3E0FAA3E0FB1213187B0000
:109F5A007A5079C3784712140912165A9000B5122A
:109F6A001BA79000C9121BB3009896809000B5E019
:109F7A00FCA3E0FDA3E0FEA3E0FF12A4AAE4FCFD1B
:109F8A00FE9000B9121BA7E47FB47EFEFDFC90058B
:109F9A0078E0F8A3E0F9A3E0FAA3E0FBC3121B24DC
:109FAA00703F9000B9E0FCA3E0FDA3E0FEA3E0FF50
:109FBA009005B9121BA77B017A0079BD9000B9E020
:109FCA00FCA3E0FDA3E0FEA3E0FF12BFC49000C023
:109FDA00E0FFE4FCFDFE9000CA7428F0A3747B80C5
:109FEA0058E47FB17EFEFDFC900578E0F8A3E0F925
:109FFA00A3E0FAA3E0FBC3121B2470419000B9E06E
:10A00A00FCA3E0FDA3E0FEA3E0FF9005C9121BA795
:10A01A007B017A0079C19000B9E0FCA3E0FDA3E0DE
:10A02A00FEA3E0FF12BFC49000C4E0FFE4FCFDFE03
:0DA03A009000CA7428F0A3747CF012CA6E66
:01A0470022F6
:067F65009000B1121BA701
:107F6B00E47FB57EFEFDFC900578E0F8A3E0F9A375
:107F7B00E0FAA3E0FBC3121B24600302803B7FD615
:107F8B007E1012944E9000BE121BA79000BEE0FC18
:107F9B00A3E0FDA3E0FEA3E0FFEC12161C9000B1E2
:107FAB00E0F8A3E0F9A3E0FAA3E0FB121409E4FB69
:107FBB00FA79C8784212151212165A9000BA121B8F
:107FCB00A7E49000B9F0FFFEFDFCA3E0F8A3E0F9F5
:107FDB00A3E0FAA3E0FBD3121B0E9000BAE0FCA3C4
:107FEB00E0FDA3E0FEA3E04003FF800F24FFFFEEC4
:107FFB0034FFFEED34FFFDEC34FFFC9000B5121B9B
:10800B00A79000B5E0FCA3E0FDA3E0FEA3E0FF908A
:10801B0000CA7410F0A374EDF012CA6E9000B5E0B4
:10802B00FCA3E0FDA3E0FEA3E0FF9005BD028108E9
:10803B00E47FB27EFEFDFC900578E0F8A3E0F9A3A7
:10804B00E0FAA3E0FBC3121B24600302810B7FD772
:10805B007E1012944E9000BE121BA79000BEE0FC47
:10806B00A3E0FDA3E0FEA3E0FFEC12161C9000B111
:10807B00E0F8A3E0F9A3E0FAA3E0FB121409E4FB98
:10808B00FA79C8784212151212165A9000BA121BBE
:10809B00A7E49000B9F0FFFEFDFCA3E0F8A3E0F924
:1080AB00A3E0FAA3E0FBD3121B0E9000BAE0FCA3F3
:1080BB00E0FDA3E0FEA3E04003FF800F24FFFFEEF3
:1080CB0034FFFEED34FFFDEC34FFFC9000B5121BCA
:1080DB00A79000B5E0FCA3E0FDA3E0FEA3E0FF90BA
:1080EB0000CA7410F0A374EEF012CA6E9000B5E0E3
:1080FB00FCA3E0FDA3E0FEA3E0FF9005CD121BA7C0
:01810B002251
:03F46A0002E96153
:105DB100900000EFF0BF030C9028637480F0A3E41F
:105DC100F0D28422C2849000CA7428F0A3747DF0BA
:105DD1007F007E007D007C0012CA6E9000CA74288C
:105DE100F0A37478F07F007E007D007C0012CA6E03
:105DF1009028637480F0A3E4F0900000E07023FF2A
:105E0100FE7D32FC12C12F902864E04407F090001F
:105E1100CA7410F0A374EFF07FBC7E747D937C880C
:105E21008031900000E0FF64016004EFB402297F3B
:105E3100007E807D0C7C0012C12F902864E0440319
:105E4100F09000CA7410F0A374EFF07F9C7E3C7D4B
:105E51001D7C9112CA6E800312F3C79028587449B1
:105E6100F09000CA7410F0A374F4F07F307EA87D26
:105E7100617C0412CA6E9000CA7410F0A374FAF027
:105E81007F107EC27DDE7C0612CA6E9000CA74103D
:105E9100F0A374F5F07F017E007D007C0012CA6ED4
:105EA1009000CA7410F0A374FBF07F017E007D00A6
:105EB1007C0012CA6E9000CA7428F0A37478F07F37
:105EC100577E007D007C0012CA6E9000CA7428F0D3
:105ED100A37479F07F007E007D007C0012CA6E9071
:105EE10000CA7428F0A3747AF07F707E007D007C74
:105EF1000012CA6E9000CA7410F0A374F0F07F0013
:105F01007E007D007C0012CA6E9000CA7410F0A35E
:105F110074F1F07F007E007D007C0012CA6E90005B
:105F2100CA7410F0A374F2F07F007E007D007C0043
:105F310012CA6E9000CA7410F0A374F3F07F007E51
:105F4100007D007C0012CA6E9000CA7410F0A37428
:105F5100F6F07F007E007D007C0012CA6E9000CAC0
:105F61007410F0A374F7F07F007E007D007C0012B6
:105F7100CA6E9000CA7410F0A374F8F07F007E001E
:105F81007D007C0012CA6E9000CA7410F0A374F9EF
:105F9100F07F007E007D007C0012CA6E9000CA7402
:105FA10028F0A3747DF07FDE7E007D007C0012CAA4
:105FB1006E9000CA7428F0A3747BF07F007E007D90
:105FC100007C0012CA6E9000CA7428F0A3747CF0A1
:105FD1007F007E007D007C0012CA6E9000CA74288A
:105FE100F0A3747EF07F017E007D007C0012CA6EFA
:105FF1009000CA7410F0A374FCF07F017E007D0054
:106001007C0012CA6E53A4DF43AD2043E8029028FE
:0C6011004BE04480F09008227403F02261
:0590270090000CEFF0C9
:10902C006401704E7FD37E1012944E90000D121B73
:10903C00A7E4FFFEFD7C8090000DE0F8A3E0F9A30F
:10904C00E0FAA3E0FBC3121B24402490000DE0FCCB
:10905C00A3E0FDA3E0FEA3E0FF121AF3EF2401FF4F
:10906C00E43EFEE43DFDE43CFC90000D121BA70227
:10907C00910F90000CE064026003029151FB7D01A2
:10908C007F1B7E01120000BF013478197C007D012A
:10909C007B017A0079007E007F0412182C7B017A08
:1090AC000079197D0412C49B900019E0FCA3E0FD2B
:1090BC00A3E0FEA3E0FF90000D121BA78007900712
:1090CC001BE04410F0E4FFFEFD7C8090000DE0F806
:1090DC00A3E0F9A3E0FAA3E0FBC3121B2440249005
:1090EC00000DE0FCA3E0FDA3E0FEA3E0FF121AF3E9
:1090FC00EF2401FFE43EFEE43DFDE43CFC90000D5A
:10910C00121BA790000DE0FCA3E0FDA3E0FEA3E082
:10911C00FFE412161C9005E1E0F8A3E0F9A3E0FAD5
:10912C00A3E0FB121409900015121BA7900015E088
:10913C00FCA3E0FDA3E0FEA3E0FF12165A90001181
:10914C00121BA7800A900011121BB300000000E450
:10915C007F32FEFDFC900011E0F8A3E0F9A3E0FAE9
:10916C00A3E0FBC3121B24500A900011121BB30086
:10917C00000000900011E0FCA3E0FDA3E0FEA3E0E2
:01918C00FFE3
:01918D0022BF
:059CD00090000CEFF014
:109CD5006401704D7FD57E1012944E90000D121BBD
:109CE500A7E4FFFEFD7C8090000DE0F8A3E0F9A35A
:109CF500E0FAA3E0FBC3121B24407C90000DE0FCBE
:109D0500A3E0FDA3E0FEA3E0FF121AF3EF2401FF99
:109D1500E43EFEE43DFDE43CFC90000D121BA780F3
:109D25005690000CE064026003029DBE7FD47E1055
:109D350012944E90000D121BA7E4FFFEFD7C80904F
:109D4500000DE0F8A3E0F9A3E0FAA3E0FBC3121BC2
:109D550024402490000DE0FCA3E0FDA3E0FEA3E079
:109D6500FF121AF3EF2401FFE43EFEE43DFDE43C5F
:109D7500FC90000D121BA790000DE0FCA3E0FDA3D5
:109D8500E0FEA3E0FFE412161C9005E9E0F8A3E06D
:109D9500F9A3E0FAA3E0FB121409900015121BA722
:109DA500900015E0FCA3E0FDA3E0FEA3E0FF121682
:109DB5005A900011121BA7800A900011121BB300C4
:109DC500000000E47F0AFEFDFC900011E0F8A3E02E
:109DD500F9A3E0FAA3E0FBC3121B24500A9000117B
:109DE500121BB300000000900011E0FCA3E0FDA3EE
:059DF500E0FEA3E0FF09
:019DFA002246
:056B890090074AEFF047
:106B8E006003026C157FD17E1012944E90074B124B
:106B9E001BA7E4FB7D017F197E01120000BF0134AB
:106BAE00785B7C077D017B017A0079007E007F0493
:106BBE0012182C7B017A07795B7D0412C49B900717
:106BCE005BE0FCA3E0FDA3E0FEA3E0FF90074F1205
:106BDE001BA7800790071BE04410F090074FE0FCC6
:106BEE00A3E0FDA3E0FEA3E0FF90074BE0F8A3E0D7
:106BFE00F9A3E0FAA3E02FFFEA3EFEE93DFDE83CF3
:106C0E00FC900753121BA790074AE0B4012C7FD1CA
:106C1E007E1012944E90074B121BA7E4FFFEFD7CD4
:106C2E008090074BE0F8A3E0F9A3E0FAA3E0FBC3E2
:106C3E00121B245003026CE5806D90074AE064023B
:106C4E006003026CDBFB7D017F197E01120000BF29
:106C5E000134785B7C077D017B017A0079007E0030
:106C6E007F0412182C7B017A07795B7D0412C49B7A
:106C7E0090075BE0FCA3E0FDA3E0FEA3E0FF90071E
:106C8E004B121BA7800790071BE04410F0E4FFFE99
:106C9E00FD7C8090074BE0F8A3E0F9A3E0FAA3E0B7
:106CAE00FBC3121B24403090074BE0FCA3E0FDA376
:106CBE00E0FEA3E0FF121AF3EF2401FFE43EFEE430
:106CCE003DFDE43CFC90074B121BA7800A90074B3E
:106CDE00121BB300000000E47F867E19FDFC9007B6
:106CEE004BE0F8A3E0F9A3E0FAA3E0FBC3121B24E8
:106CFE00500C900753121BB30000000080639007E6
:106D0E004AE0B4011FA3E0FCA3E0FDA3E0FEA3E074
:106D1E00FFE412161C90BF59121B9712140990070C
:106D2E0057121BA790074AE0B4021FA3E0FCA3E092
:106D3E00FDA3E0FEA3E0FFE412161C90BF59121B48
:106D4E0097121409900757121BA7900757E0FCA340
:106D5E00E0FDA3E0FEA3E0FF12165A900753121BAC
:0F6D6E00A7900753E0FCA3E0FDA3E0FEA3E0FF26
:016D7D0022F3
:05B4A00090000CEFF02C
:10B4A500BF01247FFD7E1012944E90000D121BA744
:10B4B50090000DE0F8A3E0F9A3E0FAA3E0FBE4FFB8
:10B4C500FE7DE27C04805D90000CE064027069FB07
:10B4D5007D017F9A7E01120000EF6401705178159D
:10B4E5007C007D017B017A007900FE7F0412182C17
:10B4F5007B017A0079157D0412C49B900015E0FC50
:10B50500A3E0FDA3E0FEA3E0FF90000D121BA790B2
:10B51500000DE0F8A3E0F9A3E0FAA3E0FBE4FFFEE9
:10B525007D887C13121A61900011121BA78013905D
:10B53500071BE04410F0800A900011121BB30000B5
:10B545000000900011E0FCA3E0FDA3E0FEA3E0FFF6
:10B55500E412161C7B9A7A997999783F121409128C
:10B56500165A900011121BA7900011E0FCA3E0FDF4
:06B57500A3E0FEA3E0FFCD
:01B57B0022AD
:1076C600900010121BB300000000900010E0F8A319
:1076D600E0F9A3E0FAA3E0FBC000C001C002C003CA
:1076E6007FD17E1012944ED003D002D001D000EB91
:1076F6002FFFEA3EFEE93DFDE83CFC900010121B20
:10770600A7900010E0F8A3E0F9A3E0FAA3E0FBC01D
:1077160000C001C002C0037FD27E1012944ED00377
:10772600D002D001D000EB2FFFEA3EFEE93DFDE896
:107736003CFC900010121BA7E4FFFEFD7C8090002D
:1077460010E0F8A3E0F9A3E0FAA3E0FBC3121B24C0
:10775600900823E0402954EFF0900010E0FCA3E0ED
:10776600FDA3E0FEA3E0FF121AF3EF2401FFE43EBF
:10777600FEE43DFDE43CFC900010121BA780034490
:1077860010F0900010E0FCA3E0FDA3E0FEA3E0FFF4
:1077960090000C121BA7E47F0C7E33FDFC900010BA
:1077A600E0F8A3E0F9A3E0FAA3E0FBC3121B245020
:1077B6001190000C121BB300000000900823E05447
:1077C600EFF090000CE0FCA3E0FDA3E0FEA3E0FFD9
:1077D600E47B02FAF9F8121A6190000C121BA790CA
:1077E600000CE0FCA3E0FDA3E0FEA3E0FF90001088
:1077F600121BA790000CE0FCA3E0FDA3E0FEA3E0B3
:10780600FF9000CA7410F0A374FCF012CA6E9000C8
:1078160010E0FCA3E0FDA3E0FEA3E0FFE412161CCB
:1078260090BF59121B9712140912165A9006CD12C0
:107836001BA79006CDE0FCA3E0FDA3E0FEA3E0FFBE
:10784600E412161C900636121BA7900636E0FCA31F
:10785600E0FDA3E0FEA3E0FFE4FBFAF97840121591
:1078660012900636121BA7900636E0F8A3E0F9A39D
:10787600E0FAA3E0FB7F007EA87DF77C4612151296
:0678860090063C021BA766
:103C92009006E9121BB3000000009006E5121BB368
:103CA200000000009006F1121BB3000000007FD25A
:103CB2007E1012944E9006E9121BA77FEE7E101220
:103CC200944E9006E5121BA7E4FB7D017F1A7E014C
:103CD200120000EF6401704578F97C067D017B01DA
:103CE2007A007900FE7F0412182C7B017A0679F99A
:103CF2007D0412C49B9006F9E0FCA3E0FDA3E0FE64
:103D0200A3E0FFE412161C7BCB7AA179D5783F128F
:103D1200140912165A9006F1121BA7800890071B6D
:103D2200E04410F022E47F867E19FDFC9006EDE06F
:103D3200F8A3E0F9A3E0FAA3E0FBD3121B24401B93
:103D42007F7A7EE67DFF7CFF9006EDE0F8A3E0F946
:103D5200A3E0FAA3E0FB121B24400A9006ED121B1B
:103D6200B300000000E47F867E19FDFC9006F5E0BA
:103D7200F8A3E0F9A3E0FAA3E0FBD3121B24401B53
:103D82007F7A7EE67DFF7CFF9006F5E0F8A3E0F9FE
:103D9200A3E0FAA3E0FB121B24400A9006F5121BD3
:103DA200B3000000009006E99006F1900823E0308D
:103DB200E503023ED830E3509006F1E0FCA3E0FDBB
:103DC200A3E0FEA3E0FF121AF3EF2401FFE43EFE9C
:103DD200E43DFDE43CFC9006F1121BA79006E9E0ED
:103DE200FCA3E0FDA3E0FEA3E0FF9006F1E0F8A350
:103DF200E0F9A3E0FAA3E02FFFEA3EFEE93DFDE889
:103E02003CFC9006F902401B9006F1E0FCA3E0FDA9
:103E1200A3E0FEA3E0FF9006E9E0F8A3E0F9A3E047
:103E2200FAA3E0FBC3121B2440509006F1E0F8A372
:103E3200E0F9A3E0FAA3E0FB9006E9E0FCA3E0FDD1
:103E4200A3E0FEA3E09BFFEE9AFEED99FDEC98FC49
:103E52009006F9121BA79006F1E0FCA3E0FDA3E097
:103E6200FEA3E0FF121AF3EF2401FFE43EFEE43D5D
:103E7200FDE43CFC9006F102401B9006E9E0F8A349
:103E8200E0F9A3E0FAA3E0FB9006F1E0FCA3E0FD79
:103E9200A3E0FEA3E0C39BFFEE9AFEED99FDEC9832
:103EA200FC9006F9121BA7900726E06455600302F6
:103EB200401E9006F1E0FCA3E0FDA3E0FEA3E0FFBC
:103EC200121AF3EF2401FFE43EFEE43DFDE43CFC64
:103ED2009006F102401B900823E020E303023FB961
:103EE2009006F1E0FCA3E0FDA3E0FEA3E0FF900654
:103EF200E9E0F8A3E0F9A3E0FAA3E0FBC3121B2474
:103F020040659006F1E0F8A3E0F9A3E0FAA3E0FB34
:103F12009006E9E0FCA3E0FDA3E0FEA3E09BFFEE38
:103F22009AFEED99FDEC98FC9006F9121BA79007FA
:103F320026E064559006F1600DE0FCA3E0FDA3E0ED
:103F4200FEA3E0FF801BE0FCA3E0FDA3E0FEA3E0F4
:103F5200FF121AF3EF2401FFE43EFEE43DFDE43CD0
:103F6200FC9006F102401B9006E9E0F8A3E0F9A3F9
:103F7200E0FAA3E0FB9006F1E0FCA3E0FDA3E0FE83
:103F8200A3E0C39BFFEE9AFEED99FDEC98FC900630
:103F9200F9121BA79006F1E0FCA3E0FDA3E0FEA34B
:103FA200E0FF121AF3EF2401FFE43EFEE43DFDE4DC
:103FB2003CFC9006F180629006F1E0FCA3E0FDA3D8
:103FC200E0FEA3E0FF9006E9E0F8A3E0F9A3E0FA3F
:103FD200A3E02FFFEA3EFEE93DFDE83CFC9006F936
:103FE200121BA7900726E064559006F1600DE0FCD5
:103FF200A3E0FDA3E0FEA3E0FF801BE0FCA3E0FD45
:10400200A3E0FEA3E0FF121AF3EF2401FFE43EFE59
:10401200E43DFDE43CFC9006F1121BA79005B5E0DF
:10402200FCA3E0FDA3E0FEA3E02400FFE43EFEE4E7
:104032003DFDEC3480FCE412161CA804A905AA0676
:10404200AB07E4FFFEFD7C4F1215129006FD121B1A
:10405200A7E4FFFEFD7C809006F1E0F8A3E0F9A35F
:10406200E0FAA3E0FBD3121B249006F1E0FC406BC4
:10407200A3E0FDA3E0FEA3E0FF121AF3EF2401FF89
:10408200E43EFEE43DFDE43CFC9006F1121BA790E9
:1040920006F1E0FCA3E0FDA3E0FEA3E0FFE41216BC
:1040A2001C9006FDE0F8A3E0F9A3E0FAA3E0FB12FE
:1040B200140912165A9006F1121BA79006F1E0FCA1
:1040C200A3E0FDA3E0FEA3E0FF121AF3EF2401FF39
:1040D200E43EFEE43DFDE43CFC8021A3E0FDA3E0E0
:1040E200FEA3E0FFE412161C9006FDE0F8A3E0F93F
:1040F200A3E0FAA3E0FB12140912165A9006F11279
:104102001BA79006F1E0FCA3E0FDA3E0FEA3E0FF05
:104112009000CA7410F0A374EEF012CA6EE4FFFEAF
:10412200FD7C809006F1E0F8A3E0F9A3E0FAA3E0B9
:10413200FBD3121B2440249006F1E0FCA3E0FDA374
:10414200E0FEA3E0FF121AF3EF2401FFE43EFEE4D7
:104152003DFDE43CFC9006F1121BA7E4FFFEFD7C52
:10416200809006E9E0F8A3E0F9A3E0FAA3E0FBD32C
:10417200121B2440249006E9E0FCA3E0FDA3E0FE2C
:10418200A3E0FF121AF3EF2401FFE43EFEE43DFD3B
:10419200E43CFC9006E9121BA7E4FFFEFD7C809044
:1041A20006F9E0F8A3E0F9A3E0FAA3E0FBD3121BBF
:1041B2002440249006F9E0FCA3E0FDA3E0FEA3E086
:1041C200FF121AF3EF2401FFE43EFEE43DFDE43C5E
:1041D200FC9006F9121BA79006E9E0FCA3E0FDA300
:1041E200E0FEA3E0FFE412161C90BF5D121B9712C3
:1041F200140912165A9006D1121BA79006F9E0FC78
:10420200A3E0FDA3E0FEA3E0FFE412161C90BF5D55
:10421200121B9712140912165A9006E5121BA79048
:1042220006F1E0FCA3E0FDA3E0FEA3E0FFE412162A
:104232001C90BF5D121B9712140912165A9006F9B0
:0D424200121BA790070D121BB30000000017
:01424F00224C
:057DB600900799EFF0B9
:107DBB00BF014B7FD27E1012944E90079A121BA7D5
:107DCB00E4FFFEFD7C8090079AE0F8A3E0F9A3E0C6
:107DDB00FAA3E0FBC3121B245003027ECC90079A3C
:107DEB00E0FCA3E0FDA3E0FEA3E0FF121AF3EF24F7
:107DFB0001FFE43EFEE43DFDE43CFC027EBA90074D
:107E0B0099E064026003027EC2FB7D017F1A7E0152
:107E1B00120000BF013478A67C077D017B017A003C
:107E2B0079007E007F0412182C7B017A0779A67DDE
:107E3B000412C49B9007A6E0FCA3E0FDA3E0FEA305
:107E4B00E0FF90079A121BA7800790071BE04410D6
:107E5B00F0E4FFFEFD7C8090079AE0F8A3E0F9A325
:107E6B00E0FAA3E0FBC3121B24402490079AE0FC2A
:107E7B00A3E0FDA3E0FEA3E0FF121AF3EF2401FF42
:107E8B00E43EFEE43DFDE43CFC90079A121BA790F8
:107E9B00079AE0FCA3E0FDA3E0FEA3E0FFE41216CB
:107EAB001C7BCB7AA179D5783F12140912165A9004
:107EBB00079A121BA7800A90079A121BB3000000A7
:107ECB0000E47F867E19FDFC90079AE0F8A3E0F9A9
:107EDB00A3E0FAA3E0FBC3121B24500C90079E12E5
:107EEB001BB3000000008063900799E0B4011FA34F
:107EFB00E0FCA3E0FDA3E0FEA3E0FFE412161C9060
:107F0B00BF5D121B971214099007A2121BA79007B3
:107F1B0099E0B4021FA3E0FCA3E0FDA3E0FEA3E005
:107F2B00FFE412161C90BF5D121B971214099007E9
:107F3B00A2121BA79007A2E0FCA3E0FDA3E0FEA307
:107F4B00E0FF12165A90079E121BA790079EE0FCAB
:097F5B00A3E0FDA3E0FEA3E0FF9A
:017F640022FA
:10E8E10003E503E803EC03EF03D903DC03E003E3EF
:10E8F10003D303D603D903DC03C603C903CC03CF77
:10E90100041004130416041904030407040A040D73
:10E9110003FA03FD0400040303ED03F103F403F719
:10EA1A00EFB401089028637481F0800BEF640270F0
:10EA2A002A90286374A2F0902864E04408F0A3E0D6
:10EA3A004401F07F787E2812944EEF4418FF90002C
:0BEA4A00CA7428F0A37478F012CA6EA2
:01EA5500229E
:10EEB600902864E054F7F09028637480F0902865F9
:10EEC600E04401F07F787E2812944EEF54F7FF90CD
:0CEED60000CA7428F0A37478F002CA6E21
:10EA56007F0212EA1A7F0A7E0012F2D17FCE7E1062
:10EA660012944E7810121B35EE30E70FEFF4FFEEDE
:10EA7600F4FEEF2401FFE43EFE800F7C007D47128A
:0BEA86001900EF24FBFFEE34FFFE0040
:01EA91002262
:10ED9D007F0112EA1A7F0A7E0012F2D112005690FC
:10EDAD00000D121BA7E4FFFE7D207C4190000DE0BD
:10EDBD00F8A3E0F9A3E0FAA3E0FB12140912165A26
:01EDCD002223
:100056009000127404F0A37420F0E4900011F09064
:100066000011E0FFC394035043EF75F018A4FF900E
:100076000013E02FFD900012E035F0FC7E007F14A7
:100086007B1512EB7E7B017A00791490003D743368
:10009600F07D137C0012EFFF900033EFF090002804
:1000A600E06F6008900011E004F080B37B017A00F5
:1000B60079147D0412C49B7B017A0079187D0412A1
:1000C600C49B7B017A00791C7D0412C49B7B017A58
:1000D6000079207D0412C49B7B017A0079247D047B
:1000E60012C49B7FCE7E1012944E7810121B359050
:1000F6000034121BA77E007F29902862E0543E241C
:10010600E1F582E434E8AD82FC7B0212EB7E9000DE
:1001160029E0FEA3E0FFE4FCFD900034E0F8A3E054
:10012600F9A3E0FAA3E0FB1219D6E47BE87A03F917
:10013600F8121A61900034121BA7900028E0FF9075
:100146000033E06F6032900014121BB30000466269
:10015600900018121BB30000000190001C121BB384
:100166000D5A4336900020121BB300001BB49000BA
:1001760024121BB30000000A900034E0FCA3E0FD4B
:10018600A3E0FEA3E0FF900020E0F8A3E0F9A3E0DF
:10019600FAA3E0FB1219D690001CE0F8A3E0F9A33D
:1001A600E0FAA3E02FFFEA3EFEE93DFDE83CFCE471
:1001B60012161C12C54CC004C005C006C00790002C
:1001C60018E0FCA3E0FDA3E0FEA3E0FFE412161C8A
:1001D600D003D002D001D000121409C004C005C05B
:1001E60006C007900014E0FCA3E0FDA3E0FEA3E038
:1001F600FFE412161CA804A905AA06AB07D007D06F
:1002060006D005D004121314C004C005C006C007EA
:10021600900024E0FCA3E0FDA3E0FEA3E0FFE412CF
:10022600161CA804A905AA06AB07D007D006D00558
:10023600D00412151290002F121BA79000127404FE
:10024600F0A37480F0E4900011F0900011E0FFC379
:1002560094035046EF75F004A4FF900013E02FFDC1
:10026600900012E035F0FC7E007F2B7B0412EB7EC3
:100276007B017A00792B90003D7433F07D027C007F
:1002860012EFFF90002DEFF0A3E0FF90002DE06F3E
:100296006008900011E004F080B090002EE0FF901E
:1002A600002DE06F6007E490002BF0A3F090002B88
:1002B600E030E75B90002BE0FEA3E0F4FFEEF4FEF7
:1002C600EF2401FFE43E90002BF0A3EFF090002F07
:1002D600E0FCA3E0FDA3E0FEA3E0FFC004C005C070
:1002E60006C00790002BE0FEA3E0FF7C007D0A120B
:1002F6001900AC06AD07E4121621A804A905AA0642
:10030600AB07D007D006D005D0041213148038905E
:10031600002FE0F8A3E0F9A3E0FAA3E0FBC000C0D9
:1003260001C002C00390002BE0FEA3E0FF7C007D2D
:100336000A121900AC06AD07E4121621D003D0024A
:10034600D001D00012131890002F121BA7E4FFFE55
:100356007DB47C4290002FE0F8A3E0F9A3E0FAA375
:10036600E0FB1215AF600E400C90002F121BB3423B
:10037600B400008024E4FFFE7D2C7CC290002FE0B8
:10038600F8A3E0F9A3E0FAA3E0FB1215AF500A9038
:10039600002F121BB3C22C000090002FE0FCA3E03C
:0703A600FDA3E0FEA3E0FF50
:0103AD00222D
:06B11E00900009121BA7BE
:10B12400E490000DF0C286C285902867E044C0F028
:10B13400A37420F0900009E0FCA3E0FDA3E0FEA3CB
:10B14400E0FF121C8CB171000C8000B17900190071
:10B1540000B18900320000B19100640000B19E008A
:10B16400C80000B1B0019000000000B1C29028678F
:10B17400E054FC800A902867E04401F0E054FDF0BC
:10B18400A3E4F0803C902867E054FE800690286792
:10B19400E04401F0E04402F08027902867E0440195
:10B1A400F0E04402F0A3E04440F08015902867E00A
:10B1B4004401F0E04402F0A3E044C0F0800312F341
:10B1C400C7E5A320E00F90000DE004F0E0D3943233
:10B1D40040EF7F0022D280E490000DF020800F9099
:10B1E400000DE004F0E0D3943240F17F0022902877
:0EB1F4005FE4F0A37403F0A3E04420F07F01B9
:01B202002229
:06C12F00900001121BA7A5
:10C13500E4900005F0C284902867E044C0F09000C8
:10C1450001E0FCA3E0FDA3E0FEA3E0FF121C8CC10F
:10C155007000000000C175000C8000C1820019004C
:10C1650000C197003200000000C1ACD2847F0122DB
:10C17500902867E054F3F0E054CFF0802D902867C5
:10C18500E04404F0E054F7F0E04410F0E054DFF050
:10C195008018902867E054FBF0E04408F0E054EF85
:10C1A500F0E04420F0800312F3C7E5A320E00F90F0
:10C1B5000005E004F0E0D3943240EF7F0022D287FF
:10C1C500E4900005F020870F900005E004F0E0D32F
:09C1D500943240F17F00227F0149
:01C1DE00223E
:10E40000C286C285902864E4F0902866F0900009E6
:10E41000F0900009E004F0E0B414F6D284E5A130F5
:10E42000E00312F3C7C2802080FDE5A130E00312B3
:10E43000F3C7E4900009F0900009E004F0E0B403B1
:10E44000F6902867E4F0902867E070FAD2817F3276
:04E4500012F42000A2
:01E4540022A5
:10D82D009028ADE054FDF09028ACE054FDF0902828
:10D83D00AEE04402F09028ACE054FBF0A3E054FBC2
:10D84D00F0A3E04404F0902820E4F0902828F09014
