:01040000FFFC
:0300000002D2B277
:06D2B20075812002D2F399
:10C045000075CEA575CF5A0075CEA575CF5A00C21D
:10C05500AF12EBBCD2AF0075CEA575CF5A0075CE29
:10C06500A575CF5A0012F12FEF6401707C75CEA52E
:10C0750075CF5A0075CEA575CF5A00900711E0FF10
:10C0850030E00654FEF012EE6D1287CD900711E0F8
:10C09500FF30E10654FDF01290429006BEE06401C7
:10C0A50060079006BFE0B4010312B4C59006BAE07C
:10C0B50064017024F012B3EE75CEA575CF5A0075E4
:10C0C500CEA575CF5A007D017F0112BA6B7FFF1295
:10C0D500EDF89006C07403F01287CD75CEA575CF27
:0FC0E5005A0075CEA575CF5A001287CD02C05CE8
:10DF350000100044443031412D5633302E30341E0C
:10DF45001E26002000111111111111FFFFFFFFFF07
:10DF5500FFFFFFFFFF11111111111100000000005B
:10DF650000000000000000000000005A0000000052
:10DF75001C0000000000000000000F0101FFFFFF72
:10DF8500FFFFFFFFFF00123456000000653412004A
:01DF9500008B
:10D95300E4900711F0A3F09007157403F0E4900727
:10D9630028F07B017A07791A9001D6F0A304F0A37B
:10D9730004F07D997C0012CE4A7B017A07791B90D3
:10D9830001D6E4F0A37402F0A3F07D9F7C0012CED5
:10D993004A7B017A07791D9001D6E4F0A37402F063
:10D9A300A3F07DA17C0012CE4A7B017A07792490F3
:10D9B30001D6E4F0A37404F0A37402F07DC17C00EB
:03D9C30002CE4A47
:10DB830000020000003E0102003E002F1402006D5F
:10DB93000052150200BF00101B02011B001A1902DC
:10DBA30000CF0009460200D8003A150200BF00105A
:10DBB30052020135001A5302014F001E5402016D37
:10DBC30000621A0201120009650208000071660270
:10DBD30008710071670208E200716802095300715D
:0CDBE300690209C400716A020A35007171
:10B9A400900012E0FEA3E0FF900016E0FCA3E0FD8F
:02B9B4007B0214
:10B9B600900189EEF0A3EFF0A3ECF0A3EDF0A3EB7A
:01B9C600F090
:10B9C7009001CF74A5F0A3745AF090018BE0FEA309
:10B9D700E0FFD39400EE9400500302BA62EF944064
:10B9E700EE940090018E40057440F08002EFF07BEA
:10B9F700017A01798F900189E0FCA3E0FD90018E27
:10BA0700E0FF9001D6E4F0A3EFF090018DE0900104
:10BA1700D8F012CE4A7B017A01798F90018EE0FD32
:10BA27007C00E49001D6F0A3F012EC1E9001D0E068
:10BA37002FF09001CFE03EF090018EE0FF7E009066
:10BA4700018AE02FF0900189E03EF0C390018CE07D
:10BA57009FF090018BE09EF002B9D19001CFE0FEFC
:03BA6700A3E0FF5A
:01BA6A0022B9
:08CF6700900189EEF0A3EFF048
:10CF6F00E4FFEF75F006A42484F582E434DBF58347
:10CF7F00E4936D7068ED640260037FFF22EF75F03C
:10CF8F0006A42485F582E434DBF583E493FB740176
:10CF9F009390018BCBF0A3EBF0EF75F006A42487F1
:10CFAF00F582E434DBF583740193F990018BE0FA99
:10CFBF00A3E0FBC390018AE09B900189E09A401D9A
:10CFCF00E9FB90018CE02BFB90018BE03400FAC35E
:10CFDF0090018AE09B900189E09A5001220FEF6443
:08CFEF0012600302CF717FFF05
:01CFF7002217
:10ADC100900012E0FCA3E0FD2400FFEC3404FE90AF
:10ADD1000017E02402FB900016E03400FA900020F6
:03ADE1007422F0E9
:10ADE40090001AEEF0A3EFF0A3ECF0A3EDF0A3EAC9
:04ADF400F0A3EBF0ED
:10ADF80090001EE0FEA3E0FFD39400EE9400500301
:10AE080002AEAFD3EF9440EE940090006140057419
:10AE180040F08002EFF07B017A00792190001CE07D
:10AE2800FCA3E0FD900061E0FF9001D6E4F0A3EF01
:10AE3800F0900020E0FFC4540F9001D8F012CE4AE1
:10AE480075CEA575CF5A0075CEA575CF5A007B0172
:10AE58007A007921900061E0FD90018EE4F0A3ED85
:10AE6800F0900020E0540F900190F090001AE0FE5E
:10AE7800A3E0FF12CACD900061E0FFFD7C009000C6
:10AE88001BE02DF090001AE03CF090001DE02DF042
:10AE980090001CE03CF0C390001FE09FF090001E63
:07AEA800E09400F002ADF898
:01AEAF002280
:10C7980090007AEEF0A3EFF0A3ECF0A3EDF0AF0376
:10C7A8007B017A007980AD0790017BE4F0A37440A7
:10C7B800F012ED2D90007CE0FEA3E0FFD39400EE94
:10C7C80094004069D3EF9440EE94009000C0400577
:10C7D8007440F08002EFF090007AE0FEA3E0FF7B67
:10C7E800017A0079809000C0E0FD90018EE4F0A30A
:10C7F800EDF090007FE0900190F012CACD75CEA5C3
:10C8080075CF5A0075CEA575CF5A009000C0E0FFCD
:10C818007E0090007BE02FF090007AE03EF0C3901D
:0DC82800007DE09FF090007CE09EF0808796
:01C8350022E0
:0BCE3F009001D6E4F0A37402F0A3F011
:10CE4A009001D1EBF0A3EAF0A3E9F0A3ECF0A3ED93
:01CE5A00F0E7
:10CE5B009001D8E024FE604B0470699001D4E0FE91
:10CE6B00A3E0AA06F99001D97401F0A3EAF0A3E9B3
:10CE7B00F09001D9E0F9A3E0FAA3E09001DFC9F04B
:10CE8B00A3EAF0A3E9F09001D6E0FFA3E09001E262
:10CE9B00CFF0A3EFF09001D1E0FBA3E0FAA3E0F910
:10CEAB0002DFF59001D1E0FBA3E0FAA3E0F9A3E0E8
:10CEBB00FCA3E0FDA3E0FFA3E09001E1CFF0A3EF23
:07CECB00F002C65812F20C40
:01CED200223D
:10CAAC0090000EEEF0A3EFF09000147A00790EE0F7
:10CABC00FEA3E0FF7B0190018EE4F0A37402F0A3CF
:01CACC00F079
:10CACD00900189EEF0A3EFF0A3EBF0A3EAF0A3E958
:01CADD00F068
:10CADE00900190E024FE603C04705A900189E0FEC3
:10CAEE00A3E0AA06F97B01C002C001A3E0F9A3E00E
:10CAFE00FAA3E09001DFC9F0A3EAF0A3E9F09001F8
:10CB0E008EE0FFA3E09001E2CFF0A3EFF0D001D0D2
:10CB1E000202DFF5900189E0FEA3E0FFA3E0FBA394
:10CB2E00E0FAA3E0F9A3E0FDA3E0900196CDF0A317
:08CB3E00EDF002C97212F20CC5
:01CB460022CC
:109A3D00900179EBF0A3EAF0A3E9F0900177EEF055
:039A4D00A3EFF094
:109A500090017EE0FD12CF6790017FEFF0C394127A
:109A6000400312F20C90017FE0FF75F006A42485FC
:109A7000F582E434DBF583E493FD74019390018275
:109A8000CDF0A3EDF0EF75F006A42487F582E43461
:109A9000DBF58374019324FEFFE49334FFFE900111
:109AA00086F0A3EFF0900183E02FFF900182E03E6B
:109AB000900184F0A3EFF090017FE075F006A424FC
:109AC00083F582E434DBF583E493900188F0900120
:109AD00077E0FEA3E0FFA3E0FBA3E0FAA3E0F9A395
:109AE000E0FDA3E090018ECDF0A3EDF090017EE0CB
:109AF000900190F012CACD900182E0FEA3E0FF90A9
:109B0000018612B9AF900180EEF0A3EFF0900184CE
:109B10007A01798012CABB900188E0C394645048EE
:109B2000900178E02400FF900177E03404FE90017A
:109B300079E0FBA3E0FAA3E0F9A3E0FDA3E0900144
:109B40008ECDF0A3EDF090017EE0900190F012CA6E
:109B5000CD900185E02400FF900184E03404FE7B79
:089B6000017A01798012CAC2EA
:019B680022DA
:10A42500E4FEEE75F006A42483F582E434DBF583BF
:10A43500E4936F60050EEEB412E8EEC39412400388
:10A4450002A525EE75F006A42485F582E434DBF536
:10A4550083E493FD74019390001ACDF0A3EDF0EE23
:10A4650075F006A42487F582E434DBF58374019343
:10A4750024FEFCE49334FF90001CF0A3CCF0EF2401
:10A48500EB602224CF602E24F4603A1460471460F8
:10A49500542440707290001AE0FEA3E0FF7BFF7A1F
:10A4A500DF7944804E90001AE0FEA3E0FF7BFF7A3F
:10A4B500DE796B803E90001AE0FEA3E0FF7BFF7A19
:10A4C500BD7971802E90001AE0FEA3E0FF7BFF7A34
:10A4D500CB79E1801E90001AE0FEA3E0FF7BFF7AB6
:10A4E500CB79FB800E90001AE0FEA3E0FF7BFF7A9C
:10A4F500CC7919A3E0FDA3E090018ECDF0A3EDF09A
:10A50500A37402F002CACD90001AE0FEA3E0FFA3F7
:10A51500E0FCA3E0FD90007F7402F0E4FB12C79815
:01A525002213
:10707000E490000DF090000DE0F9C394124003027B
:107080007247E4900018F090000DE0FF75F006A440
:107090002485F582E434DBF583E493FD7401939059
:1070A0000012CDF0A3EDF0EF75F006A42487F58271
:1070B000E434DBF58374019324FEFEE49334FF9003
:1070C0000016F0A3CEF0900016E0FAA3E0FB9000CB
:1070D00012E0FCA3E0FD2BFEEC3AA3F0A3CEF0E916
:1070E00075F006A42483F582E434DBF583E4939001
:1070F0000019F075CEA575CF5A0075CEA575CF5A7B
:1071000000AF05AE04AD03AC027B0212B9B690002D
:107110000EEEF0A3EFF07B017A007910900014E0FE
:10712000FCA3E0FD12CE3F900010E0FEA3E0FF9034
:10713000000EE06E7003A3E06F6007900018E0445B
:1071400001F0900019E0C39464504B900013E024C8
:1071500000FF900012E03404FE12B9AC90000EEE75
:10716000F0A3EFF07B017A007910900015E0240085
:10717000FD900014E03404FC12CE3F900010E0FEBD
:10718000A3E0FF90000EE06E7003A3E06F60079035
:107190000018E04402F075CEA575CF5A0075CEA553
:1071A00075CF5A00900018E0700302723024FE6020
:1071B0003614604124027075900019E0C394645045
:1071C00015900012E0FEA3E0FF2400FDEE3404FC65
:1071D00012ADD002721D900019E0FF12A42512B961
:1071E000A412CAAC02721D900019E0C3946450400E
:1071F00012ADC18028900019E0FF12A42512B9A495
:1072000012CAAC75CEA575CF5A0075CEA575CF5AEA
:1072100000900019E0C39464501612ADC175CEA55C
:1072200075CF5A0075CEA575CF5A00800312F20CA7
:1072300075CEA575CF5A0075CEA575CF5A009000B2
:077240000DE004F00270757F
:017247002224
:05BCB100900093EFF08C
:10BCB600E4A3F0900094E0F9C39412400302BD702F
:10BCC600E0FE75F006A42485F582E434DBF583E412
:10BCD60093FC740193FDEE75F006A42487F582E4C7
:10BCE60034DBF58374019324FE2DFEE43C9000972B
:10BCF600F0A3CEF0E975F006A42483F582E434DBE4
:10BD0600F583E493FF900099F0BF4608900093E016
:10BD160064A5704D75CEA575CF5A0075CEA575CFA5
:10BD26005A00E4900095F0A3F0900097E0FEA3E09F
:10BD3600FF7B017A00799512CAC2900099E0C394FC
:10BD460064501EE4900095F0A3F0900098E0240063
:10BD5600FF900097E03404FE7B017A00799512CAC1
:0ABD6600C2900094E004F002BCB9A2
:01BD700022B0
:10C0F40012F0AEEF6401600302C18E900808E0C341
:10C104009403400302C1A2E004F0E0C3940350038B
:10C1140002C1A290071AE0645A600302C1A2900807
:10C1240009E06401607812DCC775CEA575CF5A00AA
:10C1340075CEA575CF5A0012B3EE75CEA575CF5A3C
:10C144000075CEA575CF5A0012D8DF75CEA575CF70
:10C154005A0075CEA575CF5A0012A10B12E6B5751B
:10C16400CEA575CF5A0075CEA575CF5A00129C94F2
:10C1740075CEA575CF5A0075CEA575CF5A007FA888
:10C184001203AE9008097401F022900808E0D394D9
:0FC19400004003E014F0900808E07002A3F022CE
:10E1BC0012F15FEF64017026900806E0C3940350DF
:10E1CC0043E004F0E0C39403403AA3E064016034FC
:10E1DC007D017F0912BA6B9008077401F022900838
:10E1EC0006E0D394004006900808E014F09008066E
:10E1FC00E07011A3E0B4010C7DFF7F0912BA6BE44F
:05E20C00900807F0225C
:10F1D0007B017A08790590017BE4F0A37405F0E4E3
:04F1E000FD02ED2D12
:01004A002293
:10F12F00E4FFE5A120E0050FEFB41EF6EFC394193D
:07F13F0050037F01227F0055
:01F1460022A6
:10E26600900713E5A1F0E59560047F0180027F0029
:10E27600E59460047E0180027E00EE4F6011759089
:10E2860096759757E4F594F595759096759756009B
:10E29600758F019004027486F0E4F58F75A001FF76
:10E2A600FE7D32FC12AF9612E16512EFE902E8A894
:1075F5007B017A00790A9001D6E4F0A37403F0A325
:1076050014F07DBA7C0012CE4A90000AE0B4650BF6
:10761500A3E0B43406A3E06412602D9004BC7401A9
:10762500F012D33890007F7402F0E4FBFD7C10FF6C
:107635007E0812C7987FA512BCB175CEA575CF5A25
:107645000075CEA575CF5A00900714E07011127021
:107655007075CEA575CF5A0075CEA575CF5A001297
:10766500D95312F1D075CEA575CF5A0075CEA57533
:10767500CF5A007B017A0579BF9001D6E4F0A37457
:107685003AF0A37402F07DD87C0012CE4A12F2B40F
:1076950012F2B112DBEF75CEA575CF5A0075CEA5E6
:1076A50075CF5A0012E9CE1268A612ED8112EB20B1
:1076B50012F0FC75CEA575CF5A0075CEA575CF5ABB
:1076C5000012E0AF75CEA575CF5A0075CEA575CF62
:1076D5005A009006D1E0643060030277B475CEA5F8
:1076E50075CF5A0075CEA575CF5A00900000F07B76
:1076F500017A0079029001D6F0A37405F0A3740213
:10770500F07D6C7C0C12CE4A7B017A0079089001E1
:10771500D6E4F0A37402F0A3F07D6F7C0012CE4A8C
:10772500900008E0FB900004E0C39B500890000027
:107735007401F08005E4900000F09006D7E0FE901B
:107745000000E02EFD900003E0FCC3ED9C900000DE
:10775500F0EEC39B5005E014F08005900000E0F0CA
:10776500900000E0D3940640037406F0900000E01A
:10777500D39400403AE4A3F0900000E0FFA3E0C3F7
:107785009F501BE4FF1281B475CEA575CF5A0075C5
:10779500CEA575CF5A00900001E004F080DA75CED1
:1077A500A575CF5A0075CEA575CF5A0012B3EE0256
:0277B500EB5691
:10A81800E4900000F0A3F075CEA575CF5A0075CE70
:10A82800A575CF5A0075CEA575CF5A0075CEA575FA
:10A83800CF5A0012ED811268A612DB1612EDA9128A
:10A84800E1659028C8E4F09028ADE04410F07D025E
:10A858007F0112E8E343C90112E21175CEA575CF55
:10A868005A0075CEA575CF5A007F007E007D327CD8
:10A878000012AF967B017A00790212DF969001DF11
:10A888007401F0A37400F0A37402F0A3E4F0A374BD
:10A8980007F07B017A0679D512DFF5E5A130E05C97
:10A8A80012D11312EFE912EAE97B017A0479709068
:10A8B800018EE4F0A3741EF0A37402F07FCF7E0132
:10A8C80012CACD7B017A04798F90018EE4F0A374CB
:10A8D8002DF0A37402F07FED7E0112CACD7B017AC0
:10A8E8000479BE90018EE4F0A37432F0A37402F0F0
:10A8F8007F1AFE12CACD12D33812F20C126E8F12C2
:05A90800E30502A85662
:10D438007F007E007D327C0012AF9612D11312DB82
:10D44800167FFF12EDF875CEA575CF5A0075CEA5DB
:10D4580075CF5A001275F512EF65E4FF12DC5B1206
:10D46800F25AE4FF125CE012666F7B017A0679FCDF
:10D4780090017BE4F0A37405F0E4FD12ED2D900714
:10D48800A57404F09007A1F07DFF7F0712BA6B7BAB
:10D49800017A0779A190017BE4F0A3740CF0E4FD14
:0AD4A80012ED2D43A50143A401225B
:10EBBC0012E26612F12FEF70077F2C7E0112F11614
:10EBCC0012F12FEF70089007147403F08005E49095
:10EBDC000714F0900714E0B4030302A81812D438F9
:01EBEC002206
:10E3050012F0C8EF64014E70059006BE04F0900649
:10E31500BEE0B4011EE4F090062FE0B40504E4F07D
:10E32500800690062FE004F0129EE190061974060F
:10E33500F0800C900619E0D394004003E014F090AF
:0DE345000619E0700790062FF0129EE122ED
:1087CD0012F12FEF6003028938D284C2AF125F4CD1
:1087DD007B017A05792E90017CE4F0A3743CF0A323
:1087ED007402F0E4FFFE129A3D9007147403F07BBF
:1087FD00017A0679D590017CE4F0A37407F0A37497
:10880D0002F07FCF7E00129A3D9007A57404F07D93
:10881D00017F0712BA6B9007A87404F09007A4F0BB
:10882D007DFF7F0A12BA6B7B017A0779AB9001D677
:10883D00E4F0A304F0A304F07D217C0112CE4A12D2
:10884D00C25212EDA912E1659028C8E4F09028AD4E
:10885D00E04410F012EFE912E8A812ED81E4900661
:10886D0019F09004BCF075CEA575CF5A0075CEA544
:10887D0075CF5A00E4FD7F0112E8E343C90112F2FE
:10888D005A12E21175CEA575CF5A0075CEA575CFCA
:10889D005A007F007E007D327C0012AF967B017AFC
:1088AD0000790012DF969001DF7401F0A37400F0DF
:1088BD00A37400F0A3E4F0A37407F07B017A0679AA
:1088CD00D512DFF5E5A130E05912D11312EFE912FF
:1088DD00EAE97B017A04797090018EE4F0A3741EAD
:1088ED00F0A37402F07FCF7E0112CACD7B017A0412
:1088FD00798F90018EE4F0A3742DF0A37402F07FB4
:10890D00ED7E0112CACD7B017A0479BE90018EE411
:10891D00F0A37432F0A37402F07F1AFE12CACD12C6
:0B892D00F20C126E8F12E3050288733B
:01893800221C
:10F20C0075CEA575CF5A0075CEA575CF5A000000E6
:03F21C000080FB74
:03000300020046B2
:040046005388FD32AC
:03000B0002E10B04
:10E10B00C0E0C083C082C0D0758A65758C669007ED
:10E11B0011E04401F09005B4E0600E9005B6E00408
:10E12B00F070069005B5E004F09005B9E0B4011B62
:10E13B00D39005B8E094009005B7E09400400CA391
:10E14B00E024FFF09005B7E034FFF0900728E004DF
:0AE15B00F0D0D0D082D083D0E032A3
:0300130002004E9A
:04004E005388F732AA
:03001B0002EF44AD
:10EF4400C0E0C083C08253887F758B53758D9A90BF
:10EF540028B2E04402F0C28EC2ABD082D083D0E0AB
:01EF6400327A
:03002B0002EEDC06
:10EEDC00C0E0C0F0C083C082C0D075D01053C87FD2
:10EEEC0075CC6575CD6612B59BD0D0D082D083D051
:04EEFC00F0D0E03240
:03003B0002F17758
:10F17700C0E0E5C030E00553C0FE8008E5C030E1DF
:07F187000353C0FDD0E0328C
:03004300029440E4
:0D944000C0E0C0F0C083C082C0D075D01065
:10944D00902840E0FF902843E05F900241F0E0203B
:10945D00E2030294E3902840E054FBF0902836E0BC
:10946D0054FDF0900242E0D394004057A3E0FC2459
:10947D0046F582E43402F583E0900240F090034318
:10948D00E0B40716900240E0FE547FFD30D006EEAA
:10949D004480F08005900240EDF0900240E090286D
:1094AD0037F09005B5E4F0A3F074462CF582E43462
:1094BD0002F583E4F0900243E004F0900242E014E0
:1094CD00F08013900243E4F09003407404F012E630
:1094DD002FE4FF12C5B0900241E0FF30E350902819
:1094ED0040E054F7F0902836E054FEF0A3E09002EF
:1094FD0040F0E0547FFE900243E02446F582E434D0
:10950D0002F583EEF09005B5E4F0A3F0900243E090
:10951D0004F0E0FED3940440020000EE75F0FA84EE
:10952D00AEF0900243EEF0D3941540020000EF3000
:10953D00E407902840E054EFF0900241E030E50759
:10954D00902840E054DFF0900241E0FF30E60790B4
:10955D002840E054BFF0EF30E70D902840E0547FF5
:0A956D00F090056DE004F05391EF5B
:0B957700D0D0D082D083D0F0D0E03202
:03004B0002BBF005
:0DBBF000C0E0C0F0C083C082C0D075D0108E
:10BBFD00902848E0FF90284BE05FFD30E407902847
:10BC0D0048E054EFF0AF15ED30E507902848E054CB
:10BC1D00DFF0AF15ED30E614902848E054BFF090FA
:10BC2D000711E04402F09005F97401F0AF15ED3005
:10BC3D00E764902848E0547FF090056CE004F090A4
:10BC4D0006D3E06401702C9028B0E04402F0A3E02C
:10BC5D0054FEF09028C9E4F0A3F09028B2E054FD12
:10BC6D00F09028B0E054FDF0758B53758D9A12004D
:10BC7D00068004C28EC2AB900605E0541FF07B0116
:10BC8D007A0579FB12B07B9006C1E4F075CC657531
:09BC9D00CD66D2CAD2AD5391DF8D
:0BBCA600D0D0D082D083D0F0D0E032AC
:0300530002ECAA12
:0BECAA00C0E0C083C082C0D075D01055
:10ECB500902850E0FF902853E05FFF30E30790284D
:08ECC50050E054F7F05391BF39
:09ECCD00D0D0D082D083D0E03217
:10919D004106BE004106BB004106BA004106B901B9
:1091AD004106BF004106BD004106C0004106D20088
:1091BD004106C2004106D3004106BC004106D40061
:0F91CD004106C1004406CD000000004106B80075
:10CC7B007B017A00790D12DF967B017A00790D1218
:10CC8B00AAF1EF70647B017A00790D9001D6F0A3C5
:10CC9B007407F0A37402F07DCF7C0012CE4A7B01A7
:10CCAB007A00790D12AAF1EF703690000D7403F033
:10CCBB00A37416F0A37404F0A37420F0A37412F001
:10CCCB00A37430F0A3F07B017A00790D90017CE422
:10CCDB00F0A37407F0A37402F07FCF7E00129A3D8D
:10CCEB007B017A00790D12DD319001DF7401F0A325
:10CCFB007400F0A3740DF0A3E4F0A37407F07B01B0
:07CD0B007A0679D502DFF57D
:03F2B10002CC7B11
:10D19F0012F15FEF700E9006D2E0700804F0900667
:10D1AF00C27403F012F15FBF0109E49006D2F09050
:10D1BF0006C2F012F0C8EF64014E700F9006BBE08C
:10D1CF0070099006BE04F09006BBF012F0C8EF4E47
:10D1DF0070049006BBF012F147EF64014E700D9092
:10D1EF0006B9E07007A304F09006B9F012F147EF0B
:10D1FF004E70049006B9F012F0E2EF64014E700F1A
:10D20F009006BDE070099006BF04F09006BDF012C5
:0BD21F00F0E2EF4E70049006BDF0221C
:10B59B009006A0E0FCA3E0FDA3E0FEA3E0FFE41215
:10B5AB00161C900234121BA7900234E0F8A3E0F9AA
:10B5BB00A3E0FAA3E0FB7F007E807DF77C461215AB
:10B5CB0012900238121BA7E4FFFEFDFC900234E040
:10B5DB00F8A3E0F9A3E0FAA3E0FB1215AF60025069
:10B5EB000302B66F9006B8E0FCE412162690023CFC
:10B5FB00121BA7E4FFFE7DC87C41900238E0F8A344
:10B60B00E0F9A3E0FAA3E0FB12140990023CE0F886
:10B61B00A3E0F9A3E0FAA3E0FB1215AF40409006BC
:10B62B00C1E004F0E49006B8F09006C1E024FE609F
:10B63B00101460162402701D900605E04480F08003
:10B64B0014900605E044C0F0800B900605E044E042
:10B65B00F0C2CAC2AD7B017A0579FB02B07B9006C2
:04B66B00B8E004F04F
:01B66F0022B8
:10EE6D00E4900000F0900000E0FFC39401501312F5
:10EE7D00B15B900000E0FF12A21B900000E004F0D7
:05EE8D0080E302D19FAB
:1090420012CC7B75CEA575CF5A0075CEA575CF5AB9
:1090520000900819E0D394004006E014F012ED816C
:10906200900819E0703F128D7375CEA575CF5A0026
:1090720075CEA575CF5A00125F4C75CEA575CF5A25
:109082000075CEA575CF5A0012EC4F12D86B75CE73
:10909200A575CF5A0075CEA575CF5A0012C0F4122D
:1090A200F2C512EB209006C0E0700812B4C5129E01
:1090B200E180069006C0E014F09006DBE0706212D8
:1090C200666F75CEA575CF5A0075CEA575CF5A00BD
:1090D20012641375CEA575CF5A0075CEA575CF5AF9
:1090E20000126E8F12D3389006D1E0B4301175CED3
:1090F200A575CF5A0075CEA575CF5A0012CB47750C
:10910200CEA575CF5A0075CEA575CF5A0012CED313
:1091120075CEA575CF5A0075CEA575CF5A0012E04F
:10912200AF12F15FEF70219006C2E0D394004002CB
:10913200802E9006D37401F09006BC740AF090065B
:10914200DBE09006D4F080229006BCE0D39400408D
:10915200149006D4E0FF9006DBE0B5070D9006BC44
:10916200E014F08005E49006D3F09006DBE0B4252D
:109172001112F2C375CEA575CF5A0075CEA575CF63
:109182005A009006DBE0B4311112F0FC75CEA575E1
:0B919200CF5A0075CEA575CF5A002201
:01005200228B
:0AF27000E49006CCF09006CBF022EB
:0BBEE100E0FCA3E0A3FDE0900230F0C5
:10BEEC0090022BEBF0A3EAF0A3E9F0A3ECF0A3EDA6
:01BEFC00F055
:10BEFD00E4900233F090023174A0F0A304F012E844
:10BF0D00A8900233E004F0E0D3940A40037F0022AE
:10BF1D0012EAE9900231E0FF12CA0FBF01E0900270
:10BF2D002EE0FF12CA0FEF640160037F0022900222
:10BF3D002EA3E0FF12CA0FEF640160037F002212EF
:10BF4D00EAE9900232E0FF12CA0FEF640160037F4D
:10BF5D000022900230E0FF14F0EF6026E07003FF46
:10BF6D0080027F0112CFF890022BE0FBA3E0FAA331
:10BF7D00E0F9EF1218BA90022CE475F00112198B4A
:07BF8D0080D012E8A87F013B
:01BF9400228A
:10C45A009001E0EEF0A3EFF0A3EBF0A3EAF0A3E97A
:01C46A00F0E1
:10C46B00E49001E8F09001E674A0F0A304F0001250
:10C47B00E8A89001E8E004F0E0D3940A40037F00C1
:10C48B002212EAE99001E6E0FF12CA0FBF01E09029
:10C49B0001E0E0FF12CA0FEF640160037F002290FE
:10C4AB0001E0A3E0FF12CA0FEF640160037F0022DB
:10C4BB009001E2E0FBA3E0FAA3E0F9121852FF129D
:10C4CB00CA0FEF64016004007F00229001E3E47562
:10C4DB00F00112198B9001E1E004F070069001E07D
:10C4EB00E004F09001E5E014F0E070C412E8A87FDE
:09C4FB00057E0012F116007F011C
:01C504002214
:10D3BD009001E4EBF0A3EAF0A3E9F0A3ECF0A3ED08
:01D3CD00F06F
:10D3CE00A3E0FFD394004006EFD3944040037F00C8
:10D3DE0022E490022AF07B017A0179EA9001E712A9
:10D3EE00BEE19001E4E0FBA3E0FAA3E0F9A312BED4
:10D3FE00E190022E7401F0A37401F0A374EAF09090
:10D40E0001E9E0900231F09001E4E0FBA3E0FAA321
:10D41E00E0F912D4B2EF70037F012290022AE004E9
:09D42E00F0E0C3940340AF7F005D
:01D4370022D2
:10D08600900199EEF0A3EFF0A3EBF0A3EAF0A3E989
:01D09600F0A9
:10D09700A3E0FFD394004006EFD39440400312F27D
:10D0A7000CE49001DFF0900199E0FEA3E0FFA3E01C
:10D0B700FBA3E0FAA3E0F9A3E09001E5F012C45A5C
:10D0C7007B017A01799F900199E0FCA3E090019E92
:10D0D70012BEE690022E7401F0A37401F0A3749FB0
:10D0E700F090019EE0900231F090019BE0FBA3E0FD
:10D0F700FAA3E0F912D4B2EF70037F01229001DFA7
:0BD10700E004F0E0C39403409D7F00B3
:01D1120022FA
:10C658009001DCEBF0A3EAF0A3E9F0A3ECF0A3ED82
:01C66800F0E1
:10C669009001E1E0FEA3E0FFD39400EE9400407C4A
:10C679009001DFA3E0543FFD600974409D9001E300
:10C68900F080069001E37440F09001E3E0FDC3EF10
:10C699009DEE940050079001E1A3E0A3F09001DC26
:10C6A900E0FBA3E0FAA3E0F9A3E0FCA3E0FD90011D
:10C6B900E3E09001E9F012D3BDEF7002FF2290018F
:10C6C900E3E0FFFD7C009001DDEC8DF012198B9009
:10C6D90001E0E02DF09001DFE03CF0C39001E2E0E1
:0EC6E9009FF09001E1E09400F002C6697F012D
:01C6F7002220
:10C97200900191EEF0A3EFF0A3EBF0A3EAF0A3E9AC
:01C98200F0C4
:10C98300900196E0FCA3E0FDD39400EC9400407981
:10C99300900191E0FEA3E0FF543FFB600974409BCC
:10C9A300900198F080069001987440F0900198E00F
:10C9B300FBC3ED9BEC94005007900196A3E0A3F01A
:10C9C300900193E0FBA3E0FAA3E0F9900198E090D3
:10C9D300019EF012D086EF7002FF22900198E0FFD3
:10C9E300FD7C00900192E02DF0900191E03CF090ED
:10C9F3000194EC8DF012198BC3900197E09FF09096
:0BCA03000196E09400F002C9837F015F
:01CA0E002205
:10EFE9009028ACE04402F0A3E04402F0A3E044041A
:0EEFF900F09028ACE054FBF0A3E054FBF022B3
:10EAE9009028ACE04402F0A3E04402F0A3E044041F
:10EAF900F0000000000000E054FDF09028ADE05463
:10EB0900FDF09028ACE054FDF000000000000090FA
:07EB190028AEE054FBF022DE
:10E8A8009028AEE054FDF09028ADE054FDF090289B
:10E8B800ACE054FDF00000000000009028AEE044F9
:10E8C80004F00000000000009028ACE04402F0A32F
:0BE8D800E04402F000000000000022FD
:10CA0F00E4F508F5089028AEE054FBF0EF30E70EA0
:10CA1F009028ACE04402F0A3E04402F08015902887
:10CA2F00AEE054FDF09028ADE054FDF09028ACE05E
:10CA3F0054FDF0EF25E0FF9028AEE04404F0000035
:10CA4F00000000000508E508B408BA9028AEE054CD
:10CA5F00FBF09028ACE04402F0A3E04402F075082C
:10CA6F0020E4F5089028AFE020E1149028AEE044D0
:10CA7F0004F0000000000000E054FBF07F012205ED
:10CA8F0008E508B420DE9028AEE04404F000000072
:0CCA9F00000000E054FBF012E8A87F004B
:01CAAB002268
:10CFF800E4F508F5099028ACE04402F0A3E0440207
:10D00800F0A3E054FBF0E4F508E50925E0F5099004
:10D0180028AEE04404F0000000000000A3E030E186
:10D02800034309019028AEE054FBF0000000000023
:10D03800000508E508B408D1EF60179028AEE05461
:10D04800FDF09028ADE054FDF09028ACE054FDF0E0
:10D05800800C9028ACE04402F0A3E04402F0902851
:10D06800AEE04404F0000000000000E054FBF09043
:0DD0780028ACE04402F0A3E04402F0AF0950
:01D085002288
:01F2C2002229
:10F1E400E5E820E10343E80290284BE020E704E04F
:04F1F4004480F02241
:10EDD1007F7D7E281292F5EF54C7FF9000CA7428F8
:10EDE100F0A3747DF012C8D4902843E0547FF090D2
:06EDF10028AEE04408F02A
:01EDF70022F9
:06C836009007FF121BA792
:10C83C00E4FF90288474CCF0E4F0902885E0600A42
:10C84C000FEFD3940840F37F00229007FFA3A3A31C
:10C85C00E0FF902880EFF09007FFE0FCA3E0FDA341
:10C86C00E0FEA3E0FF7808121B35902881EFF090D2
:10C87C0007FFE0FCA3E0FDA3E0FEA3E0FF781012AD
:10C88C001B35902882EFF09007FFE0FCA3E0FDA39E
:10C89C00E0FEA3E0FF7818121B35902883EFF09090
:10C8AC000803E0FEA3E0F5828E83E4F0FF000FEFB7
:10C8BC00B408FAE4FF902885E0600A0FEFD39408DF
:07C8CC0040F37F00227F0111
:01C8D3002242
:06C1A3009007F1121BA73A
:10C1A900E4FB90288474CCF0E4F0902885E0600AE0
:10C1B9000BEBD3940840F37F00229007F1A3A3A3CC
:10C1C900E0FF902880EFF09007F1E0FCA3E0FDA3E9
:10C1D900E0FEA3E0FF7808121B35902881EFF0906C
:10C1E90007F1E0FCA3E0FDA3E0FEA3E0FF78101255
:10C1F9001B35902882EFF09007F1E0FCA3E0FDA346
:10C20900E0FEA3E0FF7818121B35902883EFF0D2E7
:10C219008720870C9007F7E004F0E0D3941E40F1E3
:10C229009007F5E0FEA3E0F5828E83E4F0FB000BB6
:10C23900EBB408FAE4FB902885E0600A0BEBD39491
:08C249000840F37F00227F0191
:01C2510022CA
:06C8D4009000C6121BA734
:10C8DA00E4FF90288474CCF0E4F0902885E0600AA4
:10C8EA000FEFD3940840F37F00229000C6A3A3A3BE
:10C8FA00E0FF902880EFF09000C6E0FCA3E0FDA3E3
:10C90A00E0FEA3E0FF7808121B35902881EFF09033
:10C91A0000C6E0FCA3E0FDA3E0FEA3E0FF7810124E
:10C92A001B35902882EFF09000C6E0FCA3E0FDA33F
:10C93A00E0FEA3E0FF7818121B35902883EFF090F1
:10C94A0000CAE0FEA3E0F5828E83E4F0FF000FEF59
:10C95A00B408FAE4FF902885E0600A0FEFD3940840
:07C96A0040F37F00227F0172
:01C9710022A3
:1092F50090288474CCF0E4F0F508902885E0600BA4
:109305000508E508D3940840F180248F828E83E018
:10931500F508E4F508000508E508B408F8E4F508DB
:10932500902885E0600F0508E508D3940840F1E42E
:10933500FFFEFDFC22902880E0FFE4FCFDFE90008E
:10934500C6121BA7902881E0FFE4FCFDFE780812F9
:109355001B489000CA121BA79000C6E0FCA3E0FDC5
:10936500A3E0FEA3E0FFA3E0F8A3E0F9A3E0FAA3DE
:10937500E0FBEF2BFFEE3AFEED39FDEC38FC9000FB
:10938500C6121BA7902882E0FFE4FCFDFE9000CAF0
:10939500121BA79000CAE0FCA3E0FDA3E0FEA3E03A
:1093A500FF7810121B489000CA121BA79000C6E058
:1093B500FCA3E0FDA3E0FEA3E0FFA3E0F8A3E0F932
:1093C500A3E0FAA3E0FBEF2BFFEE3AFEED39FDEC4F
:1093D50038FC9000C6121BA7902883E0FFE4FCFD33
:1093E500FE9000CA121BA79000CAE0FCA3E0FDA3F3
:1093F500E0FEA3E0FF7818121B489000CA121BA7D5
:109405009000C6E0FCA3E0FDA3E0FEA3E0FFA3E01F
:10941500F8A3E0F9A3E0FAA3E0FBEF2BFFEE3AFE99
:10942500ED39FDEC38FC9000C6121BA79000C6E094
:0A943500FCA3E0FDA3E0FEA3E0FFAE
:01943F00220A
:10BD710000000000000000000000000000000000C2
:10BD810000000000000000000000000000000000B2
:10BD9100000000003D99E1FB3DE6D2F937341C9FDC
:10BDA100392B0436392B04360000000009600000ED
:10BDB10027100461A83000927C000063B3ED3B7052
:10BDC100B76B3B70B76B0105BF10E80105CF10E9F8
:10BDD1000105C3287B0105D3287C0105C710ED01AE
:10BDE10005D710EE0105CB10EB0105DB10EC0105C9
:10BDF100DF10EA00927C0010F500927C0010FB1D20
:10BE01000004C3018530000000018600000000012C
:10BE110087811D2BA7012500000000018300000080
:09BE210000013200000000012CB8
:0791DC004405BB0000000088
:10EA08007B017A0579BF9001D674A5F0A3745AF0FA
:10EA18007D387C0012EC1E9005F7EEF0A3EFF07B3A
:10EA2800017A0579BF90017CE4F0A37438F0A374EF
:09EA380002F07FD87E00029A3D35
:10E777007B017A0579BF9001D674A5F0A3745AF08E
:10E787007D387C0012EC1E9005F7E06E7003A3E065
:10E797006F601A7B017A0579BF9001D6E4F0A37404
:0DE7A7003AF0A37402F07DD87C0012CE4A37
:01E7B4002242
:10666F009000C1121BB30000000012E7777B017A84
:10667F000079C59001D6E4F0A304F0A304F07DB92E
:10668F007C0012CE4A9000C5E09000CAB43C26743C
:10669F0010F0A374F4F07F6B7E2A7D707C0012C81B
:1066AF00D49000CA7410F0A374FAF07F6B7E2A7D29
:1066BF00707C0080247410F0A374F4F07F307EA8F7
:1066CF007D617C0412C8D49000CA7410F0A374FAD0
:1066DF00F07F307EA87D617C0412C8D4E49000B5B1
:1066EF00F09000B5E0FF75F006A424F8F582E434CD
:1066FF00BDF583E493FD7401939000BFCDF0A3ED3E
:10670F00F0EF75F006A424F4F582E434BDF583129E
:10671F001B879000BB121BA79000B1121BB3000088
:10672F0000009000BFE0FEA3E0FF1292F59000B1D1
:10673F00121BA79000BBE0FCA3E0FDA3E0FEA3E0CB
:10674F00FF9000B1E0F8A3E0F9A3E0FAA3E0FBC3E8
:10675F00121B2460349000BBE0FCA3E0FDA3E0FE1D
:10676F00A3E0FF9000B1121BA79000B1E0FCA3E0E3
:10677F00FDA3E0FEA3E0FF9000BFE0FBA3E09000CD
:10678F00CACBF0A3EBF012C8D49000B5E004F0E050
:10679F00C3940250030266F0E49000B5F09000B588
:1067AF00E0FF75F005A424CAF582E434BDF583E457
:1067BF0093FD7401939000B9CDF0A3EDF0EF75F058
:1067CF0005A424C7F582E434BDF583E493F974017D
:1067DF0093FA7402939000B6C9F0A3EAF0A3E9F01C
:1067EF009000B1121BB3000000009000B9E0FEA3AF
:1067FF00E0FF1292F59000B1121BA79000B9E0FED6
:10680F00A3E0FF647B7003EE6428600AEF647C7082
:10681F0003EE6428701B9000B6E0FBA3E0FAA3E040
:10682F00F9121B5B9000B4E06F605CE4FCFDFE802E
:10683F00309000B6E0FBA3E0FAA3E0F9121B5B90E7
:10684F0000B1E0F8A3E0F9A3E0FAA3E0FBC3121B49
:10685F002460349000B6E0FBA3E0FAA3E0F9121B2A
:10686F005B9000B1121BA79000B1E0FCA3E0FDA369
:10687F00E0FEA3E0FF9000B9E0FBA3E09000CACBDD
:10688F00F0A3EBF012C8D49000B5E004F0E0C3948D
:06689F000950030267AC82
:0168A50022D0
:0889390090076AEFF0A3EDF0D6
:1089410075CEA575CF5A0075CEA575CF5A00900783
:1089510075121BB300000000E49005F9F090077058
:10896100F090076AE0FF900770E0C39F4003028A1E
:108971007875CEA575CF5A0075CEA575CF5A0090E2
:1089810005F9E060FAE49005F9F075CEA575CF5AC6
:108991000075CEA575CF5A0090076BE070097FD2A4
:1089A1007E101292F5803AE4FB7D017F0B7E01126D
:1089B1000000BF013478797C077D017B017A007961
:1089C100007E007F0412182C7B017A0779797D04DF
:1089D10012C301900779E0FCA3E0FDA3E0FEA3E050
:1089E100FF90076C121BA78007900712E04410F05C
:1089F100E4FFFEFD7C8090076CE0F8A3E0F9A3E0C2
:108A0100FAA3E0FBC3121B24402490076CE0FCA3F3
:108A1100E0FDA3E0FEA3E0FF121AF3EF2401FFE45F
:108A21003EFEE43DFDE43CFC90076C121BA7900761
:108A31006CE0FCA3E0FDA3E0FEA3E0FF9007711250
:108A41001BA7900775E0FCA3E0FDA3E0FEA3E0FFF8
:108A5100900771E0F8A3E0F9A3E0FAA3E0FBEF2BA4
:108A6100FFEE3AFEED39FDEC38FCA3121BA790078F
:108A710070E004F002896290076AE0FBE4FAF9F819
:108A8100900775E0FCA3E0FDA3E0FEA3E0FF121A4E
:108A91006175CEA575CF5A0075CEA575CF5A000068
:018AA10022B2
:088AA20090077DEFF0A3EDF059
:108AAA0075CEA575CF5A0075CEA575CF5A00900719
:108ABA0088121BB300000000E49005F9F0900783C8
:108ACA00F090077DE0FF900783E0C39F4003028B8D
:108ADA00E175CEA575CF5A0075CEA575CF5A00900F
:108AEA0005F9E060FAE49005F9F075CEA575CF5A5C
:108AFA000075CEA575CF5A0090077EE070097FD425
:108B0A007E101292F5803AE4FB7D017F0E7E0112FF
:108B1A000000BF0134788C7C077D017B017A0079E3
:108B2A00007E007F0412182C7B017A07798C7D0461
:108B3A0012C30190078CE0FCA3E0FDA3E0FEA3E0D2
:108B4A00FF90077F121BA78007900712E04410F0DE
:108B5A00E4FFFEFD7C8090077FE0F8A3E0F9A3E044
:108B6A00FAA3E0FBC3121B24402490077FE0FCA376
:108B7A00E0FDA3E0FEA3E0FF121AF3EF2401FFE4F5
:108B8A003EFEE43DFDE43CFC90077F121BA79007E4
:108B9A007FE0FCA3E0FDA3E0FEA3E0FF90078412C0
:108BAA001BA7900788E0FCA3E0FDA3E0FEA3E0FF7B
:108BBA00900784E0F8A3E0F9A3E0FAA3E0FBEF2B27
:108BCA00FFEE3AFEED39FDEC38FCA3121BA7900725
:108BDA0083E004F0028ACB90077DE0FBE4FAF9F81F
:108BEA00900788E0FCA3E0FDA3E0FEA3E0FF121AD1
:108BFA006175CEA575CF5A0075CEA575CF5A0000FE
:018C0A002247
:10A90D009000B1E0FCA3E0FDA3E0FEA3E0FF90000A
:10A91D00C9121BA79000B9E0FCA3E0FDA3E0FEA3C4
:02A92D00E0FF49
:10A92F00E412161C9000CD121BA79000C9E0FCA3E7
:10A93F00E0FDA3E0FEA3E0FFE412161C9000D1128D
:10A94F001BA79000C9E0FCA3E0FDA3E0FEA3E0FF7E
:10A95F00E412161CA804A905AA06AB079000CDE0C7
:10A96F00FCA3E0FDA3E0FEA3E0FF1213149000D1BF
:10A97F00E0F8A3E0F9A3E0FAA3E0FB1215129000B0
:10A98F00D5121BA7E4FFFE7D807C3F9000D5E0F839
:10A99F00A3E0F9A3E0FAA3E0FB121318A804A9059A
:10A9AF00AA06AB07E4FFFE7D807C3F1215129000D4
:10A9BF00D9121BA7E4FFFE7D807CBF9000D9E0F881
:10A9CF00A3E0F9A3E0FAA3E0FB1213189000DD1245
:10A9DF001BA7E4FFFEFD7C4F9000DDE0F8A3E0F93C
:0FA9EF00A3E0FAA3E0FB12140912ACD112165A1E
:01A9FE002236
:06A322009000C5121BA70C
:10A32800E49000CFF07F32FEFDFC9000C9E0F8A376
:10A33800E0F9A3E0FAA3E0FBC3121B2450037F005B
:10A34800229000C5E0FCA3E0FDA3E0FEA3E0FFA38C
:10A35800E0F8A3E0F9A3E0FAA3E0FBD3121B244042
:10A368004D9000C5E0F8A3E0F9A3E0FAA3E0FBA351
:10A37800E0FCA3E0FDA3E0FEA3E09BFFEE9AFEED68
:10A3880099FDEC98FCE47BE87A03F9F81219D69069
:10A3980000C9E0F8A3E0F9A3E0FAA3E0FB121A6110
:10A3A8009000CDEEF0A3EFF0A37401F0804A900086
:10A3B800C9E0F8A3E0F9A3E0FAA3E0FB9000C5E048
:10A3C800FCA3E0FDA3E0FEA3E0C39BFFEE9AFEED35
:10A3D80099FDEC98FCE47BE87A03F9F81219D69019
:10A3E80000C9E0F8A3E0F9A3E0FAA3E0FB121A61C0
:10A3F8009000CDEEF0A3EFF09000CDE0FEA3E0FFDB
:10A408007C0B7DC3121CC6E47BD07A07F9F8121ABC
:0CA41800619000CFE0B40104EF4480FF2D
:01A424002215
:069FFA009007D6121BA720
:10A0000075CEA575CF5A0075CEA575CF5A009007AD
:10A01000DAE07040A3121BB3000000009007DBE001
:10A02000FCA3E0FDA3E0FEA3E0FF9000CA7410F0E3
:10A03000A374E9F012C8D49007DBE0FCA3E0FDA311
:10A04000E0FEA3E0FF9000CA7410F0A374EEF012DB
:10A05000C8D480469007DB121BB3000000009007B5
:10A06000DBE0FCA3E0FDA3E0FEA3E0FF90000074B2
:10A0700001F0A3742EF0E4A3F01200009007DBE0DF
:10A08000FCA3E0FDA3E0FEA3E0FF9000007401F05C
:10A09000A3742FF0E4A3F01200009007DAE0FD7F34
:10A0A00002128939C004C005C006C0079007D6E077
:10A0B000FCA3E0FDA3E0FEA3E0FF9000C9121BA7F4
:10A0C000D007D006D005D00412A92F9007DB121BB1
:10A0D000A775CEA575CF5A0075CEA575CF5A00903D
:10A0E00007DAE07011A3E0FCA3E0FDA3E0FEA3E02B
:10A0F000FF9005CF80119007DBE0FCA3E0FDA3E01B
:0AA10000FEA3E0FF9005BF121BA7AD
:01A10A002232
:06B670009007DF121BA78A
:10B67600C20575CEA575CF5A0075CEA575CF5A00F1
:10B686009007E4121BB3000000009007E3E0701B74
:10B69600A3E0FCA3E0FDA3E0FEA3E0FF9000CA74D4
:10B6A60010F0A374EEF012C8D4801E9007E4E0FCFC
:10B6B600A3E0FDA3E0FEA3E0FF9000007401F0A369
:10B6C600742FF0E4A3F01200009007E3E0FD7F037F
:10B6D600128939C004C005C006C0079007DFE0FC28
:10B6E600A3E0FDA3E0FEA3E0FF9000C9121BA7D0D4
:10B6F60007D006D005D00412A322E4FCFDFE900775
:10B70600E4121BA775CEA575CF5A0075CEA575CFC9
:10B716005A009007E3E07011A3E0FCA3E0FDA3E06C
:10B72600FEA3E0FF9005D780119007E4E0FCA3E0BC
:0DB73600FDA3E0FEA3E0FF9005C7121BA7D6
:01B7430022E3
:067420009007E8121BA713
:1074260075CEA575CF5A0075CEA575CF5A009007B3
:10743600ED121BB3000000009007ECE0701BA3E008
:10744600FCA3E0FDA3E0FEA3E0FF9000CA7428F0D1
:10745600A3747CF012C8D480169000007401F0A3C7
:107466007484F0E4A3F07FA9FE7D0BFC1200007586
:10747600CEA575CF5A0075CEA575CF5A00E49005F6
:10748600F9F09005F9E060FAE49005F9F09007EC60
:10749600E0FD7F02128939C004C005C006C007900E
:1074A60007E8E0FCA3E0FDA3E0FEA3E0FF9000C92F
:1074B600121BA7D007D006D005D00412A322E4FCE5
:1074C600FDFE9007ED121BA775CEA575CF5A007568
:1074D600CEA575CF5A009007ECE0700FA3E0FCA391
:1074E600E0FDA3E0FEA3E0FF0275EE9007EDA3A387
:1074F600A3E05480FFEF9007ED6066E0FCA3E0FD9B
:10750600A3E0FEA3E0547FFFEC9007ED121BA790CB
:1075160007EDE0FCA3E0FDA3E0FEA3E0FFE4121606
:107526001C7BCD7ACC798C783F12140912165A90AE
:1075360007ED121BA79007EDE0FCA3E0FDA3E0FE1C
:10754600A3E0FF7808121B489007ED121BA79007CF
:10755600EDE0FCA3E0FDA3E0FEA3E0FFED44048024
:107566004DE0FCA3E0FDA3E0FEA3E0FFE412161C41
:107576007BCD7ACC798C783F12140912165A900773
:10758600ED121BA79007EDE0FCA3E0FDA3E0FEA330
:10759600E0FF7808121B489007ED121BA79007ED35
:1075A600E0FCA3E0FDA3E0FEA3E0FFED54FBFDEC51
:1075B6009007ED121BA79005D3121BB3000B00A971
:1075C6009005D3E0FCA3E0FDA3E0FEA3E0FF900757
:1075D600EDE0F8A3E0F9A3E0FAA3E0FBEF4BFFEE42
:0E75E6004AFEED49FDEC48FC9005D3121BA7B0
:0175F4002274
:1080170090072FEEF0A3EFF0E024E8FF90072FE0A2
:108027003403AB07FA3395E0F9F8E4FFFEFD7C80F3
:10803700121A61900735121BA7900730E024E8FF5A
:1080470090072FE03403AB07FA3395E0F9F8E4FF24
:10805700FEFD7C80121A61AF03900731EAF0A3EFAF
:10806700F0900731E0FEA3E0FF7C037DE81218EEF5
:1080770090072FE0FAA3E0FB24E8FDEA3403FC12A3
:108087001900A3EEF0A3EFF0AF03AE02EE3395E0D5
:10809700FDFC900735E0F8A3E0F9A3E0FAA3E0FBC5
:1080A7001219D6C004A905AA06AB07900731E0FC50
:1080B700A3E0FD90072FE0FEA3E0FF1218EE7C037C
:1080C7007DE8121900E4FCFDD000EB2FFFEA3EFE2D
:1080D700ED39FDEC38FC900739121BA7900730E00B
:1080E70024E8FF90072FE03403AB07FA3395E0F954
:1080F700F890072BE0FCA3E0FDA3E0FEA3E0FF124E
:10810700E5EB90073D121BA7900730E024E8FF90AE
:10811700072FE03403AB07FA3395E0F9F890072B04
:10812700E0FCA3E0FDA3E0FEA3E0FF12E5EBAE0257
:10813700AF03900733EEF0A3EFF07C037DE812184E
:10814700EE900730E024E8FD90072FE03403FC129F
:108157001900900733EEF0A3EFF0E47FE87E03FD0C
:10816700FC90073DE0F8A3E0F9A3E0FAA3E0FB12D7
:1081770019D6A804A905AA06AB07900733E0FEA302
:10818700E0FFE4FCFDEB2FFFEA3EFEED39FDEC38A6
:10819700FC900739E0F8A3E0F9A3E0FAA3E0FBC3FA
:0C81A700EF9BFFEE9AFEED99FDEC98FCBA
:0181B30022A9
:10A624007FFD7E101292F5A804A905AA06AB07E4E3
:10A63400FFFE7D7DFC121A6190082AEEF0A3EFF074
:10A64400E4FCFD9005BBE0F8A3E0F9A3E0FAA3E085
:10A65400FBC3121B24700302A72090082AE0FAA36C
:10A66400E0FBFFAE02E4FCFD9005BB121BA7D3EB9D
:10A6740094F4EA9401400F90082BE0240CFF900816
:10A684002AE034FE801F90082AE0FEA3E0FFC39472
:10A69400F4EE94015057C374F49FFF74019EFEC3FB
:10A6A400E49FFFE49EFEEF25E0FFEE33FEC006C00C
:10A6B400079005BFE0FCA3E0FDA3E0FEA3E0FF904C
:10A6C400072B121BA7D007D0061280179005CF12B4
:10A6D4001BA79005CFE0FCA3E0FDA3E0FEA3E0FFF1
:10A6E4009000CA7410F0A374E9F002C8D49005BFB6
:10A6F400E0FCA3E0FDA3E0FEA3E0FF9000CA741019
:10A70400F0A374E9F012C8D49005BFE0FCA3E0FD07
:0CA71400A3E0FEA3E0FF9005CF121BA7FE
:01A720002216
:102DF200900670121BB30000000020AF030235CE14
:102E02009005FA7455F090BDBB121B8790067412A0
:102E12001BA7E47F19FEFDFC900674E0F8A3E0F91D
:102E2200A3E0FAA3E0FB1219D6E47B0AFAF9F8123E
:102E32001A6190067A121BA7E47F46FEFDFC9006FB
:102E420074E0F8A3E0F9A3E0FAA3E0FB1219D6E4D8
:102E52007B64FAF9F8121A6190067E121BA7E47FCE
:102E620023FEFDFC900674E0F8A3E0F9A3E0FAA3C8
:102E7200E0FB1219D6E47B64FAF9F8121A619006A3
:102E820082121BA7E47F03FEFDFC900674E0F8A308
:102E9200E0F9A3E0FAA3E0FB1219D6E47B64FAF9A5
:102EA200F8121A61900686121BA775CEA575CF5A25
:102EB2000075CEA575CF5A00E4FD7F0412893990C2
:102EC200068A121BA790067AE0FCA3E0FDA3E0FEAF
:102ED200A3E0FF90068AE0F8A3E0F9A3E0FAA3E0FA
:102EE200FBD3121B244008E4900678F0022F709066
:102EF200067EE0FCA3E0FDA3E0FEA3E0FF90068ACD
:102F0200E0F8A3E0F9A3E0FAA3E0FBD3121B24400C
:102F1200089006787401F08055900682E0FCA3E0E8
:102F2200FDA3E0FEA3E0FF90068AE0F8A3E0F9A388
:102F3200E0FAA3E0FBD3121B244008900678740247
:102F4200F0802B900686E0FCA3E0FDA3E0FEA3E068
:102F5200FFA3E0F8A3E0F9A3E0FAA3E0FBD3121B7E
:102F62002490067840057403F080037408F09006FC
:102F720078E070199005CF121BB300000000900595
:102F8200D3121BB3000000007FA01203AE9006789C
:102F9200E0640160030231BB900674E0FCA3E0FD33
:102FA200A3E0FEA3E0FFE49007DAF0129FFA900696
:102FB2006C121BB300000000E4900667F07F1E7ED7
:102FC2000012F1167FD57E101292F5900668121B40
:102FD200A7E4FFFEFD7C80900668E0F8A3E0F9A379
:102FE200E0FAA3E0FBC3121B244024900668E0FC35
:102FF200A3E0FDA3E0FEA3E0FF121AF3EF2401FF1A
:10300200E43EFEE43DFDE43CFC900668121BA79002
:10301200066CE0FCA3E0FDA3E0FEA3E0FF900668DF
:10302200E0F8A3E0F9A3E0FAA3E0FBEF2BFFEE3A0E
:10303200FEED39FDEC38FCA3121BA775CEA575CFAA
:103042005A0075CEA575CF5A00900667E004F0E0ED
:10305200C394085003022FBF90066CE0FCA3E0FD6E
:10306200A3E0FEA3E0FFE47B08FAF9F8121A6190EC
:10307200066C121BA790066CE0FCA3E0FDA3E0FE29
:10308200A3E0FFE412161CC004C005C006C00790EE
:10309200BDAF121B87E412161CD003D002D001D0A0
:1030A200001215129005F3121BA790066C121BB3A7
:1030B20000000000E4900667F07F1E7E0012F11609
:1030C2007FD37E101292F5900668121BA7E4FFFED2
:1030D200FD7C80900668E0F8A3E0F9A3E0FAA3E0A3
:1030E200FBC3121B244024900668E0FCA3E0FDA36E
:1030F200E0FEA3E0FF121AF3EF2401FFE43EFEE438
:103102003DFDE43CFC900668121BA790066CE0FCB7
:10311200A3E0FDA3E0FEA3E0FF900668E0F8A3E0D1
:10312200F9A3E0FAA3E0FBEF2BFFEE3AFEED39FD47
:10313200EC38FCA3121BA775CEA575CF5A0075CE2D
:10314200A575CF5A00900667E004F0E0C3940850DA
:10315200030230BB90066CE0FCA3E0FDA3E0FEA3FB
:10316200E0FFE47B08FAF9F8121A6190066C121B70
:10317200A790066CE0FCA3E0FDA3E0FEA3E0FFE461
:1031820012161CC004C005C006C00790BDAB121BBE
:1031920087E412161CD003D002D001D000121512FF
:1031A2009005EB121BA77FA11203AE75CEA575CFBA
:1031B2005A0075CEA575CF5A00900678E0B4023851
:1031C200900674E0FCA3E0FDA3E0FEA3E0FFE47B35
:1031D20002FAF9F8121A61900674121BA79006748B
:1031E200E0FCA3E0FDA3E0FEA3E0FFE49007ECF027
:1031F2001274207FA21203AE900678E0B4033890D6
:103202000674E0FCA3E0FDA3E0FEA3E0FFE47B1470
:10321200FAF9F8121A61900674121BA7900674E06C
:10322200FCA3E0FDA3E0FEA3E0FFE49007E3F012BD
:10323200B6707FA31203AE900679E0B4041990052C
:10324200CF121BB3000000009005D3121BB3000B7A
:1032520000A97FA41203AE900679E0640560030220
:1032620034DB9007DA04F07FED7EB37D637C0012DD
:103272009FFA90066C121BB300000000E4900667F0
:10328200F0E4FB7D017F0E7E01120000BF01347865
:103292008E7C067D017B017A0079007E007F04121C
:1032A200182C7B017A06798E7D0412C30190068E5A
:1032B200E0FCA3E0FDA3E0FEA3E0FF900668121B82
:1032C200A78007900712E04410F0E4FFFEFD7C8027
:1032D200900668E0F8A3E0F9A3E0FAA3E0FBC312CA
:1032E2001B244024900668E0FCA3E0FDA3E0FEA3BB
:1032F200E0FF121AF3EF2401FFE43EFEE43DFDE499
:103302003CFC900668121BA790066CE0FCA3E0FD53
:10331200A3E0FEA3E0FF900668E0F8A3E0F9A3E0D3
:10332200FAA3E0FBEF2BFFEE3AFEED39FDEC38FCA1
:10333200A3121BA775CEA575CF5A0075CEA575CF62
:103342005A00900667E004F0E0C39408500302328A
:103352008390066CE0FCA3E0FDA3E0FEA3E0FFE4A3
:103362007B08FAF9F8121A6190066C121BA79006F4
:103372006CE0FCA3E0FDA3E0FEA3E0FFE412161C58
:10338200C004C005C006C00790BDAF121B87E4127F
:10339200161CD003D002D001D0001215129005F3F2
:1033A200121BA790066C121BB300000000E49006EB
:1033B20067F0E4FB7D017F0D7E01120000BF013446
:1033C200788E7C067D017B017A0079007E007F0485
:1033D20012182C7B017A06798E7D0412C3019006A5
:1033E2008EE0FCA3E0FDA3E0FEA3E0FF90066812DE
:1033F2001BA78007900712E04410F0E4FFFEFD7C5B
:1034020080900668E0F8A3E0F9A3E0FAA3E0FBC32A
:10341200121B244024900668E0FCA3E0FDA3E0FE1A
:10342200A3E0FF121AF3EF2401FFE43EFEE43DFDA8
:10343200E43CFC900668121BA790066CE0FCA3E03B
:10344200FDA3E0FEA3E0FF900668E0F8A3E0F9A385
:10345200E0FAA3E0FBEF2BFFEE3AFEED39FDEC388C
:10346200FCA3121BA775CEA575CF5A0075CEA57504
:10347200CF5A00900667E004F0E0C39408500302BC
:1034820033B490066CE0FCA3E0FDA3E0FEA3E0FFF2
:10349200E47B08FAF9F8121A6190066C121BA790E5
:1034A200066CE0FCA3E0FDA3E0FEA3E0FFE412163D
:1034B2001CC004C005C006C00790BDAB121B87E448
:1034C20012161CD003D002D001D0001215129005A2
:1034D200EB121BA77FA51203AE900679E0B4063962
:1034E200900674E0FCA3E0FDA3E0FEA3E0FFE47B12
:1034F20002FAF9F8121A61900674121BA790067468
:10350200E0FCA3E0FDA3E0FEA3E0FF9007EC740162
:10351200F01274207FA61203AE900679E0B4073948
:10352200900674E0FCA3E0FDA3E0FEA3E0FFE47BD1
:1035320014FAF9F8121A61900674121BA790067415
:10354200E0FCA3E0FDA3E0FEA3E0FF9007E374012B
:10355200F012B6707FA71203AE900679E06408708D
:1035620052900678E06408704A12DCC775CEA575E1
:10357200CF5A0075CEA575CF5A0075CEA575CF5A14
:103582000075CEA575CF5A0012A10B900571E0759A
:10359200F00AA424B5F582E43405F583E4F0A3F03F
:1035A20075CEA575CF5A0075CEA575CF5A007FA8E6
:1035B2001203AE12EA0812666F75CEA575CF5A00D5
:0C35C20075CEA575CF5A00E49005FAF014
:0135CE0022DA
:0B524100900093EBF0A3EAF0A3E9F06B
:10524C00E49000A2F0900093E0FBA3E0FAA3E0F955
:10525C0090000D12186BFF12E9329000A3EFF09042
:10526C000093E0FBA3E0FAA3E0F990000E12186B98
:10527C00FF12E932EFC454F0FEC006900093E0FB3D
:10528C00A3E0FAA3E0F990000F12186BFF12E932B9
:10529C00D0E02F9000A4F0900093E0FBA3E0FAA3E1
:1052AC00E0F990001112186BFF12E932EFC454F0C0
:1052BC00FEC006900093E0FBA3E0FAA3E0F9900097
:1052CC001212186BFF12E932D0E02F9000A5F07B80
:1052DC00017A0079A212B8DB900096121BA7E49019
:1052EC0000A2F0900093E0FBA3E0FAA3E0F9900099
:1052FC001312186BFF12E9329000A3EFF090009399
:10530C00E0FBA3E0FAA3E0F990001412186BFF1273
:10531C00E932EFC454F0FEC006900093E0FBA3E02A
:10532C00FAA3E0F990001612186BFF12E932D0E0E4
:10533C002F9000A4F0900093E0FBA3E0FAA3E0F917
:10534C0090001712186BFF12E932EFC454F0FEC034
:10535C0006900093E0FBA3E0FAA3E0F9900018128A
:10536C00186BFF12E932D0E02F9000A5F07B017A88
:10537C000079A212B8DB90009A121BA7E49000A24D
:10538C00F0900093E0FBA3E0FAA3E0F9900019126F
:10539C00186BFF12E9329000A3EFF0900093E0FB42
:1053AC00A3E0FAA3E0F990001A12186BFF12E9328D
:1053BC00EFC454F0FEC006900093E0FBA3E0FAA308
:1053CC00E0F990001B12186BFF12E932D0E02F901D
:1053DC0000A4F0900093E0FBA3E0FAA3E0F99000A6
:1053EC001C12186BFF12E932EFC454F0FEC0069089
:1053FC000093E0FBA3E0FAA3E0F990001E12186BF7
:10540C00FF12E932D0E02F9000A5F07B017A0079F1
:10541C00A212B8DB90009E121BA7900093E0FBA396
:10542C00E0FAA3E0241FF9E43AFA9001DFEBF0A3D1
:10543C00EAF0A3E9F0A3E4F0A37406F07B017A0090
:10544C0079A612DFF5E49000ACF07B017A0079A626
:10545C0012E5149000AD121BA7900584E0FCA3E0AC
:10546C00FDA3E0FEA3E0FF121C8C549E0000FEB0D6
:10547C0054E40000FEB154F70000FEB2549E00004C
:10548C00FEB354E40000FEB454F70000FEB5000077
:10549C00551C9000ADE0FCA3E0FDA3E0FEA3E0FFF3
:1054AC0012958275CEA575CF5A0075CEA575CF5ABB
:1054BC0000900096E0FCA3E0FDA3E0FEA3E0FF90CB
:1054CC0000B5121BA790009AE0FCA3E0FDA3E0FE40
:1054DC00A3E0FF125A7280249000ADE0FCA3E0FD23
:1054EC00A3E0FEA3E0FF129DBD80119000ADE0FC97
:1054FC00A3E0FDA3E0FEA3E0FF127CCE12EA0812AB
:10550C00666F75CEA575CF5A0075CEA575CF5A00AE
:01551C00226C
:069582009000B1121BA7CE
:1095880075CEA575CF5A0075CEA575CF5A00E4FFE4
:10959800FEFDFC9000B1E0F8A3E0F9A3E0FAA3E037
:1095A800FB1215AFE4FFFE7DC87C429000B1E0F8E5
:1095B800A3E0F9A3E0FAA3E0FB1213187B007A50AA
:1095C80079C3784712140912165A9000B5121BA7CE
:1095D800E47FB37EFEFDFC900584E0F8A3E0F9A3E8
:1095E800E0FAA3E0FBC3121B2470517FE87E10123F
:1095F80092F59000B9121BA79000C9121BB30098EE
:1096080096809000B512A9249000B9121BA790006B
:10961800B9E0FCA3E0FDA3E0FEA3E0FF9000CA745C
:1096280010F0A374E8F012C8D49000B9E0FCA3E0ED
:10963800FDA3E0FEA3E0FF9005BF806AE47FB07E53
:10964800FEFDFC900584E0F8A3E0F9A3E0FAA3E0AE
:10965800FBC3121B2470527FE97E101292F5900012
:10966800B9121BA79000C9121BB3009896809000EE
:10967800B512A9249000B9121BA79000B9E0FCA369
:10968800E0FDA3E0FEA3E0FF9000CA7410F0A3740D
:10969800E9F012C8D49000B9E0FCA3E0FDA3E0FE15
:0996A800A3E0FF9005CF121BA7FF
:0196B1002296
:065A72009000B1121BA719
:105A7800E47FB07EFEFDFC900584E0F8A3E0F9A386
:105A8800E0FAA3E0FBC3121B246003025B917FD9F9
:105A98007E101292F59000B9121BA79000B9E0FC95
:105AA800A3E0FDA3E0FEA3E0FFE412161C9005EFBF
:105AB800E0F8A3E0F9A3E0FAA3E0FB121409121638
:105AC8005A9000B9121BA77FEB7E101292F5900036
:105AD800BD121BA7E4FFFEFDFC9000BDE0F8A3E0AB
:105AE800F9A3E0FAA3E0FBC3121B24701D12A90D51
:105AF8009000BD121BA79000BDE0FCA3E0FDA3E051
:105B0800FEA3E0FF9005CB121BA77FD87E10129250
:105B1800F59000B9121BA7E4FFFE7D207C4190059B
:105B2800EBE0F8A3E0F9A3E0FAA3E0FB121409C044
:105B380004C005C006C0079000B9E0FCA3E0FDA3BF
:105B4800E0FEA3E0FFE412161CD003D002D001D07F
:105B58000012140912165A9000B9121BA77FEA7E88
:105B6800101292F59000BD121BA7E4FFFEFDFC90F9
:105B780000BDE0F8A3E0F9A3E0FAA3E0FBC3121B21
:105B8800246003025CDF025CA4E47FB37EFEFDFCBC
:105B9800900584E0F8A3E0F9A3E0FAA3E0FBC312C0
:105BA8001B246003025CDF7FDA7E101292F59000FE
:105BB800B9121BA79000B9E0FCA3E0FDA3E0FEA387
:105BC800E0FFE412161C9005F3E0F8A3E0F9A3E067
:105BD800FAA3E0FB12140912165A9000B9121BA777
:105BE8007FEC7E101292F59000BD121BA7E4FFFE19
:105BF800FDFC9000BDE0F8A3E0F9A3E0FAA3E0FB08
:105C0800C3121B24701D12A90D9000BD121BA79072
:105C180000BDE0FCA3E0FDA3E0FEA3E0FF9005DBF0
:105C2800121BA77FD87E101292F59000B9121BA7FD
:105C3800E4FFFE7D207C419005EBE0F8A3E0F9A3AA
:105C4800E0FAA3E0FB121409C004C005C006C007AF
:105C58009000B9E0FCA3E0FDA3E0FEA3E0FFE4129E
:105C6800161CD003D002D001D00012140912165A03
:105C78009000B9121BA77FEA7E101292F59000BD22
:105C8800121BA7E4FFFEFDFC9000BDE0F8A3E0F9BD
:105C9800A3E0FAA3E0FBC3121B24703B9000B512EB
:105CA800A9109000BD121BA79000BDE0FCA3E0FD69
:105CB800A3E0FEA3E0FF9005DF121BA79000BDE064
:105CC800FCA3E0FDA3E0FEA3E0FF9000CA7410F07F
:075CD800A374EAF012C8D426
:015CDF0022A2
:069DBD009000B1121BA78B
:109DC300E4FFFEFDFC9000B1E0F8A3E0F9A3E0FAA4
:109DD300A3E0FB1215AFE4FFFE7DC87C429000B107
:109DE300E0F8A3E0F9A3E0FAA3E0FB1213187B0069
:109DF3007A5079C3784712140912165A9000B51293
:109E03001BA79000C9121BB3009896809000B5E081
:109E1300FCA3E0FDA3E0FEA3E0FF12A322E4FCFD0C
:109E2300FE9000B9121BA7E47FB47EFEFDFC9005F3
:109E330084E0F8A3E0F9A3E0FAA3E0FBC3121B2438
:109E4300703F9000B9E0FCA3E0FDA3E0FEA3E0FFB8
:109E53009005C3121BA77B017A0079BD9000B9E07E
:109E6300FCA3E0FDA3E0FEA3E0FF12BE2A9000C026
:109E7300E0FFE4FCFDFE9000CA7428F0A3747B802D
:109E830058E47FB17EFEFDFC900584E0F8A3E0F981
:109E9300A3E0FAA3E0FBC3121B2470419000B9E0D6
:109EA300FCA3E0FDA3E0FEA3E0FF9005D3121BA7F4
:109EB3007B017A0079C19000B9E0FCA3E0FDA3E047
:109EC300FEA3E0FF12BE2A9000C4E0FFE4FCFDFE07
:0D9ED3009000CA7428F0A3747CF012C8D46B
:019EE000225F
:067CCE009000B1121BA79B
:107CD400E47FB57EFEFDFC900584E0F8A3E0F9A303
:107CE400E0FAA3E0FBC3121B246003027DA47FD649
:107CF4007E101292F59000BE121BA79000BEE0FC0D
:107D0400A3E0FDA3E0FEA3E0FFEC12161C9000B17B
:107D1400E0F8A3E0F9A3E0FAA3E0FB121409E4FB02
:107D2400FA79C8784212151212165A9000BA121B28
:107D3400A7E49000B9F0FFFEFDFCA3E0F8A3E0F98E
:107D4400A3E0FAA3E0FBD3121B0E9000BAE0FCA35D
:107D5400E0FDA3E0FEA3E04003FF800F24FFFFEE5D
:107D640034FFFEED34FFFDEC34FFFC9000B5121B34
:107D7400A79000B5E0FCA3E0FDA3E0FEA3E0FF9024
:107D840000CA7410F0A374EDF012C8D49000B5E0EA
:107D9400FCA3E0FDA3E0FEA3E0FF9005C7027E7113
:107DA400E47FB27EFEFDFC900584E0F8A3E0F9A335
:107DB400E0FAA3E0FBC3121B246003027E747FD7A6
:107DC4007E101292F59000BE121BA79000BEE0FC3C
:107DD400A3E0FDA3E0FEA3E0FFEC12161C9000B1AB
:107DE400E0F8A3E0F9A3E0FAA3E0FB121409E4FB32
:107DF400FA79C8784212151212165A9000BA121B58
:107E0400A7E49000B9F0FFFEFDFCA3E0F8A3E0F9BD
:107E1400A3E0FAA3E0FBD3121B0E9000BAE0FCA38C
:107E2400E0FDA3E0FEA3E04003FF800F24FFFFEE8C
:107E340034FFFEED34FFFDEC34FFFC9000B5121B63
:107E4400A79000B5E0FCA3E0FDA3E0FEA3E0FF9053
:107E540000CA7410F0A374EEF012C8D49000B5E018
:107E6400FCA3E0FDA3E0FEA3E0FF9005D7121BA74F
:017E740022EB
:03F2B40002E777F7
:105CE000900000EFF0BF030C9028637480F0A3E4F1
:105CF000F0D28422C2849000CA7428F0A3747DF08C
:105D00007F007E007D007C0012C8D49000CA7428F9
:105D1000F0A37478F07F007E007D007C0012C8D470
:105D20009028637480F0A3E4F0900000E07023FFFB
:105D3000FE7D32FC12BF95902864E04407F090008D
:105D4000CA7410F0A374EFF07FBC7E747D937C88DE
:105D50008031900000E0FF64016004EFB402297F0D
:105D6000007E807D0C7C0012BF95902864E0440387
:105D7000F09000CA7410F0A374EFF07F9C7E3C7D1D
:105D80001D7C9112C8D4800312F20C9028587449DB
:105D9000F09000CA7410F0A374F4F07F307EA87DF8
:105DA000617C0412C8D49000CA7410F0A374FAF095
:105DB0007F107EC27DDE7C0612C8D49000CA7410AB
:105DC000F0A374F5F07F017E007D007C0012C8D442
:105DD0009000CA7410F0A374FBF07F017E007D0078
:105DE0007C0012C8D49000CA7428F0A37478F07FA5
:105DF000577E007D007C0012C8D49000CA7428F041
:105E0000A37479F07F007E007D007C0012C8D490DE
:105E100000CA7428F0A3747AF07F707E007D007C45
:105E20000012C8D49000CA7410F0A374F0F07F0080
:105E30007E007D007C0012C8D49000CA7410F0A3CC
:105E400074F1F07F007E007D007C0012C8D49000C9
:105E5000CA7410F0A374F2F07F007E007D007C0015
:105E600012C8D49000CA7410F0A374F3F07F007EBF
:105E7000007D007C0012C8D49000CA7410F0A37496
:105E8000F6F07F007E007D007C0012C8D49000CA2E
:105E90007410F0A374F7F07F007E007D007C001288
:105EA000C8D49000CA7410F0A374F8F07F007E008C
:105EB0007D007C0012C8D49000CA7410F0A374F95D
:105EC000F07F007E007D007C0012C8D49000CA7470
:105ED00028F0A3747DF07FDE7E007D007C0012C878
:105EE000D49000CA7428F0A3747BF07F007E007DFC
:105EF000007C0012C8D49000CA7428F0A3747CF00F
:105F00007F007E007D007C0012C8D49000CA7428F7
:105F1000F0A3747EF07F017E007D007C0012C8D467
:105F20009000CA7410F0A374FCF07F017E007D0025
:105F30007C0012C8D453A4DF43AD2043E80290286C
:0C5F40004BE04480F09008197403F0223C
:058EDB0090000CEFF017
:108EE0006401704E7FD37E101292F590000D121B1C
:108EF000A7E4FFFEFD7C8090000DE0F8A3E0F9A35D
:108F0000E0FAA3E0FBC3121B24402490000DE0FC18
:108F1000A3E0FDA3E0FEA3E0FF121AF3EF2401FF9C
:108F2000E43EFEE43DFDE43CFC90000D121BA70274
:108F30008FC390000CE064026003029005FB7D018A
:108F40007F1B7E01120000BF013478197C007D0177
:108F50007B017A0079007E007F0412182C7B017A55
:108F60000079197D0412C301900019E0FCA3E0FD13
:108F7000A3E0FEA3E0FF90000D121BA7800790075F
:108F800012E04410F0E4FFFEFD7C8090000DE0F85C
:108F9000A3E0F9A3E0FAA3E0FBC3121B2440249052
:108FA000000DE0FCA3E0FDA3E0FEA3E0FF121AF336
:108FB000EF2401FFE43EFEE43DFDE43CFC90000DA7
:108FC000121BA790000DE0FCA3E0FDA3E0FEA3E0D0
:108FD000FFE412161C9005EBE0F8A3E0F9A3E0FA19
:108FE000A3E0FB121409900015121BA7900015E0D6
:108FF000FCA3E0FDA3E0FEA3E0FF12165A900011CF
:10900000121BA7800A900011121BB300000000E49D
:109010007F32FEFDFC900011E0F8A3E0F9A3E0FA36
:10902000A3E0FBC3121B24500A900011121BB300D3
:10903000000000900011E0FCA3E0FDA3E0FEA3E02F
:01904000FF30
:01904100220C
:059B690090000CEFF07C
:109B6E006401704D7FD57E101292F590000D121B80
:109B7E00A7E4FFFEFD7C8090000DE0F8A3E0F9A3C2
:109B8E00E0FAA3E0FBC3121B24407C90000DE0FC26
:109B9E00A3E0FDA3E0FEA3E0FF121AF3EF2401FF02
:109BAE00E43EFEE43DFDE43CFC90000D121BA7805C
:109BBE005690000CE064026003029C577FD47E1026
:109BCE001292F590000D121BA7E4FFFEFD7C809013
:109BDE00000DE0F8A3E0F9A3E0FAA3E0FBC3121B2B
:109BEE0024402490000DE0FCA3E0FDA3E0FEA3E0E2
:109BFE00FF121AF3EF2401FFE43EFEE43DFDE43CC8
:109C0E00FC90000D121BA790000DE0FCA3E0FDA33D
:109C1E00E0FEA3E0FFE412161C9005F3E0F8A3E0CB
:109C2E00F9A3E0FAA3E0FB121409900015121BA78A
:109C3E00900015E0FCA3E0FDA3E0FEA3E0FF1216EA
:109C4E005A900011121BA7800A900011121BB3002C
:109C5E00000000E47F14FEFDFC900011E0F8A3E08C
:109C6E00F9A3E0FAA3E0FBC3121B24500A900011E3
:109C7E00121BB300000000900011E0FCA3E0FDA356
:059C8E00E0FEA3E0FF71
:019C930022AE
:056AB800900741EFF022
:106ABD006003026B447FD17E101292F59007421253
:106ACD001BA7E4FB7D017F197E01120000BF01347D
:106ADD0078527C077D017B017A0079007E007F046E
:106AED0012182C7B017A0779527D0412C30190078D
:106AFD0052E0FCA3E0FDA3E0FEA3E0FF90074612E9
:106B0D001BA78007900712E04410F0900746E0FCA9
:106B1D00A3E0FDA3E0FEA3E0FF900742E0F8A3E0B1
:106B2D00F9A3E0FAA3E02FFFEA3EFEE93DFDE83CC4
:106B3D00FC90074A121BA7900741E0B4012C7FD1AE
:106B4D007E101292F5900742121BA7E4FFFEFD7C0A
:106B5D0080900742E0F8A3E0F9A3E0FAA3E0FBC3BD
:106B6D00121B245003026C14806D900741E06402E7
:106B7D006003026C0AFB7D017F197E01120000BFCC
:106B8D00013478527C077D017B017A0079007E000B
:106B9D007F0412182C7B017A0779527D0412C301F0
:106BAD00900752E0FCA3E0FDA3E0FEA3E0FF9007F9
:106BBD0042121BA78007900712E04410F0E4FFFE7D
:106BCD00FD7C80900742E0F8A3E0F9A3E0FAA3E092
:106BDD00FBC3121B244030900742E0FCA3E0FDA351
:106BED00E0FEA3E0FF121AF3EF2401FFE43EFEE402
:106BFD003DFDE43CFC900742121BA7800A90074222
:106C0D00121BB300000000E47F867E19FDFC900787
:106C1D0042E0F8A3E0F9A3E0FAA3E0FBC3121B24C2
:106C2D00500C90074A121BB30000000080639007C0
:106C3D0041E0B4011FA3E0FCA3E0FDA3E0FEA3E04F
:106C4D00FFE412161C90BDBF121B9712140990077A
:106C5D004E121BA7900741E0B4021FA3E0FCA3E076
:106C6D00FDA3E0FEA3E0FFE412161C90BDBF121BB6
:106C7D009712140990074E121BA790074EE0FCA324
:106C8D00E0FDA3E0FEA3E0FF12165A90074A121B87
:0F6C9D00A790074AE0FCA3E0FDA3E0FEA3E0FF01
:016CAC0022C5
:05B2390090000CEFF095
:10B23E00BF01247FFD7E101292F590000D121BA708
:10B24E0090000DE0F8A3E0F9A3E0FAA3E0FBE4FF21
:10B25E00FE7DE27C04805D90000CE064027069FB70
:10B26E007D017F9A7E01120000EF64017051781506
:10B27E007C007D017B017A007900FE7F0412182C80
:10B28E007B017A0079157D0412C301900015E0FC54
:10B29E00A3E0FDA3E0FEA3E0FF90000D121BA7901C
:10B2AE00000DE0F8A3E0F9A3E0FAA3E0FBE4FFFE53
:10B2BE007D887C13121A61900011121BA7801390C7
:10B2CE000712E04410F0800A900011121BB3000028
:10B2DE000000900011E0FCA3E0FDA3E0FEA3E0FF60
:10B2EE00E412161C7B9A7A997999783F12140912F6
:10B2FE00165A900011121BA7900011E0FCA3E0FD5E
:06B30E00A3E0FEA3E0FF36
:01B314002216
:108C0B00900010121BB300000000900010E0F8A3BE
:108C1B00E0F9A3E0FAA3E0FBC000C001C002C0036F
:108C2B007FD17E101292F5D003D002D001D000EB91
:108C3B002FFFEA3EFEE93DFDE83CFC900010121BC5
:108C4B00A7900010E0F8A3E0F9A3E0FAA3E0FBC0C3
:108C5B0000C001C002C0037FD27E101292F5D00378
:108C6B00D002D001D000EB2FFFEA3EFEE93DFDE83C
:108C7B003CFC900010121BA7E4FFFEFD7C809000D3
:108C8B0010E0F8A3E0F9A3E0FAA3E0FBC3121B2466
:108C9B0090081AE0402954EFF0900010E0FCA3E09C
:108CAB00FDA3E0FEA3E0FF121AF3EF2401FFE43E65
:108CBB00FEE43DFDE43CFC900010121BA780034436
:108CCB0010F0900010E0FCA3E0FDA3E0FEA3E0FF9A
:108CDB0090000C121BA7E47F867E19FDFC90001000
:108CEB00E0F8A3E0F9A3E0FAA3E0FBC3121B2450C6
:108CFB001B90000C121BB300000000900010121B05
:108D0B00B30000000090081AE054EFF090000CE064
:108D1B00FCA3E0FDA3E0FEA3E0FFE47B02FAF9F87D
:108D2B00121A6190000C121BA790000CE0FCA3E040
:108D3B00FDA3E0FEA3E0FF9000CA7410F0A374FC47
:108D4B00F012C8D4900010E0FCA3E0FDA3E0FEA35A
:108D5B00E0FFE412161C90BDBF121B9712140912F0
:088D6B00165A9006A0021BA796
:103BD8009006E0121BB3000000009006DC121BB335
:103BE800000000009006E8121BB3000000007FD21E
:103BF8007E101292F59006E0121BA77FEE7E10123F
:103C080092F59006DC121BA7E4FB7D017F1A7E016A
:103C1800120000EF6401704578F07C067D017B019D
:103C28007A007900FE7F0412182C7B017A0679F05D
:103C38007D0412C3019006F0E0FCA3E0FDA3E0FEC2
:103C4800A3E0FFE412161C7BCB7AA179D5783F124A
:103C5800140912165A9006E8121BA780089007123A
:103C6800E04410F022E47F867E19FDFC9006E4E033
:103C7800F8A3E0F9A3E0FAA3E0FBD3121B24401B4E
:103C88007F7A7EE67DFF7CFF9006E4E0F8A3E0F90A
:103C9800A3E0FAA3E0FB121B24400A9006E4121BDF
:103CA800B300000000E47F867E19FDFC9006ECE07E
:103CB800F8A3E0F9A3E0FAA3E0FBD3121B24401B0E
:103CC8007F7A7EE67DFF7CFF9006ECE0F8A3E0F9C2
:103CD800A3E0FAA3E0FB121B24400A9006EC121B97
:103CE800B3000000009006E09006E890081AE03063
:103CF800E503023E1E30E3509006E8E0FCA3E0FD39
:103D0800A3E0FEA3E0FF121AF3EF2401FFE43EFE56
:103D1800E43DFDE43CFC9006E8121BA79006E0E0B9
:103D2800FCA3E0FDA3E0FEA3E0FF9006E8E0F8A313
:103D3800E0F9A3E0FAA3E02FFFEA3EFEE93DFDE843
:103D48003CFC9006F0023F619006E8E0FCA3E0FD31
:103D5800A3E0FEA3E0FF9006E0E0F8A3E0F9A3E00B
:103D6800FAA3E0FBC3121B2440509006E8E0F8A336
:103D7800E0F9A3E0FAA3E0FB9006E0E0FCA3E0FD95
:103D8800A3E0FEA3E09BFFEE9AFEED99FDEC98FC04
:103D98009006F0121BA79006E8E0FCA3E0FDA3E064
:103DA800FEA3E0FF121AF3EF2401FFE43EFEE43D18
:103DB800FDE43CFC9006E8023F619006E0E0F8A3D1
:103DC800E0F9A3E0FAA3E0FB9006E8E0FCA3E0FD3D
:103DD800A3E0FEA3E0C39BFFEE9AFEED99FDEC98ED
:103DE800FC9006F0121BA790071DE06455600302C3
:103DF8003F649006E8E0FCA3E0FDA3E0FEA3E0FF3B
:103E0800121AF3EF2401FFE43EFEE43DFDE43CFC1E
:103E18009006E8023F6190081AE020E303023EFFA3
:103E28009006E8E0FCA3E0FDA3E0FEA3E0FF900617
:103E3800E0E0F8A3E0F9A3E0FAA3E0FBC3121B2437
:103E480040659006E8E0F8A3E0F9A3E0FAA3E0FBF8
:103E58009006E0E0FCA3E0FDA3E0FEA3E09BFFEEFC
:103E68009AFEED99FDEC98FC9006F0121BA79007BE
:103E78001DE064559006E8600DE0FCA3E0FDA3E0BA
:103E8800FEA3E0FF801BE0FCA3E0FDA3E0FEA3E0AF
:103E9800FF121AF3EF2401FFE43EFEE43DFDE43C8B
:103EA800FC9006E8023F619006E0E0F8A3E0F9A381
:103EB800E0FAA3E0FB9006E8E0FCA3E0FDA3E0FE47
:103EC800A3E0C39BFFEE9AFEED99FDEC98FC9006EB
:103ED800F0121BA79006E8E0FCA3E0FDA3E0FEA318
:103EE800E0FF121AF3EF2401FFE43EFEE43DFDE497
:103EF8003CFC9006E880629006E8E0FCA3E0FDA3A5
:103F0800E0FEA3E0FF9006E0E0F8A3E0F9A3E0FA02
:103F1800A3E02FFFEA3EFEE93DFDE83CFC9006F0F9
:103F2800121BA790071DE064559006E8600DE0FCA1
:103F3800A3E0FDA3E0FEA3E0FF801BE0FCA3E0FDFF
:103F4800A3E0FEA3E0FF121AF3EF2401FFE43EFE14
:103F5800E43DFDE43CFC9006E8121BA79005BFE099
:103F6800FCA3E0FDA3E0FEA3E02400FFE43EFEE4A2
:103F78003DFDEC3480FCE412161CA804A905AA0631
:103F8800AB07E4FFFEFD7C4F1215129006F4121BDE
:103F9800A7E4FFFEFD7C809006E8E0F8A3E0F9A323
:103FA800E0FAA3E0FBD3121B249006E8E0FC406B88
:103FB800A3E0FDA3E0FEA3E0FF121AF3EF2401FF44
:103FC800E43EFEE43DFDE43CFC9006E8121BA790AD
:103FD80006E8E0FCA3E0FDA3E0FEA3E0FFE4121680
:103FE8001C9006F4E0F8A3E0F9A3E0FAA3E0FB12C2
:103FF800140912165A9006E8121BA79006E8E0FC6E
:10400800A3E0FDA3E0FEA3E0FF121AF3EF2401FFF3
:10401800E43EFEE43DFDE43CFC8021A3E0FDA3E09A
:10402800FEA3E0FFE412161C9006F4E0F8A3E0F902
:10403800A3E0FAA3E0FB12140912165A9006E8123C
:104048001BA79006E8E0FCA3E0FDA3E0FEA3E0FFC9
:104058009000CA7410F0A374EEF012C8D4E4FFFE06
:10406800FD7C809006E8E0F8A3E0F9A3E0FAA3E07D
:10407800FBD3121B2440249006E8E0FCA3E0FDA338
:10408800E0FEA3E0FF121AF3EF2401FFE43EFEE492
:104098003DFDE43CFC9006E8121BA7E4FFFEFD7C16
:1040A800809006E0E0F8A3E0F9A3E0FAA3E0FBD3F0
:1040B800121B2440249006E0E0FCA3E0FDA3E0FEF0
:1040C800A3E0FF121AF3EF2401FFE43EFEE43DFDF6
:1040D800E43CFC9006E0121BA7E4FFFEFD7C809008
:1040E80006F0E0F8A3E0F9A3E0FAA3E0FBD3121B83
:1040F8002440249006F0E0FCA3E0FDA3E0FEA3E04A
:10410800FF121AF3EF2401FFE43EFEE43DFDE43C18
:10411800FC9006F0121BA79006E0E0FCA3E0FDA3CC
:10412800E0FEA3E0FFE412161C90BDC3121B971219
:10413800140912165A9006A4121BA79006F0E0FC68
:10414800A3E0FDA3E0FEA3E0FFE412161C90BDC3AC
:10415800121B9712140912165A9006B8121BA79030
:1041680006E8E0FCA3E0FDA3E0FEA3E0FFE41216EE
:104178001C90BDC3121B9712140912165A9006CC34
:0D418800121BA79006E0121BB30000000000
:014195002207
:057B1F00900790EFF05B
:107B2400BF014B7FD27E101292F5900791121BA7D2
:107B3400E4FFFEFD7C80900791E0F8A3E0F9A3E068
:107B4400FAA3E0FBC3121B245003027C3590079177
:107B5400E0FCA3E0FDA3E0FEA3E0FF121AF3EF2490
:107B640001FFE43EFEE43DFDE43CFC027C2390077F
:107B740090E064026003027C2BFB7D017F1A7E018E
:107B8400120000BF0134789D7C077D017B017A00DF
:107B940079007E007F0412182C7B017A07799D7D81
:107BA4000412C30190079DE0FCA3E0FDA3E0FEA343
:107BB400E0FF900791121BA78007900712E0441082
:107BC400F0E4FFFEFD7C80900791E0F8A3E0F9A3C8
:107BD400E0FAA3E0FBC3121B244024900791E0FCCD
:107BE400A3E0FDA3E0FEA3E0FF121AF3EF2401FFDC
:107BF400E43EFEE43DFDE43CFC900791121BA7909B
:107C04000791E0FCA3E0FDA3E0FEA3E0FFE412166D
:107C14001C7BCB7AA179D5783F12140912165A909D
:107C24000791121BA7800A900791121BB300000052
:107C340000E47F867E19FDFC900791E0F8A3E0F94B
:107C4400A3E0FAA3E0FBC3121B24500C9007951287
:107C54001BB3000000008063900790E0B4011FA3F1
:107C6400E0FCA3E0FDA3E0FEA3E0FFE412161C90F9
:107C7400BDC3121B97121409900799121BA79007F2
:107C840090E0B4021FA3E0FCA3E0FDA3E0FEA3E0A8
:107C9400FFE412161C90BDC3121B9712140990071F
:107CA40099121BA7900799E0FCA3E0FDA3E0FEA3B3
:107CB400E0FF12165A900795121BA7900795E0FC57
:097CC400A3E0FDA3E0FEA3E0FF34
:017CCD002294
:10E6F70003E503E803EC03EF03D903DC03E003E3DB
:10E7070003D303D603D903DC03C603C903CC03CF62
:10E71700041004130416041904030407040A040D5F
:10E7270003FA03FD0400040303ED03F103F403F705
:10E83000EFB401089028637481F0800BEF640270DC
:10E840002A90286374A2F0902864E04408F0A3E0C2
:10E850004401F07F787E281292F5EF4418FF900073
:0BE86000CA7428F0A37478F012C8D42A
:01E86B00228A
:10ECD600902864E054F7F09028637480F0902865DB
:10ECE600E04401F07F787E281292F5EF54F7FF900A
:0CECF60000CA7428F0A37478F002C8D49F
:10E86C007F0212E8307F0A7E0012F1167FCE7E10F6
:10E87C001292F57810121B35EE30E70FEFF4FFEE25
:10E88C00F4FEEF2401FFE43EFE800F7C007D471276
:0BE89C001900EF24FBFFEE34FFFE002C
:01E8A700224E
:10EBED007F0112E8307F0A7E0012F1161200569056
:10EBFD00000D121BA7E4FFFE7D207C4190000DE06F
:10EC0D00F8A3E0F9A3E0FAA3E0FB12140912165AD7
:01EC1D0022D4
:100056009000127404F0A37420F0E4900011F09064
:100066000011E0FFC394035043EF75F018A4FF900E
:100076000013E02FFD900012E035F0FC7E007F14A7
:100086007B1512E9947B017A00791490003D743354
:10009600F07D137C0012EE1F900033EFF0900028E5
:1000A600E06F6008900011E004F080B37B017A00F5
:1000B60079147D0412C3017B017A0079187D04123C
:1000C600C3017B017A00791C7D0412C3017B017A8E
:1000D6000079207D0412C3017B017A0079247D0416
:1000E60012C3017FCE7E101292F57810121B359046
:1000F6000034121BA77E007F29902862E0543E241C
:10010600F7F582E434E6AD82FC7B0212E9949000B6
:1001160029E0FEA3E0FFE4FCFD900034E0F8A3E054
:10012600F9A3E0FAA3E0FB1219D6E47BE87A03F917
:10013600F8121A61900034121BA7900028E0FF9075
:100146000033E06F6032900014121BB30000466269
:10015600900018121BB30000000190001C121BB384
:100166000D5A4336900020121BB300001BB49000BA
:1001760024121BB30000000A900034E0FCA3E0FD4B
:10018600A3E0FEA3E0FF900020E0F8A3E0F9A3E0DF
:10019600FAA3E0FB1219D690001CE0F8A3E0F9A33D
:1001A600E0FAA3E02FFFEA3EFEE93DFDE83CFCE471
:1001B60012161C12C3B2C004C005C006C0079000C8
:1001C60018E0FCA3E0FDA3E0FEA3E0FFE412161C8A
:1001D600D003D002D001D000121409C004C005C05B
:1001E60006C007900014E0FCA3E0FDA3E0FEA3E038
:1001F600FFE412161CA804A905AA06AB07D007D06F
:1002060006D005D004121314C004C005C006C007EA
:10021600900024E0FCA3E0FDA3E0FEA3E0FFE412CF
:10022600161CA804A905AA06AB07D007D006D00558
:10023600D00412151290002F121BA79000127404FE
:10024600F0A37480F0E4900011F0900011E0FFC379
:1002560094035046EF75F004A4FF900013E02FFDC1
:10026600900012E035F0FC7E007F2B7B0412E994AF
:100276007B017A00792B90003D7433F07D027C007F
:1002860012EE1F90002DEFF0A3E0FF90002DE06F1F
:100296006008900011E004F080B090002EE0FF901E
:1002A600002DE06F6007E490002BF0A3F090002B88
:1002B600E030E75B90002BE0FEA3E0F4FFEEF4FEF7
:1002C600EF2401FFE43E90002BF0A3EFF090002F07
:1002D600E0FCA3E0FDA3E0FEA3E0FFC004C005C070
:1002E60006C00790002BE0FEA3E0FF7C007D0A120B
:1002F6001900AC06AD07E4121621A804A905AA0642
:10030600AB07D007D006D005D0041213148038905E
:10031600002FE0F8A3E0F9A3E0FAA3E0FBC000C0D9
:1003260001C002C00390002BE0FEA3E0FF7C007D2D
:100336000A121900AC06AD07E4121621D003D0024A
:10034600D001D00012131890002F121BA7E4FFFE55
:100356007DB47C4290002FE0F8A3E0F9A3E0FAA375
:10036600E0FB1215AF600E400C90002F121BB3423B
:10037600B400008024E4FFFE7D2C7CC290002FE0B8
:10038600F8A3E0F9A3E0FAA3E0FB1215AF500A9038
:10039600002F121BB3C22C000090002FE0FCA3E03C
:0703A600FDA3E0FEA3E0FF50
:0103AD00222D
:06AF9600900009121BA748
:10AF9C00E490000DF0C286C285902867E044C0F0B2
:10AFAC00A37420F0900009E0FCA3E0FDA3E0FEA355
:10AFBC00E0FF121C8CAFE9000C8000AFF10019000F
:10AFCC0000B00100320000B00900640000B01600AF
:10AFDC00C80000B028019000000000B03A9028672B
:10AFEC00E054FC800A902867E04401F0E054FDF046
:10AFFC00A3E4F0803C902867E054FE80069028671C
:10B00C00E04401F0E04402F08027902867E044011E
:10B01C00F0E04402F0A3E04440F08015902867E093
:10B02C004401F0E04402F0A3E044C0F0800312F2CB
:10B03C000CE5A320E00F90000DE004F0E0D3943277
:10B04C0040EF7F0022D280E490000DF020800F9022
:10B05C00000DE004F0E0D3943240F17F0022902800
:0EB06C005FE4F0A37403F0A3E04420F07F0142
:01B07A0022B3
:06BF9500900001121BA741
:10BF9B00E4900005F0C284902867E044C0F0900064
:10BFAB0001E0FCA3E0FDA3E0FEA3E0FF121C8CBFAD
:10BFBB00D600000000BFDB000C8000BFE8001900BA
:10BFCB0000BFFD003200000000C012D2847F0122AE
:10BFDB00902867E054F3F0E054CFF0802D90286761
:10BFEB00E04404F0E054F7F0E04410F0E054DFF0EC
:10BFFB008018902867E054FBF0E04408F0E054EF21
:10C00B00F0E04420F0800312F20CE5A320E00F9047
:10C01B000005E004F0E0D3943240EF7F0022D2879A
:10C02B00E4900005F020870F900005E004F0E0D3CA
:09C03B00943240F17F00227F01E4
:01C0440022D9
:10E21100C286C285902864E4F0902866F0900009D7
:10E22100F0900009E004F0E0B414F6D284E5A130E6
:10E23100E00312F20CC2802080FDE5A130E0031260
:10E24100F20CE4900009F0900009E004F0E0B4035E
:10E25100F6902867E4F0902867E070FAD2817F3267
:04E2610012F2650050
:01E265002296
:10D693009028ADE054FDF09028ACE054FDF09028C4
:10D6A300AEE04402F09028ACE054FBF0A3E054FB5E
:10D6B300F0A3E04404F0902820E4F0902828F090B0
:10D6C3002830F0902A05F0902864F0902866E04412
:10D6D30020F09000CA7428F0A3747DF07F007E00D0
:10D6E3007D007C0012C8D49000CA7428F0A374781B
:10D6F300F07F007E007D007C0012C8D4E4FF0FEFB2
:05D70300B414FBD28408
:01D7080022FE
:10D113009028A8E054F0F09028AAE054F0F075A409
:10D12300F275A50AE4F5A643A6049028B2E04402EA
:10D13300F09028B0E054FDF0A3E04401F09028B053
:10D14300E054FDF0A3E04401F09028C97402F0A379
:10D15300F09028B1E04410F09028B0E04410F09033
